{
  "contractName": "cryptoFont",
  "abi": [
    {
      "inputs": [
        {
          "internalType": "address",
          "name": "eBitcoinAddress",
          "type": "address"
        }
      ],
      "stateMutability": "nonpayable",
      "type": "constructor"
    },
    {
      "anonymous": false,
      "inputs": [
        {
          "indexed": true,
          "internalType": "address",
          "name": "owner",
          "type": "address"
        },
        {
          "indexed": true,
          "internalType": "address",
          "name": "approved",
          "type": "address"
        },
        {
          "indexed": true,
          "internalType": "uint256",
          "name": "tokenId",
          "type": "uint256"
        }
      ],
      "name": "Approval",
      "type": "event"
    },
    {
      "anonymous": false,
      "inputs": [
        {
          "indexed": true,
          "internalType": "address",
          "name": "owner",
          "type": "address"
        },
        {
          "indexed": true,
          "internalType": "address",
          "name": "operator",
          "type": "address"
        },
        {
          "indexed": false,
          "internalType": "bool",
          "name": "approved",
          "type": "bool"
        }
      ],
      "name": "ApprovalForAll",
      "type": "event"
    },
    {
      "anonymous": false,
      "inputs": [
        {
          "indexed": true,
          "internalType": "address",
          "name": "owner",
          "type": "address"
        },
        {
          "indexed": false,
          "internalType": "uint256",
          "name": "id",
          "type": "uint256"
        },
        {
          "indexed": false,
          "internalType": "uint256",
          "name": "dna",
          "type": "uint256"
        }
      ],
      "name": "NewcFont",
      "type": "event"
    },
    {
      "anonymous": false,
      "inputs": [
        {
          "indexed": true,
          "internalType": "address",
          "name": "previousOwner",
          "type": "address"
        },
        {
          "indexed": true,
          "internalType": "address",
          "name": "newOwner",
          "type": "address"
        }
      ],
      "name": "OwnershipTransferred",
      "type": "event"
    },
    {
      "anonymous": false,
      "inputs": [
        {
          "indexed": true,
          "internalType": "address",
          "name": "from",
          "type": "address"
        },
        {
          "indexed": true,
          "internalType": "address",
          "name": "to",
          "type": "address"
        },
        {
          "indexed": true,
          "internalType": "uint256",
          "name": "tokenId",
          "type": "uint256"
        }
      ],
      "name": "Transfer",
      "type": "event"
    },
    {
      "inputs": [
        {
          "internalType": "address",
          "name": "to",
          "type": "address"
        },
        {
          "internalType": "uint256",
          "name": "tokenId",
          "type": "uint256"
        }
      ],
      "name": "approve",
      "outputs": [],
      "stateMutability": "nonpayable",
      "type": "function"
    },
    {
      "inputs": [
        {
          "internalType": "address",
          "name": "owner",
          "type": "address"
        }
      ],
      "name": "balanceOf",
      "outputs": [
        {
          "internalType": "uint256",
          "name": "",
          "type": "uint256"
        }
      ],
      "stateMutability": "view",
      "type": "function"
    },
    {
      "inputs": [
        {
          "internalType": "uint256",
          "name": "",
          "type": "uint256"
        }
      ],
      "name": "cFonts",
      "outputs": [
        {
          "internalType": "string",
          "name": "name",
          "type": "string"
        },
        {
          "internalType": "uint256",
          "name": "id",
          "type": "uint256"
        },
        {
          "internalType": "uint256",
          "name": "dna",
          "type": "uint256"
        },
        {
          "internalType": "uint8",
          "name": "rarity",
          "type": "uint8"
        },
        {
          "internalType": "uint256",
          "name": "Stat",
          "type": "uint256"
        },
        {
          "internalType": "uint16",
          "name": "Power",
          "type": "uint16"
        },
        {
          "internalType": "uint8",
          "name": "Size",
          "type": "uint8"
        },
        {
          "internalType": "uint256",
          "name": "mintDate",
          "type": "uint256"
        },
        {
          "internalType": "bool",
          "name": "burn",
          "type": "bool"
        }
      ],
      "stateMutability": "view",
      "type": "function"
    },
    {
      "inputs": [],
      "name": "cost",
      "outputs": [
        {
          "internalType": "uint256",
          "name": "",
          "type": "uint256"
        }
      ],
      "stateMutability": "view",
      "type": "function"
    },
    {
      "inputs": [],
      "name": "distributedEthers",
      "outputs": [
        {
          "internalType": "uint256",
          "name": "",
          "type": "uint256"
        }
      ],
      "stateMutability": "view",
      "type": "function"
    },
    {
      "inputs": [],
      "name": "eBitcoin",
      "outputs": [
        {
          "internalType": "contract IERC20",
          "name": "",
          "type": "address"
        }
      ],
      "stateMutability": "view",
      "type": "function"
    },
    {
      "inputs": [],
      "name": "fee",
      "outputs": [
        {
          "internalType": "uint256",
          "name": "",
          "type": "uint256"
        }
      ],
      "stateMutability": "view",
      "type": "function"
    },
    {
      "inputs": [],
      "name": "feePool",
      "outputs": [
        {
          "internalType": "uint256",
          "name": "",
          "type": "uint256"
        }
      ],
      "stateMutability": "view",
      "type": "function"
    },
    {
      "inputs": [
        {
          "internalType": "uint256",
          "name": "tokenId",
          "type": "uint256"
        }
      ],
      "name": "getApproved",
      "outputs": [
        {
          "internalType": "address",
          "name": "",
          "type": "address"
        }
      ],
      "stateMutability": "view",
      "type": "function"
    },
    {
      "inputs": [
        {
          "internalType": "address",
          "name": "owner",
          "type": "address"
        },
        {
          "internalType": "address",
          "name": "operator",
          "type": "address"
        }
      ],
      "name": "isApprovedForAll",
      "outputs": [
        {
          "internalType": "bool",
          "name": "",
          "type": "bool"
        }
      ],
      "stateMutability": "view",
      "type": "function"
    },
    {
      "inputs": [],
      "name": "miningPool",
      "outputs": [
        {
          "internalType": "uint256",
          "name": "",
          "type": "uint256"
        }
      ],
      "stateMutability": "view",
      "type": "function"
    },
    {
      "inputs": [],
      "name": "name",
      "outputs": [
        {
          "internalType": "string",
          "name": "",
          "type": "string"
        }
      ],
      "stateMutability": "view",
      "type": "function"
    },
    {
      "inputs": [],
      "name": "owner",
      "outputs": [
        {
          "internalType": "address",
          "name": "",
          "type": "address"
        }
      ],
      "stateMutability": "view",
      "type": "function"
    },
    {
      "inputs": [
        {
          "internalType": "uint256",
          "name": "tokenId",
          "type": "uint256"
        }
      ],
      "name": "ownerOf",
      "outputs": [
        {
          "internalType": "address",
          "name": "",
          "type": "address"
        }
      ],
      "stateMutability": "view",
      "type": "function"
    },
    {
      "inputs": [],
      "name": "pastDistributedReward",
      "outputs": [
        {
          "internalType": "uint256",
          "name": "",
          "type": "uint256"
        }
      ],
      "stateMutability": "view",
      "type": "function"
    },
    {
      "inputs": [],
      "name": "renounceOwnership",
      "outputs": [],
      "stateMutability": "nonpayable",
      "type": "function"
    },
    {
      "inputs": [],
      "name": "rewardPool",
      "outputs": [
        {
          "internalType": "uint256",
          "name": "",
          "type": "uint256"
        }
      ],
      "stateMutability": "view",
      "type": "function"
    },
    {
      "inputs": [
        {
          "internalType": "address",
          "name": "from",
          "type": "address"
        },
        {
          "internalType": "address",
          "name": "to",
          "type": "address"
        },
        {
          "internalType": "uint256",
          "name": "tokenId",
          "type": "uint256"
        }
      ],
      "name": "safeTransferFrom",
      "outputs": [],
      "stateMutability": "nonpayable",
      "type": "function"
    },
    {
      "inputs": [
        {
          "internalType": "address",
          "name": "from",
          "type": "address"
        },
        {
          "internalType": "address",
          "name": "to",
          "type": "address"
        },
        {
          "internalType": "uint256",
          "name": "tokenId",
          "type": "uint256"
        },
        {
          "internalType": "bytes",
          "name": "_data",
          "type": "bytes"
        }
      ],
      "name": "safeTransferFrom",
      "outputs": [],
      "stateMutability": "nonpayable",
      "type": "function"
    },
    {
      "inputs": [
        {
          "internalType": "address",
          "name": "operator",
          "type": "address"
        },
        {
          "internalType": "bool",
          "name": "approved",
          "type": "bool"
        }
      ],
      "name": "setApprovalForAll",
      "outputs": [],
      "stateMutability": "nonpayable",
      "type": "function"
    },
    {
      "inputs": [
        {
          "internalType": "bytes4",
          "name": "interfaceId",
          "type": "bytes4"
        }
      ],
      "name": "supportsInterface",
      "outputs": [
        {
          "internalType": "bool",
          "name": "",
          "type": "bool"
        }
      ],
      "stateMutability": "view",
      "type": "function"
    },
    {
      "inputs": [],
      "name": "symbol",
      "outputs": [
        {
          "internalType": "string",
          "name": "",
          "type": "string"
        }
      ],
      "stateMutability": "view",
      "type": "function"
    },
    {
      "inputs": [
        {
          "internalType": "uint256",
          "name": "index",
          "type": "uint256"
        }
      ],
      "name": "tokenByIndex",
      "outputs": [
        {
          "internalType": "uint256",
          "name": "",
          "type": "uint256"
        }
      ],
      "stateMutability": "view",
      "type": "function"
    },
    {
      "inputs": [
        {
          "internalType": "address",
          "name": "owner",
          "type": "address"
        },
        {
          "internalType": "uint256",
          "name": "index",
          "type": "uint256"
        }
      ],
      "name": "tokenOfOwnerByIndex",
      "outputs": [
        {
          "internalType": "uint256",
          "name": "",
          "type": "uint256"
        }
      ],
      "stateMutability": "view",
      "type": "function"
    },
    {
      "inputs": [
        {
          "internalType": "uint256",
          "name": "",
          "type": "uint256"
        }
      ],
      "name": "tokenToEthers",
      "outputs": [
        {
          "internalType": "uint256",
          "name": "",
          "type": "uint256"
        }
      ],
      "stateMutability": "view",
      "type": "function"
    },
    {
      "inputs": [
        {
          "internalType": "uint256",
          "name": "",
          "type": "uint256"
        }
      ],
      "name": "tokenToReward",
      "outputs": [
        {
          "internalType": "uint256",
          "name": "",
          "type": "uint256"
        }
      ],
      "stateMutability": "view",
      "type": "function"
    },
    {
      "inputs": [
        {
          "internalType": "uint256",
          "name": "tokenId",
          "type": "uint256"
        }
      ],
      "name": "tokenURI",
      "outputs": [
        {
          "internalType": "string",
          "name": "",
          "type": "string"
        }
      ],
      "stateMutability": "view",
      "type": "function"
    },
    {
      "inputs": [],
      "name": "totalSupply",
      "outputs": [
        {
          "internalType": "uint256",
          "name": "",
          "type": "uint256"
        }
      ],
      "stateMutability": "view",
      "type": "function"
    },
    {
      "inputs": [
        {
          "internalType": "address",
          "name": "from",
          "type": "address"
        },
        {
          "internalType": "address",
          "name": "to",
          "type": "address"
        },
        {
          "internalType": "uint256",
          "name": "tokenId",
          "type": "uint256"
        }
      ],
      "name": "transferFrom",
      "outputs": [],
      "stateMutability": "nonpayable",
      "type": "function"
    },
    {
      "inputs": [
        {
          "internalType": "address",
          "name": "newOwner",
          "type": "address"
        }
      ],
      "name": "transferOwnership",
      "outputs": [],
      "stateMutability": "nonpayable",
      "type": "function"
    },
    {
      "stateMutability": "payable",
      "type": "receive"
    },
    {
      "inputs": [],
      "name": "createRandomcFont",
      "outputs": [],
      "stateMutability": "nonpayable",
      "type": "function"
    },
    {
      "inputs": [
        {
          "internalType": "uint256",
          "name": "id",
          "type": "uint256"
        }
      ],
      "name": "reverseSwap",
      "outputs": [],
      "stateMutability": "nonpayable",
      "type": "function"
    },
    {
      "inputs": [],
      "name": "getcFonts",
      "outputs": [
        {
          "components": [
            {
              "internalType": "string",
              "name": "name",
              "type": "string"
            },
            {
              "internalType": "uint256",
              "name": "id",
              "type": "uint256"
            },
            {
              "internalType": "uint256",
              "name": "dna",
              "type": "uint256"
            },
            {
              "internalType": "uint8",
              "name": "rarity",
              "type": "uint8"
            },
            {
              "internalType": "uint256",
              "name": "Stat",
              "type": "uint256"
            },
            {
              "internalType": "uint16",
              "name": "Power",
              "type": "uint16"
            },
            {
              "internalType": "uint8",
              "name": "Size",
              "type": "uint8"
            },
            {
              "internalType": "uint256",
              "name": "mintDate",
              "type": "uint256"
            },
            {
              "internalType": "bool",
              "name": "burn",
              "type": "bool"
            }
          ],
          "internalType": "struct cryptoFont.cFont[]",
          "name": "",
          "type": "tuple[]"
        }
      ],
      "stateMutability": "view",
      "type": "function"
    },
    {
      "inputs": [],
      "name": "countAllRarity",
      "outputs": [
        {
          "internalType": "uint256",
          "name": "",
          "type": "uint256"
        }
      ],
      "stateMutability": "view",
      "type": "function"
    },
    {
      "inputs": [],
      "name": "remainingEthers",
      "outputs": [
        {
          "internalType": "uint256",
          "name": "",
          "type": "uint256"
        }
      ],
      "stateMutability": "view",
      "type": "function"
    },
    {
      "inputs": [],
      "name": "DistributeReward",
      "outputs": [],
      "stateMutability": "nonpayable",
      "type": "function"
    },
    {
      "inputs": [],
      "name": "showEthers",
      "outputs": [
        {
          "internalType": "uint256",
          "name": "",
          "type": "uint256"
        }
      ],
      "stateMutability": "view",
      "type": "function"
    },
    {
      "inputs": [
        {
          "internalType": "uint256",
          "name": "id",
          "type": "uint256"
        }
      ],
      "name": "getEthers",
      "outputs": [],
      "stateMutability": "nonpayable",
      "type": "function"
    },
    {
      "inputs": [],
      "name": "getAllEthers",
      "outputs": [],
      "stateMutability": "nonpayable",
      "type": "function"
    },
    {
      "inputs": [],
      "name": "showReward",
      "outputs": [
        {
          "internalType": "uint256",
          "name": "",
          "type": "uint256"
        }
      ],
      "stateMutability": "view",
      "type": "function"
    },
    {
      "inputs": [
        {
          "internalType": "uint256",
          "name": "id",
          "type": "uint256"
        }
      ],
      "name": "getReward",
      "outputs": [],
      "stateMutability": "nonpayable",
      "type": "function"
    },
    {
      "inputs": [],
      "name": "getAllReward",
      "outputs": [],
      "stateMutability": "nonpayable",
      "type": "function"
    },
    {
      "inputs": [
        {
          "internalType": "string",
          "name": "name",
          "type": "string"
        },
        {
          "internalType": "uint256",
          "name": "id",
          "type": "uint256"
        }
      ],
      "name": "setName",
      "outputs": [],
      "stateMutability": "nonpayable",
      "type": "function"
    },
    {
      "inputs": [],
      "name": "getTimeRemain",
      "outputs": [
        {
          "internalType": "uint256",
          "name": "",
          "type": "uint256"
        }
      ],
      "stateMutability": "view",
      "type": "function"
    },
    {
      "inputs": [
        {
          "internalType": "address",
          "name": "_owner",
          "type": "address"
        }
      ],
      "name": "getIdsOfOwner",
      "outputs": [
        {
          "internalType": "uint256[]",
          "name": "",
          "type": "uint256[]"
        }
      ],
      "stateMutability": "view",
      "type": "function"
    }
  ],
  "bytecode": "0x60806040526000600b5568056bc75e2d63100000600d5560646014600d5462000029919062000331565b620000359190620003c1565b600e553480156200004557600080fd5b5060405162005a3c38038062005a3c83398181016040528101906200006b919062000463565b6040518060400160405280600b81526020017f43727970746f20466f6e740000000000000000000000000000000000000000008152506040518060400160405280600581526020017f63466f6e740000000000000000000000000000000000000000000000000000008152508160009080519060200190620000ef92919062000248565b5080600190805190602001906200010892919062000248565b5050506200012b6200011f6200017a60201b60201c565b6200018260201b60201c565b80600c60006101000a81548173ffffffffffffffffffffffffffffffffffffffff021916908373ffffffffffffffffffffffffffffffffffffffff1602179055504260128190555050620004fa565b600033905090565b6000600a60009054906101000a900473ffffffffffffffffffffffffffffffffffffffff16905081600a60006101000a81548173ffffffffffffffffffffffffffffffffffffffff021916908373ffffffffffffffffffffffffffffffffffffffff1602179055508173ffffffffffffffffffffffffffffffffffffffff168173ffffffffffffffffffffffffffffffffffffffff167f8be0079c531659141344cd1fd0a4f28419497f9722a3daafe3b4186f6b6457e060405160405180910390a35050565b8280546200025690620004c4565b90600052602060002090601f0160209004810192826200027a5760008555620002c6565b82601f106200029557805160ff1916838001178555620002c6565b82800160010185558215620002c6579182015b82811115620002c5578251825591602001919060010190620002a8565b5b509050620002d59190620002d9565b5090565b5b80821115620002f4576000816000905550600101620002da565b5090565b6000819050919050565b7f4e487b7100000000000000000000000000000000000000000000000000000000600052601160045260246000fd5b60006200033e82620002f8565b91506200034b83620002f8565b9250817fffffffffffffffffffffffffffffffffffffffffffffffffffffffffffffffff048311821515161562000387576200038662000302565b5b828202905092915050565b7f4e487b7100000000000000000000000000000000000000000000000000000000600052601260045260246000fd5b6000620003ce82620002f8565b9150620003db83620002f8565b925082620003ee57620003ed62000392565b5b828204905092915050565b600080fd5b600073ffffffffffffffffffffffffffffffffffffffff82169050919050565b60006200042b82620003fe565b9050919050565b6200043d816200041e565b81146200044957600080fd5b50565b6000815190506200045d8162000432565b92915050565b6000602082840312156200047c576200047b620003f9565b5b60006200048c848285016200044c565b91505092915050565b7f4e487b7100000000000000000000000000000000000000000000000000000000600052602260045260246000fd5b60006002820490506001821680620004dd57607f821691505b60208210811415620004f457620004f362000495565b5b50919050565b615532806200050a6000396000f3fe6080604052600436106102765760003560e01c8063715018a61161014f578063c87b56dd116100c1578063e79e0a221161007a578063e79e0a221461097d578063e985e9c5146109a6578063f204fce8146109e3578063f2fde38b14610a0e578063f56a29da14610a37578063f82c7ebc14610a4e5761027d565b8063c87b56dd1461087d578063d33c5957146108ba578063ddca3f43146108e5578063e0f8d98d14610910578063e1930a0f1461093b578063e4a2a742146109665761027d565b806395d89b411161011357806395d89b411461076d578063a22cb46514610798578063ab0ee2ac146107c1578063ae2e933b146107ec578063b88d4fde14610817578063c44bfb7d146108405761027d565b8063715018a61461069857806373397597146106af5780637feaaacc146106da5780638da5cb5b146107175780639268595f146107425761027d565b806337c1caf4116101e85780635069918f116101ac5780635069918f146105585780636352211e1461059d57806364b7710e146105da57806365f5eb301461060557806366666aa91461063057806370a082311461065b5761027d565b806337c1caf4146104895780633baa8170146104b25780633e6d4ec2146104db57806342842e0e146104f25780634f6ccce71461051b5761027d565b8063095ea7b31161023a578063095ea7b31461037b57806313faede6146103a457806318160ddd146103cf5780631c4b774b146103fa57806323b872dd146104235780632f745c591461044c5761027d565b806301ffc9a7146102825780630518afdc146102bf57806306fdde03146102fc578063081812fc146103275780630914e011146103645761027d565b3661027d57005b600080fd5b34801561028e57600080fd5b506102a960048036038101906102a49190613ac3565b610a79565b6040516102b69190613b0b565b60405180910390f35b3480156102cb57600080fd5b506102e660048036038101906102e19190613b5c565b610af3565b6040516102f39190613b98565b60405180910390f35b34801561030857600080fd5b50610311610b0b565b60405161031e9190613c4c565b60405180910390f35b34801561033357600080fd5b5061034e60048036038101906103499190613b5c565b610b9d565b60405161035b9190613caf565b60405180910390f35b34801561037057600080fd5b50610379610c22565b005b34801561038757600080fd5b506103a2600480360381019061039d9190613cf6565b610d3a565b005b3480156103b057600080fd5b506103b9610e52565b6040516103c69190613b98565b60405180910390f35b3480156103db57600080fd5b506103e4610e58565b6040516103f19190613b98565b60405180910390f35b34801561040657600080fd5b50610421600480360381019061041c9190613b5c565b610e65565b005b34801561042f57600080fd5b5061044a60048036038101906104459190613d36565b610f75565b005b34801561045857600080fd5b50610473600480360381019061046e9190613cf6565b610fd5565b6040516104809190613b98565b60405180910390f35b34801561049557600080fd5b506104b060048036038101906104ab9190613b5c565b61107a565b005b3480156104be57600080fd5b506104d960048036038101906104d49190613ebe565b6111b4565b005b3480156104e757600080fd5b506104f0611240565b005b3480156104fe57600080fd5b5061051960048036038101906105149190613d36565b6112fe565b005b34801561052757600080fd5b50610542600480360381019061053d9190613b5c565b61131e565b60405161054f9190613b98565b60405180910390f35b34801561056457600080fd5b5061057f600480360381019061057a9190613b5c565b61138f565b60405161059499989796959493929190613f53565b60405180910390f35b3480156105a957600080fd5b506105c460048036038101906105bf9190613b5c565b6114aa565b6040516105d19190613caf565b60405180910390f35b3480156105e657600080fd5b506105ef61155c565b6040516105fc9190613b98565b60405180910390f35b34801561061157600080fd5b5061061a611562565b60405161062791906141f4565b60405180910390f35b34801561063c57600080fd5b506106456116f1565b6040516106529190613b98565b60405180910390f35b34801561066757600080fd5b50610682600480360381019061067d9190614216565b6116f7565b60405161068f9190613b98565b60405180910390f35b3480156106a457600080fd5b506106ad6117af565b005b3480156106bb57600080fd5b506106c4611837565b6040516106d19190613b98565b60405180910390f35b3480156106e657600080fd5b5061070160048036038101906106fc9190614216565b61183d565b60405161070e91906142f2565b60405180910390f35b34801561072357600080fd5b5061072c6118ed565b6040516107399190613caf565b60405180910390f35b34801561074e57600080fd5b50610757611917565b6040516107649190613b98565b60405180910390f35b34801561077957600080fd5b5061078261192c565b60405161078f9190613c4c565b60405180910390f35b3480156107a457600080fd5b506107bf60048036038101906107ba9190614340565b6119be565b005b3480156107cd57600080fd5b506107d66119d4565b6040516107e39190613b98565b60405180910390f35b3480156107f857600080fd5b50610801611a33565b60405161080e9190613b98565b60405180910390f35b34801561082357600080fd5b5061083e60048036038101906108399190614421565b611a39565b005b34801561084c57600080fd5b5061086760048036038101906108629190613b5c565b611a9b565b6040516108749190613b98565b60405180910390f35b34801561088957600080fd5b506108a4600480360381019061089f9190613b5c565b611ab3565b6040516108b19190613c4c565b60405180910390f35b3480156108c657600080fd5b506108cf611b5a565b6040516108dc9190613b98565b60405180910390f35b3480156108f157600080fd5b506108fa611b7d565b6040516109079190613b98565b60405180910390f35b34801561091c57600080fd5b50610925611b83565b6040516109329190613b98565b60405180910390f35b34801561094757600080fd5b50610950611be2565b60405161095d9190614503565b60405180910390f35b34801561097257600080fd5b5061097b611c08565b005b34801561098957600080fd5b506109a4600480360381019061099f9190613b5c565b611d7b565b005b3480156109b257600080fd5b506109cd60048036038101906109c8919061451e565b611e31565b6040516109da9190613b0b565b60405180910390f35b3480156109ef57600080fd5b506109f8611ec5565b604051610a059190613b98565b60405180910390f35b348015610a1a57600080fd5b50610a356004803603810190610a309190614216565b611f0a565b005b348015610a4357600080fd5b50610a4c612002565b005b348015610a5a57600080fd5b50610a636121ed565b604051610a709190613b98565b60405180910390f35b60007f780e9d63000000000000000000000000000000000000000000000000000000007bffffffffffffffffffffffffffffffffffffffffffffffffffffffff1916827bffffffffffffffffffffffffffffffffffffffffffffffffffffffff19161480610aec5750610aeb826121f3565b5b9050919050565b60146020528060005260406000206000915090505481565b606060008054610b1a9061458d565b80601f0160208091040260200160405190810160405280929190818152602001828054610b469061458d565b8015610b935780601f10610b6857610100808354040283529160200191610b93565b820191906000526020600020905b815481529060010190602001808311610b7657829003601f168201915b5050505050905090565b6000610ba8826122d5565b610be7576040517f08c379a0000000000000000000000000000000000000000000000000000000008152600401610bde90614631565b60405180910390fd5b6004600083815260200190815260200160002060009054906101000a900473ffffffffffffffffffffffffffffffffffffffff169050919050565b6000805b610c2f336116f7565b811015610c955760146000610c443384610fd5565b81526020019081526020016000205482610c5e9190614680565b9150600060146000610c703385610fd5565b8152602001908152602001600020819055508080610c8d906146d6565b915050610c26565b50600c60009054906101000a900473ffffffffffffffffffffffffffffffffffffffff1673ffffffffffffffffffffffffffffffffffffffff1663a9059cbb33836040518363ffffffff1660e01b8152600401610cf392919061471f565b6020604051808303816000875af1158015610d12573d6000803e3d6000fd5b505050506040513d601f19601f82011682018060405250810190610d36919061475d565b5050565b6000610d45826114aa565b90508073ffffffffffffffffffffffffffffffffffffffff168373ffffffffffffffffffffffffffffffffffffffff161415610db6576040517f08c379a0000000000000000000000000000000000000000000000000000000008152600401610dad906147fc565b60405180910390fd5b8073ffffffffffffffffffffffffffffffffffffffff16610dd5612341565b73ffffffffffffffffffffffffffffffffffffffff161480610e045750610e0381610dfe612341565b611e31565b5b610e43576040517f08c379a0000000000000000000000000000000000000000000000000000000008152600401610e3a9061488e565b60405180910390fd5b610e4d8383612349565b505050565b600d5481565b6000600880549050905090565b610e6e816114aa565b73ffffffffffffffffffffffffffffffffffffffff163373ffffffffffffffffffffffffffffffffffffffff1614610ea557600080fd5b600c60009054906101000a900473ffffffffffffffffffffffffffffffffffffffff1673ffffffffffffffffffffffffffffffffffffffff1663a9059cbb3360146000858152602001908152602001600020546040518363ffffffff1660e01b8152600401610f1592919061471f565b6020604051808303816000875af1158015610f34573d6000803e3d6000fd5b505050506040513d601f19601f82011682018060405250810190610f58919061475d565b506000601460008381526020019081526020016000208190555050565b610f86610f80612341565b82612402565b610fc5576040517f08c379a0000000000000000000000000000000000000000000000000000000008152600401610fbc90614920565b60405180910390fd5b610fd08383836124e0565b505050565b6000610fe0836116f7565b8210611021576040517f08c379a0000000000000000000000000000000000000000000000000000000008152600401611018906149b2565b60405180910390fd5b600660008473ffffffffffffffffffffffffffffffffffffffff1673ffffffffffffffffffffffffffffffffffffffff168152602001908152602001600020600083815260200190815260200160002054905092915050565b3373ffffffffffffffffffffffffffffffffffffffff1661109a826114aa565b73ffffffffffffffffffffffffffffffffffffffff16146110ba57600080fd5b6110c38161273c565b600c60009054906101000a900473ffffffffffffffffffffffffffffffffffffffff1673ffffffffffffffffffffffffffffffffffffffff1663a9059cbb33600e54600d5461111291906149d2565b6040518363ffffffff1660e01b815260040161112f92919061471f565b6020604051808303816000875af115801561114e573d6000803e3d6000fd5b505050506040513d601f19601f82011682018060405250810190611172919061475d565b5060016016828154811061118957611188614a06565b5b906000526020600020906008020160070160006101000a81548160ff02191690831515021790555050565b3373ffffffffffffffffffffffffffffffffffffffff166111d4826114aa565b73ffffffffffffffffffffffffffffffffffffffff16146111f457600080fd5b600082511161120257600080fd5b816016828154811061121757611216614a06565b5b9060005260206000209060080201600001908051906020019061123b9291906139b4565b505050565b6000805b61124d336116f7565b8110156112b357601560006112623384610fd5565b8152602001908152602001600020548261127c9190614680565b915060006015600061128e3385610fd5565b81526020019081526020016000208190555080806112ab906146d6565b915050611244565b503373ffffffffffffffffffffffffffffffffffffffff166108fc829081150290604051600060405180830381858888f193505050501580156112fa573d6000803e3d6000fd5b5050565b61131983838360405180602001604052806000815250611a39565b505050565b6000611328610e58565b8210611369576040517f08c379a000000000000000000000000000000000000000000000000000000000815260040161136090614aa7565b60405180910390fd5b6008828154811061137d5761137c614a06565b5b90600052602060002001549050919050565b6016818154811061139f57600080fd5b90600052602060002090600802016000915090508060000180546113c29061458d565b80601f01602080910402602001604051908101604052809291908181526020018280546113ee9061458d565b801561143b5780601f106114105761010080835404028352916020019161143b565b820191906000526020600020905b81548152906001019060200180831161141e57829003601f168201915b5050505050908060010154908060020154908060030160009054906101000a900460ff16908060040154908060050160009054906101000a900461ffff16908060050160029054906101000a900460ff16908060060154908060070160009054906101000a900460ff16905089565b6000806002600084815260200190815260200160002060009054906101000a900473ffffffffffffffffffffffffffffffffffffffff169050600073ffffffffffffffffffffffffffffffffffffffff168173ffffffffffffffffffffffffffffffffffffffff161415611553576040517f08c379a000000000000000000000000000000000000000000000000000000000815260040161154a90614b39565b60405180910390fd5b80915050919050565b60125481565b60606016805480602002602001604051908101604052809291908181526020016000905b828210156116e85783829060005260206000209060080201604051806101200160405290816000820180546115ba9061458d565b80601f01602080910402602001604051908101604052809291908181526020018280546115e69061458d565b80156116335780601f1061160857610100808354040283529160200191611633565b820191906000526020600020905b81548152906001019060200180831161161657829003601f168201915b5050505050815260200160018201548152602001600282015481526020016003820160009054906101000a900460ff1660ff1660ff168152602001600482015481526020016005820160009054906101000a900461ffff1661ffff1661ffff1681526020016005820160029054906101000a900460ff1660ff1660ff168152602001600682015481526020016007820160009054906101000a900460ff16151515158152505081526020019060010190611586565b50505050905090565b60105481565b60008073ffffffffffffffffffffffffffffffffffffffff168273ffffffffffffffffffffffffffffffffffffffff161415611768576040517f08c379a000000000000000000000000000000000000000000000000000000000815260040161175f90614bcb565b60405180910390fd5b600360008373ffffffffffffffffffffffffffffffffffffffff1673ffffffffffffffffffffffffffffffffffffffff168152602001908152602001600020549050919050565b6117b7612341565b73ffffffffffffffffffffffffffffffffffffffff166117d56118ed565b73ffffffffffffffffffffffffffffffffffffffff161461182b576040517f08c379a000000000000000000000000000000000000000000000000000000000815260040161182290614c37565b60405180910390fd5b611835600061284d565b565b60115481565b6060600061184a836116f7565b67ffffffffffffffff81111561186357611862613d93565b5b6040519080825280602002602001820160405280156118915781602001602082028036833780820191505090505b50905060005b6118a0846116f7565b8110156118e3576118b18482610fd5565b8282815181106118c4576118c3614a06565b5b60200260200101818152505080806118db906146d6565b915050611897565b8192505050919050565b6000600a60009054906101000a900473ffffffffffffffffffffffffffffffffffffffff16905090565b60006013544761192791906149d2565b905090565b60606001805461193b9061458d565b80601f01602080910402602001604051908101604052809291908181526020018280546119679061458d565b80156119b45780601f10611989576101008083540402835291602001916119b4565b820191906000526020600020905b81548152906001019060200180831161199757829003601f168201915b5050505050905090565b6119d06119c9612341565b8383612913565b5050565b6000806000905060005b6119e7336116f7565b811015611a2b57601460006119fc3384610fd5565b81526020019081526020016000205482611a169190614680565b91508080611a23906146d6565b9150506119de565b508091505090565b600f5481565b611a4a611a44612341565b83612402565b611a89576040517f08c379a0000000000000000000000000000000000000000000000000000000008152600401611a8090614920565b60405180910390fd5b611a9584848484612a80565b50505050565b60156020528060005260406000206000915090505481565b6060611abe826122d5565b611afd576040517f08c379a0000000000000000000000000000000000000000000000000000000008152600401611af490614cc9565b60405180910390fd5b6000611b07612adc565b90506000815111611b275760405180602001604052806000815250611b52565b80611b3184612af3565b604051602001611b42929190614d25565b6040516020818303038152906040525b915050919050565b60004262093a80601254611b6e9190614680565b611b7891906149d2565b905090565b600e5481565b6000806000905060005b611b96336116f7565b811015611bda5760156000611bab3384610fd5565b81526020019081526020016000205482611bc59190614680565b91508080611bd2906146d6565b915050611b8d565b508091505090565b600c60009054906101000a900473ffffffffffffffffffffffffffffffffffffffff1681565b6012544211611c1657600080fd5b6000600f549050600f546011541115611c5957600f5481611c379190614680565b9050600f5460116000828254611c4d91906149d2565b92505081905550611c72565b60115481611c679190614680565b905060006011819055505b60008190506000611c81611ec5565b905060008183611c919190614d78565b9050600082611c9e611917565b611ca89190614d78565b905060005b600b54811015611d4457611cc081612c54565b83611ccb9190614da9565b601460008381526020019081526020016000206000828254611ced9190614680565b92505081905550611cfd81612c54565b82611d089190614da9565b601560008381526020019081526020016000206000828254611d2a9190614680565b925050819055508080611d3c906146d6565b915050611cad565b611d4c611917565b60136000828254611d5d9190614680565b925050819055506000600f8190555042601281905550505050505050565b611d84816114aa565b73ffffffffffffffffffffffffffffffffffffffff163373ffffffffffffffffffffffffffffffffffffffff1614611dbb57600080fd5b3373ffffffffffffffffffffffffffffffffffffffff166108fc60156000848152602001908152602001600020549081150290604051600060405180830381858888f19350505050158015611e14573d6000803e3d6000fd5b506000601560008381526020019081526020016000208190555050565b6000600560008473ffffffffffffffffffffffffffffffffffffffff1673ffffffffffffffffffffffffffffffffffffffff16815260200190815260200160002060008373ffffffffffffffffffffffffffffffffffffffff1673ffffffffffffffffffffffffffffffffffffffff16815260200190815260200160002060009054906101000a900460ff16905092915050565b6000806000905060005b600b54811015611f0257611ee281612c54565b82611eed9190614680565b91508080611efa906146d6565b915050611ecf565b819250505090565b611f12612341565b73ffffffffffffffffffffffffffffffffffffffff16611f306118ed565b73ffffffffffffffffffffffffffffffffffffffff1614611f86576040517f08c379a0000000000000000000000000000000000000000000000000000000008152600401611f7d90614c37565b60405180910390fd5b600073ffffffffffffffffffffffffffffffffffffffff168173ffffffffffffffffffffffffffffffffffffffff161415611ff6576040517f08c379a0000000000000000000000000000000000000000000000000000000008152600401611fed90614e75565b60405180910390fd5b611fff8161284d565b50565b600d54600c60009054906101000a900473ffffffffffffffffffffffffffffffffffffffff1673ffffffffffffffffffffffffffffffffffffffff166370a08231336040518263ffffffff1660e01b81526004016120609190613caf565b602060405180830381865afa15801561207d573d6000803e3d6000fd5b505050506040513d601f19601f820116820180604052508101906120a19190614eaa565b10156120ac57600080fd5b600c60009054906101000a900473ffffffffffffffffffffffffffffffffffffffff1673ffffffffffffffffffffffffffffffffffffffff166323b872dd3330600d546040518463ffffffff1660e01b815260040161210d93929190614ed7565b6020604051808303816000875af115801561212c573d6000803e3d6000fd5b505050506040513d601f19601f82011682018060405250810190612150919061475d565b50600e54600d5461216191906149d2565b601060008282546121729190614680565b92505081905550600e54600f600082825461218d9190614680565b9250508190555060006121df6040518060400160405280600781526020017f63466f6e742023000000000000000000000000000000000000000000000000008152506121da600b54612cd4565b612e3b565b90506121ea81612e67565b50565b60135481565b60007f80ac58cd000000000000000000000000000000000000000000000000000000007bffffffffffffffffffffffffffffffffffffffffffffffffffffffff1916827bffffffffffffffffffffffffffffffffffffffffffffffffffffffff191614806122be57507f5b5e139f000000000000000000000000000000000000000000000000000000007bffffffffffffffffffffffffffffffffffffffffffffffffffffffff1916827bffffffffffffffffffffffffffffffffffffffffffffffffffffffff1916145b806122ce57506122cd82613104565b5b9050919050565b60008073ffffffffffffffffffffffffffffffffffffffff166002600084815260200190815260200160002060009054906101000a900473ffffffffffffffffffffffffffffffffffffffff1673ffffffffffffffffffffffffffffffffffffffff1614159050919050565b600033905090565b816004600083815260200190815260200160002060006101000a81548173ffffffffffffffffffffffffffffffffffffffff021916908373ffffffffffffffffffffffffffffffffffffffff160217905550808273ffffffffffffffffffffffffffffffffffffffff166123bc836114aa565b73ffffffffffffffffffffffffffffffffffffffff167f8c5be1e5ebec7d5bd14f71427d1e84f3dd0314c0f7b2291e5b200ac8c7c3b92560405160405180910390a45050565b600061240d826122d5565b61244c576040517f08c379a000000000000000000000000000000000000000000000000000000000815260040161244390614f80565b60405180910390fd5b6000612457836114aa565b90508073ffffffffffffffffffffffffffffffffffffffff168473ffffffffffffffffffffffffffffffffffffffff1614806124c657508373ffffffffffffffffffffffffffffffffffffffff166124ae84610b9d565b73ffffffffffffffffffffffffffffffffffffffff16145b806124d757506124d68185611e31565b5b91505092915050565b8273ffffffffffffffffffffffffffffffffffffffff16612500826114aa565b73ffffffffffffffffffffffffffffffffffffffff1614612556576040517f08c379a000000000000000000000000000000000000000000000000000000000815260040161254d90615012565b60405180910390fd5b600073ffffffffffffffffffffffffffffffffffffffff168273ffffffffffffffffffffffffffffffffffffffff1614156125c6576040517f08c379a00000000000000000000000000000000000000000000000000000000081526004016125bd906150a4565b60405180910390fd5b6125d183838361316e565b6125dc600082612349565b6001600360008573ffffffffffffffffffffffffffffffffffffffff1673ffffffffffffffffffffffffffffffffffffffff168152602001908152602001600020600082825461262c91906149d2565b925050819055506001600360008473ffffffffffffffffffffffffffffffffffffffff1673ffffffffffffffffffffffffffffffffffffffff16815260200190815260200160002060008282546126839190614680565b92505081905550816002600083815260200190815260200160002060006101000a81548173ffffffffffffffffffffffffffffffffffffffff021916908373ffffffffffffffffffffffffffffffffffffffff160217905550808273ffffffffffffffffffffffffffffffffffffffff168473ffffffffffffffffffffffffffffffffffffffff167fddf252ad1be2c89b69c2b068fc378daa952ba7f163c4a11628f55a4df523b3ef60405160405180910390a4505050565b6000612747826114aa565b90506127558160008461316e565b612760600083612349565b6001600360008373ffffffffffffffffffffffffffffffffffffffff1673ffffffffffffffffffffffffffffffffffffffff16815260200190815260200160002060008282546127b091906149d2565b925050819055506002600083815260200190815260200160002060006101000a81549073ffffffffffffffffffffffffffffffffffffffff021916905581600073ffffffffffffffffffffffffffffffffffffffff168273ffffffffffffffffffffffffffffffffffffffff167fddf252ad1be2c89b69c2b068fc378daa952ba7f163c4a11628f55a4df523b3ef60405160405180910390a45050565b6000600a60009054906101000a900473ffffffffffffffffffffffffffffffffffffffff16905081600a60006101000a81548173ffffffffffffffffffffffffffffffffffffffff021916908373ffffffffffffffffffffffffffffffffffffffff1602179055508173ffffffffffffffffffffffffffffffffffffffff168173ffffffffffffffffffffffffffffffffffffffff167f8be0079c531659141344cd1fd0a4f28419497f9722a3daafe3b4186f6b6457e060405160405180910390a35050565b8173ffffffffffffffffffffffffffffffffffffffff168373ffffffffffffffffffffffffffffffffffffffff161415612982576040517f08c379a000000000000000000000000000000000000000000000000000000000815260040161297990615110565b60405180910390fd5b80600560008573ffffffffffffffffffffffffffffffffffffffff1673ffffffffffffffffffffffffffffffffffffffff16815260200190815260200160002060008473ffffffffffffffffffffffffffffffffffffffff1673ffffffffffffffffffffffffffffffffffffffff16815260200190815260200160002060006101000a81548160ff0219169083151502179055508173ffffffffffffffffffffffffffffffffffffffff168373ffffffffffffffffffffffffffffffffffffffff167f17307eab39ab6107e8899845ad3d59bd9653f200f220920489ca2b5937696c3183604051612a739190613b0b565b60405180910390a3505050565b612a8b8484846124e0565b612a9784848484613282565b612ad6576040517f08c379a0000000000000000000000000000000000000000000000000000000008152600401612acd906151a2565b60405180910390fd5b50505050565b606060405180602001604052806000815250905090565b60606000821415612b3b576040518060400160405280600181526020017f30000000000000000000000000000000000000000000000000000000000000008152509050612c4f565b600082905060005b60008214612b6d578080612b56906146d6565b915050600a82612b669190614d78565b9150612b43565b60008167ffffffffffffffff811115612b8957612b88613d93565b5b6040519080825280601f01601f191660200182016040528015612bbb5781602001600182028036833780820191505090505b5090505b60008514612c4857600182612bd491906149d2565b9150600a85612be391906151c2565b6030612bef9190614680565b60f81b818381518110612c0557612c04614a06565b5b60200101907effffffffffffffffffffffffffffffffffffffffffffffffffffffffffffff1916908160001a905350600a85612c419190614d78565b9450612bbf565b8093505050505b919050565b6000806000905060168381548110612c6f57612c6e614a06565b5b906000526020600020906008020160070160009054906101000a900460ff16612ccb5760168381548110612ca657612ca5614a06565b5b906000526020600020906008020160030160009054906101000a900460ff1660ff1690505b80915050919050565b60606000821415612d1c576040518060400160405280600181526020017f30000000000000000000000000000000000000000000000000000000000000008152509050612e36565b600082905060005b60008214612d4e578080612d37906146d6565b915050600a82612d479190614d78565b9150612d24565b60008167ffffffffffffffff811115612d6a57612d69613d93565b5b6040519080825280601f01601f191660200182016040528015612d9c5781602001600182028036833780820191505090505b50905060008290508593505b60008414612e2e57600a84612dbd91906151c2565b6030612dc99190614680565b60f81b8282612dd7906151f3565b92508281518110612deb57612dea614a06565b5b60200101907effffffffffffffffffffffffffffffffffffffffffffffffffffffffffffff1916908160001a905350600a84612e279190614d78565b9350612da8565b819450505050505b919050565b60608282604051602001612e50929190614d25565b604051602081830303815290604052905092915050565b60006001612e75606461340a565b612e7f919061521d565b90506000612e93662386f26fc1000061340a565b90506000612ea7662386f26fc1000061340a565b905060006001612eb861271061340a565b612ec29190614680565b90506000600a612ed2608c61340a565b612edc9190614680565b9050600060019050600042905060298760ff161015612f1c5760029150600b8760ff161015612f1b576003915060028260ff161015612f1a57600491505b5b5b60006040518061012001604052808a8152602001600b5481526020018881526020018460ff1681526020018781526020018661ffff1681526020018560ff16815260200183815260200160001515815250905060168190806001815401808255809150506001900390600052602060002090600802016000909190919091506000820151816000019080519060200190612fb79291906139b4565b50602082015181600101556040820151816002015560608201518160030160006101000a81548160ff021916908360ff1602179055506080820151816004015560a08201518160050160006101000a81548161ffff021916908361ffff16021790555060c08201518160050160026101000a81548160ff021916908360ff16021790555060e082015181600601556101008201518160070160006101000a81548160ff0219169083151502179055505050600060146000600b5481526020019081526020016000208190555061308f33600b5461344f565b3373ffffffffffffffffffffffffffffffffffffffff167fe6b5d2375ea5860192277472eed072ebc6805abc7699b637dfe1e4806126208a600b54896040516130d9929190615254565b60405180910390a2600b60008154809291906130f4906146d6565b9190505550505050505050505050565b60007f01ffc9a7000000000000000000000000000000000000000000000000000000007bffffffffffffffffffffffffffffffffffffffffffffffffffffffff1916827bffffffffffffffffffffffffffffffffffffffffffffffffffffffff1916149050919050565b61317983838361346d565b600073ffffffffffffffffffffffffffffffffffffffff168373ffffffffffffffffffffffffffffffffffffffff1614156131bc576131b781613472565b6131fb565b8173ffffffffffffffffffffffffffffffffffffffff168373ffffffffffffffffffffffffffffffffffffffff16146131fa576131f983826134bb565b5b5b600073ffffffffffffffffffffffffffffffffffffffff168273ffffffffffffffffffffffffffffffffffffffff16141561323e5761323981613628565b61327d565b8273ffffffffffffffffffffffffffffffffffffffff168273ffffffffffffffffffffffffffffffffffffffff161461327c5761327b82826136f9565b5b5b505050565b60006132a38473ffffffffffffffffffffffffffffffffffffffff16613778565b156133fd578373ffffffffffffffffffffffffffffffffffffffff1663150b7a026132cc612341565b8786866040518563ffffffff1660e01b81526004016132ee94939291906152d2565b6020604051808303816000875af192505050801561332a57506040513d601f19601f820116820180604052508101906133279190615333565b60015b6133ad573d806000811461335a576040519150601f19603f3d011682016040523d82523d6000602084013e61335f565b606091505b506000815114156133a5576040517f08c379a000000000000000000000000000000000000000000000000000000000815260040161339c906151a2565b60405180910390fd5b805181602001fd5b63150b7a0260e01b7bffffffffffffffffffffffffffffffffffffffffffffffffffffffff1916817bffffffffffffffffffffffffffffffffffffffffffffffffffffffff191614915050613402565b600190505b949350505050565b60008042336040516020016134209291906153c9565b6040516020818303038152906040528051906020012060001c9050828161344791906151c2565b915050919050565b61346982826040518060200160405280600081525061378b565b5050565b505050565b6008805490506009600083815260200190815260200160002081905550600881908060018154018082558091505060019003906000526020600020016000909190919091505550565b600060016134c8846116f7565b6134d291906149d2565b90506000600760008481526020019081526020016000205490508181146135b7576000600660008673ffffffffffffffffffffffffffffffffffffffff1673ffffffffffffffffffffffffffffffffffffffff168152602001908152602001600020600084815260200190815260200160002054905080600660008773ffffffffffffffffffffffffffffffffffffffff1673ffffffffffffffffffffffffffffffffffffffff168152602001908152602001600020600084815260200190815260200160002081905550816007600083815260200190815260200160002081905550505b6007600084815260200190815260200160002060009055600660008573ffffffffffffffffffffffffffffffffffffffff1673ffffffffffffffffffffffffffffffffffffffff16815260200190815260200160002060008381526020019081526020016000206000905550505050565b6000600160088054905061363c91906149d2565b905060006009600084815260200190815260200160002054905060006008838154811061366c5761366b614a06565b5b90600052602060002001549050806008838154811061368e5761368d614a06565b5b9060005260206000200181905550816009600083815260200190815260200160002081905550600960008581526020019081526020016000206000905560088054806136dd576136dc6153f5565b5b6001900381819060005260206000200160009055905550505050565b6000613704836116f7565b905081600660008573ffffffffffffffffffffffffffffffffffffffff1673ffffffffffffffffffffffffffffffffffffffff168152602001908152602001600020600083815260200190815260200160002081905550806007600084815260200190815260200160002081905550505050565b600080823b905060008111915050919050565b61379583836137e6565b6137a26000848484613282565b6137e1576040517f08c379a00000000000000000000000000000000000000000000000000000000081526004016137d8906151a2565b60405180910390fd5b505050565b600073ffffffffffffffffffffffffffffffffffffffff168273ffffffffffffffffffffffffffffffffffffffff161415613856576040517f08c379a000000000000000000000000000000000000000000000000000000000815260040161384d90615470565b60405180910390fd5b61385f816122d5565b1561389f576040517f08c379a0000000000000000000000000000000000000000000000000000000008152600401613896906154dc565b60405180910390fd5b6138ab6000838361316e565b6001600360008473ffffffffffffffffffffffffffffffffffffffff1673ffffffffffffffffffffffffffffffffffffffff16815260200190815260200160002060008282546138fb9190614680565b92505081905550816002600083815260200190815260200160002060006101000a81548173ffffffffffffffffffffffffffffffffffffffff021916908373ffffffffffffffffffffffffffffffffffffffff160217905550808273ffffffffffffffffffffffffffffffffffffffff16600073ffffffffffffffffffffffffffffffffffffffff167fddf252ad1be2c89b69c2b068fc378daa952ba7f163c4a11628f55a4df523b3ef60405160405180910390a45050565b8280546139c09061458d565b90600052602060002090601f0160209004810192826139e25760008555613a29565b82601f106139fb57805160ff1916838001178555613a29565b82800160010185558215613a29579182015b82811115613a28578251825591602001919060010190613a0d565b5b509050613a369190613a3a565b5090565b5b80821115613a53576000816000905550600101613a3b565b5090565b6000604051905090565b600080fd5b600080fd5b60007fffffffff0000000000000000000000000000000000000000000000000000000082169050919050565b613aa081613a6b565b8114613aab57600080fd5b50565b600081359050613abd81613a97565b92915050565b600060208284031215613ad957613ad8613a61565b5b6000613ae784828501613aae565b91505092915050565b60008115159050919050565b613b0581613af0565b82525050565b6000602082019050613b206000830184613afc565b92915050565b6000819050919050565b613b3981613b26565b8114613b4457600080fd5b50565b600081359050613b5681613b30565b92915050565b600060208284031215613b7257613b71613a61565b5b6000613b8084828501613b47565b91505092915050565b613b9281613b26565b82525050565b6000602082019050613bad6000830184613b89565b92915050565b600081519050919050565b600082825260208201905092915050565b60005b83811015613bed578082015181840152602081019050613bd2565b83811115613bfc576000848401525b50505050565b6000601f19601f8301169050919050565b6000613c1e82613bb3565b613c288185613bbe565b9350613c38818560208601613bcf565b613c4181613c02565b840191505092915050565b60006020820190508181036000830152613c668184613c13565b905092915050565b600073ffffffffffffffffffffffffffffffffffffffff82169050919050565b6000613c9982613c6e565b9050919050565b613ca981613c8e565b82525050565b6000602082019050613cc46000830184613ca0565b92915050565b613cd381613c8e565b8114613cde57600080fd5b50565b600081359050613cf081613cca565b92915050565b60008060408385031215613d0d57613d0c613a61565b5b6000613d1b85828601613ce1565b9250506020613d2c85828601613b47565b9150509250929050565b600080600060608486031215613d4f57613d4e613a61565b5b6000613d5d86828701613ce1565b9350506020613d6e86828701613ce1565b9250506040613d7f86828701613b47565b9150509250925092565b600080fd5b600080fd5b7f4e487b7100000000000000000000000000000000000000000000000000000000600052604160045260246000fd5b613dcb82613c02565b810181811067ffffffffffffffff82111715613dea57613de9613d93565b5b80604052505050565b6000613dfd613a57565b9050613e098282613dc2565b919050565b600067ffffffffffffffff821115613e2957613e28613d93565b5b613e3282613c02565b9050602081019050919050565b82818337600083830152505050565b6000613e61613e5c84613e0e565b613df3565b905082815260208101848484011115613e7d57613e7c613d8e565b5b613e88848285613e3f565b509392505050565b600082601f830112613ea557613ea4613d89565b5b8135613eb5848260208601613e4e565b91505092915050565b60008060408385031215613ed557613ed4613a61565b5b600083013567ffffffffffffffff811115613ef357613ef2613a66565b5b613eff85828601613e90565b9250506020613f1085828601613b47565b9150509250929050565b600060ff82169050919050565b613f3081613f1a565b82525050565b600061ffff82169050919050565b613f4d81613f36565b82525050565b6000610120820190508181036000830152613f6e818c613c13565b9050613f7d602083018b613b89565b613f8a604083018a613b89565b613f976060830189613f27565b613fa46080830188613b89565b613fb160a0830187613f44565b613fbe60c0830186613f27565b613fcb60e0830185613b89565b613fd9610100830184613afc565b9a9950505050505050505050565b600081519050919050565b600082825260208201905092915050565b6000819050602082019050919050565b600082825260208201905092915050565b600061402f82613bb3565b6140398185614013565b9350614049818560208601613bcf565b61405281613c02565b840191505092915050565b61406681613b26565b82525050565b61407581613f1a565b82525050565b61408481613f36565b82525050565b61409381613af0565b82525050565b60006101208301600083015184820360008601526140b78282614024565b91505060208301516140cc602086018261405d565b5060408301516140df604086018261405d565b5060608301516140f2606086018261406c565b506080830151614105608086018261405d565b5060a083015161411860a086018261407b565b5060c083015161412b60c086018261406c565b5060e083015161413e60e086018261405d565b5061010083015161415361010086018261408a565b508091505092915050565b600061416a8383614099565b905092915050565b6000602082019050919050565b600061418a82613fe7565b6141948185613ff2565b9350836020820285016141a685614003565b8060005b858110156141e257848403895281516141c3858261415e565b94506141ce83614172565b925060208a019950506001810190506141aa565b50829750879550505050505092915050565b6000602082019050818103600083015261420e818461417f565b905092915050565b60006020828403121561422c5761422b613a61565b5b600061423a84828501613ce1565b91505092915050565b600081519050919050565b600082825260208201905092915050565b6000819050602082019050919050565b600061427b838361405d565b60208301905092915050565b6000602082019050919050565b600061429f82614243565b6142a9818561424e565b93506142b48361425f565b8060005b838110156142e55781516142cc888261426f565b97506142d783614287565b9250506001810190506142b8565b5085935050505092915050565b6000602082019050818103600083015261430c8184614294565b905092915050565b61431d81613af0565b811461432857600080fd5b50565b60008135905061433a81614314565b92915050565b6000806040838503121561435757614356613a61565b5b600061436585828601613ce1565b92505060206143768582860161432b565b9150509250929050565b600067ffffffffffffffff82111561439b5761439a613d93565b5b6143a482613c02565b9050602081019050919050565b60006143c46143bf84614380565b613df3565b9050828152602081018484840111156143e0576143df613d8e565b5b6143eb848285613e3f565b509392505050565b600082601f83011261440857614407613d89565b5b81356144188482602086016143b1565b91505092915050565b6000806000806080858703121561443b5761443a613a61565b5b600061444987828801613ce1565b945050602061445a87828801613ce1565b935050604061446b87828801613b47565b925050606085013567ffffffffffffffff81111561448c5761448b613a66565b5b614498878288016143f3565b91505092959194509250565b6000819050919050565b60006144c96144c46144bf84613c6e565b6144a4565b613c6e565b9050919050565b60006144db826144ae565b9050919050565b60006144ed826144d0565b9050919050565b6144fd816144e2565b82525050565b600060208201905061451860008301846144f4565b92915050565b6000806040838503121561453557614534613a61565b5b600061454385828601613ce1565b925050602061455485828601613ce1565b9150509250929050565b7f4e487b7100000000000000000000000000000000000000000000000000000000600052602260045260246000fd5b600060028204905060018216806145a557607f821691505b602082108114156145b9576145b861455e565b5b50919050565b7f4552433732313a20617070726f76656420717565727920666f72206e6f6e657860008201527f697374656e7420746f6b656e0000000000000000000000000000000000000000602082015250565b600061461b602c83613bbe565b9150614626826145bf565b604082019050919050565b6000602082019050818103600083015261464a8161460e565b9050919050565b7f4e487b7100000000000000000000000000000000000000000000000000000000600052601160045260246000fd5b600061468b82613b26565b915061469683613b26565b9250827fffffffffffffffffffffffffffffffffffffffffffffffffffffffffffffffff038211156146cb576146ca614651565b5b828201905092915050565b60006146e182613b26565b91507fffffffffffffffffffffffffffffffffffffffffffffffffffffffffffffffff82141561471457614713614651565b5b600182019050919050565b60006040820190506147346000830185613ca0565b6147416020830184613b89565b9392505050565b60008151905061475781614314565b92915050565b60006020828403121561477357614772613a61565b5b600061478184828501614748565b91505092915050565b7f4552433732313a20617070726f76616c20746f2063757272656e74206f776e6560008201527f7200000000000000000000000000000000000000000000000000000000000000602082015250565b60006147e6602183613bbe565b91506147f18261478a565b604082019050919050565b60006020820190508181036000830152614815816147d9565b9050919050565b7f4552433732313a20617070726f76652063616c6c6572206973206e6f74206f7760008201527f6e6572206e6f7220617070726f76656420666f7220616c6c0000000000000000602082015250565b6000614878603883613bbe565b91506148838261481c565b604082019050919050565b600060208201905081810360008301526148a78161486b565b9050919050565b7f4552433732313a207472616e736665722063616c6c6572206973206e6f74206f60008201527f776e6572206e6f7220617070726f766564000000000000000000000000000000602082015250565b600061490a603183613bbe565b9150614915826148ae565b604082019050919050565b60006020820190508181036000830152614939816148fd565b9050919050565b7f455243373231456e756d657261626c653a206f776e657220696e646578206f7560008201527f74206f6620626f756e6473000000000000000000000000000000000000000000602082015250565b600061499c602b83613bbe565b91506149a782614940565b604082019050919050565b600060208201905081810360008301526149cb8161498f565b9050919050565b60006149dd82613b26565b91506149e883613b26565b9250828210156149fb576149fa614651565b5b828203905092915050565b7f4e487b7100000000000000000000000000000000000000000000000000000000600052603260045260246000fd5b7f455243373231456e756d657261626c653a20676c6f62616c20696e646578206f60008201527f7574206f6620626f756e64730000000000000000000000000000000000000000602082015250565b6000614a91602c83613bbe565b9150614a9c82614a35565b604082019050919050565b60006020820190508181036000830152614ac081614a84565b9050919050565b7f4552433732313a206f776e657220717565727920666f72206e6f6e657869737460008201527f656e7420746f6b656e0000000000000000000000000000000000000000000000602082015250565b6000614b23602983613bbe565b9150614b2e82614ac7565b604082019050919050565b60006020820190508181036000830152614b5281614b16565b9050919050565b7f4552433732313a2062616c616e636520717565727920666f7220746865207a6560008201527f726f206164647265737300000000000000000000000000000000000000000000602082015250565b6000614bb5602a83613bbe565b9150614bc082614b59565b604082019050919050565b60006020820190508181036000830152614be481614ba8565b9050919050565b7f4f776e61626c653a2063616c6c6572206973206e6f7420746865206f776e6572600082015250565b6000614c21602083613bbe565b9150614c2c82614beb565b602082019050919050565b60006020820190508181036000830152614c5081614c14565b9050919050565b7f4552433732314d657461646174613a2055524920717565727920666f72206e6f60008201527f6e6578697374656e7420746f6b656e0000000000000000000000000000000000602082015250565b6000614cb3602f83613bbe565b9150614cbe82614c57565b604082019050919050565b60006020820190508181036000830152614ce281614ca6565b9050919050565b600081905092915050565b6000614cff82613bb3565b614d098185614ce9565b9350614d19818560208601613bcf565b80840191505092915050565b6000614d318285614cf4565b9150614d3d8284614cf4565b91508190509392505050565b7f4e487b7100000000000000000000000000000000000000000000000000000000600052601260045260246000fd5b6000614d8382613b26565b9150614d8e83613b26565b925082614d9e57614d9d614d49565b5b828204905092915050565b6000614db482613b26565b9150614dbf83613b26565b9250817fffffffffffffffffffffffffffffffffffffffffffffffffffffffffffffffff0483118215151615614df857614df7614651565b5b828202905092915050565b7f4f776e61626c653a206e6577206f776e657220697320746865207a65726f206160008201527f6464726573730000000000000000000000000000000000000000000000000000602082015250565b6000614e5f602683613bbe565b9150614e6a82614e03565b604082019050919050565b60006020820190508181036000830152614e8e81614e52565b9050919050565b600081519050614ea481613b30565b92915050565b600060208284031215614ec057614ebf613a61565b5b6000614ece84828501614e95565b91505092915050565b6000606082019050614eec6000830186613ca0565b614ef96020830185613ca0565b614f066040830184613b89565b949350505050565b7f4552433732313a206f70657261746f7220717565727920666f72206e6f6e657860008201527f697374656e7420746f6b656e0000000000000000000000000000000000000000602082015250565b6000614f6a602c83613bbe565b9150614f7582614f0e565b604082019050919050565b60006020820190508181036000830152614f9981614f5d565b9050919050565b7f4552433732313a207472616e73666572206f6620746f6b656e2074686174206960008201527f73206e6f74206f776e0000000000000000000000000000000000000000000000602082015250565b6000614ffc602983613bbe565b915061500782614fa0565b604082019050919050565b6000602082019050818103600083015261502b81614fef565b9050919050565b7f4552433732313a207472616e7366657220746f20746865207a65726f2061646460008201527f7265737300000000000000000000000000000000000000000000000000000000602082015250565b600061508e602483613bbe565b915061509982615032565b604082019050919050565b600060208201905081810360008301526150bd81615081565b9050919050565b7f4552433732313a20617070726f766520746f2063616c6c657200000000000000600082015250565b60006150fa601983613bbe565b9150615105826150c4565b602082019050919050565b60006020820190508181036000830152615129816150ed565b9050919050565b7f4552433732313a207472616e7366657220746f206e6f6e20455243373231526560008201527f63656976657220696d706c656d656e7465720000000000000000000000000000602082015250565b600061518c603283613bbe565b915061519782615130565b604082019050919050565b600060208201905081810360008301526151bb8161517f565b9050919050565b60006151cd82613b26565b91506151d883613b26565b9250826151e8576151e7614d49565b5b828206905092915050565b60006151fe82613b26565b9150600082141561521257615211614651565b5b600182039050919050565b600061522882613f1a565b915061523383613f1a565b92508260ff0382111561524957615248614651565b5b828201905092915050565b60006040820190506152696000830185613b89565b6152766020830184613b89565b9392505050565b600081519050919050565b600082825260208201905092915050565b60006152a48261527d565b6152ae8185615288565b93506152be818560208601613bcf565b6152c781613c02565b840191505092915050565b60006080820190506152e76000830187613ca0565b6152f46020830186613ca0565b6153016040830185613b89565b81810360608301526153138184615299565b905095945050505050565b60008151905061532d81613a97565b92915050565b60006020828403121561534957615348613a61565b5b60006153578482850161531e565b91505092915050565b6000819050919050565b61537b61537682613b26565b615360565b82525050565b60008160601b9050919050565b600061539982615381565b9050919050565b60006153ab8261538e565b9050919050565b6153c36153be82613c8e565b6153a0565b82525050565b60006153d5828561536a565b6020820191506153e582846153b2565b6014820191508190509392505050565b7f4e487b7100000000000000000000000000000000000000000000000000000000600052603160045260246000fd5b7f4552433732313a206d696e7420746f20746865207a65726f2061646472657373600082015250565b600061545a602083613bbe565b915061546582615424565b602082019050919050565b600060208201905081810360008301526154898161544d565b9050919050565b7f4552433732313a20746f6b656e20616c7265616479206d696e74656400000000600082015250565b60006154c6601c83613bbe565b91506154d182615490565b602082019050919050565b600060208201905081810360008301526154f5816154b9565b905091905056fea2646970667358221220f10b74813942c23b558e2bafa0a3c2e713f92a8c857125185d5fd2c7100431b164736f6c634300080a0033",
  "immutableReferences": {},
  "source": "// SPDX-License-Identifier: MIT\n\npragma solidity ^0.8.0;\n\nimport \"@openzeppelin/contracts/token/ERC721/ERC721.sol\";\nimport \"@openzeppelin/contracts/access/Ownable.sol\";\nimport \"@openzeppelin/contracts/token/ERC721/extensions/ERC721Enumerable.sol\";\nimport \"@openzeppelin/contracts/token/ERC20/IERC20.sol\";\n\ncontract cryptoFont is ERC721Enumerable, Ownable  {\n    uint256 COUNTER = 0;\n    IERC20 public eBitcoin;\n    uint256 public cost = 100 * 10**18;\n    uint256 public fee = cost * 20 / 100;\n    uint256 public feePool;\n    uint256 public rewardPool;\n    uint256 public miningPool;\n    uint256 public pastDistributedReward;\n    uint256 public distributedEthers;\n\n    mapping(uint256 => uint256) public tokenToReward;\n    mapping(uint256 => uint256) public tokenToEthers;\n\n    struct cFont {\n        string name;\n        uint256 id;\n        uint256 dna;\n        uint8 rarity;\n        uint256 Stat;\n        uint16 Power;\n        uint8 Size;\n        uint256 mintDate;\n        bool burn;\n    }\n\n    cFont[] public cFonts;\n\n    event NewcFont(address indexed owner, uint256 id, uint dna);\n\n    function _createRandomNum(uint256 _mod) internal view returns(uint256){\n        uint256 randomNum = uint256(keccak256(abi.encodePacked(block.timestamp, msg.sender)));\n        return randomNum % _mod;\n    }\n\n    constructor(address eBitcoinAddress)\n        ERC721(\"Crypto Font\", \"cFont\")\n    {\n        eBitcoin = IERC20(eBitcoinAddress);\n        pastDistributedReward = block.timestamp;\n    }\n\n    function uint2str(uint256 _i) internal pure returns (string memory str){\n        if (_i == 0){\n            return \"0\";\n        }\n        uint256 j = _i;\n        uint256 length;\n        while (j != 0)\n        {\n            length++;\n            j /= 10;\n        }\n        bytes memory bstr = new bytes(length);\n        uint256 k = length;\n        j = _i;\n        while (j != 0)\n        {\n            bstr[--k] = bytes1(uint8(48 + j % 10));\n            j /= 10;\n        }\n        str = string(bstr);\n    }\n\n    function concatenate(string memory s1, string memory s2) internal pure returns (string memory) {\n        return string(abi.encodePacked(s1, s2));\n    }\n\n    function _createcFont(string memory _name) internal{\n        uint8 randRarity = uint8(_createRandomNum(100)) + 1;\n        uint256 randDna = _createRandomNum(10**16);\n        uint256 randStat = _createRandomNum(10**16);\n        uint16 randPower = uint16(_createRandomNum(10000) + 1);\n        uint8 randSize = uint8(_createRandomNum(140) + 10);\n        uint8 rarity = 1;\n        uint256 mint_date = block.timestamp;\n\n        if(randRarity < 41){\n            rarity = 2;\n            if(randRarity < 11){\n                rarity = 3;\n                if(rarity <2){\n                    rarity = 4;\n                }\n            }\n        }\n        \n        cFont memory newcFont = cFont(_name, COUNTER, randDna, rarity, randStat, randPower,randSize,mint_date,false);\n        cFonts.push(newcFont);\n        tokenToReward[COUNTER] = 0;\n        _safeMint(msg.sender, COUNTER);\n        emit NewcFont(msg.sender,COUNTER, randDna);\n        COUNTER++;\n    }\n\n    function createRandomcFont() public{\n        require(eBitcoin.balanceOf(msg.sender) >= cost);\n        eBitcoin.transferFrom(msg.sender,address(this), cost);\n        rewardPool+= (cost-fee);\n        feePool+=fee;\n        string memory name = concatenate(\"cFont #\",uint2str(COUNTER));\n        _createcFont(name);\n    }\n\n    function reverseSwap(uint256 id) public{\n        require(ownerOf(id) == msg.sender);\n        _burn(id);\n        eBitcoin.transfer(msg.sender, (cost - fee));\n        cFonts[id].burn = true;\n    }\n\n    function getcFonts() public view returns(cFont[] memory) {\n        return cFonts;\n    }\n\n    function _getRarity(uint256 id) internal view returns(uint256){\n        uint256 rarity = 0;\n        if(!cFonts[id].burn){\n                rarity=cFonts[id].rarity;\n            }\n            return rarity;\n    }\n\n\n    function countAllRarity() public view returns(uint256){\n        uint256 rarity = 0;\n        uint256 i;\n        for (i=0;i<COUNTER;i++){\n            rarity+=_getRarity(i);\n        }\n        \n        return rarity;\n    }\n\n    function remainingEthers() public view returns(uint256){\n        return address(this).balance - distributedEthers;\n    }\n\n    function DistributeReward() public{\n        require(block.timestamp > pastDistributedReward);\n        uint256 amount = feePool;\n\n        if(miningPool > feePool){\n            amount += feePool;\n            miningPool -= feePool;\n        }\n        else{\n            amount += miningPool;\n            miningPool = 0;\n        }\n\n        uint256 reward = amount;\n        uint256 allRare = countAllRarity();\n        uint256 rewardPerRare =  reward / allRare;\n        uint256 ethersPerRare = remainingEthers() / allRare;\n        uint256 i;\n        for(i=0; i<COUNTER;i++){\n            tokenToReward[i] += rewardPerRare * _getRarity(i);\n            tokenToEthers[i] += ethersPerRare * _getRarity(i);\n        }\n\n        distributedEthers += remainingEthers();\n        feePool = 0;\n        pastDistributedReward = block.timestamp;\n    }\n\n    function showEthers() public view returns(uint256){\n        uint256 reward = 0;\n        for(uint256 i =0; i< balanceOf(msg.sender); i++){\n            reward += tokenToEthers[tokenOfOwnerByIndex(msg.sender, i)];\n        }\n        return reward;\n    }\n\n    function getEthers(uint id) public{\n        require(msg.sender == ownerOf(id));\n        payable(msg.sender).transfer(tokenToEthers[id]);\n        tokenToEthers[id] = 0;\n    }\n\n    function getAllEthers() public{\n        uint256 reward = 0;\n        for(uint256 i = 0;i< balanceOf(msg.sender); i++){\n            reward += tokenToEthers[tokenOfOwnerByIndex(msg.sender, i)];\n            tokenToEthers[tokenOfOwnerByIndex(msg.sender, i)] = 0;\n        }\n        payable(msg.sender).transfer(reward);\n    }\n\n    receive() external payable {}\n\n    function showReward() public view returns(uint256){\n        uint256 reward = 0;\n        for(uint256 i =0; i< balanceOf(msg.sender); i++){\n            reward += tokenToReward[tokenOfOwnerByIndex(msg.sender, i)];\n        }\n        return reward;\n    }\n\n    function getReward(uint id) public{\n        require(msg.sender == ownerOf(id));\n        eBitcoin.transfer(msg.sender, tokenToReward[id]);\n        tokenToReward[id] = 0;\n    }\n\n    function getAllReward() public{\n        uint256 reward = 0;\n        for(uint256 i = 0;i< balanceOf(msg.sender); i++){\n            reward += tokenToReward[tokenOfOwnerByIndex(msg.sender, i)];\n            tokenToReward[tokenOfOwnerByIndex(msg.sender, i)] = 0;\n        }\n        eBitcoin.transfer(msg.sender, reward);\n    }\n\n    function setName(string memory name, uint256 id) public {\n        require(ownerOf(id) == msg.sender);\n        require(bytes(name).length > 0);\n        cFonts[id].name = name;\n    }\n\n    function getTimeRemain() public view returns(uint256){\n        return (pastDistributedReward + 7 days) - block.timestamp;\n    }\n\n    function getIdsOfOwner(address _owner) public view returns (uint[] memory) {\n        uint[] memory _tokensOfOwner = new uint[](ERC721.balanceOf(_owner));\n        uint i;\n\n        for (i=0;i<ERC721.balanceOf(_owner);i++){\n            _tokensOfOwner[i] = ERC721Enumerable.tokenOfOwnerByIndex(_owner, i);\n        }\n        return (_tokensOfOwner);\n    }\n}",
  "sourcePath": "/Users/jarupaksrisuchat/Documents/github/crypto-font/contracts/cFont.sol",
  "compiler": {
    "name": "solc",
    "version": "0.8.10+commit.fc410830.Emscripten.clang"
  },
  "schemaVersion": "3.4.3",
  "updatedAt": "2021-12-17T00:16:25.347Z",
  "devdoc": {
    "kind": "dev",
    "methods": {
      "approve(address,uint256)": {
        "details": "See {IERC721-approve}."
      },
      "balanceOf(address)": {
        "details": "See {IERC721-balanceOf}."
      },
      "getApproved(uint256)": {
        "details": "See {IERC721-getApproved}."
      },
      "isApprovedForAll(address,address)": {
        "details": "See {IERC721-isApprovedForAll}."
      },
      "name()": {
        "details": "See {IERC721Metadata-name}."
      },
      "owner()": {
        "details": "Returns the address of the current owner."
      },
      "ownerOf(uint256)": {
        "details": "See {IERC721-ownerOf}."
      },
      "renounceOwnership()": {
        "details": "Leaves the contract without owner. It will not be possible to call `onlyOwner` functions anymore. Can only be called by the current owner. NOTE: Renouncing ownership will leave the contract without an owner, thereby removing any functionality that is only available to the owner."
      },
      "safeTransferFrom(address,address,uint256)": {
        "details": "See {IERC721-safeTransferFrom}."
      },
      "safeTransferFrom(address,address,uint256,bytes)": {
        "details": "See {IERC721-safeTransferFrom}."
      },
      "setApprovalForAll(address,bool)": {
        "details": "See {IERC721-setApprovalForAll}."
      },
      "supportsInterface(bytes4)": {
        "details": "See {IERC165-supportsInterface}."
      },
      "symbol()": {
        "details": "See {IERC721Metadata-symbol}."
      },
      "tokenByIndex(uint256)": {
        "details": "See {IERC721Enumerable-tokenByIndex}."
      },
      "tokenOfOwnerByIndex(address,uint256)": {
        "details": "See {IERC721Enumerable-tokenOfOwnerByIndex}."
      },
      "tokenURI(uint256)": {
        "details": "See {IERC721Metadata-tokenURI}."
      },
      "totalSupply()": {
        "details": "See {IERC721Enumerable-totalSupply}."
      },
      "transferFrom(address,address,uint256)": {
        "details": "See {IERC721-transferFrom}."
      },
      "transferOwnership(address)": {
        "details": "Transfers ownership of the contract to a new account (`newOwner`). Can only be called by the current owner."
      }
    },
    "version": 1
  },
  "userdoc": {
    "kind": "user",
    "methods": {},
    "version": 1
  }
}