{
  "contractName": "cryptoFont",
  "abi": [
    {
      "inputs": [
        {
          "internalType": "address",
          "name": "eBitcoinAddress",
          "type": "address"
        }
      ],
      "stateMutability": "nonpayable",
      "type": "constructor"
    },
    {
      "anonymous": false,
      "inputs": [
        {
          "indexed": true,
          "internalType": "address",
          "name": "owner",
          "type": "address"
        },
        {
          "indexed": true,
          "internalType": "address",
          "name": "approved",
          "type": "address"
        },
        {
          "indexed": true,
          "internalType": "uint256",
          "name": "tokenId",
          "type": "uint256"
        }
      ],
      "name": "Approval",
      "type": "event"
    },
    {
      "anonymous": false,
      "inputs": [
        {
          "indexed": true,
          "internalType": "address",
          "name": "owner",
          "type": "address"
        },
        {
          "indexed": true,
          "internalType": "address",
          "name": "operator",
          "type": "address"
        },
        {
          "indexed": false,
          "internalType": "bool",
          "name": "approved",
          "type": "bool"
        }
      ],
      "name": "ApprovalForAll",
      "type": "event"
    },
    {
      "anonymous": false,
      "inputs": [
        {
          "indexed": true,
          "internalType": "address",
          "name": "owner",
          "type": "address"
        },
        {
          "indexed": false,
          "internalType": "uint256",
          "name": "id",
          "type": "uint256"
        },
        {
          "indexed": false,
          "internalType": "uint256",
          "name": "dna",
          "type": "uint256"
        }
      ],
      "name": "NewcFont",
      "type": "event"
    },
    {
      "anonymous": false,
      "inputs": [
        {
          "indexed": true,
          "internalType": "address",
          "name": "previousOwner",
          "type": "address"
        },
        {
          "indexed": true,
          "internalType": "address",
          "name": "newOwner",
          "type": "address"
        }
      ],
      "name": "OwnershipTransferred",
      "type": "event"
    },
    {
      "anonymous": false,
      "inputs": [
        {
          "indexed": true,
          "internalType": "address",
          "name": "from",
          "type": "address"
        },
        {
          "indexed": true,
          "internalType": "address",
          "name": "to",
          "type": "address"
        },
        {
          "indexed": true,
          "internalType": "uint256",
          "name": "tokenId",
          "type": "uint256"
        }
      ],
      "name": "Transfer",
      "type": "event"
    },
    {
      "inputs": [
        {
          "internalType": "address",
          "name": "to",
          "type": "address"
        },
        {
          "internalType": "uint256",
          "name": "tokenId",
          "type": "uint256"
        }
      ],
      "name": "approve",
      "outputs": [],
      "stateMutability": "nonpayable",
      "type": "function"
    },
    {
      "inputs": [
        {
          "internalType": "address",
          "name": "owner",
          "type": "address"
        }
      ],
      "name": "balanceOf",
      "outputs": [
        {
          "internalType": "uint256",
          "name": "",
          "type": "uint256"
        }
      ],
      "stateMutability": "view",
      "type": "function",
      "constant": true
    },
    {
      "inputs": [
        {
          "internalType": "uint256",
          "name": "",
          "type": "uint256"
        }
      ],
      "name": "cFonts",
      "outputs": [
        {
          "internalType": "string",
          "name": "name",
          "type": "string"
        },
        {
          "internalType": "uint256",
          "name": "id",
          "type": "uint256"
        },
        {
          "internalType": "uint256",
          "name": "dna",
          "type": "uint256"
        },
        {
          "internalType": "uint8",
          "name": "rarity",
          "type": "uint8"
        },
        {
          "internalType": "uint256",
          "name": "Stat",
          "type": "uint256"
        },
        {
          "internalType": "uint16",
          "name": "Power",
          "type": "uint16"
        },
        {
          "internalType": "uint8",
          "name": "Size",
          "type": "uint8"
        },
        {
          "internalType": "uint256",
          "name": "mintDate",
          "type": "uint256"
        },
        {
          "internalType": "bool",
          "name": "burn",
          "type": "bool"
        }
      ],
      "stateMutability": "view",
      "type": "function",
      "constant": true
    },
    {
      "inputs": [],
      "name": "cost",
      "outputs": [
        {
          "internalType": "uint256",
          "name": "",
          "type": "uint256"
        }
      ],
      "stateMutability": "view",
      "type": "function",
      "constant": true
    },
    {
      "inputs": [],
      "name": "distributedEthers",
      "outputs": [
        {
          "internalType": "uint256",
          "name": "",
          "type": "uint256"
        }
      ],
      "stateMutability": "view",
      "type": "function",
      "constant": true
    },
    {
      "inputs": [],
      "name": "eBitcoin",
      "outputs": [
        {
          "internalType": "contract IERC20",
          "name": "",
          "type": "address"
        }
      ],
      "stateMutability": "view",
      "type": "function",
      "constant": true
    },
    {
      "inputs": [],
      "name": "fee",
      "outputs": [
        {
          "internalType": "uint256",
          "name": "",
          "type": "uint256"
        }
      ],
      "stateMutability": "view",
      "type": "function",
      "constant": true
    },
    {
      "inputs": [],
      "name": "feePool",
      "outputs": [
        {
          "internalType": "uint256",
          "name": "",
          "type": "uint256"
        }
      ],
      "stateMutability": "view",
      "type": "function",
      "constant": true
    },
    {
      "inputs": [
        {
          "internalType": "uint256",
          "name": "tokenId",
          "type": "uint256"
        }
      ],
      "name": "getApproved",
      "outputs": [
        {
          "internalType": "address",
          "name": "",
          "type": "address"
        }
      ],
      "stateMutability": "view",
      "type": "function",
      "constant": true
    },
    {
      "inputs": [
        {
          "internalType": "address",
          "name": "owner",
          "type": "address"
        },
        {
          "internalType": "address",
          "name": "operator",
          "type": "address"
        }
      ],
      "name": "isApprovedForAll",
      "outputs": [
        {
          "internalType": "bool",
          "name": "",
          "type": "bool"
        }
      ],
      "stateMutability": "view",
      "type": "function",
      "constant": true
    },
    {
      "inputs": [],
      "name": "miningPool",
      "outputs": [
        {
          "internalType": "uint256",
          "name": "",
          "type": "uint256"
        }
      ],
      "stateMutability": "view",
      "type": "function",
      "constant": true
    },
    {
      "inputs": [],
      "name": "name",
      "outputs": [
        {
          "internalType": "string",
          "name": "",
          "type": "string"
        }
      ],
      "stateMutability": "view",
      "type": "function",
      "constant": true
    },
    {
      "inputs": [],
      "name": "owner",
      "outputs": [
        {
          "internalType": "address",
          "name": "",
          "type": "address"
        }
      ],
      "stateMutability": "view",
      "type": "function",
      "constant": true
    },
    {
      "inputs": [
        {
          "internalType": "uint256",
          "name": "tokenId",
          "type": "uint256"
        }
      ],
      "name": "ownerOf",
      "outputs": [
        {
          "internalType": "address",
          "name": "",
          "type": "address"
        }
      ],
      "stateMutability": "view",
      "type": "function",
      "constant": true
    },
    {
      "inputs": [],
      "name": "pastDistributedReward",
      "outputs": [
        {
          "internalType": "uint256",
          "name": "",
          "type": "uint256"
        }
      ],
      "stateMutability": "view",
      "type": "function",
      "constant": true
    },
    {
      "inputs": [],
      "name": "renounceOwnership",
      "outputs": [],
      "stateMutability": "nonpayable",
      "type": "function"
    },
    {
      "inputs": [],
      "name": "rewardPool",
      "outputs": [
        {
          "internalType": "uint256",
          "name": "",
          "type": "uint256"
        }
      ],
      "stateMutability": "view",
      "type": "function",
      "constant": true
    },
    {
      "inputs": [
        {
          "internalType": "address",
          "name": "from",
          "type": "address"
        },
        {
          "internalType": "address",
          "name": "to",
          "type": "address"
        },
        {
          "internalType": "uint256",
          "name": "tokenId",
          "type": "uint256"
        }
      ],
      "name": "safeTransferFrom",
      "outputs": [],
      "stateMutability": "nonpayable",
      "type": "function"
    },
    {
      "inputs": [
        {
          "internalType": "address",
          "name": "from",
          "type": "address"
        },
        {
          "internalType": "address",
          "name": "to",
          "type": "address"
        },
        {
          "internalType": "uint256",
          "name": "tokenId",
          "type": "uint256"
        },
        {
          "internalType": "bytes",
          "name": "_data",
          "type": "bytes"
        }
      ],
      "name": "safeTransferFrom",
      "outputs": [],
      "stateMutability": "nonpayable",
      "type": "function"
    },
    {
      "inputs": [
        {
          "internalType": "address",
          "name": "operator",
          "type": "address"
        },
        {
          "internalType": "bool",
          "name": "approved",
          "type": "bool"
        }
      ],
      "name": "setApprovalForAll",
      "outputs": [],
      "stateMutability": "nonpayable",
      "type": "function"
    },
    {
      "inputs": [
        {
          "internalType": "bytes4",
          "name": "interfaceId",
          "type": "bytes4"
        }
      ],
      "name": "supportsInterface",
      "outputs": [
        {
          "internalType": "bool",
          "name": "",
          "type": "bool"
        }
      ],
      "stateMutability": "view",
      "type": "function",
      "constant": true
    },
    {
      "inputs": [],
      "name": "symbol",
      "outputs": [
        {
          "internalType": "string",
          "name": "",
          "type": "string"
        }
      ],
      "stateMutability": "view",
      "type": "function",
      "constant": true
    },
    {
      "inputs": [
        {
          "internalType": "uint256",
          "name": "index",
          "type": "uint256"
        }
      ],
      "name": "tokenByIndex",
      "outputs": [
        {
          "internalType": "uint256",
          "name": "",
          "type": "uint256"
        }
      ],
      "stateMutability": "view",
      "type": "function",
      "constant": true
    },
    {
      "inputs": [
        {
          "internalType": "address",
          "name": "owner",
          "type": "address"
        },
        {
          "internalType": "uint256",
          "name": "index",
          "type": "uint256"
        }
      ],
      "name": "tokenOfOwnerByIndex",
      "outputs": [
        {
          "internalType": "uint256",
          "name": "",
          "type": "uint256"
        }
      ],
      "stateMutability": "view",
      "type": "function",
      "constant": true
    },
    {
      "inputs": [
        {
          "internalType": "uint256",
          "name": "",
          "type": "uint256"
        }
      ],
      "name": "tokenToEthers",
      "outputs": [
        {
          "internalType": "uint256",
          "name": "",
          "type": "uint256"
        }
      ],
      "stateMutability": "view",
      "type": "function",
      "constant": true
    },
    {
      "inputs": [
        {
          "internalType": "uint256",
          "name": "",
          "type": "uint256"
        }
      ],
      "name": "tokenToReward",
      "outputs": [
        {
          "internalType": "uint256",
          "name": "",
          "type": "uint256"
        }
      ],
      "stateMutability": "view",
      "type": "function",
      "constant": true
    },
    {
      "inputs": [
        {
          "internalType": "uint256",
          "name": "tokenId",
          "type": "uint256"
        }
      ],
      "name": "tokenURI",
      "outputs": [
        {
          "internalType": "string",
          "name": "",
          "type": "string"
        }
      ],
      "stateMutability": "view",
      "type": "function",
      "constant": true
    },
    {
      "inputs": [],
      "name": "totalSupply",
      "outputs": [
        {
          "internalType": "uint256",
          "name": "",
          "type": "uint256"
        }
      ],
      "stateMutability": "view",
      "type": "function",
      "constant": true
    },
    {
      "inputs": [
        {
          "internalType": "address",
          "name": "from",
          "type": "address"
        },
        {
          "internalType": "address",
          "name": "to",
          "type": "address"
        },
        {
          "internalType": "uint256",
          "name": "tokenId",
          "type": "uint256"
        }
      ],
      "name": "transferFrom",
      "outputs": [],
      "stateMutability": "nonpayable",
      "type": "function"
    },
    {
      "inputs": [
        {
          "internalType": "address",
          "name": "newOwner",
          "type": "address"
        }
      ],
      "name": "transferOwnership",
      "outputs": [],
      "stateMutability": "nonpayable",
      "type": "function"
    },
    {
      "stateMutability": "payable",
      "type": "receive",
      "payable": true
    },
    {
      "inputs": [],
      "name": "createRandomcFont",
      "outputs": [],
      "stateMutability": "nonpayable",
      "type": "function"
    },
    {
      "inputs": [
        {
          "internalType": "uint256",
          "name": "id",
          "type": "uint256"
        }
      ],
      "name": "reverseSwap",
      "outputs": [],
      "stateMutability": "nonpayable",
      "type": "function"
    },
    {
      "inputs": [],
      "name": "getcFonts",
      "outputs": [
        {
          "components": [
            {
              "internalType": "string",
              "name": "name",
              "type": "string"
            },
            {
              "internalType": "uint256",
              "name": "id",
              "type": "uint256"
            },
            {
              "internalType": "uint256",
              "name": "dna",
              "type": "uint256"
            },
            {
              "internalType": "uint8",
              "name": "rarity",
              "type": "uint8"
            },
            {
              "internalType": "uint256",
              "name": "Stat",
              "type": "uint256"
            },
            {
              "internalType": "uint16",
              "name": "Power",
              "type": "uint16"
            },
            {
              "internalType": "uint8",
              "name": "Size",
              "type": "uint8"
            },
            {
              "internalType": "uint256",
              "name": "mintDate",
              "type": "uint256"
            },
            {
              "internalType": "bool",
              "name": "burn",
              "type": "bool"
            }
          ],
          "internalType": "struct cryptoFont.cFont[]",
          "name": "",
          "type": "tuple[]"
        }
      ],
      "stateMutability": "view",
      "type": "function",
      "constant": true
    },
    {
      "inputs": [],
      "name": "countAllRarity",
      "outputs": [
        {
          "internalType": "uint256",
          "name": "",
          "type": "uint256"
        }
      ],
      "stateMutability": "view",
      "type": "function",
      "constant": true
    },
    {
      "inputs": [],
      "name": "countAllReward",
      "outputs": [
        {
          "internalType": "uint256",
          "name": "",
          "type": "uint256"
        }
      ],
      "stateMutability": "view",
      "type": "function",
      "constant": true
    },
    {
      "inputs": [],
      "name": "countAllEthers",
      "outputs": [
        {
          "internalType": "uint256",
          "name": "",
          "type": "uint256"
        }
      ],
      "stateMutability": "view",
      "type": "function",
      "constant": true
    },
    {
      "inputs": [],
      "name": "remainingEthers",
      "outputs": [
        {
          "internalType": "uint256",
          "name": "",
          "type": "uint256"
        }
      ],
      "stateMutability": "view",
      "type": "function",
      "constant": true
    },
    {
      "inputs": [],
      "name": "remainingeBTC",
      "outputs": [
        {
          "internalType": "uint256",
          "name": "",
          "type": "uint256"
        }
      ],
      "stateMutability": "view",
      "type": "function",
      "constant": true
    },
    {
      "inputs": [],
      "name": "DistributeReward",
      "outputs": [],
      "stateMutability": "nonpayable",
      "type": "function"
    },
    {
      "inputs": [
        {
          "internalType": "address",
          "name": "account",
          "type": "address"
        }
      ],
      "name": "showEthers",
      "outputs": [
        {
          "internalType": "uint256",
          "name": "",
          "type": "uint256"
        }
      ],
      "stateMutability": "view",
      "type": "function",
      "constant": true
    },
    {
      "inputs": [
        {
          "internalType": "uint256",
          "name": "id",
          "type": "uint256"
        }
      ],
      "name": "getEthers",
      "outputs": [],
      "stateMutability": "nonpayable",
      "type": "function"
    },
    {
      "inputs": [],
      "name": "getAllEthers",
      "outputs": [],
      "stateMutability": "nonpayable",
      "type": "function"
    },
    {
      "inputs": [
        {
          "internalType": "address",
          "name": "account",
          "type": "address"
        }
      ],
      "name": "showReward",
      "outputs": [
        {
          "internalType": "uint256",
          "name": "",
          "type": "uint256"
        }
      ],
      "stateMutability": "view",
      "type": "function",
      "constant": true
    },
    {
      "inputs": [
        {
          "internalType": "uint256",
          "name": "id",
          "type": "uint256"
        }
      ],
      "name": "getReward",
      "outputs": [],
      "stateMutability": "nonpayable",
      "type": "function"
    },
    {
      "inputs": [],
      "name": "getAllReward",
      "outputs": [],
      "stateMutability": "nonpayable",
      "type": "function"
    },
    {
      "inputs": [
        {
          "internalType": "string",
          "name": "name",
          "type": "string"
        },
        {
          "internalType": "uint256",
          "name": "id",
          "type": "uint256"
        }
      ],
      "name": "setName",
      "outputs": [],
      "stateMutability": "nonpayable",
      "type": "function"
    },
    {
      "inputs": [],
      "name": "getTimeRemain",
      "outputs": [
        {
          "internalType": "uint256",
          "name": "",
          "type": "uint256"
        }
      ],
      "stateMutability": "view",
      "type": "function",
      "constant": true
    },
    {
      "inputs": [
        {
          "internalType": "uint256",
          "name": "_amount",
          "type": "uint256"
        }
      ],
      "name": "AddeBTCFee",
      "outputs": [],
      "stateMutability": "nonpayable",
      "type": "function"
    },
    {
      "inputs": [
        {
          "internalType": "address",
          "name": "_owner",
          "type": "address"
        }
      ],
      "name": "getIdsOfOwner",
      "outputs": [
        {
          "internalType": "uint256[]",
          "name": "",
          "type": "uint256[]"
        }
      ],
      "stateMutability": "view",
      "type": "function",
      "constant": true
    }
  ],
  "bytecode": "0x60806040526000600b5568056bc75e2d63100000600d5560646014600d5462000029919062000331565b620000359190620003c1565b600e553480156200004557600080fd5b5060405162005e1838038062005e1883398181016040528101906200006b919062000463565b6040518060400160405280600b81526020017f43727970746f20466f6e740000000000000000000000000000000000000000008152506040518060400160405280600581526020017f63466f6e740000000000000000000000000000000000000000000000000000008152508160009080519060200190620000ef92919062000248565b5080600190805190602001906200010892919062000248565b5050506200012b6200011f6200017a60201b60201c565b6200018260201b60201c565b80600c60006101000a81548173ffffffffffffffffffffffffffffffffffffffff021916908373ffffffffffffffffffffffffffffffffffffffff1602179055504260128190555050620004fa565b600033905090565b6000600a60009054906101000a900473ffffffffffffffffffffffffffffffffffffffff16905081600a60006101000a81548173ffffffffffffffffffffffffffffffffffffffff021916908373ffffffffffffffffffffffffffffffffffffffff1602179055508173ffffffffffffffffffffffffffffffffffffffff168173ffffffffffffffffffffffffffffffffffffffff167f8be0079c531659141344cd1fd0a4f28419497f9722a3daafe3b4186f6b6457e060405160405180910390a35050565b8280546200025690620004c4565b90600052602060002090601f0160209004810192826200027a5760008555620002c6565b82601f106200029557805160ff1916838001178555620002c6565b82800160010185558215620002c6579182015b82811115620002c5578251825591602001919060010190620002a8565b5b509050620002d59190620002d9565b5090565b5b80821115620002f4576000816000905550600101620002da565b5090565b6000819050919050565b7f4e487b7100000000000000000000000000000000000000000000000000000000600052601160045260246000fd5b60006200033e82620002f8565b91506200034b83620002f8565b9250817fffffffffffffffffffffffffffffffffffffffffffffffffffffffffffffffff048311821515161562000387576200038662000302565b5b828202905092915050565b7f4e487b7100000000000000000000000000000000000000000000000000000000600052601260045260246000fd5b6000620003ce82620002f8565b9150620003db83620002f8565b925082620003ee57620003ed62000392565b5b828204905092915050565b600080fd5b600073ffffffffffffffffffffffffffffffffffffffff82169050919050565b60006200042b82620003fe565b9050919050565b6200043d816200041e565b81146200044957600080fd5b50565b6000815190506200045d8162000432565b92915050565b6000602082840312156200047c576200047b620003f9565b5b60006200048c848285016200044c565b91505092915050565b7f4e487b7100000000000000000000000000000000000000000000000000000000600052602260045260246000fd5b60006002820490506001821680620004dd57607f821691505b60208210811415620004f457620004f362000495565b5b50919050565b61590e806200050a6000396000f3fe6080604052600436106102b25760003560e01c806367e6029911610175578063c45af5d8116100dc578063e4a2a74211610095578063f204fce81161006f578063f204fce814610aed578063f2fde38b14610b18578063f56a29da14610b41578063f82c7ebc14610b58576102b9565b8063e4a2a74214610a70578063e79e0a2214610a87578063e985e9c514610ab0576102b9565b8063c45af5d81461094a578063c87b56dd14610987578063d33c5957146109c4578063d3c9ca69146109ef578063ddca3f4314610a1a578063e1930a0f14610a45576102b9565b80639268595f1161012e5780639268595f1461083a57806395d89b4114610865578063a22cb46514610890578063ae2e933b146108b9578063b88d4fde146108e4578063c44bfb7d1461090d576102b9565b806367e602991461071657806370a0823114610753578063715018a61461079057806373397597146107a75780637feaaacc146107d25780638da5cb5b1461080f576102b9565b80632f745c59116102195780634f6ccce7116101d25780634f6ccce7146105d65780635069918f146106135780636352211e1461065857806364b7710e1461069557806365f5eb30146106c057806366666aa9146106eb576102b9565b80632f745c59146104dc57806337c1caf4146105195780633baa8170146105425780633e6d4ec21461056b57806342842e0e14610582578063475561dd146105ab576102b9565b8063095ea7b31161026b578063095ea7b3146103e257806313faede61461040b5780631514472b1461043657806318160ddd1461045f5780631c4b774b1461048a57806323b872dd146104b3576102b9565b806301ffc9a7146102be5780630236d12b146102fb5780630518afdc1461032657806306fdde0314610363578063081812fc1461038e5780630914e011146103cb576102b9565b366102b957005b600080fd5b3480156102ca57600080fd5b506102e560048036038101906102e09190613e9f565b610b83565b6040516102f29190613ee7565b60405180910390f35b34801561030757600080fd5b50610310610bfd565b60405161031d9190613f1b565b60405180910390f35b34801561033257600080fd5b5061034d60048036038101906103489190613f62565b610c4d565b60405161035a9190613f1b565b60405180910390f35b34801561036f57600080fd5b50610378610c65565b6040516103859190614028565b60405180910390f35b34801561039a57600080fd5b506103b560048036038101906103b09190613f62565b610cf7565b6040516103c2919061408b565b60405180910390f35b3480156103d757600080fd5b506103e0610d7c565b005b3480156103ee57600080fd5b50610409600480360381019061040491906140d2565b610e94565b005b34801561041757600080fd5b50610420610fac565b60405161042d9190613f1b565b60405180910390f35b34801561044257600080fd5b5061045d60048036038101906104589190613f62565b610fb2565b005b34801561046b57600080fd5b50610474611121565b6040516104819190613f1b565b60405180910390f35b34801561049657600080fd5b506104b160048036038101906104ac9190613f62565b61112e565b005b3480156104bf57600080fd5b506104da60048036038101906104d59190614112565b61123e565b005b3480156104e857600080fd5b5061050360048036038101906104fe91906140d2565b61129e565b6040516105109190613f1b565b60405180910390f35b34801561052557600080fd5b50610540600480360381019061053b9190613f62565b611343565b005b34801561054e57600080fd5b506105696004803603810190610564919061429a565b61147d565b005b34801561057757600080fd5b50610580611509565b005b34801561058e57600080fd5b506105a960048036038101906105a49190614112565b6115c7565b005b3480156105b757600080fd5b506105c06115e7565b6040516105cd9190613f1b565b60405180910390f35b3480156105e257600080fd5b506105fd60048036038101906105f89190613f62565b611637565b60405161060a9190613f1b565b60405180910390f35b34801561061f57600080fd5b5061063a60048036038101906106359190613f62565b6116a8565b60405161064f9998979695949392919061432f565b60405180910390f35b34801561066457600080fd5b5061067f600480360381019061067a9190613f62565b6117c3565b60405161068c919061408b565b60405180910390f35b3480156106a157600080fd5b506106aa611875565b6040516106b79190613f1b565b60405180910390f35b3480156106cc57600080fd5b506106d561187b565b6040516106e291906145d0565b60405180910390f35b3480156106f757600080fd5b50610700611a0a565b60405161070d9190613f1b565b60405180910390f35b34801561072257600080fd5b5061073d600480360381019061073891906145f2565b611a10565b60405161074a9190613f1b565b60405180910390f35b34801561075f57600080fd5b5061077a600480360381019061077591906145f2565b611a71565b6040516107879190613f1b565b60405180910390f35b34801561079c57600080fd5b506107a5611b29565b005b3480156107b357600080fd5b506107bc611bb1565b6040516107c99190613f1b565b60405180910390f35b3480156107de57600080fd5b506107f960048036038101906107f491906145f2565b611bb7565b60405161080691906146ce565b60405180910390f35b34801561081b57600080fd5b50610824611c67565b604051610831919061408b565b60405180910390f35b34801561084657600080fd5b5061084f611c91565b60405161085c9190613f1b565b60405180910390f35b34801561087157600080fd5b5061087a611cab565b6040516108879190614028565b60405180910390f35b34801561089c57600080fd5b506108b760048036038101906108b2919061471c565b611d3d565b005b3480156108c557600080fd5b506108ce611d53565b6040516108db9190613f1b565b60405180910390f35b3480156108f057600080fd5b5061090b600480360381019061090691906147fd565b611d59565b005b34801561091957600080fd5b50610934600480360381019061092f9190613f62565b611dbb565b6040516109419190613f1b565b60405180910390f35b34801561095657600080fd5b50610971600480360381019061096c91906145f2565b611dd3565b60405161097e9190613f1b565b60405180910390f35b34801561099357600080fd5b506109ae60048036038101906109a99190613f62565b611e34565b6040516109bb9190614028565b60405180910390f35b3480156109d057600080fd5b506109d9611edb565b6040516109e69190613f1b565b60405180910390f35b3480156109fb57600080fd5b50610a04611efe565b604051610a119190613f1b565b60405180910390f35b348015610a2657600080fd5b50610a2f611fc0565b604051610a3c9190613f1b565b60405180910390f35b348015610a5157600080fd5b50610a5a611fc6565b604051610a6791906148df565b60405180910390f35b348015610a7c57600080fd5b50610a85611fec565b005b348015610a9357600080fd5b50610aae6004803603810190610aa99190613f62565b612134565b005b348015610abc57600080fd5b50610ad76004803603810190610ad291906148fa565b6121ea565b604051610ae49190613ee7565b60405180910390f35b348015610af957600080fd5b50610b0261227e565b604051610b0f9190613f1b565b60405180910390f35b348015610b2457600080fd5b50610b3f6004803603810190610b3a91906145f2565b6122c3565b005b348015610b4d57600080fd5b50610b566123bb565b005b348015610b6457600080fd5b50610b6d6125ae565b604051610b7a9190613f1b565b60405180910390f35b60007f780e9d63000000000000000000000000000000000000000000000000000000007bffffffffffffffffffffffffffffffffffffffffffffffffffffffff1916827bffffffffffffffffffffffffffffffffffffffffffffffffffffffff19161480610bf65750610bf5826125b4565b5b9050919050565b6000806000905060005b600b54811015610c4557601560008281526020019081526020016000205482610c309190614969565b91508080610c3d906149bf565b915050610c07565b819250505090565b60146020528060005260406000206000915090505481565b606060008054610c7490614a37565b80601f0160208091040260200160405190810160405280929190818152602001828054610ca090614a37565b8015610ced5780601f10610cc257610100808354040283529160200191610ced565b820191906000526020600020905b815481529060010190602001808311610cd057829003601f168201915b5050505050905090565b6000610d0282612696565b610d41576040517f08c379a0000000000000000000000000000000000000000000000000000000008152600401610d3890614adb565b60405180910390fd5b6004600083815260200190815260200160002060009054906101000a900473ffffffffffffffffffffffffffffffffffffffff169050919050565b6000805b610d8933611a71565b811015610def5760146000610d9e338461129e565b81526020019081526020016000205482610db89190614969565b9150600060146000610dca338561129e565b8152602001908152602001600020819055508080610de7906149bf565b915050610d80565b50600c60009054906101000a900473ffffffffffffffffffffffffffffffffffffffff1673ffffffffffffffffffffffffffffffffffffffff1663a9059cbb33836040518363ffffffff1660e01b8152600401610e4d929190614afb565b6020604051808303816000875af1158015610e6c573d6000803e3d6000fd5b505050506040513d601f19601f82011682018060405250810190610e909190614b39565b5050565b6000610e9f826117c3565b90508073ffffffffffffffffffffffffffffffffffffffff168373ffffffffffffffffffffffffffffffffffffffff161415610f10576040517f08c379a0000000000000000000000000000000000000000000000000000000008152600401610f0790614bd8565b60405180910390fd5b8073ffffffffffffffffffffffffffffffffffffffff16610f2f612702565b73ffffffffffffffffffffffffffffffffffffffff161480610f5e5750610f5d81610f58612702565b6121ea565b5b610f9d576040517f08c379a0000000000000000000000000000000000000000000000000000000008152600401610f9490614c6a565b60405180910390fd5b610fa7838361270a565b505050565b600d5481565b80600c60009054906101000a900473ffffffffffffffffffffffffffffffffffffffff1673ffffffffffffffffffffffffffffffffffffffff166370a08231336040518263ffffffff1660e01b815260040161100e919061408b565b602060405180830381865afa15801561102b573d6000803e3d6000fd5b505050506040513d601f19601f8201168201806040525081019061104f9190614c9f565b101561105a57600080fd5b600c60009054906101000a900473ffffffffffffffffffffffffffffffffffffffff1673ffffffffffffffffffffffffffffffffffffffff166323b872dd3330846040518463ffffffff1660e01b81526004016110b993929190614ccc565b6020604051808303816000875af11580156110d8573d6000803e3d6000fd5b505050506040513d601f19601f820116820180604052508101906110fc9190614b39565b61110557600080fd5b80600f60008282546111179190614969565b9250508190555050565b6000600880549050905090565b611137816117c3565b73ffffffffffffffffffffffffffffffffffffffff163373ffffffffffffffffffffffffffffffffffffffff161461116e57600080fd5b600c60009054906101000a900473ffffffffffffffffffffffffffffffffffffffff1673ffffffffffffffffffffffffffffffffffffffff1663a9059cbb3360146000858152602001908152602001600020546040518363ffffffff1660e01b81526004016111de929190614afb565b6020604051808303816000875af11580156111fd573d6000803e3d6000fd5b505050506040513d601f19601f820116820180604052508101906112219190614b39565b506000601460008381526020019081526020016000208190555050565b61124f611249612702565b826127c3565b61128e576040517f08c379a000000000000000000000000000000000000000000000000000000000815260040161128590614d75565b60405180910390fd5b6112998383836128a1565b505050565b60006112a983611a71565b82106112ea576040517f08c379a00000000000000000000000000000000000000000000000000000000081526004016112e190614e07565b60405180910390fd5b600660008473ffffffffffffffffffffffffffffffffffffffff1673ffffffffffffffffffffffffffffffffffffffff168152602001908152602001600020600083815260200190815260200160002054905092915050565b3373ffffffffffffffffffffffffffffffffffffffff16611363826117c3565b73ffffffffffffffffffffffffffffffffffffffff161461138357600080fd5b61138c81612afd565b600c60009054906101000a900473ffffffffffffffffffffffffffffffffffffffff1673ffffffffffffffffffffffffffffffffffffffff1663a9059cbb33600e54600d546113db9190614e27565b6040518363ffffffff1660e01b81526004016113f8929190614afb565b6020604051808303816000875af1158015611417573d6000803e3d6000fd5b505050506040513d601f19601f8201168201806040525081019061143b9190614b39565b5060016016828154811061145257611451614e5b565b5b906000526020600020906008020160070160006101000a81548160ff02191690831515021790555050565b3373ffffffffffffffffffffffffffffffffffffffff1661149d826117c3565b73ffffffffffffffffffffffffffffffffffffffff16146114bd57600080fd5b60008251116114cb57600080fd5b81601682815481106114e0576114df614e5b565b5b90600052602060002090600802016000019080519060200190611504929190613d90565b505050565b6000805b61151633611a71565b81101561157c576015600061152b338461129e565b815260200190815260200160002054826115459190614969565b9150600060156000611557338561129e565b8152602001908152602001600020819055508080611574906149bf565b91505061150d565b503373ffffffffffffffffffffffffffffffffffffffff166108fc829081150290604051600060405180830381858888f193505050501580156115c3573d6000803e3d6000fd5b5050565b6115e283838360405180602001604052806000815250611d59565b505050565b6000806000905060005b600b5481101561162f5760146000828152602001908152602001600020548261161a9190614969565b91508080611627906149bf565b9150506115f1565b819250505090565b6000611641611121565b8210611682576040517f08c379a000000000000000000000000000000000000000000000000000000000815260040161167990614efc565b60405180910390fd5b6008828154811061169657611695614e5b565b5b90600052602060002001549050919050565b601681815481106116b857600080fd5b90600052602060002090600802016000915090508060000180546116db90614a37565b80601f016020809104026020016040519081016040528092919081815260200182805461170790614a37565b80156117545780601f1061172957610100808354040283529160200191611754565b820191906000526020600020905b81548152906001019060200180831161173757829003601f168201915b5050505050908060010154908060020154908060030160009054906101000a900460ff16908060040154908060050160009054906101000a900461ffff16908060050160029054906101000a900460ff16908060060154908060070160009054906101000a900460ff16905089565b6000806002600084815260200190815260200160002060009054906101000a900473ffffffffffffffffffffffffffffffffffffffff169050600073ffffffffffffffffffffffffffffffffffffffff168173ffffffffffffffffffffffffffffffffffffffff16141561186c576040517f08c379a000000000000000000000000000000000000000000000000000000000815260040161186390614f8e565b60405180910390fd5b80915050919050565b60125481565b60606016805480602002602001604051908101604052809291908181526020016000905b82821015611a015783829060005260206000209060080201604051806101200160405290816000820180546118d390614a37565b80601f01602080910402602001604051908101604052809291908181526020018280546118ff90614a37565b801561194c5780601f106119215761010080835404028352916020019161194c565b820191906000526020600020905b81548152906001019060200180831161192f57829003601f168201915b5050505050815260200160018201548152602001600282015481526020016003820160009054906101000a900460ff1660ff1660ff168152602001600482015481526020016005820160009054906101000a900461ffff1661ffff1661ffff1681526020016005820160029054906101000a900460ff1660ff1660ff168152602001600682015481526020016007820160009054906101000a900460ff1615151515815250508152602001906001019061189f565b50505050905090565b60105481565b6000806000905060005b611a2384611a71565b811015611a675760156000611a38868461129e565b81526020019081526020016000205482611a529190614969565b91508080611a5f906149bf565b915050611a1a565b5080915050919050565b60008073ffffffffffffffffffffffffffffffffffffffff168273ffffffffffffffffffffffffffffffffffffffff161415611ae2576040517f08c379a0000000000000000000000000000000000000000000000000000000008152600401611ad990615020565b60405180910390fd5b600360008373ffffffffffffffffffffffffffffffffffffffff1673ffffffffffffffffffffffffffffffffffffffff168152602001908152602001600020549050919050565b611b31612702565b73ffffffffffffffffffffffffffffffffffffffff16611b4f611c67565b73ffffffffffffffffffffffffffffffffffffffff1614611ba5576040517f08c379a0000000000000000000000000000000000000000000000000000000008152600401611b9c9061508c565b60405180910390fd5b611baf6000612c0e565b565b60115481565b60606000611bc483611a71565b67ffffffffffffffff811115611bdd57611bdc61416f565b5b604051908082528060200260200182016040528015611c0b5781602001602082028036833780820191505090505b50905060005b611c1a84611a71565b811015611c5d57611c2b848261129e565b828281518110611c3e57611c3d614e5b565b5b6020026020010181815250508080611c55906149bf565b915050611c11565b8192505050919050565b6000600a60009054906101000a900473ffffffffffffffffffffffffffffffffffffffff16905090565b6000611c9b610bfd565b47611ca69190614e27565b905090565b606060018054611cba90614a37565b80601f0160208091040260200160405190810160405280929190818152602001828054611ce690614a37565b8015611d335780601f10611d0857610100808354040283529160200191611d33565b820191906000526020600020905b815481529060010190602001808311611d1657829003601f168201915b5050505050905090565b611d4f611d48612702565b8383612cd4565b5050565b600f5481565b611d6a611d64612702565b836127c3565b611da9576040517f08c379a0000000000000000000000000000000000000000000000000000000008152600401611da090614d75565b60405180910390fd5b611db584848484612e41565b50505050565b60156020528060005260406000206000915090505481565b6000806000905060005b611de684611a71565b811015611e2a5760146000611dfb868461129e565b81526020019081526020016000205482611e159190614969565b91508080611e22906149bf565b915050611ddd565b5080915050919050565b6060611e3f82612696565b611e7e576040517f08c379a0000000000000000000000000000000000000000000000000000000008152600401611e759061511e565b60405180910390fd5b6000611e88612e9d565b90506000815111611ea85760405180602001604052806000815250611ed3565b80611eb284612eb4565b604051602001611ec392919061517a565b6040516020818303038152906040525b915050919050565b60004262093a80601254611eef9190614969565b611ef99190614e27565b905090565b6000600f54611f0b6115e7565b600c60009054906101000a900473ffffffffffffffffffffffffffffffffffffffff1673ffffffffffffffffffffffffffffffffffffffff166370a08231306040518263ffffffff1660e01b8152600401611f66919061408b565b602060405180830381865afa158015611f83573d6000803e3d6000fd5b505050506040513d601f19601f82011682018060405250810190611fa79190614c9f565b611fb19190614e27565b611fbb9190614e27565b905090565b600e5481565b600c60009054906101000a900473ffffffffffffffffffffffffffffffffffffffff1681565b62093a80601254611ffd9190614969565b421161200857600080fd5b6000600f549050600f5461201a611efe565b111561203557600f548161202e9190614969565b905061204b565b61203d611efe565b816120489190614969565b90505b6000819050600061205a61227e565b90506000818361206a91906151cd565b9050600082612077611c91565b61208191906151cd565b905060005b600b5481101561211d5761209981613015565b836120a491906151fe565b6014600083815260200190815260200160002060008282546120c69190614969565b925050819055506120d681613015565b826120e191906151fe565b6015600083815260200190815260200160002060008282546121039190614969565b925050819055508080612115906149bf565b915050612086565b6000600f8190555042601281905550505050505050565b61213d816117c3565b73ffffffffffffffffffffffffffffffffffffffff163373ffffffffffffffffffffffffffffffffffffffff161461217457600080fd5b3373ffffffffffffffffffffffffffffffffffffffff166108fc60156000848152602001908152602001600020549081150290604051600060405180830381858888f193505050501580156121cd573d6000803e3d6000fd5b506000601560008381526020019081526020016000208190555050565b6000600560008473ffffffffffffffffffffffffffffffffffffffff1673ffffffffffffffffffffffffffffffffffffffff16815260200190815260200160002060008373ffffffffffffffffffffffffffffffffffffffff1673ffffffffffffffffffffffffffffffffffffffff16815260200190815260200160002060009054906101000a900460ff16905092915050565b6000806000905060005b600b548110156122bb5761229b81613015565b826122a69190614969565b915080806122b3906149bf565b915050612288565b819250505090565b6122cb612702565b73ffffffffffffffffffffffffffffffffffffffff166122e9611c67565b73ffffffffffffffffffffffffffffffffffffffff161461233f576040517f08c379a00000000000000000000000000000000000000000000000000000000081526004016123369061508c565b60405180910390fd5b600073ffffffffffffffffffffffffffffffffffffffff168173ffffffffffffffffffffffffffffffffffffffff1614156123af576040517f08c379a00000000000000000000000000000000000000000000000000000000081526004016123a6906152ca565b60405180910390fd5b6123b881612c0e565b50565b600d54600c60009054906101000a900473ffffffffffffffffffffffffffffffffffffffff1673ffffffffffffffffffffffffffffffffffffffff166370a08231336040518263ffffffff1660e01b8152600401612419919061408b565b602060405180830381865afa158015612436573d6000803e3d6000fd5b505050506040513d601f19601f8201168201806040525081019061245a9190614c9f565b101561246557600080fd5b600c60009054906101000a900473ffffffffffffffffffffffffffffffffffffffff1673ffffffffffffffffffffffffffffffffffffffff166323b872dd3330600d546040518463ffffffff1660e01b81526004016124c693929190614ccc565b6020604051808303816000875af11580156124e5573d6000803e3d6000fd5b505050506040513d601f19601f820116820180604052508101906125099190614b39565b61251257600080fd5b600e54600d546125229190614e27565b601060008282546125339190614969565b92505081905550600e54600f600082825461254e9190614969565b9250508190555060006125a06040518060400160405280600781526020017f63466f6e7420230000000000000000000000000000000000000000000000000081525061259b600b54613095565b6131fc565b90506125ab81613228565b50565b60135481565b60007f80ac58cd000000000000000000000000000000000000000000000000000000007bffffffffffffffffffffffffffffffffffffffffffffffffffffffff1916827bffffffffffffffffffffffffffffffffffffffffffffffffffffffff1916148061267f57507f5b5e139f000000000000000000000000000000000000000000000000000000007bffffffffffffffffffffffffffffffffffffffffffffffffffffffff1916827bffffffffffffffffffffffffffffffffffffffffffffffffffffffff1916145b8061268f575061268e826134e0565b5b9050919050565b60008073ffffffffffffffffffffffffffffffffffffffff166002600084815260200190815260200160002060009054906101000a900473ffffffffffffffffffffffffffffffffffffffff1673ffffffffffffffffffffffffffffffffffffffff1614159050919050565b600033905090565b816004600083815260200190815260200160002060006101000a81548173ffffffffffffffffffffffffffffffffffffffff021916908373ffffffffffffffffffffffffffffffffffffffff160217905550808273ffffffffffffffffffffffffffffffffffffffff1661277d836117c3565b73ffffffffffffffffffffffffffffffffffffffff167f8c5be1e5ebec7d5bd14f71427d1e84f3dd0314c0f7b2291e5b200ac8c7c3b92560405160405180910390a45050565b60006127ce82612696565b61280d576040517f08c379a00000000000000000000000000000000000000000000000000000000081526004016128049061535c565b60405180910390fd5b6000612818836117c3565b90508073ffffffffffffffffffffffffffffffffffffffff168473ffffffffffffffffffffffffffffffffffffffff16148061288757508373ffffffffffffffffffffffffffffffffffffffff1661286f84610cf7565b73ffffffffffffffffffffffffffffffffffffffff16145b80612898575061289781856121ea565b5b91505092915050565b8273ffffffffffffffffffffffffffffffffffffffff166128c1826117c3565b73ffffffffffffffffffffffffffffffffffffffff1614612917576040517f08c379a000000000000000000000000000000000000000000000000000000000815260040161290e906153ee565b60405180910390fd5b600073ffffffffffffffffffffffffffffffffffffffff168273ffffffffffffffffffffffffffffffffffffffff161415612987576040517f08c379a000000000000000000000000000000000000000000000000000000000815260040161297e90615480565b60405180910390fd5b61299283838361354a565b61299d60008261270a565b6001600360008573ffffffffffffffffffffffffffffffffffffffff1673ffffffffffffffffffffffffffffffffffffffff16815260200190815260200160002060008282546129ed9190614e27565b925050819055506001600360008473ffffffffffffffffffffffffffffffffffffffff1673ffffffffffffffffffffffffffffffffffffffff1681526020019081526020016000206000828254612a449190614969565b92505081905550816002600083815260200190815260200160002060006101000a81548173ffffffffffffffffffffffffffffffffffffffff021916908373ffffffffffffffffffffffffffffffffffffffff160217905550808273ffffffffffffffffffffffffffffffffffffffff168473ffffffffffffffffffffffffffffffffffffffff167fddf252ad1be2c89b69c2b068fc378daa952ba7f163c4a11628f55a4df523b3ef60405160405180910390a4505050565b6000612b08826117c3565b9050612b168160008461354a565b612b2160008361270a565b6001600360008373ffffffffffffffffffffffffffffffffffffffff1673ffffffffffffffffffffffffffffffffffffffff1681526020019081526020016000206000828254612b719190614e27565b925050819055506002600083815260200190815260200160002060006101000a81549073ffffffffffffffffffffffffffffffffffffffff021916905581600073ffffffffffffffffffffffffffffffffffffffff168273ffffffffffffffffffffffffffffffffffffffff167fddf252ad1be2c89b69c2b068fc378daa952ba7f163c4a11628f55a4df523b3ef60405160405180910390a45050565b6000600a60009054906101000a900473ffffffffffffffffffffffffffffffffffffffff16905081600a60006101000a81548173ffffffffffffffffffffffffffffffffffffffff021916908373ffffffffffffffffffffffffffffffffffffffff1602179055508173ffffffffffffffffffffffffffffffffffffffff168173ffffffffffffffffffffffffffffffffffffffff167f8be0079c531659141344cd1fd0a4f28419497f9722a3daafe3b4186f6b6457e060405160405180910390a35050565b8173ffffffffffffffffffffffffffffffffffffffff168373ffffffffffffffffffffffffffffffffffffffff161415612d43576040517f08c379a0000000000000000000000000000000000000000000000000000000008152600401612d3a906154ec565b60405180910390fd5b80600560008573ffffffffffffffffffffffffffffffffffffffff1673ffffffffffffffffffffffffffffffffffffffff16815260200190815260200160002060008473ffffffffffffffffffffffffffffffffffffffff1673ffffffffffffffffffffffffffffffffffffffff16815260200190815260200160002060006101000a81548160ff0219169083151502179055508173ffffffffffffffffffffffffffffffffffffffff168373ffffffffffffffffffffffffffffffffffffffff167f17307eab39ab6107e8899845ad3d59bd9653f200f220920489ca2b5937696c3183604051612e349190613ee7565b60405180910390a3505050565b612e4c8484846128a1565b612e588484848461365e565b612e97576040517f08c379a0000000000000000000000000000000000000000000000000000000008152600401612e8e9061557e565b60405180910390fd5b50505050565b606060405180602001604052806000815250905090565b60606000821415612efc576040518060400160405280600181526020017f30000000000000000000000000000000000000000000000000000000000000008152509050613010565b600082905060005b60008214612f2e578080612f17906149bf565b915050600a82612f2791906151cd565b9150612f04565b60008167ffffffffffffffff811115612f4a57612f4961416f565b5b6040519080825280601f01601f191660200182016040528015612f7c5781602001600182028036833780820191505090505b5090505b6000851461300957600182612f959190614e27565b9150600a85612fa4919061559e565b6030612fb09190614969565b60f81b818381518110612fc657612fc5614e5b565b5b60200101907effffffffffffffffffffffffffffffffffffffffffffffffffffffffffffff1916908160001a905350600a8561300291906151cd565b9450612f80565b8093505050505b919050565b60008060009050601683815481106130305761302f614e5b565b5b906000526020600020906008020160070160009054906101000a900460ff1661308c576016838154811061306757613066614e5b565b5b906000526020600020906008020160030160009054906101000a900460ff1660ff1690505b80915050919050565b606060008214156130dd576040518060400160405280600181526020017f300000000000000000000000000000000000000000000000000000000000000081525090506131f7565b600082905060005b6000821461310f5780806130f8906149bf565b915050600a8261310891906151cd565b91506130e5565b60008167ffffffffffffffff81111561312b5761312a61416f565b5b6040519080825280601f01601f19166020018201604052801561315d5781602001600182028036833780820191505090505b50905060008290508593505b600084146131ef57600a8461317e919061559e565b603061318a9190614969565b60f81b8282613198906155cf565b925082815181106131ac576131ab614e5b565b5b60200101907effffffffffffffffffffffffffffffffffffffffffffffffffffffffffffff1916908160001a905350600a846131e891906151cd565b9350613169565b819450505050505b919050565b6060828260405160200161321192919061517a565b604051602081830303815290604052905092915050565b6000600161323660646137e6565b61324091906155f9565b90506000613254662386f26fc100006137e6565b90506000613268662386f26fc100006137e6565b9050600060016132796127106137e6565b6132839190614969565b90506000600a613293608c6137e6565b61329d9190614969565b9050600060019050600042905060298760ff1610156132dd5760029150600b8760ff1610156132dc576003915060028260ff1610156132db57600491505b5b5b60006040518061012001604052808a8152602001600b5481526020018881526020018460ff1681526020018781526020018661ffff1681526020018560ff16815260200183815260200160001515815250905060168190806001815401808255809150506001900390600052602060002090600802016000909190919091506000820151816000019080519060200190613378929190613d90565b50602082015181600101556040820151816002015560608201518160030160006101000a81548160ff021916908360ff1602179055506080820151816004015560a08201518160050160006101000a81548161ffff021916908361ffff16021790555060c08201518160050160026101000a81548160ff021916908360ff16021790555060e082015181600601556101008201518160070160006101000a81548160ff0219169083151502179055505050600060146000600b54815260200190815260200160002081905550600060156000600b5481526020019081526020016000208190555061346b33600b5461382b565b3373ffffffffffffffffffffffffffffffffffffffff167fe6b5d2375ea5860192277472eed072ebc6805abc7699b637dfe1e4806126208a600b54896040516134b5929190615630565b60405180910390a2600b60008154809291906134d0906149bf565b9190505550505050505050505050565b60007f01ffc9a7000000000000000000000000000000000000000000000000000000007bffffffffffffffffffffffffffffffffffffffffffffffffffffffff1916827bffffffffffffffffffffffffffffffffffffffffffffffffffffffff1916149050919050565b613555838383613849565b600073ffffffffffffffffffffffffffffffffffffffff168373ffffffffffffffffffffffffffffffffffffffff161415613598576135938161384e565b6135d7565b8173ffffffffffffffffffffffffffffffffffffffff168373ffffffffffffffffffffffffffffffffffffffff16146135d6576135d58382613897565b5b5b600073ffffffffffffffffffffffffffffffffffffffff168273ffffffffffffffffffffffffffffffffffffffff16141561361a5761361581613a04565b613659565b8273ffffffffffffffffffffffffffffffffffffffff168273ffffffffffffffffffffffffffffffffffffffff1614613658576136578282613ad5565b5b5b505050565b600061367f8473ffffffffffffffffffffffffffffffffffffffff16613b54565b156137d9578373ffffffffffffffffffffffffffffffffffffffff1663150b7a026136a8612702565b8786866040518563ffffffff1660e01b81526004016136ca94939291906156ae565b6020604051808303816000875af192505050801561370657506040513d601f19601f82011682018060405250810190613703919061570f565b60015b613789573d8060008114613736576040519150601f19603f3d011682016040523d82523d6000602084013e61373b565b606091505b50600081511415613781576040517f08c379a00000000000000000000000000000000000000000000000000000000081526004016137789061557e565b60405180910390fd5b805181602001fd5b63150b7a0260e01b7bffffffffffffffffffffffffffffffffffffffffffffffffffffffff1916817bffffffffffffffffffffffffffffffffffffffffffffffffffffffff1916149150506137de565b600190505b949350505050565b60008042336040516020016137fc9291906157a5565b6040516020818303038152906040528051906020012060001c90508281613823919061559e565b915050919050565b613845828260405180602001604052806000815250613b67565b5050565b505050565b6008805490506009600083815260200190815260200160002081905550600881908060018154018082558091505060019003906000526020600020016000909190919091505550565b600060016138a484611a71565b6138ae9190614e27565b9050600060076000848152602001908152602001600020549050818114613993576000600660008673ffffffffffffffffffffffffffffffffffffffff1673ffffffffffffffffffffffffffffffffffffffff168152602001908152602001600020600084815260200190815260200160002054905080600660008773ffffffffffffffffffffffffffffffffffffffff1673ffffffffffffffffffffffffffffffffffffffff168152602001908152602001600020600084815260200190815260200160002081905550816007600083815260200190815260200160002081905550505b6007600084815260200190815260200160002060009055600660008573ffffffffffffffffffffffffffffffffffffffff1673ffffffffffffffffffffffffffffffffffffffff16815260200190815260200160002060008381526020019081526020016000206000905550505050565b60006001600880549050613a189190614e27565b9050600060096000848152602001908152602001600020549050600060088381548110613a4857613a47614e5b565b5b906000526020600020015490508060088381548110613a6a57613a69614e5b565b5b906000526020600020018190555081600960008381526020019081526020016000208190555060096000858152602001908152602001600020600090556008805480613ab957613ab86157d1565b5b6001900381819060005260206000200160009055905550505050565b6000613ae083611a71565b905081600660008573ffffffffffffffffffffffffffffffffffffffff1673ffffffffffffffffffffffffffffffffffffffff168152602001908152602001600020600083815260200190815260200160002081905550806007600084815260200190815260200160002081905550505050565b600080823b905060008111915050919050565b613b718383613bc2565b613b7e600084848461365e565b613bbd576040517f08c379a0000000000000000000000000000000000000000000000000000000008152600401613bb49061557e565b60405180910390fd5b505050565b600073ffffffffffffffffffffffffffffffffffffffff168273ffffffffffffffffffffffffffffffffffffffff161415613c32576040517f08c379a0000000000000000000000000000000000000000000000000000000008152600401613c299061584c565b60405180910390fd5b613c3b81612696565b15613c7b576040517f08c379a0000000000000000000000000000000000000000000000000000000008152600401613c72906158b8565b60405180910390fd5b613c876000838361354a565b6001600360008473ffffffffffffffffffffffffffffffffffffffff1673ffffffffffffffffffffffffffffffffffffffff1681526020019081526020016000206000828254613cd79190614969565b92505081905550816002600083815260200190815260200160002060006101000a81548173ffffffffffffffffffffffffffffffffffffffff021916908373ffffffffffffffffffffffffffffffffffffffff160217905550808273ffffffffffffffffffffffffffffffffffffffff16600073ffffffffffffffffffffffffffffffffffffffff167fddf252ad1be2c89b69c2b068fc378daa952ba7f163c4a11628f55a4df523b3ef60405160405180910390a45050565b828054613d9c90614a37565b90600052602060002090601f016020900481019282613dbe5760008555613e05565b82601f10613dd757805160ff1916838001178555613e05565b82800160010185558215613e05579182015b82811115613e04578251825591602001919060010190613de9565b5b509050613e129190613e16565b5090565b5b80821115613e2f576000816000905550600101613e17565b5090565b6000604051905090565b600080fd5b600080fd5b60007fffffffff0000000000000000000000000000000000000000000000000000000082169050919050565b613e7c81613e47565b8114613e8757600080fd5b50565b600081359050613e9981613e73565b92915050565b600060208284031215613eb557613eb4613e3d565b5b6000613ec384828501613e8a565b91505092915050565b60008115159050919050565b613ee181613ecc565b82525050565b6000602082019050613efc6000830184613ed8565b92915050565b6000819050919050565b613f1581613f02565b82525050565b6000602082019050613f306000830184613f0c565b92915050565b613f3f81613f02565b8114613f4a57600080fd5b50565b600081359050613f5c81613f36565b92915050565b600060208284031215613f7857613f77613e3d565b5b6000613f8684828501613f4d565b91505092915050565b600081519050919050565b600082825260208201905092915050565b60005b83811015613fc9578082015181840152602081019050613fae565b83811115613fd8576000848401525b50505050565b6000601f19601f8301169050919050565b6000613ffa82613f8f565b6140048185613f9a565b9350614014818560208601613fab565b61401d81613fde565b840191505092915050565b600060208201905081810360008301526140428184613fef565b905092915050565b600073ffffffffffffffffffffffffffffffffffffffff82169050919050565b60006140758261404a565b9050919050565b6140858161406a565b82525050565b60006020820190506140a0600083018461407c565b92915050565b6140af8161406a565b81146140ba57600080fd5b50565b6000813590506140cc816140a6565b92915050565b600080604083850312156140e9576140e8613e3d565b5b60006140f7858286016140bd565b925050602061410885828601613f4d565b9150509250929050565b60008060006060848603121561412b5761412a613e3d565b5b6000614139868287016140bd565b935050602061414a868287016140bd565b925050604061415b86828701613f4d565b9150509250925092565b600080fd5b600080fd5b7f4e487b7100000000000000000000000000000000000000000000000000000000600052604160045260246000fd5b6141a782613fde565b810181811067ffffffffffffffff821117156141c6576141c561416f565b5b80604052505050565b60006141d9613e33565b90506141e5828261419e565b919050565b600067ffffffffffffffff8211156142055761420461416f565b5b61420e82613fde565b9050602081019050919050565b82818337600083830152505050565b600061423d614238846141ea565b6141cf565b9050828152602081018484840111156142595761425861416a565b5b61426484828561421b565b509392505050565b600082601f83011261428157614280614165565b5b813561429184826020860161422a565b91505092915050565b600080604083850312156142b1576142b0613e3d565b5b600083013567ffffffffffffffff8111156142cf576142ce613e42565b5b6142db8582860161426c565b92505060206142ec85828601613f4d565b9150509250929050565b600060ff82169050919050565b61430c816142f6565b82525050565b600061ffff82169050919050565b61432981614312565b82525050565b600061012082019050818103600083015261434a818c613fef565b9050614359602083018b613f0c565b614366604083018a613f0c565b6143736060830189614303565b6143806080830188613f0c565b61438d60a0830187614320565b61439a60c0830186614303565b6143a760e0830185613f0c565b6143b5610100830184613ed8565b9a9950505050505050505050565b600081519050919050565b600082825260208201905092915050565b6000819050602082019050919050565b600082825260208201905092915050565b600061440b82613f8f565b61441581856143ef565b9350614425818560208601613fab565b61442e81613fde565b840191505092915050565b61444281613f02565b82525050565b614451816142f6565b82525050565b61446081614312565b82525050565b61446f81613ecc565b82525050565b60006101208301600083015184820360008601526144938282614400565b91505060208301516144a86020860182614439565b5060408301516144bb6040860182614439565b5060608301516144ce6060860182614448565b5060808301516144e16080860182614439565b5060a08301516144f460a0860182614457565b5060c083015161450760c0860182614448565b5060e083015161451a60e0860182614439565b5061010083015161452f610100860182614466565b508091505092915050565b60006145468383614475565b905092915050565b6000602082019050919050565b6000614566826143c3565b61457081856143ce565b935083602082028501614582856143df565b8060005b858110156145be578484038952815161459f858261453a565b94506145aa8361454e565b925060208a01995050600181019050614586565b50829750879550505050505092915050565b600060208201905081810360008301526145ea818461455b565b905092915050565b60006020828403121561460857614607613e3d565b5b6000614616848285016140bd565b91505092915050565b600081519050919050565b600082825260208201905092915050565b6000819050602082019050919050565b60006146578383614439565b60208301905092915050565b6000602082019050919050565b600061467b8261461f565b614685818561462a565b93506146908361463b565b8060005b838110156146c15781516146a8888261464b565b97506146b383614663565b925050600181019050614694565b5085935050505092915050565b600060208201905081810360008301526146e88184614670565b905092915050565b6146f981613ecc565b811461470457600080fd5b50565b600081359050614716816146f0565b92915050565b6000806040838503121561473357614732613e3d565b5b6000614741858286016140bd565b925050602061475285828601614707565b9150509250929050565b600067ffffffffffffffff8211156147775761477661416f565b5b61478082613fde565b9050602081019050919050565b60006147a061479b8461475c565b6141cf565b9050828152602081018484840111156147bc576147bb61416a565b5b6147c784828561421b565b509392505050565b600082601f8301126147e4576147e3614165565b5b81356147f484826020860161478d565b91505092915050565b6000806000806080858703121561481757614816613e3d565b5b6000614825878288016140bd565b9450506020614836878288016140bd565b935050604061484787828801613f4d565b925050606085013567ffffffffffffffff81111561486857614867613e42565b5b614874878288016147cf565b91505092959194509250565b6000819050919050565b60006148a56148a061489b8461404a565b614880565b61404a565b9050919050565b60006148b78261488a565b9050919050565b60006148c9826148ac565b9050919050565b6148d9816148be565b82525050565b60006020820190506148f460008301846148d0565b92915050565b6000806040838503121561491157614910613e3d565b5b600061491f858286016140bd565b9250506020614930858286016140bd565b9150509250929050565b7f4e487b7100000000000000000000000000000000000000000000000000000000600052601160045260246000fd5b600061497482613f02565b915061497f83613f02565b9250827fffffffffffffffffffffffffffffffffffffffffffffffffffffffffffffffff038211156149b4576149b361493a565b5b828201905092915050565b60006149ca82613f02565b91507fffffffffffffffffffffffffffffffffffffffffffffffffffffffffffffffff8214156149fd576149fc61493a565b5b600182019050919050565b7f4e487b7100000000000000000000000000000000000000000000000000000000600052602260045260246000fd5b60006002820490506001821680614a4f57607f821691505b60208210811415614a6357614a62614a08565b5b50919050565b7f4552433732313a20617070726f76656420717565727920666f72206e6f6e657860008201527f697374656e7420746f6b656e0000000000000000000000000000000000000000602082015250565b6000614ac5602c83613f9a565b9150614ad082614a69565b604082019050919050565b60006020820190508181036000830152614af481614ab8565b9050919050565b6000604082019050614b10600083018561407c565b614b1d6020830184613f0c565b9392505050565b600081519050614b33816146f0565b92915050565b600060208284031215614b4f57614b4e613e3d565b5b6000614b5d84828501614b24565b91505092915050565b7f4552433732313a20617070726f76616c20746f2063757272656e74206f776e6560008201527f7200000000000000000000000000000000000000000000000000000000000000602082015250565b6000614bc2602183613f9a565b9150614bcd82614b66565b604082019050919050565b60006020820190508181036000830152614bf181614bb5565b9050919050565b7f4552433732313a20617070726f76652063616c6c6572206973206e6f74206f7760008201527f6e6572206e6f7220617070726f76656420666f7220616c6c0000000000000000602082015250565b6000614c54603883613f9a565b9150614c5f82614bf8565b604082019050919050565b60006020820190508181036000830152614c8381614c47565b9050919050565b600081519050614c9981613f36565b92915050565b600060208284031215614cb557614cb4613e3d565b5b6000614cc384828501614c8a565b91505092915050565b6000606082019050614ce1600083018661407c565b614cee602083018561407c565b614cfb6040830184613f0c565b949350505050565b7f4552433732313a207472616e736665722063616c6c6572206973206e6f74206f60008201527f776e6572206e6f7220617070726f766564000000000000000000000000000000602082015250565b6000614d5f603183613f9a565b9150614d6a82614d03565b604082019050919050565b60006020820190508181036000830152614d8e81614d52565b9050919050565b7f455243373231456e756d657261626c653a206f776e657220696e646578206f7560008201527f74206f6620626f756e6473000000000000000000000000000000000000000000602082015250565b6000614df1602b83613f9a565b9150614dfc82614d95565b604082019050919050565b60006020820190508181036000830152614e2081614de4565b9050919050565b6000614e3282613f02565b9150614e3d83613f02565b925082821015614e5057614e4f61493a565b5b828203905092915050565b7f4e487b7100000000000000000000000000000000000000000000000000000000600052603260045260246000fd5b7f455243373231456e756d657261626c653a20676c6f62616c20696e646578206f60008201527f7574206f6620626f756e64730000000000000000000000000000000000000000602082015250565b6000614ee6602c83613f9a565b9150614ef182614e8a565b604082019050919050565b60006020820190508181036000830152614f1581614ed9565b9050919050565b7f4552433732313a206f776e657220717565727920666f72206e6f6e657869737460008201527f656e7420746f6b656e0000000000000000000000000000000000000000000000602082015250565b6000614f78602983613f9a565b9150614f8382614f1c565b604082019050919050565b60006020820190508181036000830152614fa781614f6b565b9050919050565b7f4552433732313a2062616c616e636520717565727920666f7220746865207a6560008201527f726f206164647265737300000000000000000000000000000000000000000000602082015250565b600061500a602a83613f9a565b915061501582614fae565b604082019050919050565b6000602082019050818103600083015261503981614ffd565b9050919050565b7f4f776e61626c653a2063616c6c6572206973206e6f7420746865206f776e6572600082015250565b6000615076602083613f9a565b915061508182615040565b602082019050919050565b600060208201905081810360008301526150a581615069565b9050919050565b7f4552433732314d657461646174613a2055524920717565727920666f72206e6f60008201527f6e6578697374656e7420746f6b656e0000000000000000000000000000000000602082015250565b6000615108602f83613f9a565b9150615113826150ac565b604082019050919050565b60006020820190508181036000830152615137816150fb565b9050919050565b600081905092915050565b600061515482613f8f565b61515e818561513e565b935061516e818560208601613fab565b80840191505092915050565b60006151868285615149565b91506151928284615149565b91508190509392505050565b7f4e487b7100000000000000000000000000000000000000000000000000000000600052601260045260246000fd5b60006151d882613f02565b91506151e383613f02565b9250826151f3576151f261519e565b5b828204905092915050565b600061520982613f02565b915061521483613f02565b9250817fffffffffffffffffffffffffffffffffffffffffffffffffffffffffffffffff048311821515161561524d5761524c61493a565b5b828202905092915050565b7f4f776e61626c653a206e6577206f776e657220697320746865207a65726f206160008201527f6464726573730000000000000000000000000000000000000000000000000000602082015250565b60006152b4602683613f9a565b91506152bf82615258565b604082019050919050565b600060208201905081810360008301526152e3816152a7565b9050919050565b7f4552433732313a206f70657261746f7220717565727920666f72206e6f6e657860008201527f697374656e7420746f6b656e0000000000000000000000000000000000000000602082015250565b6000615346602c83613f9a565b9150615351826152ea565b604082019050919050565b6000602082019050818103600083015261537581615339565b9050919050565b7f4552433732313a207472616e73666572206f6620746f6b656e2074686174206960008201527f73206e6f74206f776e0000000000000000000000000000000000000000000000602082015250565b60006153d8602983613f9a565b91506153e38261537c565b604082019050919050565b60006020820190508181036000830152615407816153cb565b9050919050565b7f4552433732313a207472616e7366657220746f20746865207a65726f2061646460008201527f7265737300000000000000000000000000000000000000000000000000000000602082015250565b600061546a602483613f9a565b91506154758261540e565b604082019050919050565b600060208201905081810360008301526154998161545d565b9050919050565b7f4552433732313a20617070726f766520746f2063616c6c657200000000000000600082015250565b60006154d6601983613f9a565b91506154e1826154a0565b602082019050919050565b60006020820190508181036000830152615505816154c9565b9050919050565b7f4552433732313a207472616e7366657220746f206e6f6e20455243373231526560008201527f63656976657220696d706c656d656e7465720000000000000000000000000000602082015250565b6000615568603283613f9a565b91506155738261550c565b604082019050919050565b600060208201905081810360008301526155978161555b565b9050919050565b60006155a982613f02565b91506155b483613f02565b9250826155c4576155c361519e565b5b828206905092915050565b60006155da82613f02565b915060008214156155ee576155ed61493a565b5b600182039050919050565b6000615604826142f6565b915061560f836142f6565b92508260ff038211156156255761562461493a565b5b828201905092915050565b60006040820190506156456000830185613f0c565b6156526020830184613f0c565b9392505050565b600081519050919050565b600082825260208201905092915050565b600061568082615659565b61568a8185615664565b935061569a818560208601613fab565b6156a381613fde565b840191505092915050565b60006080820190506156c3600083018761407c565b6156d0602083018661407c565b6156dd6040830185613f0c565b81810360608301526156ef8184615675565b905095945050505050565b60008151905061570981613e73565b92915050565b60006020828403121561572557615724613e3d565b5b6000615733848285016156fa565b91505092915050565b6000819050919050565b61575761575282613f02565b61573c565b82525050565b60008160601b9050919050565b60006157758261575d565b9050919050565b60006157878261576a565b9050919050565b61579f61579a8261406a565b61577c565b82525050565b60006157b18285615746565b6020820191506157c1828461578e565b6014820191508190509392505050565b7f4e487b7100000000000000000000000000000000000000000000000000000000600052603160045260246000fd5b7f4552433732313a206d696e7420746f20746865207a65726f2061646472657373600082015250565b6000615836602083613f9a565b915061584182615800565b602082019050919050565b6000602082019050818103600083015261586581615829565b9050919050565b7f4552433732313a20746f6b656e20616c7265616479206d696e74656400000000600082015250565b60006158a2601c83613f9a565b91506158ad8261586c565b602082019050919050565b600060208201905081810360008301526158d181615895565b905091905056fea264697066735822122096885e0f23d058a33c02fd927bb5acc1a94a6d7098a026f651876914746a809e64736f6c634300080a0033",
  "immutableReferences": {},
  "source": "// SPDX-License-Identifier: MIT\r\n\r\npragma solidity ^0.8.0;\r\n\r\nimport \"@openzeppelin/contracts/token/ERC721/ERC721.sol\";\r\nimport \"@openzeppelin/contracts/access/Ownable.sol\";\r\nimport \"@openzeppelin/contracts/token/ERC721/extensions/ERC721Enumerable.sol\";\r\nimport \"@openzeppelin/contracts/token/ERC20/IERC20.sol\";\r\n\r\ncontract cryptoFont is ERC721Enumerable, Ownable  {\r\n    uint256 COUNTER = 0;\r\n    IERC20 public eBitcoin;\r\n    uint256 public cost = 100 * 10**18;\r\n    uint256 public fee = cost * 20 / 100;\r\n    uint256 public feePool;\r\n    uint256 public rewardPool;\r\n    uint256 public miningPool;\r\n    uint256 public pastDistributedReward;\r\n    uint256 public distributedEthers;\r\n\r\n    mapping(uint256 => uint256) public tokenToReward;\r\n    mapping(uint256 => uint256) public tokenToEthers;\r\n\r\n    struct cFont {\r\n        string name;\r\n        uint256 id;\r\n        uint256 dna;\r\n        uint8 rarity;\r\n        uint256 Stat;\r\n        uint16 Power;\r\n        uint8 Size;\r\n        uint256 mintDate;\r\n        bool burn;\r\n    }\r\n\r\n    cFont[] public cFonts;\r\n\r\n    event NewcFont(address indexed owner, uint256 id, uint dna);\r\n\r\n    function _createRandomNum(uint256 _mod) internal view returns(uint256){\r\n        uint256 randomNum = uint256(keccak256(abi.encodePacked(block.timestamp, msg.sender)));\r\n        return randomNum % _mod;\r\n    }\r\n\r\n    constructor(address eBitcoinAddress)\r\n        ERC721(\"Crypto Font\", \"cFont\")\r\n    {\r\n        eBitcoin = IERC20(eBitcoinAddress);\r\n        pastDistributedReward = block.timestamp;\r\n    }\r\n\r\n    function uint2str(uint256 _i) internal pure returns (string memory str){\r\n        if (_i == 0){\r\n            return \"0\";\r\n        }\r\n        uint256 j = _i;\r\n        uint256 length;\r\n        while (j != 0)\r\n        {\r\n            length++;\r\n            j /= 10;\r\n        }\r\n        bytes memory bstr = new bytes(length);\r\n        uint256 k = length;\r\n        j = _i;\r\n        while (j != 0)\r\n        {\r\n            bstr[--k] = bytes1(uint8(48 + j % 10));\r\n            j /= 10;\r\n        }\r\n        str = string(bstr);\r\n    }\r\n\r\n    function concatenate(string memory s1, string memory s2) internal pure returns (string memory) {\r\n        return string(abi.encodePacked(s1, s2));\r\n    }\r\n\r\n    function _createcFont(string memory _name) internal{\r\n        uint8 randRarity = uint8(_createRandomNum(100)) + 1;\r\n        uint256 randDna = _createRandomNum(10**16);\r\n        uint256 randStat = _createRandomNum(10**16);\r\n        uint16 randPower = uint16(_createRandomNum(10000) + 1);\r\n        uint8 randSize = uint8(_createRandomNum(140) + 10);\r\n        uint8 rarity = 1;\r\n        uint256 mint_date = block.timestamp;\r\n\r\n        if(randRarity < 41){\r\n            rarity = 2;\r\n            if(randRarity < 11){\r\n                rarity = 3;\r\n                if(rarity <2){\r\n                    rarity = 4;\r\n                }\r\n            }\r\n        }\r\n        \r\n        cFont memory newcFont = cFont(_name, COUNTER, randDna, rarity, randStat, randPower,randSize,mint_date,false);\r\n        cFonts.push(newcFont);\r\n        tokenToReward[COUNTER] = 0;\r\n        tokenToEthers[COUNTER] = 0;\r\n        _safeMint(msg.sender, COUNTER);\r\n        emit NewcFont(msg.sender,COUNTER, randDna);\r\n        COUNTER++;\r\n    }\r\n\r\n    function createRandomcFont() public{\r\n        require(eBitcoin.balanceOf(msg.sender) >= cost);\r\n        require(eBitcoin.transferFrom(msg.sender,address(this), cost));\r\n        rewardPool+= (cost-fee);\r\n        feePool+=fee;\r\n        string memory name = concatenate(\"cFont #\",uint2str(COUNTER));\r\n        _createcFont(name);\r\n    }\r\n\r\n    function reverseSwap(uint256 id) public{\r\n        require(ownerOf(id) == msg.sender);\r\n        _burn(id);\r\n        eBitcoin.transfer(msg.sender, (cost - fee));\r\n        cFonts[id].burn = true;\r\n    }\r\n\r\n    function getcFonts() public view returns(cFont[] memory) {\r\n        return cFonts;\r\n    }\r\n\r\n    function _getRarity(uint256 id) internal view returns(uint256){\r\n        uint256 rarity = 0;\r\n        if(!cFonts[id].burn){\r\n                rarity=cFonts[id].rarity;\r\n            }\r\n            return rarity;\r\n    }\r\n\r\n\r\n    function countAllRarity() public view returns(uint256){\r\n        uint256 rarity = 0;\r\n        uint256 i;\r\n        for (i=0;i<COUNTER;i++){\r\n            rarity+=_getRarity(i);\r\n        }\r\n        \r\n        return rarity;\r\n    }\r\n\r\n    function countAllReward() public view returns(uint256){\r\n        uint256 reward = 0;\r\n        uint256 i;\r\n        for (i=0;i<COUNTER;i++){\r\n            reward+=tokenToReward[i];\r\n        }\r\n        \r\n        return reward;\r\n    }\r\n\r\n    function countAllEthers() public view returns(uint256){\r\n        uint256 reward = 0;\r\n        uint256 i;\r\n        for (i=0;i<COUNTER;i++){\r\n            reward+=tokenToEthers[i];\r\n        }\r\n        \r\n        return reward;\r\n    }\r\n\r\n\r\n    function remainingEthers() public view returns(uint256){\r\n        return address(this).balance - countAllEthers();\r\n    }\r\n\r\n    function remainingeBTC() public view returns(uint256){\r\n        return eBitcoin.balanceOf(address(this)) - countAllReward() - feePool;\r\n    }\r\n\r\n    function DistributeReward() public{\r\n        require(block.timestamp > pastDistributedReward + 7 days);\r\n        uint256 amount = feePool;\r\n\r\n        if(remainingeBTC() > feePool){\r\n            amount += feePool;\r\n        }\r\n        else{\r\n            amount += remainingeBTC();\r\n        }\r\n\r\n        uint256 reward = amount;\r\n        uint256 allRare = countAllRarity();\r\n        uint256 rewardPerRare =  reward / allRare;\r\n        uint256 ethersPerRare = remainingEthers() / allRare;\r\n        uint256 i;\r\n        for(i=0; i<COUNTER;i++){\r\n            tokenToReward[i] += rewardPerRare * _getRarity(i);\r\n            tokenToEthers[i] += ethersPerRare * _getRarity(i);\r\n        }\r\n\r\n        feePool = 0;\r\n        pastDistributedReward = block.timestamp;\r\n    }\r\n\r\n    function showEthers(address account) public view returns(uint256){\r\n        uint256 reward = 0;\r\n        for(uint256 i =0; i< balanceOf(account); i++){\r\n            reward += tokenToEthers[tokenOfOwnerByIndex(account, i)];\r\n        }\r\n        return reward;\r\n    }\r\n\r\n    function getEthers(uint id) public{\r\n        require(msg.sender == ownerOf(id));\r\n        payable(msg.sender).transfer(tokenToEthers[id]);\r\n        tokenToEthers[id] = 0;\r\n    }\r\n\r\n    function getAllEthers() public{\r\n        uint256 reward = 0;\r\n        for(uint256 i = 0;i< balanceOf(msg.sender); i++){\r\n            reward += tokenToEthers[tokenOfOwnerByIndex(msg.sender, i)];\r\n            tokenToEthers[tokenOfOwnerByIndex(msg.sender, i)] = 0;\r\n        }\r\n        payable(msg.sender).transfer(reward);\r\n    }\r\n\r\n    receive() external payable {}\r\n\r\n    function showReward(address account) public view returns(uint256){\r\n        uint256 reward = 0;\r\n        for(uint256 i =0; i< balanceOf(account); i++){\r\n            reward += tokenToReward[tokenOfOwnerByIndex(account, i)];\r\n        }\r\n        return reward;\r\n    }\r\n\r\n    function getReward(uint id) public{\r\n        require(msg.sender == ownerOf(id));\r\n        eBitcoin.transfer(msg.sender, tokenToReward[id]);\r\n        tokenToReward[id] = 0;\r\n    }\r\n\r\n    function getAllReward() public{\r\n        uint256 reward = 0;\r\n        for(uint256 i = 0;i< balanceOf(msg.sender); i++){\r\n            reward += tokenToReward[tokenOfOwnerByIndex(msg.sender, i)];\r\n            tokenToReward[tokenOfOwnerByIndex(msg.sender, i)] = 0;\r\n        }\r\n        eBitcoin.transfer(msg.sender, reward);\r\n    }\r\n\r\n    function setName(string memory name, uint256 id) public {\r\n        require(ownerOf(id) == msg.sender);\r\n        require(bytes(name).length > 0);\r\n        cFonts[id].name = name;\r\n    }\r\n\r\n    function getTimeRemain() public view returns(uint256){\r\n        return (pastDistributedReward + 7 days) - block.timestamp;\r\n    }\r\n\r\n    function AddeBTCFee(uint256 _amount) public{\r\n        require(eBitcoin.balanceOf(msg.sender) >= _amount);\r\n        require(eBitcoin.transferFrom(msg.sender,address(this), _amount));\r\n        feePool += _amount;\r\n    }\r\n\r\n    function getIdsOfOwner(address _owner) public view returns (uint[] memory) {\r\n        uint[] memory _tokensOfOwner = new uint[](ERC721.balanceOf(_owner));\r\n        uint i;\r\n\r\n        for (i=0;i<ERC721.balanceOf(_owner);i++){\r\n            _tokensOfOwner[i] = ERC721Enumerable.tokenOfOwnerByIndex(_owner, i);\r\n        }\r\n        return (_tokensOfOwner);\r\n    }\r\n}",
  "sourcePath": "C:\\Users\\jarup\\Documents\\GitHub\\crypto-font\\contracts\\cFont.sol",
  "compiler": {
    "name": "solc",
    "version": "0.8.10+commit.fc410830.Emscripten.clang"
  },
  "schemaVersion": "3.4.3",
  "updatedAt": "2021-12-19T03:36:04.912Z",
  "networkType": "ethereum",
  "devdoc": {
    "kind": "dev",
    "methods": {
      "approve(address,uint256)": {
        "details": "See {IERC721-approve}."
      },
      "balanceOf(address)": {
        "details": "See {IERC721-balanceOf}."
      },
      "getApproved(uint256)": {
        "details": "See {IERC721-getApproved}."
      },
      "isApprovedForAll(address,address)": {
        "details": "See {IERC721-isApprovedForAll}."
      },
      "name()": {
        "details": "See {IERC721Metadata-name}."
      },
      "owner()": {
        "details": "Returns the address of the current owner."
      },
      "ownerOf(uint256)": {
        "details": "See {IERC721-ownerOf}."
      },
      "renounceOwnership()": {
        "details": "Leaves the contract without owner. It will not be possible to call `onlyOwner` functions anymore. Can only be called by the current owner. NOTE: Renouncing ownership will leave the contract without an owner, thereby removing any functionality that is only available to the owner."
      },
      "safeTransferFrom(address,address,uint256)": {
        "details": "See {IERC721-safeTransferFrom}."
      },
      "safeTransferFrom(address,address,uint256,bytes)": {
        "details": "See {IERC721-safeTransferFrom}."
      },
      "setApprovalForAll(address,bool)": {
        "details": "See {IERC721-setApprovalForAll}."
      },
      "supportsInterface(bytes4)": {
        "details": "See {IERC165-supportsInterface}."
      },
      "symbol()": {
        "details": "See {IERC721Metadata-symbol}."
      },
      "tokenByIndex(uint256)": {
        "details": "See {IERC721Enumerable-tokenByIndex}."
      },
      "tokenOfOwnerByIndex(address,uint256)": {
        "details": "See {IERC721Enumerable-tokenOfOwnerByIndex}."
      },
      "tokenURI(uint256)": {
        "details": "See {IERC721Metadata-tokenURI}."
      },
      "totalSupply()": {
        "details": "See {IERC721Enumerable-totalSupply}."
      },
      "transferFrom(address,address,uint256)": {
        "details": "See {IERC721-transferFrom}."
      },
      "transferOwnership(address)": {
        "details": "Transfers ownership of the contract to a new account (`newOwner`). Can only be called by the current owner."
      }
    },
    "version": 1
  },
  "userdoc": {
    "kind": "user",
    "methods": {},
    "version": 1
  }
}