{
  "contractName": "cryptoFont",
  "abi": [
    {
      "inputs": [
        {
          "internalType": "address",
          "name": "eBitcoinAddress",
          "type": "address"
        }
      ],
      "stateMutability": "nonpayable",
      "type": "constructor"
    },
    {
      "anonymous": false,
      "inputs": [
        {
          "indexed": true,
          "internalType": "address",
          "name": "owner",
          "type": "address"
        },
        {
          "indexed": true,
          "internalType": "address",
          "name": "approved",
          "type": "address"
        },
        {
          "indexed": true,
          "internalType": "uint256",
          "name": "tokenId",
          "type": "uint256"
        }
      ],
      "name": "Approval",
      "type": "event"
    },
    {
      "anonymous": false,
      "inputs": [
        {
          "indexed": true,
          "internalType": "address",
          "name": "owner",
          "type": "address"
        },
        {
          "indexed": true,
          "internalType": "address",
          "name": "operator",
          "type": "address"
        },
        {
          "indexed": false,
          "internalType": "bool",
          "name": "approved",
          "type": "bool"
        }
      ],
      "name": "ApprovalForAll",
      "type": "event"
    },
    {
      "anonymous": false,
      "inputs": [
        {
          "indexed": true,
          "internalType": "address",
          "name": "owner",
          "type": "address"
        },
        {
          "indexed": false,
          "internalType": "uint256",
          "name": "id",
          "type": "uint256"
        },
        {
          "indexed": false,
          "internalType": "uint256",
          "name": "dna",
          "type": "uint256"
        }
      ],
      "name": "NewcFont",
      "type": "event"
    },
    {
      "anonymous": false,
      "inputs": [
        {
          "indexed": true,
          "internalType": "address",
          "name": "previousOwner",
          "type": "address"
        },
        {
          "indexed": true,
          "internalType": "address",
          "name": "newOwner",
          "type": "address"
        }
      ],
      "name": "OwnershipTransferred",
      "type": "event"
    },
    {
      "anonymous": false,
      "inputs": [
        {
          "indexed": true,
          "internalType": "address",
          "name": "from",
          "type": "address"
        },
        {
          "indexed": true,
          "internalType": "address",
          "name": "to",
          "type": "address"
        },
        {
          "indexed": true,
          "internalType": "uint256",
          "name": "tokenId",
          "type": "uint256"
        }
      ],
      "name": "Transfer",
      "type": "event"
    },
    {
      "inputs": [
        {
          "internalType": "address",
          "name": "to",
          "type": "address"
        },
        {
          "internalType": "uint256",
          "name": "tokenId",
          "type": "uint256"
        }
      ],
      "name": "approve",
      "outputs": [],
      "stateMutability": "nonpayable",
      "type": "function"
    },
    {
      "inputs": [
        {
          "internalType": "address",
          "name": "owner",
          "type": "address"
        }
      ],
      "name": "balanceOf",
      "outputs": [
        {
          "internalType": "uint256",
          "name": "",
          "type": "uint256"
        }
      ],
      "stateMutability": "view",
      "type": "function",
      "constant": true
    },
    {
      "inputs": [
        {
          "internalType": "uint256",
          "name": "",
          "type": "uint256"
        }
      ],
      "name": "cFonts",
      "outputs": [
        {
          "internalType": "string",
          "name": "name",
          "type": "string"
        },
        {
          "internalType": "uint256",
          "name": "id",
          "type": "uint256"
        },
        {
          "internalType": "uint256",
          "name": "dna",
          "type": "uint256"
        },
        {
          "internalType": "uint8",
          "name": "rarity",
          "type": "uint8"
        },
        {
          "internalType": "uint256",
          "name": "Stat",
          "type": "uint256"
        },
        {
          "internalType": "uint16",
          "name": "Power",
          "type": "uint16"
        },
        {
          "internalType": "uint8",
          "name": "Size",
          "type": "uint8"
        },
        {
          "internalType": "uint256",
          "name": "mintDate",
          "type": "uint256"
        },
        {
          "internalType": "bool",
          "name": "burn",
          "type": "bool"
        }
      ],
      "stateMutability": "view",
      "type": "function",
      "constant": true
    },
    {
      "inputs": [],
      "name": "cost",
      "outputs": [
        {
          "internalType": "uint256",
          "name": "",
          "type": "uint256"
        }
      ],
      "stateMutability": "view",
      "type": "function",
      "constant": true
    },
    {
      "inputs": [],
      "name": "distributedEthers",
      "outputs": [
        {
          "internalType": "uint256",
          "name": "",
          "type": "uint256"
        }
      ],
      "stateMutability": "view",
      "type": "function",
      "constant": true
    },
    {
      "inputs": [],
      "name": "eBitcoin",
      "outputs": [
        {
          "internalType": "contract IERC20",
          "name": "",
          "type": "address"
        }
      ],
      "stateMutability": "view",
      "type": "function",
      "constant": true
    },
    {
      "inputs": [],
      "name": "fee",
      "outputs": [
        {
          "internalType": "uint256",
          "name": "",
          "type": "uint256"
        }
      ],
      "stateMutability": "view",
      "type": "function",
      "constant": true
    },
    {
      "inputs": [],
      "name": "feePool",
      "outputs": [
        {
          "internalType": "uint256",
          "name": "",
          "type": "uint256"
        }
      ],
      "stateMutability": "view",
      "type": "function",
      "constant": true
    },
    {
      "inputs": [
        {
          "internalType": "uint256",
          "name": "tokenId",
          "type": "uint256"
        }
      ],
      "name": "getApproved",
      "outputs": [
        {
          "internalType": "address",
          "name": "",
          "type": "address"
        }
      ],
      "stateMutability": "view",
      "type": "function",
      "constant": true
    },
    {
      "inputs": [
        {
          "internalType": "address",
          "name": "owner",
          "type": "address"
        },
        {
          "internalType": "address",
          "name": "operator",
          "type": "address"
        }
      ],
      "name": "isApprovedForAll",
      "outputs": [
        {
          "internalType": "bool",
          "name": "",
          "type": "bool"
        }
      ],
      "stateMutability": "view",
      "type": "function",
      "constant": true
    },
    {
      "inputs": [],
      "name": "miningPool",
      "outputs": [
        {
          "internalType": "uint256",
          "name": "",
          "type": "uint256"
        }
      ],
      "stateMutability": "view",
      "type": "function",
      "constant": true
    },
    {
      "inputs": [],
      "name": "name",
      "outputs": [
        {
          "internalType": "string",
          "name": "",
          "type": "string"
        }
      ],
      "stateMutability": "view",
      "type": "function",
      "constant": true
    },
    {
      "inputs": [],
      "name": "owner",
      "outputs": [
        {
          "internalType": "address",
          "name": "",
          "type": "address"
        }
      ],
      "stateMutability": "view",
      "type": "function",
      "constant": true
    },
    {
      "inputs": [
        {
          "internalType": "uint256",
          "name": "tokenId",
          "type": "uint256"
        }
      ],
      "name": "ownerOf",
      "outputs": [
        {
          "internalType": "address",
          "name": "",
          "type": "address"
        }
      ],
      "stateMutability": "view",
      "type": "function",
      "constant": true
    },
    {
      "inputs": [],
      "name": "pastDistributedReward",
      "outputs": [
        {
          "internalType": "uint256",
          "name": "",
          "type": "uint256"
        }
      ],
      "stateMutability": "view",
      "type": "function",
      "constant": true
    },
    {
      "inputs": [],
      "name": "renounceOwnership",
      "outputs": [],
      "stateMutability": "nonpayable",
      "type": "function"
    },
    {
      "inputs": [],
      "name": "rewardPool",
      "outputs": [
        {
          "internalType": "uint256",
          "name": "",
          "type": "uint256"
        }
      ],
      "stateMutability": "view",
      "type": "function",
      "constant": true
    },
    {
      "inputs": [
        {
          "internalType": "address",
          "name": "from",
          "type": "address"
        },
        {
          "internalType": "address",
          "name": "to",
          "type": "address"
        },
        {
          "internalType": "uint256",
          "name": "tokenId",
          "type": "uint256"
        }
      ],
      "name": "safeTransferFrom",
      "outputs": [],
      "stateMutability": "nonpayable",
      "type": "function"
    },
    {
      "inputs": [
        {
          "internalType": "address",
          "name": "from",
          "type": "address"
        },
        {
          "internalType": "address",
          "name": "to",
          "type": "address"
        },
        {
          "internalType": "uint256",
          "name": "tokenId",
          "type": "uint256"
        },
        {
          "internalType": "bytes",
          "name": "_data",
          "type": "bytes"
        }
      ],
      "name": "safeTransferFrom",
      "outputs": [],
      "stateMutability": "nonpayable",
      "type": "function"
    },
    {
      "inputs": [
        {
          "internalType": "address",
          "name": "operator",
          "type": "address"
        },
        {
          "internalType": "bool",
          "name": "approved",
          "type": "bool"
        }
      ],
      "name": "setApprovalForAll",
      "outputs": [],
      "stateMutability": "nonpayable",
      "type": "function"
    },
    {
      "inputs": [
        {
          "internalType": "bytes4",
          "name": "interfaceId",
          "type": "bytes4"
        }
      ],
      "name": "supportsInterface",
      "outputs": [
        {
          "internalType": "bool",
          "name": "",
          "type": "bool"
        }
      ],
      "stateMutability": "view",
      "type": "function",
      "constant": true
    },
    {
      "inputs": [],
      "name": "symbol",
      "outputs": [
        {
          "internalType": "string",
          "name": "",
          "type": "string"
        }
      ],
      "stateMutability": "view",
      "type": "function",
      "constant": true
    },
    {
      "inputs": [
        {
          "internalType": "uint256",
          "name": "index",
          "type": "uint256"
        }
      ],
      "name": "tokenByIndex",
      "outputs": [
        {
          "internalType": "uint256",
          "name": "",
          "type": "uint256"
        }
      ],
      "stateMutability": "view",
      "type": "function",
      "constant": true
    },
    {
      "inputs": [
        {
          "internalType": "address",
          "name": "owner",
          "type": "address"
        },
        {
          "internalType": "uint256",
          "name": "index",
          "type": "uint256"
        }
      ],
      "name": "tokenOfOwnerByIndex",
      "outputs": [
        {
          "internalType": "uint256",
          "name": "",
          "type": "uint256"
        }
      ],
      "stateMutability": "view",
      "type": "function",
      "constant": true
    },
    {
      "inputs": [
        {
          "internalType": "uint256",
          "name": "",
          "type": "uint256"
        }
      ],
      "name": "tokenToEthers",
      "outputs": [
        {
          "internalType": "uint256",
          "name": "",
          "type": "uint256"
        }
      ],
      "stateMutability": "view",
      "type": "function",
      "constant": true
    },
    {
      "inputs": [
        {
          "internalType": "uint256",
          "name": "",
          "type": "uint256"
        }
      ],
      "name": "tokenToReward",
      "outputs": [
        {
          "internalType": "uint256",
          "name": "",
          "type": "uint256"
        }
      ],
      "stateMutability": "view",
      "type": "function",
      "constant": true
    },
    {
      "inputs": [
        {
          "internalType": "uint256",
          "name": "tokenId",
          "type": "uint256"
        }
      ],
      "name": "tokenURI",
      "outputs": [
        {
          "internalType": "string",
          "name": "",
          "type": "string"
        }
      ],
      "stateMutability": "view",
      "type": "function",
      "constant": true
    },
    {
      "inputs": [],
      "name": "totalSupply",
      "outputs": [
        {
          "internalType": "uint256",
          "name": "",
          "type": "uint256"
        }
      ],
      "stateMutability": "view",
      "type": "function",
      "constant": true
    },
    {
      "inputs": [
        {
          "internalType": "address",
          "name": "from",
          "type": "address"
        },
        {
          "internalType": "address",
          "name": "to",
          "type": "address"
        },
        {
          "internalType": "uint256",
          "name": "tokenId",
          "type": "uint256"
        }
      ],
      "name": "transferFrom",
      "outputs": [],
      "stateMutability": "nonpayable",
      "type": "function"
    },
    {
      "inputs": [
        {
          "internalType": "address",
          "name": "newOwner",
          "type": "address"
        }
      ],
      "name": "transferOwnership",
      "outputs": [],
      "stateMutability": "nonpayable",
      "type": "function"
    },
    {
      "stateMutability": "payable",
      "type": "receive",
      "payable": true
    },
    {
      "inputs": [],
      "name": "createRandomcFont",
      "outputs": [],
      "stateMutability": "nonpayable",
      "type": "function"
    },
    {
      "inputs": [
        {
          "internalType": "uint256",
          "name": "id",
          "type": "uint256"
        }
      ],
      "name": "reverseSwap",
      "outputs": [],
      "stateMutability": "nonpayable",
      "type": "function"
    },
    {
      "inputs": [],
      "name": "getcFonts",
      "outputs": [
        {
          "components": [
            {
              "internalType": "string",
              "name": "name",
              "type": "string"
            },
            {
              "internalType": "uint256",
              "name": "id",
              "type": "uint256"
            },
            {
              "internalType": "uint256",
              "name": "dna",
              "type": "uint256"
            },
            {
              "internalType": "uint8",
              "name": "rarity",
              "type": "uint8"
            },
            {
              "internalType": "uint256",
              "name": "Stat",
              "type": "uint256"
            },
            {
              "internalType": "uint16",
              "name": "Power",
              "type": "uint16"
            },
            {
              "internalType": "uint8",
              "name": "Size",
              "type": "uint8"
            },
            {
              "internalType": "uint256",
              "name": "mintDate",
              "type": "uint256"
            },
            {
              "internalType": "bool",
              "name": "burn",
              "type": "bool"
            }
          ],
          "internalType": "struct cryptoFont.cFont[]",
          "name": "",
          "type": "tuple[]"
        }
      ],
      "stateMutability": "view",
      "type": "function",
      "constant": true
    },
    {
      "inputs": [],
      "name": "countAllRarity",
      "outputs": [
        {
          "internalType": "uint256",
          "name": "",
          "type": "uint256"
        }
      ],
      "stateMutability": "view",
      "type": "function",
      "constant": true
    },
    {
      "inputs": [],
      "name": "remainingEthers",
      "outputs": [
        {
          "internalType": "uint256",
          "name": "",
          "type": "uint256"
        }
      ],
      "stateMutability": "view",
      "type": "function",
      "constant": true
    },
    {
      "inputs": [],
      "name": "DistributeReward",
      "outputs": [],
      "stateMutability": "nonpayable",
      "type": "function"
    },
    {
      "inputs": [
        {
          "internalType": "address",
          "name": "account",
          "type": "address"
        }
      ],
      "name": "showEthers",
      "outputs": [
        {
          "internalType": "uint256",
          "name": "",
          "type": "uint256"
        }
      ],
      "stateMutability": "view",
      "type": "function",
      "constant": true
    },
    {
      "inputs": [
        {
          "internalType": "uint256",
          "name": "id",
          "type": "uint256"
        }
      ],
      "name": "getEthers",
      "outputs": [],
      "stateMutability": "nonpayable",
      "type": "function"
    },
    {
      "inputs": [],
      "name": "getAllEthers",
      "outputs": [],
      "stateMutability": "nonpayable",
      "type": "function"
    },
    {
      "inputs": [
        {
          "internalType": "address",
          "name": "account",
          "type": "address"
        }
      ],
      "name": "showReward",
      "outputs": [
        {
          "internalType": "uint256",
          "name": "",
          "type": "uint256"
        }
      ],
      "stateMutability": "view",
      "type": "function",
      "constant": true
    },
    {
      "inputs": [
        {
          "internalType": "uint256",
          "name": "id",
          "type": "uint256"
        }
      ],
      "name": "getReward",
      "outputs": [],
      "stateMutability": "nonpayable",
      "type": "function"
    },
    {
      "inputs": [],
      "name": "getAllReward",
      "outputs": [],
      "stateMutability": "nonpayable",
      "type": "function"
    },
    {
      "inputs": [
        {
          "internalType": "string",
          "name": "name",
          "type": "string"
        },
        {
          "internalType": "uint256",
          "name": "id",
          "type": "uint256"
        }
      ],
      "name": "setName",
      "outputs": [],
      "stateMutability": "nonpayable",
      "type": "function"
    },
    {
      "inputs": [],
      "name": "getTimeRemain",
      "outputs": [
        {
          "internalType": "uint256",
          "name": "",
          "type": "uint256"
        }
      ],
      "stateMutability": "view",
      "type": "function",
      "constant": true
    },
    {
      "inputs": [
        {
          "internalType": "address",
          "name": "_owner",
          "type": "address"
        }
      ],
      "name": "getIdsOfOwner",
      "outputs": [
        {
          "internalType": "uint256[]",
          "name": "",
          "type": "uint256[]"
        }
      ],
      "stateMutability": "view",
      "type": "function",
      "constant": true
    }
  ],
  "bytecode": "0x60806040526000600b5568056bc75e2d63100000600d5560646014600d5462000029919062000331565b620000359190620003c1565b600e553480156200004557600080fd5b5060405162005a7f38038062005a7f83398181016040528101906200006b919062000463565b6040518060400160405280600b81526020017f43727970746f20466f6e740000000000000000000000000000000000000000008152506040518060400160405280600581526020017f63466f6e740000000000000000000000000000000000000000000000000000008152508160009080519060200190620000ef92919062000248565b5080600190805190602001906200010892919062000248565b5050506200012b6200011f6200017a60201b60201c565b6200018260201b60201c565b80600c60006101000a81548173ffffffffffffffffffffffffffffffffffffffff021916908373ffffffffffffffffffffffffffffffffffffffff1602179055504260128190555050620004fa565b600033905090565b6000600a60009054906101000a900473ffffffffffffffffffffffffffffffffffffffff16905081600a60006101000a81548173ffffffffffffffffffffffffffffffffffffffff021916908373ffffffffffffffffffffffffffffffffffffffff1602179055508173ffffffffffffffffffffffffffffffffffffffff168173ffffffffffffffffffffffffffffffffffffffff167f8be0079c531659141344cd1fd0a4f28419497f9722a3daafe3b4186f6b6457e060405160405180910390a35050565b8280546200025690620004c4565b90600052602060002090601f0160209004810192826200027a5760008555620002c6565b82601f106200029557805160ff1916838001178555620002c6565b82800160010185558215620002c6579182015b82811115620002c5578251825591602001919060010190620002a8565b5b509050620002d59190620002d9565b5090565b5b80821115620002f4576000816000905550600101620002da565b5090565b6000819050919050565b7f4e487b7100000000000000000000000000000000000000000000000000000000600052601160045260246000fd5b60006200033e82620002f8565b91506200034b83620002f8565b9250817fffffffffffffffffffffffffffffffffffffffffffffffffffffffffffffffff048311821515161562000387576200038662000302565b5b828202905092915050565b7f4e487b7100000000000000000000000000000000000000000000000000000000600052601260045260246000fd5b6000620003ce82620002f8565b9150620003db83620002f8565b925082620003ee57620003ed62000392565b5b828204905092915050565b600080fd5b600073ffffffffffffffffffffffffffffffffffffffff82169050919050565b60006200042b82620003fe565b9050919050565b6200043d816200041e565b81146200044957600080fd5b50565b6000815190506200045d8162000432565b92915050565b6000602082840312156200047c576200047b620003f9565b5b60006200048c848285016200044c565b91505092915050565b7f4e487b7100000000000000000000000000000000000000000000000000000000600052602260045260246000fd5b60006002820490506001821680620004dd57607f821691505b60208210811415620004f457620004f362000495565b5b50919050565b615575806200050a6000396000f3fe6080604052600436106102765760003560e01c806370a082311161014f578063c45af5d8116100c1578063e79e0a221161007a578063e79e0a22146109a1578063e985e9c5146109ca578063f204fce814610a07578063f2fde38b14610a32578063f56a29da14610a5b578063f82c7ebc14610a725761027d565b8063c45af5d81461088f578063c87b56dd146108cc578063d33c595714610909578063ddca3f4314610934578063e1930a0f1461095f578063e4a2a7421461098a5761027d565b80639268595f116101135780639268595f1461077f57806395d89b41146107aa578063a22cb465146107d5578063ae2e933b146107fe578063b88d4fde14610829578063c44bfb7d146108525761027d565b806370a0823114610698578063715018a6146106d557806373397597146106ec5780637feaaacc146107175780638da5cb5b146107545761027d565b806337c1caf4116101e85780635069918f116101ac5780635069918f146105585780636352211e1461059d57806364b7710e146105da57806365f5eb301461060557806366666aa91461063057806367e602991461065b5761027d565b806337c1caf4146104895780633baa8170146104b25780633e6d4ec2146104db57806342842e0e146104f25780634f6ccce71461051b5761027d565b8063095ea7b31161023a578063095ea7b31461037b57806313faede6146103a457806318160ddd146103cf5780631c4b774b146103fa57806323b872dd146104235780632f745c591461044c5761027d565b806301ffc9a7146102825780630518afdc146102bf57806306fdde03146102fc578063081812fc146103275780630914e011146103645761027d565b3661027d57005b600080fd5b34801561028e57600080fd5b506102a960048036038101906102a49190613b06565b610a9d565b6040516102b69190613b4e565b60405180910390f35b3480156102cb57600080fd5b506102e660048036038101906102e19190613b9f565b610b17565b6040516102f39190613bdb565b60405180910390f35b34801561030857600080fd5b50610311610b2f565b60405161031e9190613c8f565b60405180910390f35b34801561033357600080fd5b5061034e60048036038101906103499190613b9f565b610bc1565b60405161035b9190613cf2565b60405180910390f35b34801561037057600080fd5b50610379610c46565b005b34801561038757600080fd5b506103a2600480360381019061039d9190613d39565b610d5e565b005b3480156103b057600080fd5b506103b9610e76565b6040516103c69190613bdb565b60405180910390f35b3480156103db57600080fd5b506103e4610e7c565b6040516103f19190613bdb565b60405180910390f35b34801561040657600080fd5b50610421600480360381019061041c9190613b9f565b610e89565b005b34801561042f57600080fd5b5061044a60048036038101906104459190613d79565b610f99565b005b34801561045857600080fd5b50610473600480360381019061046e9190613d39565b610ff9565b6040516104809190613bdb565b60405180910390f35b34801561049557600080fd5b506104b060048036038101906104ab9190613b9f565b61109e565b005b3480156104be57600080fd5b506104d960048036038101906104d49190613f01565b6111d8565b005b3480156104e757600080fd5b506104f0611264565b005b3480156104fe57600080fd5b5061051960048036038101906105149190613d79565b611322565b005b34801561052757600080fd5b50610542600480360381019061053d9190613b9f565b611342565b60405161054f9190613bdb565b60405180910390f35b34801561056457600080fd5b5061057f600480360381019061057a9190613b9f565b6113b3565b60405161059499989796959493929190613f96565b60405180910390f35b3480156105a957600080fd5b506105c460048036038101906105bf9190613b9f565b6114ce565b6040516105d19190613cf2565b60405180910390f35b3480156105e657600080fd5b506105ef611580565b6040516105fc9190613bdb565b60405180910390f35b34801561061157600080fd5b5061061a611586565b6040516106279190614237565b60405180910390f35b34801561063c57600080fd5b50610645611715565b6040516106529190613bdb565b60405180910390f35b34801561066757600080fd5b50610682600480360381019061067d9190614259565b61171b565b60405161068f9190613bdb565b60405180910390f35b3480156106a457600080fd5b506106bf60048036038101906106ba9190614259565b61177c565b6040516106cc9190613bdb565b60405180910390f35b3480156106e157600080fd5b506106ea611834565b005b3480156106f857600080fd5b506107016118bc565b60405161070e9190613bdb565b60405180910390f35b34801561072357600080fd5b5061073e60048036038101906107399190614259565b6118c2565b60405161074b9190614335565b60405180910390f35b34801561076057600080fd5b50610769611972565b6040516107769190613cf2565b60405180910390f35b34801561078b57600080fd5b5061079461199c565b6040516107a19190613bdb565b60405180910390f35b3480156107b657600080fd5b506107bf6119b1565b6040516107cc9190613c8f565b60405180910390f35b3480156107e157600080fd5b506107fc60048036038101906107f79190614383565b611a43565b005b34801561080a57600080fd5b50610813611a59565b6040516108209190613bdb565b60405180910390f35b34801561083557600080fd5b50610850600480360381019061084b9190614464565b611a5f565b005b34801561085e57600080fd5b5061087960048036038101906108749190613b9f565b611ac1565b6040516108869190613bdb565b60405180910390f35b34801561089b57600080fd5b506108b660048036038101906108b19190614259565b611ad9565b6040516108c39190613bdb565b60405180910390f35b3480156108d857600080fd5b506108f360048036038101906108ee9190613b9f565b611b3a565b6040516109009190613c8f565b60405180910390f35b34801561091557600080fd5b5061091e611be1565b60405161092b9190613bdb565b60405180910390f35b34801561094057600080fd5b50610949611c04565b6040516109569190613bdb565b60405180910390f35b34801561096b57600080fd5b50610974611c0a565b6040516109819190614546565b60405180910390f35b34801561099657600080fd5b5061099f611c30565b005b3480156109ad57600080fd5b506109c860048036038101906109c39190613b9f565b611da3565b005b3480156109d657600080fd5b506109f160048036038101906109ec9190614561565b611e59565b6040516109fe9190613b4e565b60405180910390f35b348015610a1357600080fd5b50610a1c611eed565b604051610a299190613bdb565b60405180910390f35b348015610a3e57600080fd5b50610a596004803603810190610a549190614259565b611f32565b005b348015610a6757600080fd5b50610a7061202a565b005b348015610a7e57600080fd5b50610a87612215565b604051610a949190613bdb565b60405180910390f35b60007f780e9d63000000000000000000000000000000000000000000000000000000007bffffffffffffffffffffffffffffffffffffffffffffffffffffffff1916827bffffffffffffffffffffffffffffffffffffffffffffffffffffffff19161480610b105750610b0f8261221b565b5b9050919050565b60146020528060005260406000206000915090505481565b606060008054610b3e906145d0565b80601f0160208091040260200160405190810160405280929190818152602001828054610b6a906145d0565b8015610bb75780601f10610b8c57610100808354040283529160200191610bb7565b820191906000526020600020905b815481529060010190602001808311610b9a57829003601f168201915b5050505050905090565b6000610bcc826122fd565b610c0b576040517f08c379a0000000000000000000000000000000000000000000000000000000008152600401610c0290614674565b60405180910390fd5b6004600083815260200190815260200160002060009054906101000a900473ffffffffffffffffffffffffffffffffffffffff169050919050565b6000805b610c533361177c565b811015610cb95760146000610c683384610ff9565b81526020019081526020016000205482610c8291906146c3565b9150600060146000610c943385610ff9565b8152602001908152602001600020819055508080610cb190614719565b915050610c4a565b50600c60009054906101000a900473ffffffffffffffffffffffffffffffffffffffff1673ffffffffffffffffffffffffffffffffffffffff1663a9059cbb33836040518363ffffffff1660e01b8152600401610d17929190614762565b6020604051808303816000875af1158015610d36573d6000803e3d6000fd5b505050506040513d601f19601f82011682018060405250810190610d5a91906147a0565b5050565b6000610d69826114ce565b90508073ffffffffffffffffffffffffffffffffffffffff168373ffffffffffffffffffffffffffffffffffffffff161415610dda576040517f08c379a0000000000000000000000000000000000000000000000000000000008152600401610dd19061483f565b60405180910390fd5b8073ffffffffffffffffffffffffffffffffffffffff16610df9612369565b73ffffffffffffffffffffffffffffffffffffffff161480610e285750610e2781610e22612369565b611e59565b5b610e67576040517f08c379a0000000000000000000000000000000000000000000000000000000008152600401610e5e906148d1565b60405180910390fd5b610e718383612371565b505050565b600d5481565b6000600880549050905090565b610e92816114ce565b73ffffffffffffffffffffffffffffffffffffffff163373ffffffffffffffffffffffffffffffffffffffff1614610ec957600080fd5b600c60009054906101000a900473ffffffffffffffffffffffffffffffffffffffff1673ffffffffffffffffffffffffffffffffffffffff1663a9059cbb3360146000858152602001908152602001600020546040518363ffffffff1660e01b8152600401610f39929190614762565b6020604051808303816000875af1158015610f58573d6000803e3d6000fd5b505050506040513d601f19601f82011682018060405250810190610f7c91906147a0565b506000601460008381526020019081526020016000208190555050565b610faa610fa4612369565b8261242a565b610fe9576040517f08c379a0000000000000000000000000000000000000000000000000000000008152600401610fe090614963565b60405180910390fd5b610ff4838383612508565b505050565b60006110048361177c565b8210611045576040517f08c379a000000000000000000000000000000000000000000000000000000000815260040161103c906149f5565b60405180910390fd5b600660008473ffffffffffffffffffffffffffffffffffffffff1673ffffffffffffffffffffffffffffffffffffffff168152602001908152602001600020600083815260200190815260200160002054905092915050565b3373ffffffffffffffffffffffffffffffffffffffff166110be826114ce565b73ffffffffffffffffffffffffffffffffffffffff16146110de57600080fd5b6110e781612764565b600c60009054906101000a900473ffffffffffffffffffffffffffffffffffffffff1673ffffffffffffffffffffffffffffffffffffffff1663a9059cbb33600e54600d546111369190614a15565b6040518363ffffffff1660e01b8152600401611153929190614762565b6020604051808303816000875af1158015611172573d6000803e3d6000fd5b505050506040513d601f19601f8201168201806040525081019061119691906147a0565b506001601682815481106111ad576111ac614a49565b5b906000526020600020906008020160070160006101000a81548160ff02191690831515021790555050565b3373ffffffffffffffffffffffffffffffffffffffff166111f8826114ce565b73ffffffffffffffffffffffffffffffffffffffff161461121857600080fd5b600082511161122657600080fd5b816016828154811061123b5761123a614a49565b5b9060005260206000209060080201600001908051906020019061125f9291906139f7565b505050565b6000805b6112713361177c565b8110156112d757601560006112863384610ff9565b815260200190815260200160002054826112a091906146c3565b91506000601560006112b23385610ff9565b81526020019081526020016000208190555080806112cf90614719565b915050611268565b503373ffffffffffffffffffffffffffffffffffffffff166108fc829081150290604051600060405180830381858888f1935050505015801561131e573d6000803e3d6000fd5b5050565b61133d83838360405180602001604052806000815250611a5f565b505050565b600061134c610e7c565b821061138d576040517f08c379a000000000000000000000000000000000000000000000000000000000815260040161138490614aea565b60405180910390fd5b600882815481106113a1576113a0614a49565b5b90600052602060002001549050919050565b601681815481106113c357600080fd5b90600052602060002090600802016000915090508060000180546113e6906145d0565b80601f0160208091040260200160405190810160405280929190818152602001828054611412906145d0565b801561145f5780601f106114345761010080835404028352916020019161145f565b820191906000526020600020905b81548152906001019060200180831161144257829003601f168201915b5050505050908060010154908060020154908060030160009054906101000a900460ff16908060040154908060050160009054906101000a900461ffff16908060050160029054906101000a900460ff16908060060154908060070160009054906101000a900460ff16905089565b6000806002600084815260200190815260200160002060009054906101000a900473ffffffffffffffffffffffffffffffffffffffff169050600073ffffffffffffffffffffffffffffffffffffffff168173ffffffffffffffffffffffffffffffffffffffff161415611577576040517f08c379a000000000000000000000000000000000000000000000000000000000815260040161156e90614b7c565b60405180910390fd5b80915050919050565b60125481565b60606016805480602002602001604051908101604052809291908181526020016000905b8282101561170c5783829060005260206000209060080201604051806101200160405290816000820180546115de906145d0565b80601f016020809104026020016040519081016040528092919081815260200182805461160a906145d0565b80156116575780601f1061162c57610100808354040283529160200191611657565b820191906000526020600020905b81548152906001019060200180831161163a57829003601f168201915b5050505050815260200160018201548152602001600282015481526020016003820160009054906101000a900460ff1660ff1660ff168152602001600482015481526020016005820160009054906101000a900461ffff1661ffff1661ffff1681526020016005820160029054906101000a900460ff1660ff1660ff168152602001600682015481526020016007820160009054906101000a900460ff161515151581525050815260200190600101906115aa565b50505050905090565b60105481565b6000806000905060005b61172e8461177c565b81101561177257601560006117438684610ff9565b8152602001908152602001600020548261175d91906146c3565b9150808061176a90614719565b915050611725565b5080915050919050565b60008073ffffffffffffffffffffffffffffffffffffffff168273ffffffffffffffffffffffffffffffffffffffff1614156117ed576040517f08c379a00000000000000000000000000000000000000000000000000000000081526004016117e490614c0e565b60405180910390fd5b600360008373ffffffffffffffffffffffffffffffffffffffff1673ffffffffffffffffffffffffffffffffffffffff168152602001908152602001600020549050919050565b61183c612369565b73ffffffffffffffffffffffffffffffffffffffff1661185a611972565b73ffffffffffffffffffffffffffffffffffffffff16146118b0576040517f08c379a00000000000000000000000000000000000000000000000000000000081526004016118a790614c7a565b60405180910390fd5b6118ba6000612875565b565b60115481565b606060006118cf8361177c565b67ffffffffffffffff8111156118e8576118e7613dd6565b5b6040519080825280602002602001820160405280156119165781602001602082028036833780820191505090505b50905060005b6119258461177c565b811015611968576119368482610ff9565b82828151811061194957611948614a49565b5b602002602001018181525050808061196090614719565b91505061191c565b8192505050919050565b6000600a60009054906101000a900473ffffffffffffffffffffffffffffffffffffffff16905090565b6000601354476119ac9190614a15565b905090565b6060600180546119c0906145d0565b80601f01602080910402602001604051908101604052809291908181526020018280546119ec906145d0565b8015611a395780601f10611a0e57610100808354040283529160200191611a39565b820191906000526020600020905b815481529060010190602001808311611a1c57829003601f168201915b5050505050905090565b611a55611a4e612369565b838361293b565b5050565b600f5481565b611a70611a6a612369565b8361242a565b611aaf576040517f08c379a0000000000000000000000000000000000000000000000000000000008152600401611aa690614963565b60405180910390fd5b611abb84848484612aa8565b50505050565b60156020528060005260406000206000915090505481565b6000806000905060005b611aec8461177c565b811015611b305760146000611b018684610ff9565b81526020019081526020016000205482611b1b91906146c3565b91508080611b2890614719565b915050611ae3565b5080915050919050565b6060611b45826122fd565b611b84576040517f08c379a0000000000000000000000000000000000000000000000000000000008152600401611b7b90614d0c565b60405180910390fd5b6000611b8e612b04565b90506000815111611bae5760405180602001604052806000815250611bd9565b80611bb884612b1b565b604051602001611bc9929190614d68565b6040516020818303038152906040525b915050919050565b60004262093a80601254611bf591906146c3565b611bff9190614a15565b905090565b600e5481565b600c60009054906101000a900473ffffffffffffffffffffffffffffffffffffffff1681565b6012544211611c3e57600080fd5b6000600f549050600f546011541115611c8157600f5481611c5f91906146c3565b9050600f5460116000828254611c759190614a15565b92505081905550611c9a565b60115481611c8f91906146c3565b905060006011819055505b60008190506000611ca9611eed565b905060008183611cb99190614dbb565b9050600082611cc661199c565b611cd09190614dbb565b905060005b600b54811015611d6c57611ce881612c7c565b83611cf39190614dec565b601460008381526020019081526020016000206000828254611d1591906146c3565b92505081905550611d2581612c7c565b82611d309190614dec565b601560008381526020019081526020016000206000828254611d5291906146c3565b925050819055508080611d6490614719565b915050611cd5565b611d7461199c565b60136000828254611d8591906146c3565b925050819055506000600f8190555042601281905550505050505050565b611dac816114ce565b73ffffffffffffffffffffffffffffffffffffffff163373ffffffffffffffffffffffffffffffffffffffff1614611de357600080fd5b3373ffffffffffffffffffffffffffffffffffffffff166108fc60156000848152602001908152602001600020549081150290604051600060405180830381858888f19350505050158015611e3c573d6000803e3d6000fd5b506000601560008381526020019081526020016000208190555050565b6000600560008473ffffffffffffffffffffffffffffffffffffffff1673ffffffffffffffffffffffffffffffffffffffff16815260200190815260200160002060008373ffffffffffffffffffffffffffffffffffffffff1673ffffffffffffffffffffffffffffffffffffffff16815260200190815260200160002060009054906101000a900460ff16905092915050565b6000806000905060005b600b54811015611f2a57611f0a81612c7c565b82611f1591906146c3565b91508080611f2290614719565b915050611ef7565b819250505090565b611f3a612369565b73ffffffffffffffffffffffffffffffffffffffff16611f58611972565b73ffffffffffffffffffffffffffffffffffffffff1614611fae576040517f08c379a0000000000000000000000000000000000000000000000000000000008152600401611fa590614c7a565b60405180910390fd5b600073ffffffffffffffffffffffffffffffffffffffff168173ffffffffffffffffffffffffffffffffffffffff16141561201e576040517f08c379a000000000000000000000000000000000000000000000000000000000815260040161201590614eb8565b60405180910390fd5b61202781612875565b50565b600d54600c60009054906101000a900473ffffffffffffffffffffffffffffffffffffffff1673ffffffffffffffffffffffffffffffffffffffff166370a08231336040518263ffffffff1660e01b81526004016120889190613cf2565b602060405180830381865afa1580156120a5573d6000803e3d6000fd5b505050506040513d601f19601f820116820180604052508101906120c99190614eed565b10156120d457600080fd5b600c60009054906101000a900473ffffffffffffffffffffffffffffffffffffffff1673ffffffffffffffffffffffffffffffffffffffff166323b872dd3330600d546040518463ffffffff1660e01b815260040161213593929190614f1a565b6020604051808303816000875af1158015612154573d6000803e3d6000fd5b505050506040513d601f19601f8201168201806040525081019061217891906147a0565b50600e54600d546121899190614a15565b6010600082825461219a91906146c3565b92505081905550600e54600f60008282546121b591906146c3565b9250508190555060006122076040518060400160405280600781526020017f63466f6e74202300000000000000000000000000000000000000000000000000815250612202600b54612cfc565b612e63565b905061221281612e8f565b50565b60135481565b60007f80ac58cd000000000000000000000000000000000000000000000000000000007bffffffffffffffffffffffffffffffffffffffffffffffffffffffff1916827bffffffffffffffffffffffffffffffffffffffffffffffffffffffff191614806122e657507f5b5e139f000000000000000000000000000000000000000000000000000000007bffffffffffffffffffffffffffffffffffffffffffffffffffffffff1916827bffffffffffffffffffffffffffffffffffffffffffffffffffffffff1916145b806122f657506122f582613147565b5b9050919050565b60008073ffffffffffffffffffffffffffffffffffffffff166002600084815260200190815260200160002060009054906101000a900473ffffffffffffffffffffffffffffffffffffffff1673ffffffffffffffffffffffffffffffffffffffff1614159050919050565b600033905090565b816004600083815260200190815260200160002060006101000a81548173ffffffffffffffffffffffffffffffffffffffff021916908373ffffffffffffffffffffffffffffffffffffffff160217905550808273ffffffffffffffffffffffffffffffffffffffff166123e4836114ce565b73ffffffffffffffffffffffffffffffffffffffff167f8c5be1e5ebec7d5bd14f71427d1e84f3dd0314c0f7b2291e5b200ac8c7c3b92560405160405180910390a45050565b6000612435826122fd565b612474576040517f08c379a000000000000000000000000000000000000000000000000000000000815260040161246b90614fc3565b60405180910390fd5b600061247f836114ce565b90508073ffffffffffffffffffffffffffffffffffffffff168473ffffffffffffffffffffffffffffffffffffffff1614806124ee57508373ffffffffffffffffffffffffffffffffffffffff166124d684610bc1565b73ffffffffffffffffffffffffffffffffffffffff16145b806124ff57506124fe8185611e59565b5b91505092915050565b8273ffffffffffffffffffffffffffffffffffffffff16612528826114ce565b73ffffffffffffffffffffffffffffffffffffffff161461257e576040517f08c379a000000000000000000000000000000000000000000000000000000000815260040161257590615055565b60405180910390fd5b600073ffffffffffffffffffffffffffffffffffffffff168273ffffffffffffffffffffffffffffffffffffffff1614156125ee576040517f08c379a00000000000000000000000000000000000000000000000000000000081526004016125e5906150e7565b60405180910390fd5b6125f98383836131b1565b612604600082612371565b6001600360008573ffffffffffffffffffffffffffffffffffffffff1673ffffffffffffffffffffffffffffffffffffffff16815260200190815260200160002060008282546126549190614a15565b925050819055506001600360008473ffffffffffffffffffffffffffffffffffffffff1673ffffffffffffffffffffffffffffffffffffffff16815260200190815260200160002060008282546126ab91906146c3565b92505081905550816002600083815260200190815260200160002060006101000a81548173ffffffffffffffffffffffffffffffffffffffff021916908373ffffffffffffffffffffffffffffffffffffffff160217905550808273ffffffffffffffffffffffffffffffffffffffff168473ffffffffffffffffffffffffffffffffffffffff167fddf252ad1be2c89b69c2b068fc378daa952ba7f163c4a11628f55a4df523b3ef60405160405180910390a4505050565b600061276f826114ce565b905061277d816000846131b1565b612788600083612371565b6001600360008373ffffffffffffffffffffffffffffffffffffffff1673ffffffffffffffffffffffffffffffffffffffff16815260200190815260200160002060008282546127d89190614a15565b925050819055506002600083815260200190815260200160002060006101000a81549073ffffffffffffffffffffffffffffffffffffffff021916905581600073ffffffffffffffffffffffffffffffffffffffff168273ffffffffffffffffffffffffffffffffffffffff167fddf252ad1be2c89b69c2b068fc378daa952ba7f163c4a11628f55a4df523b3ef60405160405180910390a45050565b6000600a60009054906101000a900473ffffffffffffffffffffffffffffffffffffffff16905081600a60006101000a81548173ffffffffffffffffffffffffffffffffffffffff021916908373ffffffffffffffffffffffffffffffffffffffff1602179055508173ffffffffffffffffffffffffffffffffffffffff168173ffffffffffffffffffffffffffffffffffffffff167f8be0079c531659141344cd1fd0a4f28419497f9722a3daafe3b4186f6b6457e060405160405180910390a35050565b8173ffffffffffffffffffffffffffffffffffffffff168373ffffffffffffffffffffffffffffffffffffffff1614156129aa576040517f08c379a00000000000000000000000000000000000000000000000000000000081526004016129a190615153565b60405180910390fd5b80600560008573ffffffffffffffffffffffffffffffffffffffff1673ffffffffffffffffffffffffffffffffffffffff16815260200190815260200160002060008473ffffffffffffffffffffffffffffffffffffffff1673ffffffffffffffffffffffffffffffffffffffff16815260200190815260200160002060006101000a81548160ff0219169083151502179055508173ffffffffffffffffffffffffffffffffffffffff168373ffffffffffffffffffffffffffffffffffffffff167f17307eab39ab6107e8899845ad3d59bd9653f200f220920489ca2b5937696c3183604051612a9b9190613b4e565b60405180910390a3505050565b612ab3848484612508565b612abf848484846132c5565b612afe576040517f08c379a0000000000000000000000000000000000000000000000000000000008152600401612af5906151e5565b60405180910390fd5b50505050565b606060405180602001604052806000815250905090565b60606000821415612b63576040518060400160405280600181526020017f30000000000000000000000000000000000000000000000000000000000000008152509050612c77565b600082905060005b60008214612b95578080612b7e90614719565b915050600a82612b8e9190614dbb565b9150612b6b565b60008167ffffffffffffffff811115612bb157612bb0613dd6565b5b6040519080825280601f01601f191660200182016040528015612be35781602001600182028036833780820191505090505b5090505b60008514612c7057600182612bfc9190614a15565b9150600a85612c0b9190615205565b6030612c1791906146c3565b60f81b818381518110612c2d57612c2c614a49565b5b60200101907effffffffffffffffffffffffffffffffffffffffffffffffffffffffffffff1916908160001a905350600a85612c699190614dbb565b9450612be7565b8093505050505b919050565b6000806000905060168381548110612c9757612c96614a49565b5b906000526020600020906008020160070160009054906101000a900460ff16612cf35760168381548110612cce57612ccd614a49565b5b906000526020600020906008020160030160009054906101000a900460ff1660ff1690505b80915050919050565b60606000821415612d44576040518060400160405280600181526020017f30000000000000000000000000000000000000000000000000000000000000008152509050612e5e565b600082905060005b60008214612d76578080612d5f90614719565b915050600a82612d6f9190614dbb565b9150612d4c565b60008167ffffffffffffffff811115612d9257612d91613dd6565b5b6040519080825280601f01601f191660200182016040528015612dc45781602001600182028036833780820191505090505b50905060008290508593505b60008414612e5657600a84612de59190615205565b6030612df191906146c3565b60f81b8282612dff90615236565b92508281518110612e1357612e12614a49565b5b60200101907effffffffffffffffffffffffffffffffffffffffffffffffffffffffffffff1916908160001a905350600a84612e4f9190614dbb565b9350612dd0565b819450505050505b919050565b60608282604051602001612e78929190614d68565b604051602081830303815290604052905092915050565b60006001612e9d606461344d565b612ea79190615260565b90506000612ebb662386f26fc1000061344d565b90506000612ecf662386f26fc1000061344d565b905060006001612ee061271061344d565b612eea91906146c3565b90506000600a612efa608c61344d565b612f0491906146c3565b9050600060019050600042905060298760ff161015612f445760029150600b8760ff161015612f43576003915060028260ff161015612f4257600491505b5b5b60006040518061012001604052808a8152602001600b5481526020018881526020018460ff1681526020018781526020018661ffff1681526020018560ff16815260200183815260200160001515815250905060168190806001815401808255809150506001900390600052602060002090600802016000909190919091506000820151816000019080519060200190612fdf9291906139f7565b50602082015181600101556040820151816002015560608201518160030160006101000a81548160ff021916908360ff1602179055506080820151816004015560a08201518160050160006101000a81548161ffff021916908361ffff16021790555060c08201518160050160026101000a81548160ff021916908360ff16021790555060e082015181600601556101008201518160070160006101000a81548160ff0219169083151502179055505050600060146000600b54815260200190815260200160002081905550600060156000600b548152602001908152602001600020819055506130d233600b54613492565b3373ffffffffffffffffffffffffffffffffffffffff167fe6b5d2375ea5860192277472eed072ebc6805abc7699b637dfe1e4806126208a600b548960405161311c929190615297565b60405180910390a2600b600081548092919061313790614719565b9190505550505050505050505050565b60007f01ffc9a7000000000000000000000000000000000000000000000000000000007bffffffffffffffffffffffffffffffffffffffffffffffffffffffff1916827bffffffffffffffffffffffffffffffffffffffffffffffffffffffff1916149050919050565b6131bc8383836134b0565b600073ffffffffffffffffffffffffffffffffffffffff168373ffffffffffffffffffffffffffffffffffffffff1614156131ff576131fa816134b5565b61323e565b8173ffffffffffffffffffffffffffffffffffffffff168373ffffffffffffffffffffffffffffffffffffffff161461323d5761323c83826134fe565b5b5b600073ffffffffffffffffffffffffffffffffffffffff168273ffffffffffffffffffffffffffffffffffffffff1614156132815761327c8161366b565b6132c0565b8273ffffffffffffffffffffffffffffffffffffffff168273ffffffffffffffffffffffffffffffffffffffff16146132bf576132be828261373c565b5b5b505050565b60006132e68473ffffffffffffffffffffffffffffffffffffffff166137bb565b15613440578373ffffffffffffffffffffffffffffffffffffffff1663150b7a0261330f612369565b8786866040518563ffffffff1660e01b81526004016133319493929190615315565b6020604051808303816000875af192505050801561336d57506040513d601f19601f8201168201806040525081019061336a9190615376565b60015b6133f0573d806000811461339d576040519150601f19603f3d011682016040523d82523d6000602084013e6133a2565b606091505b506000815114156133e8576040517f08c379a00000000000000000000000000000000000000000000000000000000081526004016133df906151e5565b60405180910390fd5b805181602001fd5b63150b7a0260e01b7bffffffffffffffffffffffffffffffffffffffffffffffffffffffff1916817bffffffffffffffffffffffffffffffffffffffffffffffffffffffff191614915050613445565b600190505b949350505050565b600080423360405160200161346392919061540c565b6040516020818303038152906040528051906020012060001c9050828161348a9190615205565b915050919050565b6134ac8282604051806020016040528060008152506137ce565b5050565b505050565b6008805490506009600083815260200190815260200160002081905550600881908060018154018082558091505060019003906000526020600020016000909190919091505550565b6000600161350b8461177c565b6135159190614a15565b90506000600760008481526020019081526020016000205490508181146135fa576000600660008673ffffffffffffffffffffffffffffffffffffffff1673ffffffffffffffffffffffffffffffffffffffff168152602001908152602001600020600084815260200190815260200160002054905080600660008773ffffffffffffffffffffffffffffffffffffffff1673ffffffffffffffffffffffffffffffffffffffff168152602001908152602001600020600084815260200190815260200160002081905550816007600083815260200190815260200160002081905550505b6007600084815260200190815260200160002060009055600660008573ffffffffffffffffffffffffffffffffffffffff1673ffffffffffffffffffffffffffffffffffffffff16815260200190815260200160002060008381526020019081526020016000206000905550505050565b6000600160088054905061367f9190614a15565b90506000600960008481526020019081526020016000205490506000600883815481106136af576136ae614a49565b5b9060005260206000200154905080600883815481106136d1576136d0614a49565b5b9060005260206000200181905550816009600083815260200190815260200160002081905550600960008581526020019081526020016000206000905560088054806137205761371f615438565b5b6001900381819060005260206000200160009055905550505050565b60006137478361177c565b905081600660008573ffffffffffffffffffffffffffffffffffffffff1673ffffffffffffffffffffffffffffffffffffffff168152602001908152602001600020600083815260200190815260200160002081905550806007600084815260200190815260200160002081905550505050565b600080823b905060008111915050919050565b6137d88383613829565b6137e560008484846132c5565b613824576040517f08c379a000000000000000000000000000000000000000000000000000000000815260040161381b906151e5565b60405180910390fd5b505050565b600073ffffffffffffffffffffffffffffffffffffffff168273ffffffffffffffffffffffffffffffffffffffff161415613899576040517f08c379a0000000000000000000000000000000000000000000000000000000008152600401613890906154b3565b60405180910390fd5b6138a2816122fd565b156138e2576040517f08c379a00000000000000000000000000000000000000000000000000000000081526004016138d99061551f565b60405180910390fd5b6138ee600083836131b1565b6001600360008473ffffffffffffffffffffffffffffffffffffffff1673ffffffffffffffffffffffffffffffffffffffff168152602001908152602001600020600082825461393e91906146c3565b92505081905550816002600083815260200190815260200160002060006101000a81548173ffffffffffffffffffffffffffffffffffffffff021916908373ffffffffffffffffffffffffffffffffffffffff160217905550808273ffffffffffffffffffffffffffffffffffffffff16600073ffffffffffffffffffffffffffffffffffffffff167fddf252ad1be2c89b69c2b068fc378daa952ba7f163c4a11628f55a4df523b3ef60405160405180910390a45050565b828054613a03906145d0565b90600052602060002090601f016020900481019282613a255760008555613a6c565b82601f10613a3e57805160ff1916838001178555613a6c565b82800160010185558215613a6c579182015b82811115613a6b578251825591602001919060010190613a50565b5b509050613a799190613a7d565b5090565b5b80821115613a96576000816000905550600101613a7e565b5090565b6000604051905090565b600080fd5b600080fd5b60007fffffffff0000000000000000000000000000000000000000000000000000000082169050919050565b613ae381613aae565b8114613aee57600080fd5b50565b600081359050613b0081613ada565b92915050565b600060208284031215613b1c57613b1b613aa4565b5b6000613b2a84828501613af1565b91505092915050565b60008115159050919050565b613b4881613b33565b82525050565b6000602082019050613b636000830184613b3f565b92915050565b6000819050919050565b613b7c81613b69565b8114613b8757600080fd5b50565b600081359050613b9981613b73565b92915050565b600060208284031215613bb557613bb4613aa4565b5b6000613bc384828501613b8a565b91505092915050565b613bd581613b69565b82525050565b6000602082019050613bf06000830184613bcc565b92915050565b600081519050919050565b600082825260208201905092915050565b60005b83811015613c30578082015181840152602081019050613c15565b83811115613c3f576000848401525b50505050565b6000601f19601f8301169050919050565b6000613c6182613bf6565b613c6b8185613c01565b9350613c7b818560208601613c12565b613c8481613c45565b840191505092915050565b60006020820190508181036000830152613ca98184613c56565b905092915050565b600073ffffffffffffffffffffffffffffffffffffffff82169050919050565b6000613cdc82613cb1565b9050919050565b613cec81613cd1565b82525050565b6000602082019050613d076000830184613ce3565b92915050565b613d1681613cd1565b8114613d2157600080fd5b50565b600081359050613d3381613d0d565b92915050565b60008060408385031215613d5057613d4f613aa4565b5b6000613d5e85828601613d24565b9250506020613d6f85828601613b8a565b9150509250929050565b600080600060608486031215613d9257613d91613aa4565b5b6000613da086828701613d24565b9350506020613db186828701613d24565b9250506040613dc286828701613b8a565b9150509250925092565b600080fd5b600080fd5b7f4e487b7100000000000000000000000000000000000000000000000000000000600052604160045260246000fd5b613e0e82613c45565b810181811067ffffffffffffffff82111715613e2d57613e2c613dd6565b5b80604052505050565b6000613e40613a9a565b9050613e4c8282613e05565b919050565b600067ffffffffffffffff821115613e6c57613e6b613dd6565b5b613e7582613c45565b9050602081019050919050565b82818337600083830152505050565b6000613ea4613e9f84613e51565b613e36565b905082815260208101848484011115613ec057613ebf613dd1565b5b613ecb848285613e82565b509392505050565b600082601f830112613ee857613ee7613dcc565b5b8135613ef8848260208601613e91565b91505092915050565b60008060408385031215613f1857613f17613aa4565b5b600083013567ffffffffffffffff811115613f3657613f35613aa9565b5b613f4285828601613ed3565b9250506020613f5385828601613b8a565b9150509250929050565b600060ff82169050919050565b613f7381613f5d565b82525050565b600061ffff82169050919050565b613f9081613f79565b82525050565b6000610120820190508181036000830152613fb1818c613c56565b9050613fc0602083018b613bcc565b613fcd604083018a613bcc565b613fda6060830189613f6a565b613fe76080830188613bcc565b613ff460a0830187613f87565b61400160c0830186613f6a565b61400e60e0830185613bcc565b61401c610100830184613b3f565b9a9950505050505050505050565b600081519050919050565b600082825260208201905092915050565b6000819050602082019050919050565b600082825260208201905092915050565b600061407282613bf6565b61407c8185614056565b935061408c818560208601613c12565b61409581613c45565b840191505092915050565b6140a981613b69565b82525050565b6140b881613f5d565b82525050565b6140c781613f79565b82525050565b6140d681613b33565b82525050565b60006101208301600083015184820360008601526140fa8282614067565b915050602083015161410f60208601826140a0565b50604083015161412260408601826140a0565b50606083015161413560608601826140af565b50608083015161414860808601826140a0565b5060a083015161415b60a08601826140be565b5060c083015161416e60c08601826140af565b5060e083015161418160e08601826140a0565b506101008301516141966101008601826140cd565b508091505092915050565b60006141ad83836140dc565b905092915050565b6000602082019050919050565b60006141cd8261402a565b6141d78185614035565b9350836020820285016141e985614046565b8060005b85811015614225578484038952815161420685826141a1565b9450614211836141b5565b925060208a019950506001810190506141ed565b50829750879550505050505092915050565b6000602082019050818103600083015261425181846141c2565b905092915050565b60006020828403121561426f5761426e613aa4565b5b600061427d84828501613d24565b91505092915050565b600081519050919050565b600082825260208201905092915050565b6000819050602082019050919050565b60006142be83836140a0565b60208301905092915050565b6000602082019050919050565b60006142e282614286565b6142ec8185614291565b93506142f7836142a2565b8060005b8381101561432857815161430f88826142b2565b975061431a836142ca565b9250506001810190506142fb565b5085935050505092915050565b6000602082019050818103600083015261434f81846142d7565b905092915050565b61436081613b33565b811461436b57600080fd5b50565b60008135905061437d81614357565b92915050565b6000806040838503121561439a57614399613aa4565b5b60006143a885828601613d24565b92505060206143b98582860161436e565b9150509250929050565b600067ffffffffffffffff8211156143de576143dd613dd6565b5b6143e782613c45565b9050602081019050919050565b6000614407614402846143c3565b613e36565b90508281526020810184848401111561442357614422613dd1565b5b61442e848285613e82565b509392505050565b600082601f83011261444b5761444a613dcc565b5b813561445b8482602086016143f4565b91505092915050565b6000806000806080858703121561447e5761447d613aa4565b5b600061448c87828801613d24565b945050602061449d87828801613d24565b93505060406144ae87828801613b8a565b925050606085013567ffffffffffffffff8111156144cf576144ce613aa9565b5b6144db87828801614436565b91505092959194509250565b6000819050919050565b600061450c61450761450284613cb1565b6144e7565b613cb1565b9050919050565b600061451e826144f1565b9050919050565b600061453082614513565b9050919050565b61454081614525565b82525050565b600060208201905061455b6000830184614537565b92915050565b6000806040838503121561457857614577613aa4565b5b600061458685828601613d24565b925050602061459785828601613d24565b9150509250929050565b7f4e487b7100000000000000000000000000000000000000000000000000000000600052602260045260246000fd5b600060028204905060018216806145e857607f821691505b602082108114156145fc576145fb6145a1565b5b50919050565b7f4552433732313a20617070726f76656420717565727920666f72206e6f6e657860008201527f697374656e7420746f6b656e0000000000000000000000000000000000000000602082015250565b600061465e602c83613c01565b915061466982614602565b604082019050919050565b6000602082019050818103600083015261468d81614651565b9050919050565b7f4e487b7100000000000000000000000000000000000000000000000000000000600052601160045260246000fd5b60006146ce82613b69565b91506146d983613b69565b9250827fffffffffffffffffffffffffffffffffffffffffffffffffffffffffffffffff0382111561470e5761470d614694565b5b828201905092915050565b600061472482613b69565b91507fffffffffffffffffffffffffffffffffffffffffffffffffffffffffffffffff82141561475757614756614694565b5b600182019050919050565b60006040820190506147776000830185613ce3565b6147846020830184613bcc565b9392505050565b60008151905061479a81614357565b92915050565b6000602082840312156147b6576147b5613aa4565b5b60006147c48482850161478b565b91505092915050565b7f4552433732313a20617070726f76616c20746f2063757272656e74206f776e6560008201527f7200000000000000000000000000000000000000000000000000000000000000602082015250565b6000614829602183613c01565b9150614834826147cd565b604082019050919050565b600060208201905081810360008301526148588161481c565b9050919050565b7f4552433732313a20617070726f76652063616c6c6572206973206e6f74206f7760008201527f6e6572206e6f7220617070726f76656420666f7220616c6c0000000000000000602082015250565b60006148bb603883613c01565b91506148c68261485f565b604082019050919050565b600060208201905081810360008301526148ea816148ae565b9050919050565b7f4552433732313a207472616e736665722063616c6c6572206973206e6f74206f60008201527f776e6572206e6f7220617070726f766564000000000000000000000000000000602082015250565b600061494d603183613c01565b9150614958826148f1565b604082019050919050565b6000602082019050818103600083015261497c81614940565b9050919050565b7f455243373231456e756d657261626c653a206f776e657220696e646578206f7560008201527f74206f6620626f756e6473000000000000000000000000000000000000000000602082015250565b60006149df602b83613c01565b91506149ea82614983565b604082019050919050565b60006020820190508181036000830152614a0e816149d2565b9050919050565b6000614a2082613b69565b9150614a2b83613b69565b925082821015614a3e57614a3d614694565b5b828203905092915050565b7f4e487b7100000000000000000000000000000000000000000000000000000000600052603260045260246000fd5b7f455243373231456e756d657261626c653a20676c6f62616c20696e646578206f60008201527f7574206f6620626f756e64730000000000000000000000000000000000000000602082015250565b6000614ad4602c83613c01565b9150614adf82614a78565b604082019050919050565b60006020820190508181036000830152614b0381614ac7565b9050919050565b7f4552433732313a206f776e657220717565727920666f72206e6f6e657869737460008201527f656e7420746f6b656e0000000000000000000000000000000000000000000000602082015250565b6000614b66602983613c01565b9150614b7182614b0a565b604082019050919050565b60006020820190508181036000830152614b9581614b59565b9050919050565b7f4552433732313a2062616c616e636520717565727920666f7220746865207a6560008201527f726f206164647265737300000000000000000000000000000000000000000000602082015250565b6000614bf8602a83613c01565b9150614c0382614b9c565b604082019050919050565b60006020820190508181036000830152614c2781614beb565b9050919050565b7f4f776e61626c653a2063616c6c6572206973206e6f7420746865206f776e6572600082015250565b6000614c64602083613c01565b9150614c6f82614c2e565b602082019050919050565b60006020820190508181036000830152614c9381614c57565b9050919050565b7f4552433732314d657461646174613a2055524920717565727920666f72206e6f60008201527f6e6578697374656e7420746f6b656e0000000000000000000000000000000000602082015250565b6000614cf6602f83613c01565b9150614d0182614c9a565b604082019050919050565b60006020820190508181036000830152614d2581614ce9565b9050919050565b600081905092915050565b6000614d4282613bf6565b614d4c8185614d2c565b9350614d5c818560208601613c12565b80840191505092915050565b6000614d748285614d37565b9150614d808284614d37565b91508190509392505050565b7f4e487b7100000000000000000000000000000000000000000000000000000000600052601260045260246000fd5b6000614dc682613b69565b9150614dd183613b69565b925082614de157614de0614d8c565b5b828204905092915050565b6000614df782613b69565b9150614e0283613b69565b9250817fffffffffffffffffffffffffffffffffffffffffffffffffffffffffffffffff0483118215151615614e3b57614e3a614694565b5b828202905092915050565b7f4f776e61626c653a206e6577206f776e657220697320746865207a65726f206160008201527f6464726573730000000000000000000000000000000000000000000000000000602082015250565b6000614ea2602683613c01565b9150614ead82614e46565b604082019050919050565b60006020820190508181036000830152614ed181614e95565b9050919050565b600081519050614ee781613b73565b92915050565b600060208284031215614f0357614f02613aa4565b5b6000614f1184828501614ed8565b91505092915050565b6000606082019050614f2f6000830186613ce3565b614f3c6020830185613ce3565b614f496040830184613bcc565b949350505050565b7f4552433732313a206f70657261746f7220717565727920666f72206e6f6e657860008201527f697374656e7420746f6b656e0000000000000000000000000000000000000000602082015250565b6000614fad602c83613c01565b9150614fb882614f51565b604082019050919050565b60006020820190508181036000830152614fdc81614fa0565b9050919050565b7f4552433732313a207472616e73666572206f6620746f6b656e2074686174206960008201527f73206e6f74206f776e0000000000000000000000000000000000000000000000602082015250565b600061503f602983613c01565b915061504a82614fe3565b604082019050919050565b6000602082019050818103600083015261506e81615032565b9050919050565b7f4552433732313a207472616e7366657220746f20746865207a65726f2061646460008201527f7265737300000000000000000000000000000000000000000000000000000000602082015250565b60006150d1602483613c01565b91506150dc82615075565b604082019050919050565b60006020820190508181036000830152615100816150c4565b9050919050565b7f4552433732313a20617070726f766520746f2063616c6c657200000000000000600082015250565b600061513d601983613c01565b915061514882615107565b602082019050919050565b6000602082019050818103600083015261516c81615130565b9050919050565b7f4552433732313a207472616e7366657220746f206e6f6e20455243373231526560008201527f63656976657220696d706c656d656e7465720000000000000000000000000000602082015250565b60006151cf603283613c01565b91506151da82615173565b604082019050919050565b600060208201905081810360008301526151fe816151c2565b9050919050565b600061521082613b69565b915061521b83613b69565b92508261522b5761522a614d8c565b5b828206905092915050565b600061524182613b69565b9150600082141561525557615254614694565b5b600182039050919050565b600061526b82613f5d565b915061527683613f5d565b92508260ff0382111561528c5761528b614694565b5b828201905092915050565b60006040820190506152ac6000830185613bcc565b6152b96020830184613bcc565b9392505050565b600081519050919050565b600082825260208201905092915050565b60006152e7826152c0565b6152f181856152cb565b9350615301818560208601613c12565b61530a81613c45565b840191505092915050565b600060808201905061532a6000830187613ce3565b6153376020830186613ce3565b6153446040830185613bcc565b818103606083015261535681846152dc565b905095945050505050565b60008151905061537081613ada565b92915050565b60006020828403121561538c5761538b613aa4565b5b600061539a84828501615361565b91505092915050565b6000819050919050565b6153be6153b982613b69565b6153a3565b82525050565b60008160601b9050919050565b60006153dc826153c4565b9050919050565b60006153ee826153d1565b9050919050565b61540661540182613cd1565b6153e3565b82525050565b600061541882856153ad565b60208201915061542882846153f5565b6014820191508190509392505050565b7f4e487b7100000000000000000000000000000000000000000000000000000000600052603160045260246000fd5b7f4552433732313a206d696e7420746f20746865207a65726f2061646472657373600082015250565b600061549d602083613c01565b91506154a882615467565b602082019050919050565b600060208201905081810360008301526154cc81615490565b9050919050565b7f4552433732313a20746f6b656e20616c7265616479206d696e74656400000000600082015250565b6000615509601c83613c01565b9150615514826154d3565b602082019050919050565b60006020820190508181036000830152615538816154fc565b905091905056fea264697066735822122045a97459c393466bef47ab5f2ec6553630747dd05fe460ba443c57591fb8b3a764736f6c634300080a0033",
  "immutableReferences": {},
  "source": "// SPDX-License-Identifier: MIT\n\npragma solidity ^0.8.0;\n\nimport \"@openzeppelin/contracts/token/ERC721/ERC721.sol\";\nimport \"@openzeppelin/contracts/access/Ownable.sol\";\nimport \"@openzeppelin/contracts/token/ERC721/extensions/ERC721Enumerable.sol\";\nimport \"@openzeppelin/contracts/token/ERC20/IERC20.sol\";\n\ncontract cryptoFont is ERC721Enumerable, Ownable  {\n    uint256 COUNTER = 0;\n    IERC20 public eBitcoin;\n    uint256 public cost = 100 * 10**18;\n    uint256 public fee = cost * 20 / 100;\n    uint256 public feePool;\n    uint256 public rewardPool;\n    uint256 public miningPool;\n    uint256 public pastDistributedReward;\n    uint256 public distributedEthers;\n\n    mapping(uint256 => uint256) public tokenToReward;\n    mapping(uint256 => uint256) public tokenToEthers;\n\n    struct cFont {\n        string name;\n        uint256 id;\n        uint256 dna;\n        uint8 rarity;\n        uint256 Stat;\n        uint16 Power;\n        uint8 Size;\n        uint256 mintDate;\n        bool burn;\n    }\n\n    cFont[] public cFonts;\n\n    event NewcFont(address indexed owner, uint256 id, uint dna);\n\n    function _createRandomNum(uint256 _mod) internal view returns(uint256){\n        uint256 randomNum = uint256(keccak256(abi.encodePacked(block.timestamp, msg.sender)));\n        return randomNum % _mod;\n    }\n\n    constructor(address eBitcoinAddress)\n        ERC721(\"Crypto Font\", \"cFont\")\n    {\n        eBitcoin = IERC20(eBitcoinAddress);\n        pastDistributedReward = block.timestamp;\n    }\n\n    function uint2str(uint256 _i) internal pure returns (string memory str){\n        if (_i == 0){\n            return \"0\";\n        }\n        uint256 j = _i;\n        uint256 length;\n        while (j != 0)\n        {\n            length++;\n            j /= 10;\n        }\n        bytes memory bstr = new bytes(length);\n        uint256 k = length;\n        j = _i;\n        while (j != 0)\n        {\n            bstr[--k] = bytes1(uint8(48 + j % 10));\n            j /= 10;\n        }\n        str = string(bstr);\n    }\n\n    function concatenate(string memory s1, string memory s2) internal pure returns (string memory) {\n        return string(abi.encodePacked(s1, s2));\n    }\n\n    function _createcFont(string memory _name) internal{\n        uint8 randRarity = uint8(_createRandomNum(100)) + 1;\n        uint256 randDna = _createRandomNum(10**16);\n        uint256 randStat = _createRandomNum(10**16);\n        uint16 randPower = uint16(_createRandomNum(10000) + 1);\n        uint8 randSize = uint8(_createRandomNum(140) + 10);\n        uint8 rarity = 1;\n        uint256 mint_date = block.timestamp;\n\n        if(randRarity < 41){\n            rarity = 2;\n            if(randRarity < 11){\n                rarity = 3;\n                if(rarity <2){\n                    rarity = 4;\n                }\n            }\n        }\n        \n        cFont memory newcFont = cFont(_name, COUNTER, randDna, rarity, randStat, randPower,randSize,mint_date,false);\n        cFonts.push(newcFont);\n        tokenToReward[COUNTER] = 0;\n        tokenToEthers[COUNTER] = 0;\n        _safeMint(msg.sender, COUNTER);\n        emit NewcFont(msg.sender,COUNTER, randDna);\n        COUNTER++;\n    }\n\n    function createRandomcFont() public{\n        require(eBitcoin.balanceOf(msg.sender) >= cost);\n        eBitcoin.transferFrom(msg.sender,address(this), cost);\n        rewardPool+= (cost-fee);\n        feePool+=fee;\n        string memory name = concatenate(\"cFont #\",uint2str(COUNTER));\n        _createcFont(name);\n    }\n\n    function reverseSwap(uint256 id) public{\n        require(ownerOf(id) == msg.sender);\n        _burn(id);\n        eBitcoin.transfer(msg.sender, (cost - fee));\n        cFonts[id].burn = true;\n    }\n\n    function getcFonts() public view returns(cFont[] memory) {\n        return cFonts;\n    }\n\n    function _getRarity(uint256 id) internal view returns(uint256){\n        uint256 rarity = 0;\n        if(!cFonts[id].burn){\n                rarity=cFonts[id].rarity;\n            }\n            return rarity;\n    }\n\n\n    function countAllRarity() public view returns(uint256){\n        uint256 rarity = 0;\n        uint256 i;\n        for (i=0;i<COUNTER;i++){\n            rarity+=_getRarity(i);\n        }\n        \n        return rarity;\n    }\n\n    function remainingEthers() public view returns(uint256){\n        return address(this).balance - distributedEthers;\n    }\n\n    function DistributeReward() public{\n        require(block.timestamp > pastDistributedReward);\n        uint256 amount = feePool;\n\n        if(miningPool > feePool){\n            amount += feePool;\n            miningPool -= feePool;\n        }\n        else{\n            amount += miningPool;\n            miningPool = 0;\n        }\n\n        uint256 reward = amount;\n        uint256 allRare = countAllRarity();\n        uint256 rewardPerRare =  reward / allRare;\n        uint256 ethersPerRare = remainingEthers() / allRare;\n        uint256 i;\n        for(i=0; i<COUNTER;i++){\n            tokenToReward[i] += rewardPerRare * _getRarity(i);\n            tokenToEthers[i] += ethersPerRare * _getRarity(i);\n        }\n\n        distributedEthers += remainingEthers();\n        feePool = 0;\n        pastDistributedReward = block.timestamp;\n    }\n\n    function showEthers(address account) public view returns(uint256){\n        uint256 reward = 0;\n        for(uint256 i =0; i< balanceOf(account); i++){\n            reward += tokenToEthers[tokenOfOwnerByIndex(account, i)];\n        }\n        return reward;\n    }\n\n    function getEthers(uint id) public{\n        require(msg.sender == ownerOf(id));\n        payable(msg.sender).transfer(tokenToEthers[id]);\n        tokenToEthers[id] = 0;\n    }\n\n    function getAllEthers() public{\n        uint256 reward = 0;\n        for(uint256 i = 0;i< balanceOf(msg.sender); i++){\n            reward += tokenToEthers[tokenOfOwnerByIndex(msg.sender, i)];\n            tokenToEthers[tokenOfOwnerByIndex(msg.sender, i)] = 0;\n        }\n        payable(msg.sender).transfer(reward);\n    }\n\n    receive() external payable {}\n\n    function showReward(address account) public view returns(uint256){\n        uint256 reward = 0;\n        for(uint256 i =0; i< balanceOf(account); i++){\n            reward += tokenToReward[tokenOfOwnerByIndex(account, i)];\n        }\n        return reward;\n    }\n\n    function getReward(uint id) public{\n        require(msg.sender == ownerOf(id));\n        eBitcoin.transfer(msg.sender, tokenToReward[id]);\n        tokenToReward[id] = 0;\n    }\n\n    function getAllReward() public{\n        uint256 reward = 0;\n        for(uint256 i = 0;i< balanceOf(msg.sender); i++){\n            reward += tokenToReward[tokenOfOwnerByIndex(msg.sender, i)];\n            tokenToReward[tokenOfOwnerByIndex(msg.sender, i)] = 0;\n        }\n        eBitcoin.transfer(msg.sender, reward);\n    }\n\n    function setName(string memory name, uint256 id) public {\n        require(ownerOf(id) == msg.sender);\n        require(bytes(name).length > 0);\n        cFonts[id].name = name;\n    }\n\n    function getTimeRemain() public view returns(uint256){\n        return (pastDistributedReward + 7 days) - block.timestamp;\n    }\n\n    function getIdsOfOwner(address _owner) public view returns (uint[] memory) {\n        uint[] memory _tokensOfOwner = new uint[](ERC721.balanceOf(_owner));\n        uint i;\n\n        for (i=0;i<ERC721.balanceOf(_owner);i++){\n            _tokensOfOwner[i] = ERC721Enumerable.tokenOfOwnerByIndex(_owner, i);\n        }\n        return (_tokensOfOwner);\n    }\n}",
  "sourcePath": "/Users/jarupaksrisuchat/Documents/github/crypto-font/contracts/cFont.sol",
  "compiler": {
    "name": "solc",
    "version": "0.8.10+commit.fc410830.Emscripten.clang"
  },
  "schemaVersion": "3.4.3",
  "updatedAt": "2021-12-17T02:06:29.593Z",
  "networkType": "ethereum",
  "devdoc": {
    "kind": "dev",
    "methods": {
      "approve(address,uint256)": {
        "details": "See {IERC721-approve}."
      },
      "balanceOf(address)": {
        "details": "See {IERC721-balanceOf}."
      },
      "getApproved(uint256)": {
        "details": "See {IERC721-getApproved}."
      },
      "isApprovedForAll(address,address)": {
        "details": "See {IERC721-isApprovedForAll}."
      },
      "name()": {
        "details": "See {IERC721Metadata-name}."
      },
      "owner()": {
        "details": "Returns the address of the current owner."
      },
      "ownerOf(uint256)": {
        "details": "See {IERC721-ownerOf}."
      },
      "renounceOwnership()": {
        "details": "Leaves the contract without owner. It will not be possible to call `onlyOwner` functions anymore. Can only be called by the current owner. NOTE: Renouncing ownership will leave the contract without an owner, thereby removing any functionality that is only available to the owner."
      },
      "safeTransferFrom(address,address,uint256)": {
        "details": "See {IERC721-safeTransferFrom}."
      },
      "safeTransferFrom(address,address,uint256,bytes)": {
        "details": "See {IERC721-safeTransferFrom}."
      },
      "setApprovalForAll(address,bool)": {
        "details": "See {IERC721-setApprovalForAll}."
      },
      "supportsInterface(bytes4)": {
        "details": "See {IERC165-supportsInterface}."
      },
      "symbol()": {
        "details": "See {IERC721Metadata-symbol}."
      },
      "tokenByIndex(uint256)": {
        "details": "See {IERC721Enumerable-tokenByIndex}."
      },
      "tokenOfOwnerByIndex(address,uint256)": {
        "details": "See {IERC721Enumerable-tokenOfOwnerByIndex}."
      },
      "tokenURI(uint256)": {
        "details": "See {IERC721Metadata-tokenURI}."
      },
      "totalSupply()": {
        "details": "See {IERC721Enumerable-totalSupply}."
      },
      "transferFrom(address,address,uint256)": {
        "details": "See {IERC721-transferFrom}."
      },
      "transferOwnership(address)": {
        "details": "Transfers ownership of the contract to a new account (`newOwner`). Can only be called by the current owner."
      }
    },
    "version": 1
  },
  "userdoc": {
    "kind": "user",
    "methods": {},
    "version": 1
  }
}