{
  "contractName": "cryptoFont",
  "abi": [
    {
      "inputs": [
        {
          "internalType": "address",
          "name": "eBitcoinAddress",
          "type": "address"
        }
      ],
      "stateMutability": "nonpayable",
      "type": "constructor"
    },
    {
      "anonymous": false,
      "inputs": [
        {
          "indexed": true,
          "internalType": "address",
          "name": "owner",
          "type": "address"
        },
        {
          "indexed": true,
          "internalType": "address",
          "name": "approved",
          "type": "address"
        },
        {
          "indexed": true,
          "internalType": "uint256",
          "name": "tokenId",
          "type": "uint256"
        }
      ],
      "name": "Approval",
      "type": "event"
    },
    {
      "anonymous": false,
      "inputs": [
        {
          "indexed": true,
          "internalType": "address",
          "name": "owner",
          "type": "address"
        },
        {
          "indexed": true,
          "internalType": "address",
          "name": "operator",
          "type": "address"
        },
        {
          "indexed": false,
          "internalType": "bool",
          "name": "approved",
          "type": "bool"
        }
      ],
      "name": "ApprovalForAll",
      "type": "event"
    },
    {
      "anonymous": false,
      "inputs": [
        {
          "indexed": true,
          "internalType": "address",
          "name": "owner",
          "type": "address"
        },
        {
          "indexed": false,
          "internalType": "uint256",
          "name": "id",
          "type": "uint256"
        },
        {
          "indexed": false,
          "internalType": "uint256",
          "name": "dna",
          "type": "uint256"
        }
      ],
      "name": "NewcFont",
      "type": "event"
    },
    {
      "anonymous": false,
      "inputs": [
        {
          "indexed": true,
          "internalType": "address",
          "name": "from",
          "type": "address"
        },
        {
          "indexed": true,
          "internalType": "address",
          "name": "to",
          "type": "address"
        },
        {
          "indexed": true,
          "internalType": "uint256",
          "name": "tokenId",
          "type": "uint256"
        }
      ],
      "name": "Transfer",
      "type": "event"
    },
    {
      "inputs": [],
      "name": "_feePool",
      "outputs": [
        {
          "internalType": "uint256",
          "name": "",
          "type": "uint256"
        }
      ],
      "stateMutability": "view",
      "type": "function",
      "constant": true
    },
    {
      "inputs": [],
      "name": "_pastDistributedReward",
      "outputs": [
        {
          "internalType": "uint256",
          "name": "",
          "type": "uint256"
        }
      ],
      "stateMutability": "view",
      "type": "function",
      "constant": true
    },
    {
      "inputs": [],
      "name": "allRarityBurn",
      "outputs": [
        {
          "internalType": "uint256",
          "name": "",
          "type": "uint256"
        }
      ],
      "stateMutability": "view",
      "type": "function",
      "constant": true
    },
    {
      "inputs": [
        {
          "internalType": "address",
          "name": "to",
          "type": "address"
        },
        {
          "internalType": "uint256",
          "name": "tokenId",
          "type": "uint256"
        }
      ],
      "name": "approve",
      "outputs": [],
      "stateMutability": "nonpayable",
      "type": "function"
    },
    {
      "inputs": [
        {
          "internalType": "address",
          "name": "owner",
          "type": "address"
        }
      ],
      "name": "balanceOf",
      "outputs": [
        {
          "internalType": "uint256",
          "name": "",
          "type": "uint256"
        }
      ],
      "stateMutability": "view",
      "type": "function",
      "constant": true
    },
    {
      "inputs": [
        {
          "internalType": "address",
          "name": "",
          "type": "address"
        }
      ],
      "name": "burnCounter",
      "outputs": [
        {
          "internalType": "uint256",
          "name": "",
          "type": "uint256"
        }
      ],
      "stateMutability": "view",
      "type": "function",
      "constant": true
    },
    {
      "inputs": [
        {
          "internalType": "uint256",
          "name": "",
          "type": "uint256"
        }
      ],
      "name": "cFonts",
      "outputs": [
        {
          "internalType": "string",
          "name": "name",
          "type": "string"
        },
        {
          "internalType": "uint256",
          "name": "id",
          "type": "uint256"
        },
        {
          "internalType": "uint256",
          "name": "dna",
          "type": "uint256"
        },
        {
          "internalType": "uint8",
          "name": "rarity",
          "type": "uint8"
        },
        {
          "internalType": "uint16",
          "name": "power",
          "type": "uint16"
        },
        {
          "internalType": "uint8",
          "name": "size",
          "type": "uint8"
        },
        {
          "internalType": "uint256",
          "name": "mintDate",
          "type": "uint256"
        },
        {
          "internalType": "bool",
          "name": "burn",
          "type": "bool"
        }
      ],
      "stateMutability": "view",
      "type": "function",
      "constant": true
    },
    {
      "inputs": [],
      "name": "eBitcoin",
      "outputs": [
        {
          "internalType": "contract IEBTC",
          "name": "",
          "type": "address"
        }
      ],
      "stateMutability": "view",
      "type": "function",
      "constant": true
    },
    {
      "inputs": [
        {
          "internalType": "uint256",
          "name": "tokenId",
          "type": "uint256"
        }
      ],
      "name": "getApproved",
      "outputs": [
        {
          "internalType": "address",
          "name": "",
          "type": "address"
        }
      ],
      "stateMutability": "view",
      "type": "function",
      "constant": true
    },
    {
      "inputs": [
        {
          "internalType": "address",
          "name": "owner",
          "type": "address"
        },
        {
          "internalType": "address",
          "name": "operator",
          "type": "address"
        }
      ],
      "name": "isApprovedForAll",
      "outputs": [
        {
          "internalType": "bool",
          "name": "",
          "type": "bool"
        }
      ],
      "stateMutability": "view",
      "type": "function",
      "constant": true
    },
    {
      "inputs": [],
      "name": "name",
      "outputs": [
        {
          "internalType": "string",
          "name": "",
          "type": "string"
        }
      ],
      "stateMutability": "view",
      "type": "function",
      "constant": true
    },
    {
      "inputs": [
        {
          "internalType": "uint256",
          "name": "tokenId",
          "type": "uint256"
        }
      ],
      "name": "ownerOf",
      "outputs": [
        {
          "internalType": "address",
          "name": "",
          "type": "address"
        }
      ],
      "stateMutability": "view",
      "type": "function",
      "constant": true
    },
    {
      "inputs": [],
      "name": "rarityCounter",
      "outputs": [
        {
          "internalType": "uint256",
          "name": "",
          "type": "uint256"
        }
      ],
      "stateMutability": "view",
      "type": "function",
      "constant": true
    },
    {
      "inputs": [
        {
          "internalType": "address",
          "name": "from",
          "type": "address"
        },
        {
          "internalType": "address",
          "name": "to",
          "type": "address"
        },
        {
          "internalType": "uint256",
          "name": "tokenId",
          "type": "uint256"
        }
      ],
      "name": "safeTransferFrom",
      "outputs": [],
      "stateMutability": "nonpayable",
      "type": "function"
    },
    {
      "inputs": [
        {
          "internalType": "address",
          "name": "from",
          "type": "address"
        },
        {
          "internalType": "address",
          "name": "to",
          "type": "address"
        },
        {
          "internalType": "uint256",
          "name": "tokenId",
          "type": "uint256"
        },
        {
          "internalType": "bytes",
          "name": "_data",
          "type": "bytes"
        }
      ],
      "name": "safeTransferFrom",
      "outputs": [],
      "stateMutability": "nonpayable",
      "type": "function"
    },
    {
      "inputs": [
        {
          "internalType": "address",
          "name": "operator",
          "type": "address"
        },
        {
          "internalType": "bool",
          "name": "approved",
          "type": "bool"
        }
      ],
      "name": "setApprovalForAll",
      "outputs": [],
      "stateMutability": "nonpayable",
      "type": "function"
    },
    {
      "inputs": [
        {
          "internalType": "bytes4",
          "name": "interfaceId",
          "type": "bytes4"
        }
      ],
      "name": "supportsInterface",
      "outputs": [
        {
          "internalType": "bool",
          "name": "",
          "type": "bool"
        }
      ],
      "stateMutability": "view",
      "type": "function",
      "constant": true
    },
    {
      "inputs": [],
      "name": "symbol",
      "outputs": [
        {
          "internalType": "string",
          "name": "",
          "type": "string"
        }
      ],
      "stateMutability": "view",
      "type": "function",
      "constant": true
    },
    {
      "inputs": [
        {
          "internalType": "uint256",
          "name": "index",
          "type": "uint256"
        }
      ],
      "name": "tokenByIndex",
      "outputs": [
        {
          "internalType": "uint256",
          "name": "",
          "type": "uint256"
        }
      ],
      "stateMutability": "view",
      "type": "function",
      "constant": true
    },
    {
      "inputs": [
        {
          "internalType": "address",
          "name": "owner",
          "type": "address"
        },
        {
          "internalType": "uint256",
          "name": "index",
          "type": "uint256"
        }
      ],
      "name": "tokenOfOwnerByIndex",
      "outputs": [
        {
          "internalType": "uint256",
          "name": "",
          "type": "uint256"
        }
      ],
      "stateMutability": "view",
      "type": "function",
      "constant": true
    },
    {
      "inputs": [
        {
          "internalType": "uint256",
          "name": "",
          "type": "uint256"
        }
      ],
      "name": "tokenToEthers",
      "outputs": [
        {
          "internalType": "uint256",
          "name": "",
          "type": "uint256"
        }
      ],
      "stateMutability": "view",
      "type": "function",
      "constant": true
    },
    {
      "inputs": [
        {
          "internalType": "uint256",
          "name": "",
          "type": "uint256"
        }
      ],
      "name": "tokenToReward",
      "outputs": [
        {
          "internalType": "uint256",
          "name": "",
          "type": "uint256"
        }
      ],
      "stateMutability": "view",
      "type": "function",
      "constant": true
    },
    {
      "inputs": [
        {
          "internalType": "uint256",
          "name": "tokenId",
          "type": "uint256"
        }
      ],
      "name": "tokenURI",
      "outputs": [
        {
          "internalType": "string",
          "name": "",
          "type": "string"
        }
      ],
      "stateMutability": "view",
      "type": "function",
      "constant": true
    },
    {
      "inputs": [],
      "name": "totalSupply",
      "outputs": [
        {
          "internalType": "uint256",
          "name": "",
          "type": "uint256"
        }
      ],
      "stateMutability": "view",
      "type": "function",
      "constant": true
    },
    {
      "inputs": [
        {
          "internalType": "address",
          "name": "from",
          "type": "address"
        },
        {
          "internalType": "address",
          "name": "to",
          "type": "address"
        },
        {
          "internalType": "uint256",
          "name": "tokenId",
          "type": "uint256"
        }
      ],
      "name": "transferFrom",
      "outputs": [],
      "stateMutability": "nonpayable",
      "type": "function"
    },
    {
      "inputs": [],
      "name": "vcost",
      "outputs": [
        {
          "internalType": "uint256",
          "name": "",
          "type": "uint256"
        }
      ],
      "stateMutability": "view",
      "type": "function",
      "constant": true
    },
    {
      "inputs": [],
      "name": "vfee",
      "outputs": [
        {
          "internalType": "uint256",
          "name": "",
          "type": "uint256"
        }
      ],
      "stateMutability": "view",
      "type": "function",
      "constant": true
    },
    {
      "stateMutability": "payable",
      "type": "receive",
      "payable": true
    },
    {
      "inputs": [],
      "name": "createRandomcFont",
      "outputs": [],
      "stateMutability": "nonpayable",
      "type": "function"
    },
    {
      "inputs": [
        {
          "internalType": "uint256",
          "name": "id",
          "type": "uint256"
        }
      ],
      "name": "reverseSwap",
      "outputs": [],
      "stateMutability": "nonpayable",
      "type": "function"
    },
    {
      "inputs": [],
      "name": "getcFonts",
      "outputs": [
        {
          "components": [
            {
              "internalType": "string",
              "name": "name",
              "type": "string"
            },
            {
              "internalType": "uint256",
              "name": "id",
              "type": "uint256"
            },
            {
              "internalType": "uint256",
              "name": "dna",
              "type": "uint256"
            },
            {
              "internalType": "uint8",
              "name": "rarity",
              "type": "uint8"
            },
            {
              "internalType": "uint16",
              "name": "power",
              "type": "uint16"
            },
            {
              "internalType": "uint8",
              "name": "size",
              "type": "uint8"
            },
            {
              "internalType": "uint256",
              "name": "mintDate",
              "type": "uint256"
            },
            {
              "internalType": "bool",
              "name": "burn",
              "type": "bool"
            }
          ],
          "internalType": "struct cryptoFont.cFont[]",
          "name": "",
          "type": "tuple[]"
        }
      ],
      "stateMutability": "view",
      "type": "function",
      "constant": true
    },
    {
      "inputs": [],
      "name": "countAllReward",
      "outputs": [
        {
          "internalType": "uint256",
          "name": "",
          "type": "uint256"
        }
      ],
      "stateMutability": "view",
      "type": "function",
      "constant": true
    },
    {
      "inputs": [],
      "name": "countAllEthers",
      "outputs": [
        {
          "internalType": "uint256",
          "name": "",
          "type": "uint256"
        }
      ],
      "stateMutability": "view",
      "type": "function",
      "constant": true
    },
    {
      "inputs": [],
      "name": "remainingEthers",
      "outputs": [
        {
          "internalType": "uint256",
          "name": "",
          "type": "uint256"
        }
      ],
      "stateMutability": "view",
      "type": "function",
      "constant": true
    },
    {
      "inputs": [],
      "name": "remainingeBTC",
      "outputs": [
        {
          "internalType": "uint256",
          "name": "",
          "type": "uint256"
        }
      ],
      "stateMutability": "view",
      "type": "function",
      "constant": true
    },
    {
      "inputs": [],
      "name": "DistributeReward",
      "outputs": [],
      "stateMutability": "nonpayable",
      "type": "function"
    },
    {
      "inputs": [
        {
          "internalType": "address",
          "name": "account",
          "type": "address"
        }
      ],
      "name": "showEthers",
      "outputs": [
        {
          "internalType": "uint256",
          "name": "",
          "type": "uint256"
        }
      ],
      "stateMutability": "view",
      "type": "function",
      "constant": true
    },
    {
      "inputs": [],
      "name": "getAllEthers",
      "outputs": [],
      "stateMutability": "nonpayable",
      "type": "function"
    },
    {
      "inputs": [
        {
          "internalType": "address",
          "name": "account",
          "type": "address"
        }
      ],
      "name": "showReward",
      "outputs": [
        {
          "internalType": "uint256",
          "name": "",
          "type": "uint256"
        }
      ],
      "stateMutability": "view",
      "type": "function",
      "constant": true
    },
    {
      "inputs": [],
      "name": "getAllReward",
      "outputs": [],
      "stateMutability": "nonpayable",
      "type": "function"
    },
    {
      "inputs": [
        {
          "internalType": "string",
          "name": "name",
          "type": "string"
        },
        {
          "internalType": "uint256",
          "name": "id",
          "type": "uint256"
        }
      ],
      "name": "setName",
      "outputs": [],
      "stateMutability": "nonpayable",
      "type": "function"
    },
    {
      "inputs": [
        {
          "internalType": "uint256",
          "name": "_amount",
          "type": "uint256"
        }
      ],
      "name": "AddeBTCFee",
      "outputs": [],
      "stateMutability": "nonpayable",
      "type": "function"
    },
    {
      "inputs": [
        {
          "internalType": "address",
          "name": "_address",
          "type": "address"
        }
      ],
      "name": "getIdsOfOwner",
      "outputs": [
        {
          "internalType": "uint256[]",
          "name": "",
          "type": "uint256[]"
        }
      ],
      "stateMutability": "view",
      "type": "function",
      "constant": true
    }
  ],
  "bytecode": "0x60806040526000600a5568056bc75e2d63100000600d5560646032600d5462000029919062000289565b62000035919062000319565b600e5560006015553480156200004a57600080fd5b5060405162005744380380620057448339818101604052810190620000709190620003bb565b6040518060400160405280600b81526020017f43727970746f20466f6e740000000000000000000000000000000000000000008152506040518060400160405280600581526020017f63466f6e740000000000000000000000000000000000000000000000000000008152508160009080519060200190620000f4929190620001a0565b5080600190805190602001906200010d929190620001a0565b50505080600c60006101000a81548173ffffffffffffffffffffffffffffffffffffffff021916908373ffffffffffffffffffffffffffffffffffffffff1602179055504260108190555033600b60006101000a81548173ffffffffffffffffffffffffffffffffffffffff021916908373ffffffffffffffffffffffffffffffffffffffff1602179055505062000452565b828054620001ae906200041c565b90600052602060002090601f016020900481019282620001d257600085556200021e565b82601f10620001ed57805160ff19168380011785556200021e565b828001600101855582156200021e579182015b828111156200021d57825182559160200191906001019062000200565b5b5090506200022d919062000231565b5090565b5b808211156200024c57600081600090555060010162000232565b5090565b6000819050919050565b7f4e487b7100000000000000000000000000000000000000000000000000000000600052601160045260246000fd5b6000620002968262000250565b9150620002a38362000250565b9250817fffffffffffffffffffffffffffffffffffffffffffffffffffffffffffffffff0483118215151615620002df57620002de6200025a565b5b828202905092915050565b7f4e487b7100000000000000000000000000000000000000000000000000000000600052601260045260246000fd5b6000620003268262000250565b9150620003338362000250565b925082620003465762000345620002ea565b5b828204905092915050565b600080fd5b600073ffffffffffffffffffffffffffffffffffffffff82169050919050565b6000620003838262000356565b9050919050565b620003958162000376565b8114620003a157600080fd5b50565b600081519050620003b5816200038a565b92915050565b600060208284031215620003d457620003d362000351565b5b6000620003e484828501620003a4565b91505092915050565b7f4e487b7100000000000000000000000000000000000000000000000000000000600052602260045260246000fd5b600060028204905060018216806200043557607f821691505b602082108114156200044c576200044b620003ed565b5b50919050565b6152e280620004626000396000f3fe6080604052600436106102555760003560e01c80636352211e11610139578063b88d4fde116100b6578063e1930a0f1161007a578063e1930a0f14610926578063e4a2a74214610951578063e817194914610968578063e985e9c5146109a5578063f56a29da146109e2578063fe4040cf146109f95761025c565b8063b88d4fde1461081b578063c44bfb7d14610844578063c45af5d814610881578063c87b56dd146108be578063d3c9ca69146108fb5761025c565b80637feaaacc116100fd5780637feaaacc146107345780639268595f1461077157806395d89b411461079c578063a22cb465146107c7578063a87ae509146107f05761025c565b80636352211e1461062757806365f5eb301461066457806367e602991461068f57806370a08231146106cc5780637237b231146107095761025c565b806323b872dd116101d25780633e6d4ec2116101965780633e6d4ec21461051057806342842e0e14610527578063475561dd146105505780634f6ccce71461057b5780635069918f146105b8578063614bfe2e146105fc5761025c565b806323b872dd1461042d5780632f745c591461045657806337c1caf41461049357806338b89803146104bc5780633baa8170146104e75761025c565b8063081812fc11610219578063081812fc1461035c5780630914e01114610399578063095ea7b3146103b05780631514472b146103d957806318160ddd146104025761025c565b806301ffc9a7146102615780630236d12b1461029e5780630518afdc146102c957806306fdde03146103065780630742de84146103315761025c565b3661025c57005b600080fd5b34801561026d57600080fd5b5061028860048036038101906102839190613977565b610a24565b60405161029591906139bf565b60405180910390f35b3480156102aa57600080fd5b506102b3610a9e565b6040516102c091906139f3565b60405180910390f35b3480156102d557600080fd5b506102f060048036038101906102eb9190613a3a565b610aee565b6040516102fd91906139f3565b60405180910390f35b34801561031257600080fd5b5061031b610b06565b6040516103289190613b00565b60405180910390f35b34801561033d57600080fd5b50610346610b98565b60405161035391906139f3565b60405180910390f35b34801561036857600080fd5b50610383600480360381019061037e9190613a3a565b610b9e565b6040516103909190613b63565b60405180910390f35b3480156103a557600080fd5b506103ae610c23565b005b3480156103bc57600080fd5b506103d760048036038101906103d29190613baa565b610d3b565b005b3480156103e557600080fd5b5061040060048036038101906103fb9190613a3a565b610e53565b005b34801561040e57600080fd5b50610417610fc2565b60405161042491906139f3565b60405180910390f35b34801561043957600080fd5b50610454600480360381019061044f9190613bea565b610fcf565b005b34801561046257600080fd5b5061047d60048036038101906104789190613baa565b61102f565b60405161048a91906139f3565b60405180910390f35b34801561049f57600080fd5b506104ba60048036038101906104b59190613a3a565b6110d4565b005b3480156104c857600080fd5b506104d1611285565b6040516104de91906139f3565b60405180910390f35b3480156104f357600080fd5b5061050e60048036038101906105099190613d72565b61128b565b005b34801561051c57600080fd5b50610525611317565b005b34801561053357600080fd5b5061054e60048036038101906105499190613bea565b6113d5565b005b34801561055c57600080fd5b506105656113f5565b60405161057291906139f3565b60405180910390f35b34801561058757600080fd5b506105a2600480360381019061059d9190613a3a565b611445565b6040516105af91906139f3565b60405180910390f35b3480156105c457600080fd5b506105df60048036038101906105da9190613a3a565b6114b6565b6040516105f3989796959493929190613e07565b60405180910390f35b34801561060857600080fd5b506106116115cb565b60405161061e91906139f3565b60405180910390f35b34801561063357600080fd5b5061064e60048036038101906106499190613a3a565b6115d1565b60405161065b9190613b63565b60405180910390f35b34801561067057600080fd5b50610679611683565b6040516106869190614084565b60405180910390f35b34801561069b57600080fd5b506106b660048036038101906106b191906140a6565b611808565b6040516106c391906139f3565b60405180910390f35b3480156106d857600080fd5b506106f360048036038101906106ee91906140a6565b611869565b60405161070091906139f3565b60405180910390f35b34801561071557600080fd5b5061071e611921565b60405161072b91906139f3565b60405180910390f35b34801561074057600080fd5b5061075b600480360381019061075691906140a6565b611927565b6040516107689190614182565b60405180910390f35b34801561077d57600080fd5b506107866119d7565b60405161079391906139f3565b60405180910390f35b3480156107a857600080fd5b506107b16119f1565b6040516107be9190613b00565b60405180910390f35b3480156107d357600080fd5b506107ee60048036038101906107e991906141d0565b611a83565b005b3480156107fc57600080fd5b50610805611a99565b60405161081291906139f3565b60405180910390f35b34801561082757600080fd5b50610842600480360381019061083d91906142b1565b611a9f565b005b34801561085057600080fd5b5061086b60048036038101906108669190613a3a565b611b01565b60405161087891906139f3565b60405180910390f35b34801561088d57600080fd5b506108a860048036038101906108a391906140a6565b611b19565b6040516108b591906139f3565b60405180910390f35b3480156108ca57600080fd5b506108e560048036038101906108e09190613a3a565b611b7a565b6040516108f29190613b00565b60405180910390f35b34801561090757600080fd5b50610910611c21565b60405161091d91906139f3565b60405180910390f35b34801561093257600080fd5b5061093b611ce3565b6040516109489190614393565b60405180910390f35b34801561095d57600080fd5b50610966611d09565b005b34801561097457600080fd5b5061098f600480360381019061098a91906140a6565b611e8b565b60405161099c91906139f3565b60405180910390f35b3480156109b157600080fd5b506109cc60048036038101906109c791906143ae565b611ea3565b6040516109d991906139bf565b60405180910390f35b3480156109ee57600080fd5b506109f7611f37565b005b348015610a0557600080fd5b50610a0e612183565b604051610a1b91906139f3565b60405180910390f35b60007f780e9d63000000000000000000000000000000000000000000000000000000007bffffffffffffffffffffffffffffffffffffffffffffffffffffffff1916827bffffffffffffffffffffffffffffffffffffffffffffffffffffffff19161480610a975750610a9682612189565b5b9050919050565b6000806000905060005b600a54811015610ae657601360008281526020019081526020016000205482610ad1919061441d565b91508080610ade90614473565b915050610aa8565b819250505090565b60126020528060005260406000206000915090505481565b606060008054610b15906144eb565b80601f0160208091040260200160405190810160405280929190818152602001828054610b41906144eb565b8015610b8e5780601f10610b6357610100808354040283529160200191610b8e565b820191906000526020600020905b815481529060010190602001808311610b7157829003601f168201915b5050505050905090565b60105481565b6000610ba98261226b565b610be8576040517f08c379a0000000000000000000000000000000000000000000000000000000008152600401610bdf9061458f565b60405180910390fd5b6004600083815260200190815260200160002060009054906101000a900473ffffffffffffffffffffffffffffffffffffffff169050919050565b6000805b610c3033611869565b811015610c965760126000610c45338461102f565b81526020019081526020016000205482610c5f919061441d565b9150600060126000610c71338561102f565b8152602001908152602001600020819055508080610c8e90614473565b915050610c27565b50600c60009054906101000a900473ffffffffffffffffffffffffffffffffffffffff1673ffffffffffffffffffffffffffffffffffffffff1663a9059cbb33836040518363ffffffff1660e01b8152600401610cf49291906145af565b6020604051808303816000875af1158015610d13573d6000803e3d6000fd5b505050506040513d601f19601f82011682018060405250810190610d3791906145ed565b5050565b6000610d46826115d1565b90508073ffffffffffffffffffffffffffffffffffffffff168373ffffffffffffffffffffffffffffffffffffffff161415610db7576040517f08c379a0000000000000000000000000000000000000000000000000000000008152600401610dae9061468c565b60405180910390fd5b8073ffffffffffffffffffffffffffffffffffffffff16610dd66122d7565b73ffffffffffffffffffffffffffffffffffffffff161480610e055750610e0481610dff6122d7565b611ea3565b5b610e44576040517f08c379a0000000000000000000000000000000000000000000000000000000008152600401610e3b9061471e565b60405180910390fd5b610e4e83836122df565b505050565b80600c60009054906101000a900473ffffffffffffffffffffffffffffffffffffffff1673ffffffffffffffffffffffffffffffffffffffff166370a08231336040518263ffffffff1660e01b8152600401610eaf9190613b63565b602060405180830381865afa158015610ecc573d6000803e3d6000fd5b505050506040513d601f19601f82011682018060405250810190610ef09190614753565b1015610efb57600080fd5b600c60009054906101000a900473ffffffffffffffffffffffffffffffffffffffff1673ffffffffffffffffffffffffffffffffffffffff166323b872dd3330846040518463ffffffff1660e01b8152600401610f5a93929190614780565b6020604051808303816000875af1158015610f79573d6000803e3d6000fd5b505050506040513d601f19601f82011682018060405250810190610f9d91906145ed565b610fa657600080fd5b80600f6000828254610fb8919061441d565b9250508190555050565b6000600880549050905090565b610fe0610fda6122d7565b82612398565b61101f576040517f08c379a000000000000000000000000000000000000000000000000000000000815260040161101690614829565b60405180910390fd5b61102a838383612476565b505050565b600061103a83611869565b821061107b576040517f08c379a0000000000000000000000000000000000000000000000000000000008152600401611072906148bb565b60405180910390fd5b600660008473ffffffffffffffffffffffffffffffffffffffff1673ffffffffffffffffffffffffffffffffffffffff168152602001908152602001600020600083815260200190815260200160002054905092915050565b3373ffffffffffffffffffffffffffffffffffffffff166110f4826115d1565b73ffffffffffffffffffffffffffffffffffffffff161461111457600080fd5b60168181548110611128576111276148db565b5b906000526020600020906006020160030160009054906101000a900460ff1660ff16601460003373ffffffffffffffffffffffffffffffffffffffff1673ffffffffffffffffffffffffffffffffffffffff1681526020019081526020016000206000828254611198919061441d565b92505081905550601681815481106111b3576111b26148db565b5b906000526020600020906006020160030160009054906101000a900460ff1660ff16601160008282546111e6919061490a565b9250508190555060168181548110611201576112006148db565b5b906000526020600020906006020160030160009054906101000a900460ff1660ff1660156000828254611234919061441d565b92505081905550600160168281548110611251576112506148db565b5b906000526020600020906006020160050160006101000a81548160ff021916908315150217905550611282816126d2565b50565b60155481565b3373ffffffffffffffffffffffffffffffffffffffff166112ab826115d1565b73ffffffffffffffffffffffffffffffffffffffff16146112cb57600080fd5b60008251116112d957600080fd5b81601682815481106112ee576112ed6148db565b5b90600052602060002090600602016000019080519060200190611312929190613868565b505050565b6000805b61132433611869565b81101561138a5760136000611339338461102f565b81526020019081526020016000205482611353919061441d565b9150600060136000611365338561102f565b815260200190815260200160002081905550808061138290614473565b91505061131b565b503373ffffffffffffffffffffffffffffffffffffffff166108fc829081150290604051600060405180830381858888f193505050501580156113d1573d6000803e3d6000fd5b5050565b6113f083838360405180602001604052806000815250611a9f565b505050565b6000806000905060005b600a5481101561143d57601260008281526020019081526020016000205482611428919061441d565b9150808061143590614473565b9150506113ff565b819250505090565b600061144f610fc2565b8210611490576040517f08c379a0000000000000000000000000000000000000000000000000000000008152600401611487906149b0565b60405180910390fd5b600882815481106114a4576114a36148db565b5b90600052602060002001549050919050565b601681815481106114c657600080fd5b90600052602060002090600602016000915090508060000180546114e9906144eb565b80601f0160208091040260200160405190810160405280929190818152602001828054611515906144eb565b80156115625780601f1061153757610100808354040283529160200191611562565b820191906000526020600020905b81548152906001019060200180831161154557829003601f168201915b5050505050908060010154908060020154908060030160009054906101000a900460ff16908060030160019054906101000a900461ffff16908060030160039054906101000a900460ff16908060040154908060050160009054906101000a900460ff16905088565b600f5481565b6000806002600084815260200190815260200160002060009054906101000a900473ffffffffffffffffffffffffffffffffffffffff169050600073ffffffffffffffffffffffffffffffffffffffff168173ffffffffffffffffffffffffffffffffffffffff16141561167a576040517f08c379a000000000000000000000000000000000000000000000000000000000815260040161167190614a42565b60405180910390fd5b80915050919050565b60606016805480602002602001604051908101604052809291908181526020016000905b828210156117ff5783829060005260206000209060060201604051806101000160405290816000820180546116db906144eb565b80601f0160208091040260200160405190810160405280929190818152602001828054611707906144eb565b80156117545780601f1061172957610100808354040283529160200191611754565b820191906000526020600020905b81548152906001019060200180831161173757829003601f168201915b5050505050815260200160018201548152602001600282015481526020016003820160009054906101000a900460ff1660ff1660ff1681526020016003820160019054906101000a900461ffff1661ffff1661ffff1681526020016003820160039054906101000a900460ff1660ff1660ff168152602001600482015481526020016005820160009054906101000a900460ff161515151581525050815260200190600101906116a7565b50505050905090565b6000806000905060005b61181b84611869565b81101561185f5760136000611830868461102f565b8152602001908152602001600020548261184a919061441d565b9150808061185790614473565b915050611812565b5080915050919050565b60008073ffffffffffffffffffffffffffffffffffffffff168273ffffffffffffffffffffffffffffffffffffffff1614156118da576040517f08c379a00000000000000000000000000000000000000000000000000000000081526004016118d190614ad4565b60405180910390fd5b600360008373ffffffffffffffffffffffffffffffffffffffff1673ffffffffffffffffffffffffffffffffffffffff168152602001908152602001600020549050919050565b600e5481565b6060600061193483611869565b67ffffffffffffffff81111561194d5761194c613c47565b5b60405190808252806020026020018201604052801561197b5781602001602082028036833780820191505090505b50905060005b61198a84611869565b8110156119cd5761199b848261102f565b8282815181106119ae576119ad6148db565b5b60200260200101818152505080806119c590614473565b915050611981565b8192505050919050565b60006119e1610a9e565b476119ec919061490a565b905090565b606060018054611a00906144eb565b80601f0160208091040260200160405190810160405280929190818152602001828054611a2c906144eb565b8015611a795780601f10611a4e57610100808354040283529160200191611a79565b820191906000526020600020905b815481529060010190602001808311611a5c57829003601f168201915b5050505050905090565b611a95611a8e6122d7565b83836127e3565b5050565b60115481565b611ab0611aaa6122d7565b83612398565b611aef576040517f08c379a0000000000000000000000000000000000000000000000000000000008152600401611ae690614829565b60405180910390fd5b611afb84848484612950565b50505050565b60136020528060005260406000206000915090505481565b6000806000905060005b611b2c84611869565b811015611b705760126000611b41868461102f565b81526020019081526020016000205482611b5b919061441d565b91508080611b6890614473565b915050611b23565b5080915050919050565b6060611b858261226b565b611bc4576040517f08c379a0000000000000000000000000000000000000000000000000000000008152600401611bbb90614b66565b60405180910390fd5b6000611bce6129ac565b90506000815111611bee5760405180602001604052806000815250611c19565b80611bf8846129c3565b604051602001611c09929190614bc2565b6040516020818303038152906040525b915050919050565b6000600f54611c2e6113f5565b600c60009054906101000a900473ffffffffffffffffffffffffffffffffffffffff1673ffffffffffffffffffffffffffffffffffffffff166370a08231306040518263ffffffff1660e01b8152600401611c899190613b63565b602060405180830381865afa158015611ca6573d6000803e3d6000fd5b505050506040513d601f19601f82011682018060405250810190611cca9190614753565b611cd4919061490a565b611cde919061490a565b905090565b600c60009054906101000a900473ffffffffffffffffffffffffffffffffffffffff1681565b6000601054611d18919061441d565b4211611d2357600080fd5b60008060009050601154611d35611c21565b1115611d6f57601154611d46611c21565b611d509190614c15565b9150678ac7230489e80000821115611d6e57678ac7230489e8000091505b5b601154600f541115611d8e57601154600f54611d8b9190614c15565b90505b8082611d9a919061441d565b9150600080601154611daa6119d7565b611db49190614c15565b9050600091505b600a54821015611e7e57611dce82612b24565b84611dd99190614c46565b601260008481526020019081526020016000206000828254611dfb919061441d565b92505081905550611e0b82612b24565b81611e169190614c46565b601360008481526020019081526020016000206000828254611e38919061441d565b92505081905550611e4882612b24565b83611e539190614c46565b600f6000828254611e64919061490a565b925050819055508180611e7690614473565b925050611dbb565b4260108190555050505050565b60146020528060005260406000206000915090505481565b6000600560008473ffffffffffffffffffffffffffffffffffffffff1673ffffffffffffffffffffffffffffffffffffffff16815260200190815260200160002060008373ffffffffffffffffffffffffffffffffffffffff1673ffffffffffffffffffffffffffffffffffffffff16815260200190815260200160002060009054906101000a900460ff16905092915050565b600d54600c60009054906101000a900473ffffffffffffffffffffffffffffffffffffffff1673ffffffffffffffffffffffffffffffffffffffff166370a08231336040518263ffffffff1660e01b8152600401611f959190613b63565b602060405180830381865afa158015611fb2573d6000803e3d6000fd5b505050506040513d601f19601f82011682018060405250810190611fd69190614753565b1015611fe157600080fd5b600c60009054906101000a900473ffffffffffffffffffffffffffffffffffffffff1673ffffffffffffffffffffffffffffffffffffffff166323b872dd3330600d546040518463ffffffff1660e01b815260040161204293929190614780565b6020604051808303816000875af1158015612061573d6000803e3d6000fd5b505050506040513d601f19601f8201168201806040525081019061208591906145ed565b61208e57600080fd5b600c60009054906101000a900473ffffffffffffffffffffffffffffffffffffffff1673ffffffffffffffffffffffffffffffffffffffff166342966c68600e54600d546120dc919061490a565b6040518263ffffffff1660e01b81526004016120f891906139f3565b600060405180830381600087803b15801561211257600080fd5b505af1158015612126573d6000803e3d6000fd5b5050505060006121756040518060400160405280600781526020017f63466f6e74202300000000000000000000000000000000000000000000000000815250612170600a54612ba4565b612d0b565b905061218081612d37565b50565b600d5481565b60007f80ac58cd000000000000000000000000000000000000000000000000000000007bffffffffffffffffffffffffffffffffffffffffffffffffffffffff1916827bffffffffffffffffffffffffffffffffffffffffffffffffffffffff1916148061225457507f5b5e139f000000000000000000000000000000000000000000000000000000007bffffffffffffffffffffffffffffffffffffffffffffffffffffffff1916827bffffffffffffffffffffffffffffffffffffffffffffffffffffffff1916145b80612264575061226382612fb3565b5b9050919050565b60008073ffffffffffffffffffffffffffffffffffffffff166002600084815260200190815260200160002060009054906101000a900473ffffffffffffffffffffffffffffffffffffffff1673ffffffffffffffffffffffffffffffffffffffff1614159050919050565b600033905090565b816004600083815260200190815260200160002060006101000a81548173ffffffffffffffffffffffffffffffffffffffff021916908373ffffffffffffffffffffffffffffffffffffffff160217905550808273ffffffffffffffffffffffffffffffffffffffff16612352836115d1565b73ffffffffffffffffffffffffffffffffffffffff167f8c5be1e5ebec7d5bd14f71427d1e84f3dd0314c0f7b2291e5b200ac8c7c3b92560405160405180910390a45050565b60006123a38261226b565b6123e2576040517f08c379a00000000000000000000000000000000000000000000000000000000081526004016123d990614d12565b60405180910390fd5b60006123ed836115d1565b90508073ffffffffffffffffffffffffffffffffffffffff168473ffffffffffffffffffffffffffffffffffffffff16148061245c57508373ffffffffffffffffffffffffffffffffffffffff1661244484610b9e565b73ffffffffffffffffffffffffffffffffffffffff16145b8061246d575061246c8185611ea3565b5b91505092915050565b8273ffffffffffffffffffffffffffffffffffffffff16612496826115d1565b73ffffffffffffffffffffffffffffffffffffffff16146124ec576040517f08c379a00000000000000000000000000000000000000000000000000000000081526004016124e390614da4565b60405180910390fd5b600073ffffffffffffffffffffffffffffffffffffffff168273ffffffffffffffffffffffffffffffffffffffff16141561255c576040517f08c379a000000000000000000000000000000000000000000000000000000000815260040161255390614e36565b60405180910390fd5b61256783838361301d565b6125726000826122df565b6001600360008573ffffffffffffffffffffffffffffffffffffffff1673ffffffffffffffffffffffffffffffffffffffff16815260200190815260200160002060008282546125c2919061490a565b925050819055506001600360008473ffffffffffffffffffffffffffffffffffffffff1673ffffffffffffffffffffffffffffffffffffffff1681526020019081526020016000206000828254612619919061441d565b92505081905550816002600083815260200190815260200160002060006101000a81548173ffffffffffffffffffffffffffffffffffffffff021916908373ffffffffffffffffffffffffffffffffffffffff160217905550808273ffffffffffffffffffffffffffffffffffffffff168473ffffffffffffffffffffffffffffffffffffffff167fddf252ad1be2c89b69c2b068fc378daa952ba7f163c4a11628f55a4df523b3ef60405160405180910390a4505050565b60006126dd826115d1565b90506126eb8160008461301d565b6126f66000836122df565b6001600360008373ffffffffffffffffffffffffffffffffffffffff1673ffffffffffffffffffffffffffffffffffffffff1681526020019081526020016000206000828254612746919061490a565b925050819055506002600083815260200190815260200160002060006101000a81549073ffffffffffffffffffffffffffffffffffffffff021916905581600073ffffffffffffffffffffffffffffffffffffffff168273ffffffffffffffffffffffffffffffffffffffff167fddf252ad1be2c89b69c2b068fc378daa952ba7f163c4a11628f55a4df523b3ef60405160405180910390a45050565b8173ffffffffffffffffffffffffffffffffffffffff168373ffffffffffffffffffffffffffffffffffffffff161415612852576040517f08c379a000000000000000000000000000000000000000000000000000000000815260040161284990614ea2565b60405180910390fd5b80600560008573ffffffffffffffffffffffffffffffffffffffff1673ffffffffffffffffffffffffffffffffffffffff16815260200190815260200160002060008473ffffffffffffffffffffffffffffffffffffffff1673ffffffffffffffffffffffffffffffffffffffff16815260200190815260200160002060006101000a81548160ff0219169083151502179055508173ffffffffffffffffffffffffffffffffffffffff168373ffffffffffffffffffffffffffffffffffffffff167f17307eab39ab6107e8899845ad3d59bd9653f200f220920489ca2b5937696c318360405161294391906139bf565b60405180910390a3505050565b61295b848484612476565b61296784848484613131565b6129a6576040517f08c379a000000000000000000000000000000000000000000000000000000000815260040161299d90614f34565b60405180910390fd5b50505050565b606060405180602001604052806000815250905090565b60606000821415612a0b576040518060400160405280600181526020017f30000000000000000000000000000000000000000000000000000000000000008152509050612b1f565b600082905060005b60008214612a3d578080612a2690614473565b915050600a82612a369190614c15565b9150612a13565b60008167ffffffffffffffff811115612a5957612a58613c47565b5b6040519080825280601f01601f191660200182016040528015612a8b5781602001600182028036833780820191505090505b5090505b60008514612b1857600182612aa4919061490a565b9150600a85612ab39190614f54565b6030612abf919061441d565b60f81b818381518110612ad557612ad46148db565b5b60200101907effffffffffffffffffffffffffffffffffffffffffffffffffffffffffffff1916908160001a905350600a85612b119190614c15565b9450612a8f565b8093505050505b919050565b6000806000905060168381548110612b3f57612b3e6148db565b5b906000526020600020906006020160050160009054906101000a900460ff16612b9b5760168381548110612b7657612b756148db565b5b906000526020600020906006020160030160009054906101000a900460ff1660ff1690505b80915050919050565b60606000821415612bec576040518060400160405280600181526020017f30000000000000000000000000000000000000000000000000000000000000008152509050612d06565b600082905060005b60008214612c1e578080612c0790614473565b915050600a82612c179190614c15565b9150612bf4565b60008167ffffffffffffffff811115612c3a57612c39613c47565b5b6040519080825280601f01601f191660200182016040528015612c6c5781602001600182028036833780820191505090505b50905060008290508593505b60008414612cfe57600a84612c8d9190614f54565b6030612c99919061441d565b60f81b8282612ca790614f85565b92508281518110612cbb57612cba6148db565b5b60200101907effffffffffffffffffffffffffffffffffffffffffffffffffffffffffffff1916908160001a905350600a84612cf79190614c15565b9350612c78565b819450505050505b919050565b60608282604051602001612d20929190614bc2565b604051602081830303815290604052905092915050565b60006001612d466064846132b9565b612d509190614faf565b90506000612d65662386f26fc10000846132b9565b905060006001612d77612710866132b9565b612d81919061441d565b90506000600a612d92608c876132b9565b612d9c919061441d565b90506000600190506000429050601e8660ff161015612ddc576002915060068660ff161015612ddb576003915060018260ff161015612dda57600491505b5b5b8160ff1660116000828254612df1919061441d565b925050819055506000604051806101000160405280898152602001600a5481526020018781526020018460ff1681526020018661ffff1681526020018560ff16815260200183815260200160001515815250905060168190806001815401808255809150506001900390600052602060002090600602016000909190919091506000820151816000019080519060200190612e8d929190613868565b50602082015181600101556040820151816002015560608201518160030160006101000a81548160ff021916908360ff16021790555060808201518160030160016101000a81548161ffff021916908361ffff16021790555060a08201518160030160036101000a81548160ff021916908360ff16021790555060c0820151816004015560e08201518160050160006101000a81548160ff0219169083151502179055505050612f3f33600a54613303565b3373ffffffffffffffffffffffffffffffffffffffff167fe6b5d2375ea5860192277472eed072ebc6805abc7699b637dfe1e4806126208a600a5488604051612f89929190614fe6565b60405180910390a2600a6000815480929190612fa490614473565b91905055505050505050505050565b60007f01ffc9a7000000000000000000000000000000000000000000000000000000007bffffffffffffffffffffffffffffffffffffffffffffffffffffffff1916827bffffffffffffffffffffffffffffffffffffffffffffffffffffffff1916149050919050565b613028838383613321565b600073ffffffffffffffffffffffffffffffffffffffff168373ffffffffffffffffffffffffffffffffffffffff16141561306b5761306681613326565b6130aa565b8173ffffffffffffffffffffffffffffffffffffffff168373ffffffffffffffffffffffffffffffffffffffff16146130a9576130a8838261336f565b5b5b600073ffffffffffffffffffffffffffffffffffffffff168273ffffffffffffffffffffffffffffffffffffffff1614156130ed576130e8816134dc565b61312c565b8273ffffffffffffffffffffffffffffffffffffffff168273ffffffffffffffffffffffffffffffffffffffff161461312b5761312a82826135ad565b5b5b505050565b60006131528473ffffffffffffffffffffffffffffffffffffffff1661362c565b156132ac578373ffffffffffffffffffffffffffffffffffffffff1663150b7a0261317b6122d7565b8786866040518563ffffffff1660e01b815260040161319d9493929190615064565b6020604051808303816000875af19250505080156131d957506040513d601f19601f820116820180604052508101906131d691906150c5565b60015b61325c573d8060008114613209576040519150601f19603f3d011682016040523d82523d6000602084013e61320e565b606091505b50600081511415613254576040517f08c379a000000000000000000000000000000000000000000000000000000000815260040161324b90614f34565b60405180910390fd5b805181602001fd5b63150b7a0260e01b7bffffffffffffffffffffffffffffffffffffffffffffffffffffffff1916817bffffffffffffffffffffffffffffffffffffffffffffffffffffffff1916149150506132b1565b600190505b949350505050565b600080444233856040516020016132d3949392919061515b565b6040516020818303038152906040528051906020012060001c905083816132fa9190614f54565b91505092915050565b61331d82826040518060200160405280600081525061363f565b5050565b505050565b6008805490506009600083815260200190815260200160002081905550600881908060018154018082558091505060019003906000526020600020016000909190919091505550565b6000600161337c84611869565b613386919061490a565b905060006007600084815260200190815260200160002054905081811461346b576000600660008673ffffffffffffffffffffffffffffffffffffffff1673ffffffffffffffffffffffffffffffffffffffff168152602001908152602001600020600084815260200190815260200160002054905080600660008773ffffffffffffffffffffffffffffffffffffffff1673ffffffffffffffffffffffffffffffffffffffff168152602001908152602001600020600084815260200190815260200160002081905550816007600083815260200190815260200160002081905550505b6007600084815260200190815260200160002060009055600660008573ffffffffffffffffffffffffffffffffffffffff1673ffffffffffffffffffffffffffffffffffffffff16815260200190815260200160002060008381526020019081526020016000206000905550505050565b600060016008805490506134f0919061490a565b90506000600960008481526020019081526020016000205490506000600883815481106135205761351f6148db565b5b906000526020600020015490508060088381548110613542576135416148db565b5b906000526020600020018190555081600960008381526020019081526020016000208190555060096000858152602001908152602001600020600090556008805480613591576135906151a5565b5b6001900381819060005260206000200160009055905550505050565b60006135b883611869565b905081600660008573ffffffffffffffffffffffffffffffffffffffff1673ffffffffffffffffffffffffffffffffffffffff168152602001908152602001600020600083815260200190815260200160002081905550806007600084815260200190815260200160002081905550505050565b600080823b905060008111915050919050565b613649838361369a565b6136566000848484613131565b613695576040517f08c379a000000000000000000000000000000000000000000000000000000000815260040161368c90614f34565b60405180910390fd5b505050565b600073ffffffffffffffffffffffffffffffffffffffff168273ffffffffffffffffffffffffffffffffffffffff16141561370a576040517f08c379a000000000000000000000000000000000000000000000000000000000815260040161370190615220565b60405180910390fd5b6137138161226b565b15613753576040517f08c379a000000000000000000000000000000000000000000000000000000000815260040161374a9061528c565b60405180910390fd5b61375f6000838361301d565b6001600360008473ffffffffffffffffffffffffffffffffffffffff1673ffffffffffffffffffffffffffffffffffffffff16815260200190815260200160002060008282546137af919061441d565b92505081905550816002600083815260200190815260200160002060006101000a81548173ffffffffffffffffffffffffffffffffffffffff021916908373ffffffffffffffffffffffffffffffffffffffff160217905550808273ffffffffffffffffffffffffffffffffffffffff16600073ffffffffffffffffffffffffffffffffffffffff167fddf252ad1be2c89b69c2b068fc378daa952ba7f163c4a11628f55a4df523b3ef60405160405180910390a45050565b828054613874906144eb565b90600052602060002090601f01602090048101928261389657600085556138dd565b82601f106138af57805160ff19168380011785556138dd565b828001600101855582156138dd579182015b828111156138dc5782518255916020019190600101906138c1565b5b5090506138ea91906138ee565b5090565b5b808211156139075760008160009055506001016138ef565b5090565b6000604051905090565b600080fd5b600080fd5b60007fffffffff0000000000000000000000000000000000000000000000000000000082169050919050565b6139548161391f565b811461395f57600080fd5b50565b6000813590506139718161394b565b92915050565b60006020828403121561398d5761398c613915565b5b600061399b84828501613962565b91505092915050565b60008115159050919050565b6139b9816139a4565b82525050565b60006020820190506139d460008301846139b0565b92915050565b6000819050919050565b6139ed816139da565b82525050565b6000602082019050613a0860008301846139e4565b92915050565b613a17816139da565b8114613a2257600080fd5b50565b600081359050613a3481613a0e565b92915050565b600060208284031215613a5057613a4f613915565b5b6000613a5e84828501613a25565b91505092915050565b600081519050919050565b600082825260208201905092915050565b60005b83811015613aa1578082015181840152602081019050613a86565b83811115613ab0576000848401525b50505050565b6000601f19601f8301169050919050565b6000613ad282613a67565b613adc8185613a72565b9350613aec818560208601613a83565b613af581613ab6565b840191505092915050565b60006020820190508181036000830152613b1a8184613ac7565b905092915050565b600073ffffffffffffffffffffffffffffffffffffffff82169050919050565b6000613b4d82613b22565b9050919050565b613b5d81613b42565b82525050565b6000602082019050613b786000830184613b54565b92915050565b613b8781613b42565b8114613b9257600080fd5b50565b600081359050613ba481613b7e565b92915050565b60008060408385031215613bc157613bc0613915565b5b6000613bcf85828601613b95565b9250506020613be085828601613a25565b9150509250929050565b600080600060608486031215613c0357613c02613915565b5b6000613c1186828701613b95565b9350506020613c2286828701613b95565b9250506040613c3386828701613a25565b9150509250925092565b600080fd5b600080fd5b7f4e487b7100000000000000000000000000000000000000000000000000000000600052604160045260246000fd5b613c7f82613ab6565b810181811067ffffffffffffffff82111715613c9e57613c9d613c47565b5b80604052505050565b6000613cb161390b565b9050613cbd8282613c76565b919050565b600067ffffffffffffffff821115613cdd57613cdc613c47565b5b613ce682613ab6565b9050602081019050919050565b82818337600083830152505050565b6000613d15613d1084613cc2565b613ca7565b905082815260208101848484011115613d3157613d30613c42565b5b613d3c848285613cf3565b509392505050565b600082601f830112613d5957613d58613c3d565b5b8135613d69848260208601613d02565b91505092915050565b60008060408385031215613d8957613d88613915565b5b600083013567ffffffffffffffff811115613da757613da661391a565b5b613db385828601613d44565b9250506020613dc485828601613a25565b9150509250929050565b600060ff82169050919050565b613de481613dce565b82525050565b600061ffff82169050919050565b613e0181613dea565b82525050565b6000610100820190508181036000830152613e22818b613ac7565b9050613e31602083018a6139e4565b613e3e60408301896139e4565b613e4b6060830188613ddb565b613e586080830187613df8565b613e6560a0830186613ddb565b613e7260c08301856139e4565b613e7f60e08301846139b0565b9998505050505050505050565b600081519050919050565b600082825260208201905092915050565b6000819050602082019050919050565b600082825260208201905092915050565b6000613ed482613a67565b613ede8185613eb8565b9350613eee818560208601613a83565b613ef781613ab6565b840191505092915050565b613f0b816139da565b82525050565b613f1a81613dce565b82525050565b613f2981613dea565b82525050565b613f38816139a4565b82525050565b6000610100830160008301518482036000860152613f5c8282613ec9565b9150506020830151613f716020860182613f02565b506040830151613f846040860182613f02565b506060830151613f976060860182613f11565b506080830151613faa6080860182613f20565b5060a0830151613fbd60a0860182613f11565b5060c0830151613fd060c0860182613f02565b5060e0830151613fe360e0860182613f2f565b508091505092915050565b6000613ffa8383613f3e565b905092915050565b6000602082019050919050565b600061401a82613e8c565b6140248185613e97565b93508360208202850161403685613ea8565b8060005b8581101561407257848403895281516140538582613fee565b945061405e83614002565b925060208a0199505060018101905061403a565b50829750879550505050505092915050565b6000602082019050818103600083015261409e818461400f565b905092915050565b6000602082840312156140bc576140bb613915565b5b60006140ca84828501613b95565b91505092915050565b600081519050919050565b600082825260208201905092915050565b6000819050602082019050919050565b600061410b8383613f02565b60208301905092915050565b6000602082019050919050565b600061412f826140d3565b61413981856140de565b9350614144836140ef565b8060005b8381101561417557815161415c88826140ff565b975061416783614117565b925050600181019050614148565b5085935050505092915050565b6000602082019050818103600083015261419c8184614124565b905092915050565b6141ad816139a4565b81146141b857600080fd5b50565b6000813590506141ca816141a4565b92915050565b600080604083850312156141e7576141e6613915565b5b60006141f585828601613b95565b9250506020614206858286016141bb565b9150509250929050565b600067ffffffffffffffff82111561422b5761422a613c47565b5b61423482613ab6565b9050602081019050919050565b600061425461424f84614210565b613ca7565b9050828152602081018484840111156142705761426f613c42565b5b61427b848285613cf3565b509392505050565b600082601f83011261429857614297613c3d565b5b81356142a8848260208601614241565b91505092915050565b600080600080608085870312156142cb576142ca613915565b5b60006142d987828801613b95565b94505060206142ea87828801613b95565b93505060406142fb87828801613a25565b925050606085013567ffffffffffffffff81111561431c5761431b61391a565b5b61432887828801614283565b91505092959194509250565b6000819050919050565b600061435961435461434f84613b22565b614334565b613b22565b9050919050565b600061436b8261433e565b9050919050565b600061437d82614360565b9050919050565b61438d81614372565b82525050565b60006020820190506143a86000830184614384565b92915050565b600080604083850312156143c5576143c4613915565b5b60006143d385828601613b95565b92505060206143e485828601613b95565b9150509250929050565b7f4e487b7100000000000000000000000000000000000000000000000000000000600052601160045260246000fd5b6000614428826139da565b9150614433836139da565b9250827fffffffffffffffffffffffffffffffffffffffffffffffffffffffffffffffff03821115614468576144676143ee565b5b828201905092915050565b600061447e826139da565b91507fffffffffffffffffffffffffffffffffffffffffffffffffffffffffffffffff8214156144b1576144b06143ee565b5b600182019050919050565b7f4e487b7100000000000000000000000000000000000000000000000000000000600052602260045260246000fd5b6000600282049050600182168061450357607f821691505b60208210811415614517576145166144bc565b5b50919050565b7f4552433732313a20617070726f76656420717565727920666f72206e6f6e657860008201527f697374656e7420746f6b656e0000000000000000000000000000000000000000602082015250565b6000614579602c83613a72565b91506145848261451d565b604082019050919050565b600060208201905081810360008301526145a88161456c565b9050919050565b60006040820190506145c46000830185613b54565b6145d160208301846139e4565b9392505050565b6000815190506145e7816141a4565b92915050565b60006020828403121561460357614602613915565b5b6000614611848285016145d8565b91505092915050565b7f4552433732313a20617070726f76616c20746f2063757272656e74206f776e6560008201527f7200000000000000000000000000000000000000000000000000000000000000602082015250565b6000614676602183613a72565b91506146818261461a565b604082019050919050565b600060208201905081810360008301526146a581614669565b9050919050565b7f4552433732313a20617070726f76652063616c6c6572206973206e6f74206f7760008201527f6e6572206e6f7220617070726f76656420666f7220616c6c0000000000000000602082015250565b6000614708603883613a72565b9150614713826146ac565b604082019050919050565b60006020820190508181036000830152614737816146fb565b9050919050565b60008151905061474d81613a0e565b92915050565b60006020828403121561476957614768613915565b5b60006147778482850161473e565b91505092915050565b60006060820190506147956000830186613b54565b6147a26020830185613b54565b6147af60408301846139e4565b949350505050565b7f4552433732313a207472616e736665722063616c6c6572206973206e6f74206f60008201527f776e6572206e6f7220617070726f766564000000000000000000000000000000602082015250565b6000614813603183613a72565b915061481e826147b7565b604082019050919050565b6000602082019050818103600083015261484281614806565b9050919050565b7f455243373231456e756d657261626c653a206f776e657220696e646578206f7560008201527f74206f6620626f756e6473000000000000000000000000000000000000000000602082015250565b60006148a5602b83613a72565b91506148b082614849565b604082019050919050565b600060208201905081810360008301526148d481614898565b9050919050565b7f4e487b7100000000000000000000000000000000000000000000000000000000600052603260045260246000fd5b6000614915826139da565b9150614920836139da565b925082821015614933576149326143ee565b5b828203905092915050565b7f455243373231456e756d657261626c653a20676c6f62616c20696e646578206f60008201527f7574206f6620626f756e64730000000000000000000000000000000000000000602082015250565b600061499a602c83613a72565b91506149a58261493e565b604082019050919050565b600060208201905081810360008301526149c98161498d565b9050919050565b7f4552433732313a206f776e657220717565727920666f72206e6f6e657869737460008201527f656e7420746f6b656e0000000000000000000000000000000000000000000000602082015250565b6000614a2c602983613a72565b9150614a37826149d0565b604082019050919050565b60006020820190508181036000830152614a5b81614a1f565b9050919050565b7f4552433732313a2062616c616e636520717565727920666f7220746865207a6560008201527f726f206164647265737300000000000000000000000000000000000000000000602082015250565b6000614abe602a83613a72565b9150614ac982614a62565b604082019050919050565b60006020820190508181036000830152614aed81614ab1565b9050919050565b7f4552433732314d657461646174613a2055524920717565727920666f72206e6f60008201527f6e6578697374656e7420746f6b656e0000000000000000000000000000000000602082015250565b6000614b50602f83613a72565b9150614b5b82614af4565b604082019050919050565b60006020820190508181036000830152614b7f81614b43565b9050919050565b600081905092915050565b6000614b9c82613a67565b614ba68185614b86565b9350614bb6818560208601613a83565b80840191505092915050565b6000614bce8285614b91565b9150614bda8284614b91565b91508190509392505050565b7f4e487b7100000000000000000000000000000000000000000000000000000000600052601260045260246000fd5b6000614c20826139da565b9150614c2b836139da565b925082614c3b57614c3a614be6565b5b828204905092915050565b6000614c51826139da565b9150614c5c836139da565b9250817fffffffffffffffffffffffffffffffffffffffffffffffffffffffffffffffff0483118215151615614c9557614c946143ee565b5b828202905092915050565b7f4552433732313a206f70657261746f7220717565727920666f72206e6f6e657860008201527f697374656e7420746f6b656e0000000000000000000000000000000000000000602082015250565b6000614cfc602c83613a72565b9150614d0782614ca0565b604082019050919050565b60006020820190508181036000830152614d2b81614cef565b9050919050565b7f4552433732313a207472616e73666572206f6620746f6b656e2074686174206960008201527f73206e6f74206f776e0000000000000000000000000000000000000000000000602082015250565b6000614d8e602983613a72565b9150614d9982614d32565b604082019050919050565b60006020820190508181036000830152614dbd81614d81565b9050919050565b7f4552433732313a207472616e7366657220746f20746865207a65726f2061646460008201527f7265737300000000000000000000000000000000000000000000000000000000602082015250565b6000614e20602483613a72565b9150614e2b82614dc4565b604082019050919050565b60006020820190508181036000830152614e4f81614e13565b9050919050565b7f4552433732313a20617070726f766520746f2063616c6c657200000000000000600082015250565b6000614e8c601983613a72565b9150614e9782614e56565b602082019050919050565b60006020820190508181036000830152614ebb81614e7f565b9050919050565b7f4552433732313a207472616e7366657220746f206e6f6e20455243373231526560008201527f63656976657220696d706c656d656e7465720000000000000000000000000000602082015250565b6000614f1e603283613a72565b9150614f2982614ec2565b604082019050919050565b60006020820190508181036000830152614f4d81614f11565b9050919050565b6000614f5f826139da565b9150614f6a836139da565b925082614f7a57614f79614be6565b5b828206905092915050565b6000614f90826139da565b91506000821415614fa457614fa36143ee565b5b600182039050919050565b6000614fba82613dce565b9150614fc583613dce565b92508260ff03821115614fdb57614fda6143ee565b5b828201905092915050565b6000604082019050614ffb60008301856139e4565b61500860208301846139e4565b9392505050565b600081519050919050565b600082825260208201905092915050565b60006150368261500f565b615040818561501a565b9350615050818560208601613a83565b61505981613ab6565b840191505092915050565b60006080820190506150796000830187613b54565b6150866020830186613b54565b61509360408301856139e4565b81810360608301526150a5818461502b565b905095945050505050565b6000815190506150bf8161394b565b92915050565b6000602082840312156150db576150da613915565b5b60006150e9848285016150b0565b91505092915050565b6000819050919050565b61510d615108826139da565b6150f2565b82525050565b60008160601b9050919050565b600061512b82615113565b9050919050565b600061513d82615120565b9050919050565b61515561515082613b42565b615132565b82525050565b600061516782876150fc565b60208201915061517782866150fc565b6020820191506151878285615144565b6014820191506151978284614b91565b915081905095945050505050565b7f4e487b7100000000000000000000000000000000000000000000000000000000600052603160045260246000fd5b7f4552433732313a206d696e7420746f20746865207a65726f2061646472657373600082015250565b600061520a602083613a72565b9150615215826151d4565b602082019050919050565b60006020820190508181036000830152615239816151fd565b9050919050565b7f4552433732313a20746f6b656e20616c7265616479206d696e74656400000000600082015250565b6000615276601c83613a72565b915061528182615240565b602082019050919050565b600060208201905081810360008301526152a581615269565b905091905056fea2646970667358221220a599ccd96beb6ea0f3a006b1df32d954a4f2914008ece7aba31a486d2331c54864736f6c634300080b0033",
  "immutableReferences": {},
  "source": "// SPDX-License-Identifier: MIT\r\n\r\npragma solidity ^0.8.0;\r\n\r\nimport \"@openzeppelin/contracts/token/ERC721/ERC721.sol\";\r\nimport \"@openzeppelin/contracts/access/Ownable.sol\";\r\nimport \"@openzeppelin/contracts/token/ERC721/extensions/ERC721Enumerable.sol\";\r\nimport \"@openzeppelin/contracts/token/ERC20/IERC20.sol\";\r\nimport \"./utils.sol\";\r\nimport \"./ebtc.sol\";\r\n\r\ncontract cryptoFont is ERC721Enumerable,utils  {\r\n    uint256 COUNTER = 0;\r\n    address _owner;\r\n    IEBTC public eBitcoin;\r\n    uint256 public vcost = 100 * 10**18;\r\n    uint256 public vfee = vcost * 50 / 100;\r\n    uint256 public _feePool;\r\n    uint256 public _pastDistributedReward;\r\n\r\n    // counters\r\n    uint256 public rarityCounter;\r\n\r\n    mapping(uint256 => uint256) public tokenToReward;\r\n    mapping(uint256 => uint256) public tokenToEthers;\r\n    mapping(address => uint256) public burnCounter;\r\n    uint256 public allRarityBurn = 0;\r\n\r\n    struct cFont {\r\n        string name;\r\n        uint256 id;\r\n        uint256 dna;\r\n        uint8 rarity;\r\n        uint16 power;\r\n        uint8 size;\r\n        uint256 mintDate;\r\n        bool burn;\r\n    }\r\n\r\n    cFont[] public cFonts;\r\n\r\n    event NewcFont(address indexed owner, uint256 id, uint dna);\r\n\r\n    function _createRandomNum(uint256 _mod, string memory str) internal view returns(uint256){\r\n        uint256 randomNum = uint256(keccak256(abi.encodePacked(block.difficulty, block.timestamp, msg.sender, str)));\r\n        return randomNum % _mod;\r\n    }\r\n\r\n    constructor(address eBitcoinAddress)\r\n        ERC721(\"Crypto Font\", \"cFont\")\r\n    {\r\n        eBitcoin = IEBTC(eBitcoinAddress);\r\n        _pastDistributedReward = block.timestamp;\r\n        _owner = msg.sender;\r\n    }\r\n    \r\n    function _createcFont(string memory _name) internal{\r\n        uint8 randRarity = uint8(_createRandomNum(100, _name)) + 1;\r\n        uint256 randDna = _createRandomNum(10**16, _name);\r\n        uint16 randPower = uint16(_createRandomNum(10000, _name) + 1);\r\n        uint8 randSize = uint8(_createRandomNum(140, _name) + 10);\r\n        uint8 rarity = 1;\r\n        uint256 mint_date = block.timestamp;\r\n\r\n        if(randRarity < 30){\r\n            rarity = 2;\r\n            if(randRarity < 6){\r\n                rarity = 3;\r\n                if(rarity <1){\r\n                    rarity = 4;\r\n                }\r\n            }\r\n        }\r\n\r\n        rarityCounter+= rarity;\r\n        \r\n        cFont memory newcFont = cFont(_name, COUNTER, randDna, rarity, randPower,randSize,mint_date,false);\r\n        cFonts.push(newcFont);\r\n        _safeMint(msg.sender, COUNTER);\r\n        emit NewcFont(msg.sender,COUNTER, randDna);\r\n        COUNTER++;\r\n    }\r\n\r\n    function createRandomcFont() public{\r\n        require(eBitcoin.balanceOf(msg.sender) >= vcost);\r\n        require(eBitcoin.transferFrom(msg.sender,address(this), vcost));\r\n        eBitcoin.burn(vcost-vfee);\r\n        string memory name = concatenate(\"cFont #\",uint2str(COUNTER));\r\n        _createcFont(name);\r\n    }\r\n\r\n    function reverseSwap(uint256 id) public{\r\n        require(ownerOf(id) == msg.sender);\r\n        burnCounter[msg.sender] += cFonts[id].rarity;\r\n        rarityCounter -= cFonts[id].rarity;\r\n        allRarityBurn+=cFonts[id].rarity;\r\n        cFonts[id].burn = true;\r\n        _burn(id);\r\n    }\r\n\r\n    function getcFonts() public view returns(cFont[] memory) {\r\n        return cFonts;\r\n    }\r\n\r\n    function _getRarity(uint256 id) internal view returns(uint256){\r\n        uint256 rarity = 0;\r\n        if(!cFonts[id].burn){\r\n                rarity=cFonts[id].rarity;\r\n            }\r\n        return rarity;\r\n    }\r\n\r\n    function countAllReward() public view returns(uint256){\r\n        uint256 reward = 0;\r\n        uint256 i;\r\n        for (i=0;i<COUNTER;i++){\r\n            reward+=tokenToReward[i];\r\n        }\r\n        \r\n        return reward;\r\n    }\r\n\r\n    function countAllEthers() public view returns(uint256){\r\n        uint256 reward = 0;\r\n        uint256 i;\r\n        for (i=0;i<COUNTER;i++){\r\n            reward+=tokenToEthers[i];\r\n        }\r\n        \r\n        return reward;\r\n    }\r\n\r\n\r\n    function remainingEthers() public view returns(uint256){\r\n        return address(this).balance - countAllEthers();\r\n    }\r\n\r\n    function remainingeBTC() public view returns(uint256){\r\n        return eBitcoin.balanceOf(address(this)) - countAllReward() - _feePool;\r\n    }\r\n\r\n    function DistributeReward() public{\r\n        require(block.timestamp > _pastDistributedReward + 0 days);\r\n        uint256 rewardPerRare;\r\n        uint256 feePerRare = 0;\r\n        if(remainingeBTC() > rarityCounter){\r\n            rewardPerRare = remainingeBTC() / rarityCounter;\r\n            if(rewardPerRare > 10*10**18){\r\n                rewardPerRare = 10*10**18;\r\n            }   \r\n        }\r\n        if(_feePool > rarityCounter){\r\n            feePerRare = _feePool / rarityCounter;  \r\n        }\r\n        rewardPerRare += feePerRare;\r\n\r\n        uint256 i;\r\n\r\n        uint256 ethersPerRare = remainingEthers() / rarityCounter;\r\n        for(i=0; i<COUNTER;i++){\r\n            tokenToReward[i] += rewardPerRare * _getRarity(i);\r\n            tokenToEthers[i] += ethersPerRare * _getRarity(i);\r\n            _feePool -= feePerRare * _getRarity(i);\r\n        }\r\n\r\n        _pastDistributedReward = block.timestamp;\r\n    }\r\n\r\n    function showEthers(address account) public view returns(uint256){\r\n        uint256 reward = 0;\r\n        for(uint256 i =0; i< balanceOf(account); i++){\r\n            reward += tokenToEthers[tokenOfOwnerByIndex(account, i)];\r\n        }\r\n        return reward;\r\n    }\r\n\r\n    function getAllEthers() public{\r\n        uint256 reward = 0;\r\n        for(uint256 i = 0;i< balanceOf(msg.sender); i++){\r\n            reward += tokenToEthers[tokenOfOwnerByIndex(msg.sender, i)];\r\n            tokenToEthers[tokenOfOwnerByIndex(msg.sender, i)] = 0;\r\n        }\r\n        payable(msg.sender).transfer(reward);\r\n    }\r\n\r\n    receive() external payable {}\r\n\r\n    function showReward(address account) public view returns(uint256){\r\n        uint256 reward = 0;\r\n        for(uint256 i =0; i< balanceOf(account); i++){\r\n            reward += tokenToReward[tokenOfOwnerByIndex(account, i)];\r\n        }\r\n        return reward;\r\n    }\r\n\r\n    function getAllReward() public{\r\n        uint256 reward = 0;\r\n        for(uint256 i = 0;i< balanceOf(msg.sender); i++){\r\n            reward += tokenToReward[tokenOfOwnerByIndex(msg.sender, i)];\r\n            tokenToReward[tokenOfOwnerByIndex(msg.sender, i)] = 0;\r\n        }\r\n        eBitcoin.transfer(msg.sender, reward);\r\n    }\r\n\r\n    function setName(string memory name, uint256 id) public {\r\n        require(ownerOf(id) == msg.sender);\r\n        require(bytes(name).length > 0);\r\n        cFonts[id].name = name;\r\n    }\r\n\r\n\r\n    function AddeBTCFee(uint256 _amount) public{\r\n        require(eBitcoin.balanceOf(msg.sender) >= _amount);\r\n        require(eBitcoin.transferFrom(msg.sender,address(this), _amount));\r\n        _feePool += _amount;\r\n    }\r\n\r\n    function getIdsOfOwner(address _address) public view returns (uint[] memory) {\r\n        uint[] memory _tokensOfOwner = new uint[](ERC721.balanceOf(_address));\r\n        uint i;\r\n\r\n        for (i=0;i<ERC721.balanceOf(_address);i++){\r\n            _tokensOfOwner[i] = ERC721Enumerable.tokenOfOwnerByIndex(_address, i);\r\n        }\r\n        return (_tokensOfOwner);\r\n    }\r\n}",
  "sourcePath": "C:\\Users\\jarup\\Documents\\GitHub\\crypto-font\\contracts\\cFont.sol",
  "compiler": {
    "name": "solc",
    "version": "0.8.11+commit.d7f03943.Emscripten.clang"
  },
  "schemaVersion": "3.4.3",
  "updatedAt": "2021-12-26T16:28:58.721Z",
  "networkType": "ethereum",
  "devdoc": {
    "kind": "dev",
    "methods": {
      "approve(address,uint256)": {
        "details": "See {IERC721-approve}."
      },
      "balanceOf(address)": {
        "details": "See {IERC721-balanceOf}."
      },
      "getApproved(uint256)": {
        "details": "See {IERC721-getApproved}."
      },
      "isApprovedForAll(address,address)": {
        "details": "See {IERC721-isApprovedForAll}."
      },
      "name()": {
        "details": "See {IERC721Metadata-name}."
      },
      "ownerOf(uint256)": {
        "details": "See {IERC721-ownerOf}."
      },
      "safeTransferFrom(address,address,uint256)": {
        "details": "See {IERC721-safeTransferFrom}."
      },
      "safeTransferFrom(address,address,uint256,bytes)": {
        "details": "See {IERC721-safeTransferFrom}."
      },
      "setApprovalForAll(address,bool)": {
        "details": "See {IERC721-setApprovalForAll}."
      },
      "supportsInterface(bytes4)": {
        "details": "See {IERC165-supportsInterface}."
      },
      "symbol()": {
        "details": "See {IERC721Metadata-symbol}."
      },
      "tokenByIndex(uint256)": {
        "details": "See {IERC721Enumerable-tokenByIndex}."
      },
      "tokenOfOwnerByIndex(address,uint256)": {
        "details": "See {IERC721Enumerable-tokenOfOwnerByIndex}."
      },
      "tokenURI(uint256)": {
        "details": "See {IERC721Metadata-tokenURI}."
      },
      "totalSupply()": {
        "details": "See {IERC721Enumerable-totalSupply}."
      },
      "transferFrom(address,address,uint256)": {
        "details": "See {IERC721-transferFrom}."
      }
    },
    "version": 1
  },
  "userdoc": {
    "kind": "user",
    "methods": {},
    "version": 1
  }
}