{
  "contractName": "cryptoFont",
  "abi": [
    {
      "inputs": [
        {
          "internalType": "address",
          "name": "eBitcoinAddress",
          "type": "address"
        }
      ],
      "stateMutability": "nonpayable",
      "type": "constructor"
    },
    {
      "anonymous": false,
      "inputs": [
        {
          "indexed": true,
          "internalType": "address",
          "name": "owner",
          "type": "address"
        },
        {
          "indexed": true,
          "internalType": "address",
          "name": "approved",
          "type": "address"
        },
        {
          "indexed": true,
          "internalType": "uint256",
          "name": "tokenId",
          "type": "uint256"
        }
      ],
      "name": "Approval",
      "type": "event"
    },
    {
      "anonymous": false,
      "inputs": [
        {
          "indexed": true,
          "internalType": "address",
          "name": "owner",
          "type": "address"
        },
        {
          "indexed": true,
          "internalType": "address",
          "name": "operator",
          "type": "address"
        },
        {
          "indexed": false,
          "internalType": "bool",
          "name": "approved",
          "type": "bool"
        }
      ],
      "name": "ApprovalForAll",
      "type": "event"
    },
    {
      "anonymous": false,
      "inputs": [
        {
          "indexed": true,
          "internalType": "address",
          "name": "owner",
          "type": "address"
        },
        {
          "indexed": false,
          "internalType": "uint256",
          "name": "id",
          "type": "uint256"
        },
        {
          "indexed": false,
          "internalType": "uint256",
          "name": "dna",
          "type": "uint256"
        }
      ],
      "name": "NewcFont",
      "type": "event"
    },
    {
      "anonymous": false,
      "inputs": [
        {
          "indexed": true,
          "internalType": "address",
          "name": "previousOwner",
          "type": "address"
        },
        {
          "indexed": true,
          "internalType": "address",
          "name": "newOwner",
          "type": "address"
        }
      ],
      "name": "OwnershipTransferred",
      "type": "event"
    },
    {
      "anonymous": false,
      "inputs": [
        {
          "indexed": true,
          "internalType": "address",
          "name": "from",
          "type": "address"
        },
        {
          "indexed": true,
          "internalType": "address",
          "name": "to",
          "type": "address"
        },
        {
          "indexed": true,
          "internalType": "uint256",
          "name": "tokenId",
          "type": "uint256"
        }
      ],
      "name": "Transfer",
      "type": "event"
    },
    {
      "inputs": [
        {
          "internalType": "address",
          "name": "to",
          "type": "address"
        },
        {
          "internalType": "uint256",
          "name": "tokenId",
          "type": "uint256"
        }
      ],
      "name": "approve",
      "outputs": [],
      "stateMutability": "nonpayable",
      "type": "function"
    },
    {
      "inputs": [
        {
          "internalType": "address",
          "name": "owner",
          "type": "address"
        }
      ],
      "name": "balanceOf",
      "outputs": [
        {
          "internalType": "uint256",
          "name": "",
          "type": "uint256"
        }
      ],
      "stateMutability": "view",
      "type": "function",
      "constant": true
    },
    {
      "inputs": [
        {
          "internalType": "uint256",
          "name": "",
          "type": "uint256"
        }
      ],
      "name": "cFonts",
      "outputs": [
        {
          "internalType": "string",
          "name": "name",
          "type": "string"
        },
        {
          "internalType": "uint256",
          "name": "id",
          "type": "uint256"
        },
        {
          "internalType": "uint256",
          "name": "dna",
          "type": "uint256"
        },
        {
          "internalType": "uint8",
          "name": "rarity",
          "type": "uint8"
        },
        {
          "internalType": "uint256",
          "name": "Stat",
          "type": "uint256"
        },
        {
          "internalType": "uint16",
          "name": "Power",
          "type": "uint16"
        },
        {
          "internalType": "uint8",
          "name": "Size",
          "type": "uint8"
        },
        {
          "internalType": "uint256",
          "name": "mintDate",
          "type": "uint256"
        },
        {
          "internalType": "bool",
          "name": "burn",
          "type": "bool"
        }
      ],
      "stateMutability": "view",
      "type": "function",
      "constant": true
    },
    {
      "inputs": [],
      "name": "cost",
      "outputs": [
        {
          "internalType": "uint256",
          "name": "",
          "type": "uint256"
        }
      ],
      "stateMutability": "view",
      "type": "function",
      "constant": true
    },
    {
      "inputs": [],
      "name": "daysToDistribute",
      "outputs": [
        {
          "internalType": "uint256",
          "name": "",
          "type": "uint256"
        }
      ],
      "stateMutability": "view",
      "type": "function",
      "constant": true
    },
    {
      "inputs": [],
      "name": "distributedEthers",
      "outputs": [
        {
          "internalType": "uint256",
          "name": "",
          "type": "uint256"
        }
      ],
      "stateMutability": "view",
      "type": "function",
      "constant": true
    },
    {
      "inputs": [],
      "name": "eBitcoin",
      "outputs": [
        {
          "internalType": "contract IERC20",
          "name": "",
          "type": "address"
        }
      ],
      "stateMutability": "view",
      "type": "function",
      "constant": true
    },
    {
      "inputs": [],
      "name": "fee",
      "outputs": [
        {
          "internalType": "uint256",
          "name": "",
          "type": "uint256"
        }
      ],
      "stateMutability": "view",
      "type": "function",
      "constant": true
    },
    {
      "inputs": [],
      "name": "feePool",
      "outputs": [
        {
          "internalType": "uint256",
          "name": "",
          "type": "uint256"
        }
      ],
      "stateMutability": "view",
      "type": "function",
      "constant": true
    },
    {
      "inputs": [
        {
          "internalType": "uint256",
          "name": "tokenId",
          "type": "uint256"
        }
      ],
      "name": "getApproved",
      "outputs": [
        {
          "internalType": "address",
          "name": "",
          "type": "address"
        }
      ],
      "stateMutability": "view",
      "type": "function",
      "constant": true
    },
    {
      "inputs": [
        {
          "internalType": "address",
          "name": "owner",
          "type": "address"
        },
        {
          "internalType": "address",
          "name": "operator",
          "type": "address"
        }
      ],
      "name": "isApprovedForAll",
      "outputs": [
        {
          "internalType": "bool",
          "name": "",
          "type": "bool"
        }
      ],
      "stateMutability": "view",
      "type": "function",
      "constant": true
    },
    {
      "inputs": [],
      "name": "miningPool",
      "outputs": [
        {
          "internalType": "uint256",
          "name": "",
          "type": "uint256"
        }
      ],
      "stateMutability": "view",
      "type": "function",
      "constant": true
    },
    {
      "inputs": [],
      "name": "name",
      "outputs": [
        {
          "internalType": "string",
          "name": "",
          "type": "string"
        }
      ],
      "stateMutability": "view",
      "type": "function",
      "constant": true
    },
    {
      "inputs": [],
      "name": "owner",
      "outputs": [
        {
          "internalType": "address",
          "name": "",
          "type": "address"
        }
      ],
      "stateMutability": "view",
      "type": "function",
      "constant": true
    },
    {
      "inputs": [
        {
          "internalType": "uint256",
          "name": "tokenId",
          "type": "uint256"
        }
      ],
      "name": "ownerOf",
      "outputs": [
        {
          "internalType": "address",
          "name": "",
          "type": "address"
        }
      ],
      "stateMutability": "view",
      "type": "function",
      "constant": true
    },
    {
      "inputs": [],
      "name": "pastDistributedReward",
      "outputs": [
        {
          "internalType": "uint256",
          "name": "",
          "type": "uint256"
        }
      ],
      "stateMutability": "view",
      "type": "function",
      "constant": true
    },
    {
      "inputs": [],
      "name": "renounceOwnership",
      "outputs": [],
      "stateMutability": "nonpayable",
      "type": "function"
    },
    {
      "inputs": [],
      "name": "rewardPool",
      "outputs": [
        {
          "internalType": "uint256",
          "name": "",
          "type": "uint256"
        }
      ],
      "stateMutability": "view",
      "type": "function",
      "constant": true
    },
    {
      "inputs": [
        {
          "internalType": "address",
          "name": "from",
          "type": "address"
        },
        {
          "internalType": "address",
          "name": "to",
          "type": "address"
        },
        {
          "internalType": "uint256",
          "name": "tokenId",
          "type": "uint256"
        }
      ],
      "name": "safeTransferFrom",
      "outputs": [],
      "stateMutability": "nonpayable",
      "type": "function"
    },
    {
      "inputs": [
        {
          "internalType": "address",
          "name": "from",
          "type": "address"
        },
        {
          "internalType": "address",
          "name": "to",
          "type": "address"
        },
        {
          "internalType": "uint256",
          "name": "tokenId",
          "type": "uint256"
        },
        {
          "internalType": "bytes",
          "name": "_data",
          "type": "bytes"
        }
      ],
      "name": "safeTransferFrom",
      "outputs": [],
      "stateMutability": "nonpayable",
      "type": "function"
    },
    {
      "inputs": [
        {
          "internalType": "address",
          "name": "operator",
          "type": "address"
        },
        {
          "internalType": "bool",
          "name": "approved",
          "type": "bool"
        }
      ],
      "name": "setApprovalForAll",
      "outputs": [],
      "stateMutability": "nonpayable",
      "type": "function"
    },
    {
      "inputs": [
        {
          "internalType": "bytes4",
          "name": "interfaceId",
          "type": "bytes4"
        }
      ],
      "name": "supportsInterface",
      "outputs": [
        {
          "internalType": "bool",
          "name": "",
          "type": "bool"
        }
      ],
      "stateMutability": "view",
      "type": "function",
      "constant": true
    },
    {
      "inputs": [],
      "name": "symbol",
      "outputs": [
        {
          "internalType": "string",
          "name": "",
          "type": "string"
        }
      ],
      "stateMutability": "view",
      "type": "function",
      "constant": true
    },
    {
      "inputs": [
        {
          "internalType": "uint256",
          "name": "index",
          "type": "uint256"
        }
      ],
      "name": "tokenByIndex",
      "outputs": [
        {
          "internalType": "uint256",
          "name": "",
          "type": "uint256"
        }
      ],
      "stateMutability": "view",
      "type": "function",
      "constant": true
    },
    {
      "inputs": [
        {
          "internalType": "address",
          "name": "owner",
          "type": "address"
        },
        {
          "internalType": "uint256",
          "name": "index",
          "type": "uint256"
        }
      ],
      "name": "tokenOfOwnerByIndex",
      "outputs": [
        {
          "internalType": "uint256",
          "name": "",
          "type": "uint256"
        }
      ],
      "stateMutability": "view",
      "type": "function",
      "constant": true
    },
    {
      "inputs": [
        {
          "internalType": "uint256",
          "name": "",
          "type": "uint256"
        }
      ],
      "name": "tokenToEthers",
      "outputs": [
        {
          "internalType": "uint256",
          "name": "",
          "type": "uint256"
        }
      ],
      "stateMutability": "view",
      "type": "function",
      "constant": true
    },
    {
      "inputs": [
        {
          "internalType": "uint256",
          "name": "",
          "type": "uint256"
        }
      ],
      "name": "tokenToReward",
      "outputs": [
        {
          "internalType": "uint256",
          "name": "",
          "type": "uint256"
        }
      ],
      "stateMutability": "view",
      "type": "function",
      "constant": true
    },
    {
      "inputs": [
        {
          "internalType": "uint256",
          "name": "tokenId",
          "type": "uint256"
        }
      ],
      "name": "tokenURI",
      "outputs": [
        {
          "internalType": "string",
          "name": "",
          "type": "string"
        }
      ],
      "stateMutability": "view",
      "type": "function",
      "constant": true
    },
    {
      "inputs": [],
      "name": "totalSupply",
      "outputs": [
        {
          "internalType": "uint256",
          "name": "",
          "type": "uint256"
        }
      ],
      "stateMutability": "view",
      "type": "function",
      "constant": true
    },
    {
      "inputs": [
        {
          "internalType": "address",
          "name": "from",
          "type": "address"
        },
        {
          "internalType": "address",
          "name": "to",
          "type": "address"
        },
        {
          "internalType": "uint256",
          "name": "tokenId",
          "type": "uint256"
        }
      ],
      "name": "transferFrom",
      "outputs": [],
      "stateMutability": "nonpayable",
      "type": "function"
    },
    {
      "inputs": [
        {
          "internalType": "address",
          "name": "newOwner",
          "type": "address"
        }
      ],
      "name": "transferOwnership",
      "outputs": [],
      "stateMutability": "nonpayable",
      "type": "function"
    },
    {
      "stateMutability": "payable",
      "type": "receive",
      "payable": true
    },
    {
      "inputs": [],
      "name": "createRandomcFont",
      "outputs": [],
      "stateMutability": "nonpayable",
      "type": "function"
    },
    {
      "inputs": [
        {
          "internalType": "uint256",
          "name": "id",
          "type": "uint256"
        }
      ],
      "name": "reverseSwap",
      "outputs": [],
      "stateMutability": "nonpayable",
      "type": "function"
    },
    {
      "inputs": [],
      "name": "getcFonts",
      "outputs": [
        {
          "components": [
            {
              "internalType": "string",
              "name": "name",
              "type": "string"
            },
            {
              "internalType": "uint256",
              "name": "id",
              "type": "uint256"
            },
            {
              "internalType": "uint256",
              "name": "dna",
              "type": "uint256"
            },
            {
              "internalType": "uint8",
              "name": "rarity",
              "type": "uint8"
            },
            {
              "internalType": "uint256",
              "name": "Stat",
              "type": "uint256"
            },
            {
              "internalType": "uint16",
              "name": "Power",
              "type": "uint16"
            },
            {
              "internalType": "uint8",
              "name": "Size",
              "type": "uint8"
            },
            {
              "internalType": "uint256",
              "name": "mintDate",
              "type": "uint256"
            },
            {
              "internalType": "bool",
              "name": "burn",
              "type": "bool"
            }
          ],
          "internalType": "struct cryptoFont.cFont[]",
          "name": "",
          "type": "tuple[]"
        }
      ],
      "stateMutability": "view",
      "type": "function",
      "constant": true
    },
    {
      "inputs": [],
      "name": "countAllRarity",
      "outputs": [
        {
          "internalType": "uint256",
          "name": "",
          "type": "uint256"
        }
      ],
      "stateMutability": "view",
      "type": "function",
      "constant": true
    },
    {
      "inputs": [],
      "name": "remainingEthers",
      "outputs": [
        {
          "internalType": "uint256",
          "name": "",
          "type": "uint256"
        }
      ],
      "stateMutability": "view",
      "type": "function",
      "constant": true
    },
    {
      "inputs": [],
      "name": "DistributeReward",
      "outputs": [],
      "stateMutability": "nonpayable",
      "type": "function"
    },
    {
      "inputs": [],
      "name": "showEthers",
      "outputs": [
        {
          "internalType": "uint256",
          "name": "",
          "type": "uint256"
        }
      ],
      "stateMutability": "view",
      "type": "function",
      "constant": true
    },
    {
      "inputs": [
        {
          "internalType": "uint256",
          "name": "id",
          "type": "uint256"
        }
      ],
      "name": "getEthers",
      "outputs": [],
      "stateMutability": "nonpayable",
      "type": "function"
    },
    {
      "inputs": [],
      "name": "getAllEthers",
      "outputs": [],
      "stateMutability": "nonpayable",
      "type": "function"
    },
    {
      "inputs": [],
      "name": "showReward",
      "outputs": [
        {
          "internalType": "uint256",
          "name": "",
          "type": "uint256"
        }
      ],
      "stateMutability": "view",
      "type": "function",
      "constant": true
    },
    {
      "inputs": [
        {
          "internalType": "uint256",
          "name": "id",
          "type": "uint256"
        }
      ],
      "name": "getReward",
      "outputs": [],
      "stateMutability": "nonpayable",
      "type": "function"
    },
    {
      "inputs": [],
      "name": "getAllReward",
      "outputs": [],
      "stateMutability": "nonpayable",
      "type": "function"
    },
    {
      "inputs": [
        {
          "internalType": "address",
          "name": "_owner",
          "type": "address"
        }
      ],
      "name": "getIdsOfOwner",
      "outputs": [
        {
          "internalType": "uint256[]",
          "name": "",
          "type": "uint256[]"
        }
      ],
      "stateMutability": "view",
      "type": "function",
      "constant": true
    }
  ],
  "bytecode": "0x60806040526000600b5568056bc75e2d63100000600d5560646014600d5462000029919062000331565b620000359190620003c1565b600e553480156200004557600080fd5b50604051620058623803806200586283398181016040528101906200006b919062000463565b6040518060400160405280600b81526020017f43727970746f20466f6e740000000000000000000000000000000000000000008152506040518060400160405280600581526020017f63466f6e740000000000000000000000000000000000000000000000000000008152508160009080519060200190620000ef92919062000248565b5080600190805190602001906200010892919062000248565b5050506200012b6200011f6200017a60201b60201c565b6200018260201b60201c565b80600c60006101000a81548173ffffffffffffffffffffffffffffffffffffffff021916908373ffffffffffffffffffffffffffffffffffffffff1602179055504260128190555050620004fa565b600033905090565b6000600a60009054906101000a900473ffffffffffffffffffffffffffffffffffffffff16905081600a60006101000a81548173ffffffffffffffffffffffffffffffffffffffff021916908373ffffffffffffffffffffffffffffffffffffffff1602179055508173ffffffffffffffffffffffffffffffffffffffff168173ffffffffffffffffffffffffffffffffffffffff167f8be0079c531659141344cd1fd0a4f28419497f9722a3daafe3b4186f6b6457e060405160405180910390a35050565b8280546200025690620004c4565b90600052602060002090601f0160209004810192826200027a5760008555620002c6565b82601f106200029557805160ff1916838001178555620002c6565b82800160010185558215620002c6579182015b82811115620002c5578251825591602001919060010190620002a8565b5b509050620002d59190620002d9565b5090565b5b80821115620002f4576000816000905550600101620002da565b5090565b6000819050919050565b7f4e487b7100000000000000000000000000000000000000000000000000000000600052601160045260246000fd5b60006200033e82620002f8565b91506200034b83620002f8565b9250817fffffffffffffffffffffffffffffffffffffffffffffffffffffffffffffffff048311821515161562000387576200038662000302565b5b828202905092915050565b7f4e487b7100000000000000000000000000000000000000000000000000000000600052601260045260246000fd5b6000620003ce82620002f8565b9150620003db83620002f8565b925082620003ee57620003ed62000392565b5b828204905092915050565b600080fd5b600073ffffffffffffffffffffffffffffffffffffffff82169050919050565b60006200042b82620003fe565b9050919050565b6200043d816200041e565b81146200044957600080fd5b50565b6000815190506200045d8162000432565b92915050565b6000602082840312156200047c576200047b620003f9565b5b60006200048c848285016200044c565b91505092915050565b7f4e487b7100000000000000000000000000000000000000000000000000000000600052602260045260246000fd5b60006002820490506001821680620004dd57607f821691505b60208210811415620004f457620004f362000495565b5b50919050565b615358806200050a6000396000f3fe60806040526004361061026b5760003560e01c80637339759711610144578063d911b965116100b6578063e79e0a221161007a578063e79e0a2214610949578063e985e9c514610972578063f204fce8146109af578063f2fde38b146109da578063f56a29da14610a03578063f82c7ebc14610a1a57610272565b8063d911b96514610886578063ddca3f43146108b1578063e0f8d98d146108dc578063e1930a0f14610907578063e4a2a7421461093257610272565b8063a22cb46511610108578063a22cb46514610764578063ab0ee2ac1461078d578063ae2e933b146107b8578063b88d4fde146107e3578063c44bfb7d1461080c578063c87b56dd1461084957610272565b8063733975971461067b5780637feaaacc146106a65780638da5cb5b146106e35780639268595f1461070e57806395d89b411461073957610272565b806337c1caf4116101dd5780636352211e116101a15780636352211e1461056957806364b7710e146105a657806365f5eb30146105d157806366666aa9146105fc57806370a0823114610627578063715018a61461066457610272565b806337c1caf41461047e5780633e6d4ec2146104a757806342842e0e146104be5780634f6ccce7146104e75780635069918f1461052457610272565b8063095ea7b31161022f578063095ea7b31461037057806313faede61461039957806318160ddd146103c45780631c4b774b146103ef57806323b872dd146104185780632f745c591461044157610272565b806301ffc9a7146102775780630518afdc146102b457806306fdde03146102f1578063081812fc1461031c5780630914e0111461035957610272565b3661027257005b600080fd5b34801561028357600080fd5b5061029e600480360381019061029991906139e6565b610a45565b6040516102ab9190613a2e565b60405180910390f35b3480156102c057600080fd5b506102db60048036038101906102d69190613a7f565b610abf565b6040516102e89190613abb565b60405180910390f35b3480156102fd57600080fd5b50610306610ad7565b6040516103139190613b6f565b60405180910390f35b34801561032857600080fd5b50610343600480360381019061033e9190613a7f565b610b69565b6040516103509190613bd2565b60405180910390f35b34801561036557600080fd5b5061036e610bee565b005b34801561037c57600080fd5b5061039760048036038101906103929190613c19565b610d06565b005b3480156103a557600080fd5b506103ae610e1e565b6040516103bb9190613abb565b60405180910390f35b3480156103d057600080fd5b506103d9610e24565b6040516103e69190613abb565b60405180910390f35b3480156103fb57600080fd5b5061041660048036038101906104119190613a7f565b610e31565b005b34801561042457600080fd5b5061043f600480360381019061043a9190613c59565b610f41565b005b34801561044d57600080fd5b5061046860048036038101906104639190613c19565b610fa1565b6040516104759190613abb565b60405180910390f35b34801561048a57600080fd5b506104a560048036038101906104a09190613a7f565b611046565b005b3480156104b357600080fd5b506104bc611180565b005b3480156104ca57600080fd5b506104e560048036038101906104e09190613c59565b61123e565b005b3480156104f357600080fd5b5061050e60048036038101906105099190613a7f565b61125e565b60405161051b9190613abb565b60405180910390f35b34801561053057600080fd5b5061054b60048036038101906105469190613a7f565b6112cf565b60405161056099989796959493929190613ce5565b60405180910390f35b34801561057557600080fd5b50610590600480360381019061058b9190613a7f565b6113ea565b60405161059d9190613bd2565b60405180910390f35b3480156105b257600080fd5b506105bb61149c565b6040516105c89190613abb565b60405180910390f35b3480156105dd57600080fd5b506105e66114a2565b6040516105f39190613f86565b60405180910390f35b34801561060857600080fd5b50610611611631565b60405161061e9190613abb565b60405180910390f35b34801561063357600080fd5b5061064e60048036038101906106499190613fa8565b611637565b60405161065b9190613abb565b60405180910390f35b34801561067057600080fd5b506106796116ef565b005b34801561068757600080fd5b50610690611777565b60405161069d9190613abb565b60405180910390f35b3480156106b257600080fd5b506106cd60048036038101906106c89190613fa8565b61177d565b6040516106da9190614084565b60405180910390f35b3480156106ef57600080fd5b506106f861182d565b6040516107059190613bd2565b60405180910390f35b34801561071a57600080fd5b50610723611857565b6040516107309190613abb565b60405180910390f35b34801561074557600080fd5b5061074e61186c565b60405161075b9190613b6f565b60405180910390f35b34801561077057600080fd5b5061078b600480360381019061078691906140d2565b6118fe565b005b34801561079957600080fd5b506107a2611914565b6040516107af9190613abb565b60405180910390f35b3480156107c457600080fd5b506107cd611973565b6040516107da9190613abb565b60405180910390f35b3480156107ef57600080fd5b5061080a60048036038101906108059190614247565b611979565b005b34801561081857600080fd5b50610833600480360381019061082e9190613a7f565b6119db565b6040516108409190613abb565b60405180910390f35b34801561085557600080fd5b50610870600480360381019061086b9190613a7f565b6119f3565b60405161087d9190613b6f565b60405180910390f35b34801561089257600080fd5b5061089b611a9a565b6040516108a89190613abb565b60405180910390f35b3480156108bd57600080fd5b506108c6611aa0565b6040516108d39190613abb565b60405180910390f35b3480156108e857600080fd5b506108f1611aa6565b6040516108fe9190613abb565b60405180910390f35b34801561091357600080fd5b5061091c611b05565b6040516109299190614329565b60405180910390f35b34801561093e57600080fd5b50610947611b2b565b005b34801561095557600080fd5b50610970600480360381019061096b9190613a7f565b611c9e565b005b34801561097e57600080fd5b5061099960048036038101906109949190614344565b611d54565b6040516109a69190613a2e565b60405180910390f35b3480156109bb57600080fd5b506109c4611de8565b6040516109d19190613abb565b60405180910390f35b3480156109e657600080fd5b50610a0160048036038101906109fc9190613fa8565b611e2d565b005b348015610a0f57600080fd5b50610a18611f25565b005b348015610a2657600080fd5b50610a2f612110565b604051610a3c9190613abb565b60405180910390f35b60007f780e9d63000000000000000000000000000000000000000000000000000000007bffffffffffffffffffffffffffffffffffffffffffffffffffffffff1916827bffffffffffffffffffffffffffffffffffffffffffffffffffffffff19161480610ab85750610ab782612116565b5b9050919050565b60156020528060005260406000206000915090505481565b606060008054610ae6906143b3565b80601f0160208091040260200160405190810160405280929190818152602001828054610b12906143b3565b8015610b5f5780601f10610b3457610100808354040283529160200191610b5f565b820191906000526020600020905b815481529060010190602001808311610b4257829003601f168201915b5050505050905090565b6000610b74826121f8565b610bb3576040517f08c379a0000000000000000000000000000000000000000000000000000000008152600401610baa90614457565b60405180910390fd5b6004600083815260200190815260200160002060009054906101000a900473ffffffffffffffffffffffffffffffffffffffff169050919050565b6000805b610bfb33611637565b811015610c615760156000610c103384610fa1565b81526020019081526020016000205482610c2a91906144a6565b9150600060156000610c3c3385610fa1565b8152602001908152602001600020819055508080610c59906144fc565b915050610bf2565b50600c60009054906101000a900473ffffffffffffffffffffffffffffffffffffffff1673ffffffffffffffffffffffffffffffffffffffff1663a9059cbb33836040518363ffffffff1660e01b8152600401610cbf929190614545565b6020604051808303816000875af1158015610cde573d6000803e3d6000fd5b505050506040513d601f19601f82011682018060405250810190610d029190614583565b5050565b6000610d11826113ea565b90508073ffffffffffffffffffffffffffffffffffffffff168373ffffffffffffffffffffffffffffffffffffffff161415610d82576040517f08c379a0000000000000000000000000000000000000000000000000000000008152600401610d7990614622565b60405180910390fd5b8073ffffffffffffffffffffffffffffffffffffffff16610da1612264565b73ffffffffffffffffffffffffffffffffffffffff161480610dd05750610dcf81610dca612264565b611d54565b5b610e0f576040517f08c379a0000000000000000000000000000000000000000000000000000000008152600401610e06906146b4565b60405180910390fd5b610e19838361226c565b505050565b600d5481565b6000600880549050905090565b610e3a816113ea565b73ffffffffffffffffffffffffffffffffffffffff163373ffffffffffffffffffffffffffffffffffffffff1614610e7157600080fd5b600c60009054906101000a900473ffffffffffffffffffffffffffffffffffffffff1673ffffffffffffffffffffffffffffffffffffffff1663a9059cbb3360156000858152602001908152602001600020546040518363ffffffff1660e01b8152600401610ee1929190614545565b6020604051808303816000875af1158015610f00573d6000803e3d6000fd5b505050506040513d601f19601f82011682018060405250810190610f249190614583565b506000601560008381526020019081526020016000208190555050565b610f52610f4c612264565b82612325565b610f91576040517f08c379a0000000000000000000000000000000000000000000000000000000008152600401610f8890614746565b60405180910390fd5b610f9c838383612403565b505050565b6000610fac83611637565b8210610fed576040517f08c379a0000000000000000000000000000000000000000000000000000000008152600401610fe4906147d8565b60405180910390fd5b600660008473ffffffffffffffffffffffffffffffffffffffff1673ffffffffffffffffffffffffffffffffffffffff168152602001908152602001600020600083815260200190815260200160002054905092915050565b3373ffffffffffffffffffffffffffffffffffffffff16611066826113ea565b73ffffffffffffffffffffffffffffffffffffffff161461108657600080fd5b61108f8161265f565b600c60009054906101000a900473ffffffffffffffffffffffffffffffffffffffff1673ffffffffffffffffffffffffffffffffffffffff1663a9059cbb33600e54600d546110de91906147f8565b6040518363ffffffff1660e01b81526004016110fb929190614545565b6020604051808303816000875af115801561111a573d6000803e3d6000fd5b505050506040513d601f19601f8201168201806040525081019061113e9190614583565b506001601782815481106111555761115461482c565b5b906000526020600020906008020160070160006101000a81548160ff02191690831515021790555050565b6000805b61118d33611637565b8110156111f357601660006111a23384610fa1565b815260200190815260200160002054826111bc91906144a6565b91506000601660006111ce3385610fa1565b81526020019081526020016000208190555080806111eb906144fc565b915050611184565b503373ffffffffffffffffffffffffffffffffffffffff166108fc829081150290604051600060405180830381858888f1935050505015801561123a573d6000803e3d6000fd5b5050565b61125983838360405180602001604052806000815250611979565b505050565b6000611268610e24565b82106112a9576040517f08c379a00000000000000000000000000000000000000000000000000000000081526004016112a0906148cd565b60405180910390fd5b600882815481106112bd576112bc61482c565b5b90600052602060002001549050919050565b601781815481106112df57600080fd5b9060005260206000209060080201600091509050806000018054611302906143b3565b80601f016020809104026020016040519081016040528092919081815260200182805461132e906143b3565b801561137b5780601f106113505761010080835404028352916020019161137b565b820191906000526020600020905b81548152906001019060200180831161135e57829003601f168201915b5050505050908060010154908060020154908060030160009054906101000a900460ff16908060040154908060050160009054906101000a900461ffff16908060050160029054906101000a900460ff16908060060154908060070160009054906101000a900460ff16905089565b6000806002600084815260200190815260200160002060009054906101000a900473ffffffffffffffffffffffffffffffffffffffff169050600073ffffffffffffffffffffffffffffffffffffffff168173ffffffffffffffffffffffffffffffffffffffff161415611493576040517f08c379a000000000000000000000000000000000000000000000000000000000815260040161148a9061495f565b60405180910390fd5b80915050919050565b60125481565b60606017805480602002602001604051908101604052809291908181526020016000905b828210156116285783829060005260206000209060080201604051806101200160405290816000820180546114fa906143b3565b80601f0160208091040260200160405190810160405280929190818152602001828054611526906143b3565b80156115735780601f1061154857610100808354040283529160200191611573565b820191906000526020600020905b81548152906001019060200180831161155657829003601f168201915b5050505050815260200160018201548152602001600282015481526020016003820160009054906101000a900460ff1660ff1660ff168152602001600482015481526020016005820160009054906101000a900461ffff1661ffff1661ffff1681526020016005820160029054906101000a900460ff1660ff1660ff168152602001600682015481526020016007820160009054906101000a900460ff161515151581525050815260200190600101906114c6565b50505050905090565b60105481565b60008073ffffffffffffffffffffffffffffffffffffffff168273ffffffffffffffffffffffffffffffffffffffff1614156116a8576040517f08c379a000000000000000000000000000000000000000000000000000000000815260040161169f906149f1565b60405180910390fd5b600360008373ffffffffffffffffffffffffffffffffffffffff1673ffffffffffffffffffffffffffffffffffffffff168152602001908152602001600020549050919050565b6116f7612264565b73ffffffffffffffffffffffffffffffffffffffff1661171561182d565b73ffffffffffffffffffffffffffffffffffffffff161461176b576040517f08c379a000000000000000000000000000000000000000000000000000000000815260040161176290614a5d565b60405180910390fd5b6117756000612770565b565b60115481565b6060600061178a83611637565b67ffffffffffffffff8111156117a3576117a261411c565b5b6040519080825280602002602001820160405280156117d15781602001602082028036833780820191505090505b50905060005b6117e084611637565b811015611823576117f18482610fa1565b8282815181106118045761180361482c565b5b602002602001018181525050808061181b906144fc565b9150506117d7565b8192505050919050565b6000600a60009054906101000a900473ffffffffffffffffffffffffffffffffffffffff16905090565b60006013544761186791906147f8565b905090565b60606001805461187b906143b3565b80601f01602080910402602001604051908101604052809291908181526020018280546118a7906143b3565b80156118f45780601f106118c9576101008083540402835291602001916118f4565b820191906000526020600020905b8154815290600101906020018083116118d757829003601f168201915b5050505050905090565b611910611909612264565b8383612836565b5050565b6000806000905060005b61192733611637565b81101561196b576015600061193c3384610fa1565b8152602001908152602001600020548261195691906144a6565b91508080611963906144fc565b91505061191e565b508091505090565b600f5481565b61198a611984612264565b83612325565b6119c9576040517f08c379a00000000000000000000000000000000000000000000000000000000081526004016119c090614746565b60405180910390fd5b6119d5848484846129a3565b50505050565b60166020528060005260406000206000915090505481565b60606119fe826121f8565b611a3d576040517f08c379a0000000000000000000000000000000000000000000000000000000008152600401611a3490614aef565b60405180910390fd5b6000611a476129ff565b90506000815111611a675760405180602001604052806000815250611a92565b80611a7184612a16565b604051602001611a82929190614b4b565b6040516020818303038152906040525b915050919050565b60145481565b600e5481565b6000806000905060005b611ab933611637565b811015611afd5760166000611ace3384610fa1565b81526020019081526020016000205482611ae891906144a6565b91508080611af5906144fc565b915050611ab0565b508091505090565b600c60009054906101000a900473ffffffffffffffffffffffffffffffffffffffff1681565b6012544211611b3957600080fd5b6000600f549050600f546011541115611b7c57600f5481611b5a91906144a6565b9050600f5460116000828254611b7091906147f8565b92505081905550611b95565b60115481611b8a91906144a6565b905060006011819055505b60008190506000611ba4611de8565b905060008183611bb49190614b9e565b9050600082611bc1611857565b611bcb9190614b9e565b905060005b600b54811015611c6757611be381612b77565b83611bee9190614bcf565b601560008381526020019081526020016000206000828254611c1091906144a6565b92505081905550611c2081612b77565b82611c2b9190614bcf565b601660008381526020019081526020016000206000828254611c4d91906144a6565b925050819055508080611c5f906144fc565b915050611bd0565b611c6f611857565b60136000828254611c8091906144a6565b925050819055506000600f8190555042601281905550505050505050565b611ca7816113ea565b73ffffffffffffffffffffffffffffffffffffffff163373ffffffffffffffffffffffffffffffffffffffff1614611cde57600080fd5b3373ffffffffffffffffffffffffffffffffffffffff166108fc60166000848152602001908152602001600020549081150290604051600060405180830381858888f19350505050158015611d37573d6000803e3d6000fd5b506000601660008381526020019081526020016000208190555050565b6000600560008473ffffffffffffffffffffffffffffffffffffffff1673ffffffffffffffffffffffffffffffffffffffff16815260200190815260200160002060008373ffffffffffffffffffffffffffffffffffffffff1673ffffffffffffffffffffffffffffffffffffffff16815260200190815260200160002060009054906101000a900460ff16905092915050565b6000806000905060005b600b54811015611e2557611e0581612b77565b82611e1091906144a6565b91508080611e1d906144fc565b915050611df2565b819250505090565b611e35612264565b73ffffffffffffffffffffffffffffffffffffffff16611e5361182d565b73ffffffffffffffffffffffffffffffffffffffff1614611ea9576040517f08c379a0000000000000000000000000000000000000000000000000000000008152600401611ea090614a5d565b60405180910390fd5b600073ffffffffffffffffffffffffffffffffffffffff168173ffffffffffffffffffffffffffffffffffffffff161415611f19576040517f08c379a0000000000000000000000000000000000000000000000000000000008152600401611f1090614c9b565b60405180910390fd5b611f2281612770565b50565b600d54600c60009054906101000a900473ffffffffffffffffffffffffffffffffffffffff1673ffffffffffffffffffffffffffffffffffffffff166370a08231336040518263ffffffff1660e01b8152600401611f839190613bd2565b602060405180830381865afa158015611fa0573d6000803e3d6000fd5b505050506040513d601f19601f82011682018060405250810190611fc49190614cd0565b1015611fcf57600080fd5b600c60009054906101000a900473ffffffffffffffffffffffffffffffffffffffff1673ffffffffffffffffffffffffffffffffffffffff166323b872dd3330600d546040518463ffffffff1660e01b815260040161203093929190614cfd565b6020604051808303816000875af115801561204f573d6000803e3d6000fd5b505050506040513d601f19601f820116820180604052508101906120739190614583565b50600e54600d5461208491906147f8565b6010600082825461209591906144a6565b92505081905550600e54600f60008282546120b091906144a6565b9250508190555060006121026040518060400160405280600781526020017f63466f6e742023000000000000000000000000000000000000000000000000008152506120fd600b54612bf7565b612d5e565b905061210d81612d8a565b50565b60135481565b60007f80ac58cd000000000000000000000000000000000000000000000000000000007bffffffffffffffffffffffffffffffffffffffffffffffffffffffff1916827bffffffffffffffffffffffffffffffffffffffffffffffffffffffff191614806121e157507f5b5e139f000000000000000000000000000000000000000000000000000000007bffffffffffffffffffffffffffffffffffffffffffffffffffffffff1916827bffffffffffffffffffffffffffffffffffffffffffffffffffffffff1916145b806121f157506121f082613027565b5b9050919050565b60008073ffffffffffffffffffffffffffffffffffffffff166002600084815260200190815260200160002060009054906101000a900473ffffffffffffffffffffffffffffffffffffffff1673ffffffffffffffffffffffffffffffffffffffff1614159050919050565b600033905090565b816004600083815260200190815260200160002060006101000a81548173ffffffffffffffffffffffffffffffffffffffff021916908373ffffffffffffffffffffffffffffffffffffffff160217905550808273ffffffffffffffffffffffffffffffffffffffff166122df836113ea565b73ffffffffffffffffffffffffffffffffffffffff167f8c5be1e5ebec7d5bd14f71427d1e84f3dd0314c0f7b2291e5b200ac8c7c3b92560405160405180910390a45050565b6000612330826121f8565b61236f576040517f08c379a000000000000000000000000000000000000000000000000000000000815260040161236690614da6565b60405180910390fd5b600061237a836113ea565b90508073ffffffffffffffffffffffffffffffffffffffff168473ffffffffffffffffffffffffffffffffffffffff1614806123e957508373ffffffffffffffffffffffffffffffffffffffff166123d184610b69565b73ffffffffffffffffffffffffffffffffffffffff16145b806123fa57506123f98185611d54565b5b91505092915050565b8273ffffffffffffffffffffffffffffffffffffffff16612423826113ea565b73ffffffffffffffffffffffffffffffffffffffff1614612479576040517f08c379a000000000000000000000000000000000000000000000000000000000815260040161247090614e38565b60405180910390fd5b600073ffffffffffffffffffffffffffffffffffffffff168273ffffffffffffffffffffffffffffffffffffffff1614156124e9576040517f08c379a00000000000000000000000000000000000000000000000000000000081526004016124e090614eca565b60405180910390fd5b6124f4838383613091565b6124ff60008261226c565b6001600360008573ffffffffffffffffffffffffffffffffffffffff1673ffffffffffffffffffffffffffffffffffffffff168152602001908152602001600020600082825461254f91906147f8565b925050819055506001600360008473ffffffffffffffffffffffffffffffffffffffff1673ffffffffffffffffffffffffffffffffffffffff16815260200190815260200160002060008282546125a691906144a6565b92505081905550816002600083815260200190815260200160002060006101000a81548173ffffffffffffffffffffffffffffffffffffffff021916908373ffffffffffffffffffffffffffffffffffffffff160217905550808273ffffffffffffffffffffffffffffffffffffffff168473ffffffffffffffffffffffffffffffffffffffff167fddf252ad1be2c89b69c2b068fc378daa952ba7f163c4a11628f55a4df523b3ef60405160405180910390a4505050565b600061266a826113ea565b905061267881600084613091565b61268360008361226c565b6001600360008373ffffffffffffffffffffffffffffffffffffffff1673ffffffffffffffffffffffffffffffffffffffff16815260200190815260200160002060008282546126d391906147f8565b925050819055506002600083815260200190815260200160002060006101000a81549073ffffffffffffffffffffffffffffffffffffffff021916905581600073ffffffffffffffffffffffffffffffffffffffff168273ffffffffffffffffffffffffffffffffffffffff167fddf252ad1be2c89b69c2b068fc378daa952ba7f163c4a11628f55a4df523b3ef60405160405180910390a45050565b6000600a60009054906101000a900473ffffffffffffffffffffffffffffffffffffffff16905081600a60006101000a81548173ffffffffffffffffffffffffffffffffffffffff021916908373ffffffffffffffffffffffffffffffffffffffff1602179055508173ffffffffffffffffffffffffffffffffffffffff168173ffffffffffffffffffffffffffffffffffffffff167f8be0079c531659141344cd1fd0a4f28419497f9722a3daafe3b4186f6b6457e060405160405180910390a35050565b8173ffffffffffffffffffffffffffffffffffffffff168373ffffffffffffffffffffffffffffffffffffffff1614156128a5576040517f08c379a000000000000000000000000000000000000000000000000000000000815260040161289c90614f36565b60405180910390fd5b80600560008573ffffffffffffffffffffffffffffffffffffffff1673ffffffffffffffffffffffffffffffffffffffff16815260200190815260200160002060008473ffffffffffffffffffffffffffffffffffffffff1673ffffffffffffffffffffffffffffffffffffffff16815260200190815260200160002060006101000a81548160ff0219169083151502179055508173ffffffffffffffffffffffffffffffffffffffff168373ffffffffffffffffffffffffffffffffffffffff167f17307eab39ab6107e8899845ad3d59bd9653f200f220920489ca2b5937696c31836040516129969190613a2e565b60405180910390a3505050565b6129ae848484612403565b6129ba848484846131a5565b6129f9576040517f08c379a00000000000000000000000000000000000000000000000000000000081526004016129f090614fc8565b60405180910390fd5b50505050565b606060405180602001604052806000815250905090565b60606000821415612a5e576040518060400160405280600181526020017f30000000000000000000000000000000000000000000000000000000000000008152509050612b72565b600082905060005b60008214612a90578080612a79906144fc565b915050600a82612a899190614b9e565b9150612a66565b60008167ffffffffffffffff811115612aac57612aab61411c565b5b6040519080825280601f01601f191660200182016040528015612ade5781602001600182028036833780820191505090505b5090505b60008514612b6b57600182612af791906147f8565b9150600a85612b069190614fe8565b6030612b1291906144a6565b60f81b818381518110612b2857612b2761482c565b5b60200101907effffffffffffffffffffffffffffffffffffffffffffffffffffffffffffff1916908160001a905350600a85612b649190614b9e565b9450612ae2565b8093505050505b919050565b6000806000905060178381548110612b9257612b9161482c565b5b906000526020600020906008020160070160009054906101000a900460ff16612bee5760178381548110612bc957612bc861482c565b5b906000526020600020906008020160030160009054906101000a900460ff1660ff1690505b80915050919050565b60606000821415612c3f576040518060400160405280600181526020017f30000000000000000000000000000000000000000000000000000000000000008152509050612d59565b600082905060005b60008214612c71578080612c5a906144fc565b915050600a82612c6a9190614b9e565b9150612c47565b60008167ffffffffffffffff811115612c8d57612c8c61411c565b5b6040519080825280601f01601f191660200182016040528015612cbf5781602001600182028036833780820191505090505b50905060008290508593505b60008414612d5157600a84612ce09190614fe8565b6030612cec91906144a6565b60f81b8282612cfa90615019565b92508281518110612d0e57612d0d61482c565b5b60200101907effffffffffffffffffffffffffffffffffffffffffffffffffffffffffffff1916908160001a905350600a84612d4a9190614b9e565b9350612ccb565b819450505050505b919050565b60608282604051602001612d73929190614b4b565b604051602081830303815290604052905092915050565b60006001612d98606461332d565b612da29190615043565b90506000612db6662386f26fc1000061332d565b90506000612dca662386f26fc1000061332d565b905060006001612ddb61271061332d565b612de591906144a6565b90506000600a612df5608c61332d565b612dff91906144a6565b9050600060019050600042905060298760ff161015612e3f5760029150600b8760ff161015612e3e576003915060028260ff161015612e3d57600491505b5b5b60006040518061012001604052808a8152602001600b5481526020018881526020018460ff1681526020018781526020018661ffff1681526020018560ff16815260200183815260200160001515815250905060178190806001815401808255809150506001900390600052602060002090600802016000909190919091506000820151816000019080519060200190612eda9291906138d7565b50602082015181600101556040820151816002015560608201518160030160006101000a81548160ff021916908360ff1602179055506080820151816004015560a08201518160050160006101000a81548161ffff021916908361ffff16021790555060c08201518160050160026101000a81548160ff021916908360ff16021790555060e082015181600601556101008201518160070160006101000a81548160ff0219169083151502179055505050600060156000600b54815260200190815260200160002081905550612fb233600b54613372565b3373ffffffffffffffffffffffffffffffffffffffff167fe6b5d2375ea5860192277472eed072ebc6805abc7699b637dfe1e4806126208a600b5489604051612ffc92919061507a565b60405180910390a2600b6000815480929190613017906144fc565b9190505550505050505050505050565b60007f01ffc9a7000000000000000000000000000000000000000000000000000000007bffffffffffffffffffffffffffffffffffffffffffffffffffffffff1916827bffffffffffffffffffffffffffffffffffffffffffffffffffffffff1916149050919050565b61309c838383613390565b600073ffffffffffffffffffffffffffffffffffffffff168373ffffffffffffffffffffffffffffffffffffffff1614156130df576130da81613395565b61311e565b8173ffffffffffffffffffffffffffffffffffffffff168373ffffffffffffffffffffffffffffffffffffffff161461311d5761311c83826133de565b5b5b600073ffffffffffffffffffffffffffffffffffffffff168273ffffffffffffffffffffffffffffffffffffffff1614156131615761315c8161354b565b6131a0565b8273ffffffffffffffffffffffffffffffffffffffff168273ffffffffffffffffffffffffffffffffffffffff161461319f5761319e828261361c565b5b5b505050565b60006131c68473ffffffffffffffffffffffffffffffffffffffff1661369b565b15613320578373ffffffffffffffffffffffffffffffffffffffff1663150b7a026131ef612264565b8786866040518563ffffffff1660e01b815260040161321194939291906150f8565b6020604051808303816000875af192505050801561324d57506040513d601f19601f8201168201806040525081019061324a9190615159565b60015b6132d0573d806000811461327d576040519150601f19603f3d011682016040523d82523d6000602084013e613282565b606091505b506000815114156132c8576040517f08c379a00000000000000000000000000000000000000000000000000000000081526004016132bf90614fc8565b60405180910390fd5b805181602001fd5b63150b7a0260e01b7bffffffffffffffffffffffffffffffffffffffffffffffffffffffff1916817bffffffffffffffffffffffffffffffffffffffffffffffffffffffff191614915050613325565b600190505b949350505050565b60008042336040516020016133439291906151ef565b6040516020818303038152906040528051906020012060001c9050828161336a9190614fe8565b915050919050565b61338c8282604051806020016040528060008152506136ae565b5050565b505050565b6008805490506009600083815260200190815260200160002081905550600881908060018154018082558091505060019003906000526020600020016000909190919091505550565b600060016133eb84611637565b6133f591906147f8565b90506000600760008481526020019081526020016000205490508181146134da576000600660008673ffffffffffffffffffffffffffffffffffffffff1673ffffffffffffffffffffffffffffffffffffffff168152602001908152602001600020600084815260200190815260200160002054905080600660008773ffffffffffffffffffffffffffffffffffffffff1673ffffffffffffffffffffffffffffffffffffffff168152602001908152602001600020600084815260200190815260200160002081905550816007600083815260200190815260200160002081905550505b6007600084815260200190815260200160002060009055600660008573ffffffffffffffffffffffffffffffffffffffff1673ffffffffffffffffffffffffffffffffffffffff16815260200190815260200160002060008381526020019081526020016000206000905550505050565b6000600160088054905061355f91906147f8565b905060006009600084815260200190815260200160002054905060006008838154811061358f5761358e61482c565b5b9060005260206000200154905080600883815481106135b1576135b061482c565b5b906000526020600020018190555081600960008381526020019081526020016000208190555060096000858152602001908152602001600020600090556008805480613600576135ff61521b565b5b6001900381819060005260206000200160009055905550505050565b600061362783611637565b905081600660008573ffffffffffffffffffffffffffffffffffffffff1673ffffffffffffffffffffffffffffffffffffffff168152602001908152602001600020600083815260200190815260200160002081905550806007600084815260200190815260200160002081905550505050565b600080823b905060008111915050919050565b6136b88383613709565b6136c560008484846131a5565b613704576040517f08c379a00000000000000000000000000000000000000000000000000000000081526004016136fb90614fc8565b60405180910390fd5b505050565b600073ffffffffffffffffffffffffffffffffffffffff168273ffffffffffffffffffffffffffffffffffffffff161415613779576040517f08c379a000000000000000000000000000000000000000000000000000000000815260040161377090615296565b60405180910390fd5b613782816121f8565b156137c2576040517f08c379a00000000000000000000000000000000000000000000000000000000081526004016137b990615302565b60405180910390fd5b6137ce60008383613091565b6001600360008473ffffffffffffffffffffffffffffffffffffffff1673ffffffffffffffffffffffffffffffffffffffff168152602001908152602001600020600082825461381e91906144a6565b92505081905550816002600083815260200190815260200160002060006101000a81548173ffffffffffffffffffffffffffffffffffffffff021916908373ffffffffffffffffffffffffffffffffffffffff160217905550808273ffffffffffffffffffffffffffffffffffffffff16600073ffffffffffffffffffffffffffffffffffffffff167fddf252ad1be2c89b69c2b068fc378daa952ba7f163c4a11628f55a4df523b3ef60405160405180910390a45050565b8280546138e3906143b3565b90600052602060002090601f016020900481019282613905576000855561394c565b82601f1061391e57805160ff191683800117855561394c565b8280016001018555821561394c579182015b8281111561394b578251825591602001919060010190613930565b5b509050613959919061395d565b5090565b5b8082111561397657600081600090555060010161395e565b5090565b6000604051905090565b600080fd5b600080fd5b60007fffffffff0000000000000000000000000000000000000000000000000000000082169050919050565b6139c38161398e565b81146139ce57600080fd5b50565b6000813590506139e0816139ba565b92915050565b6000602082840312156139fc576139fb613984565b5b6000613a0a848285016139d1565b91505092915050565b60008115159050919050565b613a2881613a13565b82525050565b6000602082019050613a436000830184613a1f565b92915050565b6000819050919050565b613a5c81613a49565b8114613a6757600080fd5b50565b600081359050613a7981613a53565b92915050565b600060208284031215613a9557613a94613984565b5b6000613aa384828501613a6a565b91505092915050565b613ab581613a49565b82525050565b6000602082019050613ad06000830184613aac565b92915050565b600081519050919050565b600082825260208201905092915050565b60005b83811015613b10578082015181840152602081019050613af5565b83811115613b1f576000848401525b50505050565b6000601f19601f8301169050919050565b6000613b4182613ad6565b613b4b8185613ae1565b9350613b5b818560208601613af2565b613b6481613b25565b840191505092915050565b60006020820190508181036000830152613b898184613b36565b905092915050565b600073ffffffffffffffffffffffffffffffffffffffff82169050919050565b6000613bbc82613b91565b9050919050565b613bcc81613bb1565b82525050565b6000602082019050613be76000830184613bc3565b92915050565b613bf681613bb1565b8114613c0157600080fd5b50565b600081359050613c1381613bed565b92915050565b60008060408385031215613c3057613c2f613984565b5b6000613c3e85828601613c04565b9250506020613c4f85828601613a6a565b9150509250929050565b600080600060608486031215613c7257613c71613984565b5b6000613c8086828701613c04565b9350506020613c9186828701613c04565b9250506040613ca286828701613a6a565b9150509250925092565b600060ff82169050919050565b613cc281613cac565b82525050565b600061ffff82169050919050565b613cdf81613cc8565b82525050565b6000610120820190508181036000830152613d00818c613b36565b9050613d0f602083018b613aac565b613d1c604083018a613aac565b613d296060830189613cb9565b613d366080830188613aac565b613d4360a0830187613cd6565b613d5060c0830186613cb9565b613d5d60e0830185613aac565b613d6b610100830184613a1f565b9a9950505050505050505050565b600081519050919050565b600082825260208201905092915050565b6000819050602082019050919050565b600082825260208201905092915050565b6000613dc182613ad6565b613dcb8185613da5565b9350613ddb818560208601613af2565b613de481613b25565b840191505092915050565b613df881613a49565b82525050565b613e0781613cac565b82525050565b613e1681613cc8565b82525050565b613e2581613a13565b82525050565b6000610120830160008301518482036000860152613e498282613db6565b9150506020830151613e5e6020860182613def565b506040830151613e716040860182613def565b506060830151613e846060860182613dfe565b506080830151613e976080860182613def565b5060a0830151613eaa60a0860182613e0d565b5060c0830151613ebd60c0860182613dfe565b5060e0830151613ed060e0860182613def565b50610100830151613ee5610100860182613e1c565b508091505092915050565b6000613efc8383613e2b565b905092915050565b6000602082019050919050565b6000613f1c82613d79565b613f268185613d84565b935083602082028501613f3885613d95565b8060005b85811015613f745784840389528151613f558582613ef0565b9450613f6083613f04565b925060208a01995050600181019050613f3c565b50829750879550505050505092915050565b60006020820190508181036000830152613fa08184613f11565b905092915050565b600060208284031215613fbe57613fbd613984565b5b6000613fcc84828501613c04565b91505092915050565b600081519050919050565b600082825260208201905092915050565b6000819050602082019050919050565b600061400d8383613def565b60208301905092915050565b6000602082019050919050565b600061403182613fd5565b61403b8185613fe0565b935061404683613ff1565b8060005b8381101561407757815161405e8882614001565b975061406983614019565b92505060018101905061404a565b5085935050505092915050565b6000602082019050818103600083015261409e8184614026565b905092915050565b6140af81613a13565b81146140ba57600080fd5b50565b6000813590506140cc816140a6565b92915050565b600080604083850312156140e9576140e8613984565b5b60006140f785828601613c04565b9250506020614108858286016140bd565b9150509250929050565b600080fd5b600080fd5b7f4e487b7100000000000000000000000000000000000000000000000000000000600052604160045260246000fd5b61415482613b25565b810181811067ffffffffffffffff821117156141735761417261411c565b5b80604052505050565b600061418661397a565b9050614192828261414b565b919050565b600067ffffffffffffffff8211156141b2576141b161411c565b5b6141bb82613b25565b9050602081019050919050565b82818337600083830152505050565b60006141ea6141e584614197565b61417c565b90508281526020810184848401111561420657614205614117565b5b6142118482856141c8565b509392505050565b600082601f83011261422e5761422d614112565b5b813561423e8482602086016141d7565b91505092915050565b6000806000806080858703121561426157614260613984565b5b600061426f87828801613c04565b945050602061428087828801613c04565b935050604061429187828801613a6a565b925050606085013567ffffffffffffffff8111156142b2576142b1613989565b5b6142be87828801614219565b91505092959194509250565b6000819050919050565b60006142ef6142ea6142e584613b91565b6142ca565b613b91565b9050919050565b6000614301826142d4565b9050919050565b6000614313826142f6565b9050919050565b61432381614308565b82525050565b600060208201905061433e600083018461431a565b92915050565b6000806040838503121561435b5761435a613984565b5b600061436985828601613c04565b925050602061437a85828601613c04565b9150509250929050565b7f4e487b7100000000000000000000000000000000000000000000000000000000600052602260045260246000fd5b600060028204905060018216806143cb57607f821691505b602082108114156143df576143de614384565b5b50919050565b7f4552433732313a20617070726f76656420717565727920666f72206e6f6e657860008201527f697374656e7420746f6b656e0000000000000000000000000000000000000000602082015250565b6000614441602c83613ae1565b915061444c826143e5565b604082019050919050565b6000602082019050818103600083015261447081614434565b9050919050565b7f4e487b7100000000000000000000000000000000000000000000000000000000600052601160045260246000fd5b60006144b182613a49565b91506144bc83613a49565b9250827fffffffffffffffffffffffffffffffffffffffffffffffffffffffffffffffff038211156144f1576144f0614477565b5b828201905092915050565b600061450782613a49565b91507fffffffffffffffffffffffffffffffffffffffffffffffffffffffffffffffff82141561453a57614539614477565b5b600182019050919050565b600060408201905061455a6000830185613bc3565b6145676020830184613aac565b9392505050565b60008151905061457d816140a6565b92915050565b60006020828403121561459957614598613984565b5b60006145a78482850161456e565b91505092915050565b7f4552433732313a20617070726f76616c20746f2063757272656e74206f776e6560008201527f7200000000000000000000000000000000000000000000000000000000000000602082015250565b600061460c602183613ae1565b9150614617826145b0565b604082019050919050565b6000602082019050818103600083015261463b816145ff565b9050919050565b7f4552433732313a20617070726f76652063616c6c6572206973206e6f74206f7760008201527f6e6572206e6f7220617070726f76656420666f7220616c6c0000000000000000602082015250565b600061469e603883613ae1565b91506146a982614642565b604082019050919050565b600060208201905081810360008301526146cd81614691565b9050919050565b7f4552433732313a207472616e736665722063616c6c6572206973206e6f74206f60008201527f776e6572206e6f7220617070726f766564000000000000000000000000000000602082015250565b6000614730603183613ae1565b915061473b826146d4565b604082019050919050565b6000602082019050818103600083015261475f81614723565b9050919050565b7f455243373231456e756d657261626c653a206f776e657220696e646578206f7560008201527f74206f6620626f756e6473000000000000000000000000000000000000000000602082015250565b60006147c2602b83613ae1565b91506147cd82614766565b604082019050919050565b600060208201905081810360008301526147f1816147b5565b9050919050565b600061480382613a49565b915061480e83613a49565b92508282101561482157614820614477565b5b828203905092915050565b7f4e487b7100000000000000000000000000000000000000000000000000000000600052603260045260246000fd5b7f455243373231456e756d657261626c653a20676c6f62616c20696e646578206f60008201527f7574206f6620626f756e64730000000000000000000000000000000000000000602082015250565b60006148b7602c83613ae1565b91506148c28261485b565b604082019050919050565b600060208201905081810360008301526148e6816148aa565b9050919050565b7f4552433732313a206f776e657220717565727920666f72206e6f6e657869737460008201527f656e7420746f6b656e0000000000000000000000000000000000000000000000602082015250565b6000614949602983613ae1565b9150614954826148ed565b604082019050919050565b600060208201905081810360008301526149788161493c565b9050919050565b7f4552433732313a2062616c616e636520717565727920666f7220746865207a6560008201527f726f206164647265737300000000000000000000000000000000000000000000602082015250565b60006149db602a83613ae1565b91506149e68261497f565b604082019050919050565b60006020820190508181036000830152614a0a816149ce565b9050919050565b7f4f776e61626c653a2063616c6c6572206973206e6f7420746865206f776e6572600082015250565b6000614a47602083613ae1565b9150614a5282614a11565b602082019050919050565b60006020820190508181036000830152614a7681614a3a565b9050919050565b7f4552433732314d657461646174613a2055524920717565727920666f72206e6f60008201527f6e6578697374656e7420746f6b656e0000000000000000000000000000000000602082015250565b6000614ad9602f83613ae1565b9150614ae482614a7d565b604082019050919050565b60006020820190508181036000830152614b0881614acc565b9050919050565b600081905092915050565b6000614b2582613ad6565b614b2f8185614b0f565b9350614b3f818560208601613af2565b80840191505092915050565b6000614b578285614b1a565b9150614b638284614b1a565b91508190509392505050565b7f4e487b7100000000000000000000000000000000000000000000000000000000600052601260045260246000fd5b6000614ba982613a49565b9150614bb483613a49565b925082614bc457614bc3614b6f565b5b828204905092915050565b6000614bda82613a49565b9150614be583613a49565b9250817fffffffffffffffffffffffffffffffffffffffffffffffffffffffffffffffff0483118215151615614c1e57614c1d614477565b5b828202905092915050565b7f4f776e61626c653a206e6577206f776e657220697320746865207a65726f206160008201527f6464726573730000000000000000000000000000000000000000000000000000602082015250565b6000614c85602683613ae1565b9150614c9082614c29565b604082019050919050565b60006020820190508181036000830152614cb481614c78565b9050919050565b600081519050614cca81613a53565b92915050565b600060208284031215614ce657614ce5613984565b5b6000614cf484828501614cbb565b91505092915050565b6000606082019050614d126000830186613bc3565b614d1f6020830185613bc3565b614d2c6040830184613aac565b949350505050565b7f4552433732313a206f70657261746f7220717565727920666f72206e6f6e657860008201527f697374656e7420746f6b656e0000000000000000000000000000000000000000602082015250565b6000614d90602c83613ae1565b9150614d9b82614d34565b604082019050919050565b60006020820190508181036000830152614dbf81614d83565b9050919050565b7f4552433732313a207472616e73666572206f6620746f6b656e2074686174206960008201527f73206e6f74206f776e0000000000000000000000000000000000000000000000602082015250565b6000614e22602983613ae1565b9150614e2d82614dc6565b604082019050919050565b60006020820190508181036000830152614e5181614e15565b9050919050565b7f4552433732313a207472616e7366657220746f20746865207a65726f2061646460008201527f7265737300000000000000000000000000000000000000000000000000000000602082015250565b6000614eb4602483613ae1565b9150614ebf82614e58565b604082019050919050565b60006020820190508181036000830152614ee381614ea7565b9050919050565b7f4552433732313a20617070726f766520746f2063616c6c657200000000000000600082015250565b6000614f20601983613ae1565b9150614f2b82614eea565b602082019050919050565b60006020820190508181036000830152614f4f81614f13565b9050919050565b7f4552433732313a207472616e7366657220746f206e6f6e20455243373231526560008201527f63656976657220696d706c656d656e7465720000000000000000000000000000602082015250565b6000614fb2603283613ae1565b9150614fbd82614f56565b604082019050919050565b60006020820190508181036000830152614fe181614fa5565b9050919050565b6000614ff382613a49565b9150614ffe83613a49565b92508261500e5761500d614b6f565b5b828206905092915050565b600061502482613a49565b9150600082141561503857615037614477565b5b600182039050919050565b600061504e82613cac565b915061505983613cac565b92508260ff0382111561506f5761506e614477565b5b828201905092915050565b600060408201905061508f6000830185613aac565b61509c6020830184613aac565b9392505050565b600081519050919050565b600082825260208201905092915050565b60006150ca826150a3565b6150d481856150ae565b93506150e4818560208601613af2565b6150ed81613b25565b840191505092915050565b600060808201905061510d6000830187613bc3565b61511a6020830186613bc3565b6151276040830185613aac565b818103606083015261513981846150bf565b905095945050505050565b600081519050615153816139ba565b92915050565b60006020828403121561516f5761516e613984565b5b600061517d84828501615144565b91505092915050565b6000819050919050565b6151a161519c82613a49565b615186565b82525050565b60008160601b9050919050565b60006151bf826151a7565b9050919050565b60006151d1826151b4565b9050919050565b6151e96151e482613bb1565b6151c6565b82525050565b60006151fb8285615190565b60208201915061520b82846151d8565b6014820191508190509392505050565b7f4e487b7100000000000000000000000000000000000000000000000000000000600052603160045260246000fd5b7f4552433732313a206d696e7420746f20746865207a65726f2061646472657373600082015250565b6000615280602083613ae1565b915061528b8261524a565b602082019050919050565b600060208201905081810360008301526152af81615273565b9050919050565b7f4552433732313a20746f6b656e20616c7265616479206d696e74656400000000600082015250565b60006152ec601c83613ae1565b91506152f7826152b6565b602082019050919050565b6000602082019050818103600083015261531b816152df565b905091905056fea264697066735822122067105aca35019c00b8b9ab4c9bdec2c34b60798c21e1863406324c0082909bf064736f6c634300080a0033",
  "immutableReferences": {},
  "source": "// SPDX-License-Identifier: MIT\n\npragma solidity ^0.8.0;\n\nimport \"@openzeppelin/contracts/token/ERC721/ERC721.sol\";\nimport \"@openzeppelin/contracts/access/Ownable.sol\";\nimport \"@openzeppelin/contracts/token/ERC721/extensions/ERC721Enumerable.sol\";\nimport \"@openzeppelin/contracts/token/ERC20/IERC20.sol\";\n\ncontract cryptoFont is ERC721Enumerable, Ownable  {\n    uint256 COUNTER = 0;\n    IERC20 public eBitcoin;\n    uint256 public cost = 100 * 10**18;\n    uint256 public fee = cost * 20 / 100;\n    uint256 public feePool;\n    uint256 public rewardPool;\n    uint256 public miningPool;\n    uint256 public pastDistributedReward;\n    uint256 public distributedEthers;\n    uint public daysToDistribute;\n\n    mapping(uint256 => uint256) public tokenToReward;\n    mapping(uint256 => uint256) public tokenToEthers;\n\n    struct cFont {\n        string name;\n        uint256 id;\n        uint256 dna;\n        uint8 rarity;\n        uint256 Stat;\n        uint16 Power;\n        uint8 Size;\n        uint256 mintDate;\n        bool burn;\n    }\n\n    cFont[] public cFonts;\n\n    event NewcFont(address indexed owner, uint256 id, uint dna);\n\n    function _createRandomNum(uint256 _mod) internal view returns(uint256){\n        uint256 randomNum = uint256(keccak256(abi.encodePacked(block.timestamp, msg.sender)));\n        return randomNum % _mod;\n    }\n\n    constructor(address eBitcoinAddress)\n        ERC721(\"Crypto Font\", \"cFont\")\n    {\n        eBitcoin = IERC20(eBitcoinAddress);\n        pastDistributedReward = block.timestamp;\n    }\n\n    function uint2str(uint256 _i) internal pure returns (string memory str){\n        if (_i == 0){\n            return \"0\";\n        }\n        uint256 j = _i;\n        uint256 length;\n        while (j != 0)\n        {\n            length++;\n            j /= 10;\n        }\n        bytes memory bstr = new bytes(length);\n        uint256 k = length;\n        j = _i;\n        while (j != 0)\n        {\n            bstr[--k] = bytes1(uint8(48 + j % 10));\n            j /= 10;\n        }\n        str = string(bstr);\n    }\n\n    function concatenate(string memory s1, string memory s2) internal pure returns (string memory) {\n        return string(abi.encodePacked(s1, s2));\n    }\n\n    function _createcFont(string memory _name) internal{\n        uint8 randRarity = uint8(_createRandomNum(100)) + 1;\n        uint256 randDna = _createRandomNum(10**16);\n        uint256 randStat = _createRandomNum(10**16);\n        uint16 randPower = uint16(_createRandomNum(10000) + 1);\n        uint8 randSize = uint8(_createRandomNum(140) + 10);\n        uint8 rarity = 1;\n        uint256 mint_date = block.timestamp;\n\n        if(randRarity < 41){\n            rarity = 2;\n            if(randRarity < 11){\n                rarity = 3;\n                if(rarity <2){\n                    rarity = 4;\n                }\n            }\n        }\n        \n        cFont memory newcFont = cFont(_name, COUNTER, randDna, rarity, randStat, randPower,randSize,mint_date,false);\n        cFonts.push(newcFont);\n        tokenToReward[COUNTER] = 0;\n        _safeMint(msg.sender, COUNTER);\n        emit NewcFont(msg.sender,COUNTER, randDna);\n        COUNTER++;\n    }\n\n    function createRandomcFont() public{\n        require(eBitcoin.balanceOf(msg.sender) >= cost);\n        eBitcoin.transferFrom(msg.sender,address(this), cost);\n        rewardPool+= (cost-fee);\n        feePool+=fee;\n        string memory name = concatenate(\"cFont #\",uint2str(COUNTER));\n        _createcFont(name);\n    }\n\n    function reverseSwap(uint256 id) public{\n        require(ownerOf(id) == msg.sender);\n        _burn(id);\n        eBitcoin.transfer(msg.sender, (cost - fee));\n        cFonts[id].burn = true;\n    }\n\n    function getcFonts() public view returns(cFont[] memory) {\n        return cFonts;\n    }\n\n    function _getRarity(uint256 id) internal view returns(uint256){\n        uint256 rarity = 0;\n        if(!cFonts[id].burn){\n                rarity=cFonts[id].rarity;\n            }\n            return rarity;\n    }\n\n\n    function countAllRarity() public view returns(uint256){\n        uint256 rarity = 0;\n        uint256 i;\n        for (i=0;i<COUNTER;i++){\n            rarity+=_getRarity(i);\n        }\n        \n        return rarity;\n    }\n\n    function remainingEthers() public view returns(uint256){\n        return address(this).balance - distributedEthers;\n    }\n\n    function DistributeReward() public{\n        require(block.timestamp > pastDistributedReward);\n        uint256 amount = feePool;\n\n        if(miningPool > feePool){\n            amount += feePool;\n            miningPool -= feePool;\n        }\n        else{\n            amount += miningPool;\n            miningPool = 0;\n        }\n\n        uint256 reward = amount;\n        uint256 allRare = countAllRarity();\n        uint256 rewardPerRare =  reward / allRare;\n        uint256 ethersPerRare = remainingEthers() / allRare;\n        uint256 i;\n        for(i=0; i<COUNTER;i++){\n            tokenToReward[i] += rewardPerRare * _getRarity(i);\n            tokenToEthers[i] += ethersPerRare * _getRarity(i);\n        }\n\n        distributedEthers += remainingEthers();\n        feePool = 0;\n        pastDistributedReward = block.timestamp;\n    }\n\n    function showEthers() public view returns(uint256){\n        uint256 reward = 0;\n        for(uint256 i =0; i< balanceOf(msg.sender); i++){\n            reward += tokenToEthers[tokenOfOwnerByIndex(msg.sender, i)];\n        }\n        return reward;\n    }\n\n    function getEthers(uint id) public{\n        require(msg.sender == ownerOf(id));\n        payable(msg.sender).transfer(tokenToEthers[id]);\n        tokenToEthers[id] = 0;\n    }\n\n    function getAllEthers() public{\n        uint256 reward = 0;\n        for(uint256 i = 0;i< balanceOf(msg.sender); i++){\n            reward += tokenToEthers[tokenOfOwnerByIndex(msg.sender, i)];\n            tokenToEthers[tokenOfOwnerByIndex(msg.sender, i)] = 0;\n        }\n        payable(msg.sender).transfer(reward);\n    }\n\n    receive() external payable {}\n\n    function showReward() public view returns(uint256){\n        uint256 reward = 0;\n        for(uint256 i =0; i< balanceOf(msg.sender); i++){\n            reward += tokenToReward[tokenOfOwnerByIndex(msg.sender, i)];\n        }\n        return reward;\n    }\n\n    function getReward(uint id) public{\n        require(msg.sender == ownerOf(id));\n        eBitcoin.transfer(msg.sender, tokenToReward[id]);\n        tokenToReward[id] = 0;\n    }\n\n    function getAllReward() public{\n        uint256 reward = 0;\n        for(uint256 i = 0;i< balanceOf(msg.sender); i++){\n            reward += tokenToReward[tokenOfOwnerByIndex(msg.sender, i)];\n            tokenToReward[tokenOfOwnerByIndex(msg.sender, i)] = 0;\n        }\n        eBitcoin.transfer(msg.sender, reward);\n    }\n\n\n    function getIdsOfOwner(address _owner) public view returns (uint[] memory) {\n        uint[] memory _tokensOfOwner = new uint[](ERC721.balanceOf(_owner));\n        uint i;\n\n        for (i=0;i<ERC721.balanceOf(_owner);i++){\n            _tokensOfOwner[i] = ERC721Enumerable.tokenOfOwnerByIndex(_owner, i);\n        }\n        return (_tokensOfOwner);\n    }\n}",
  "sourcePath": "/Users/jarupaksrisuchat/Documents/github/crypto-font/contracts/cFont.sol",
  "compiler": {
    "name": "solc",
    "version": "0.8.10+commit.fc410830.Emscripten.clang"
  },
  "schemaVersion": "3.4.3",
  "updatedAt": "2021-12-16T21:18:32.458Z",
  "networkType": "ethereum",
  "devdoc": {
    "kind": "dev",
    "methods": {
      "approve(address,uint256)": {
        "details": "See {IERC721-approve}."
      },
      "balanceOf(address)": {
        "details": "See {IERC721-balanceOf}."
      },
      "getApproved(uint256)": {
        "details": "See {IERC721-getApproved}."
      },
      "isApprovedForAll(address,address)": {
        "details": "See {IERC721-isApprovedForAll}."
      },
      "name()": {
        "details": "See {IERC721Metadata-name}."
      },
      "owner()": {
        "details": "Returns the address of the current owner."
      },
      "ownerOf(uint256)": {
        "details": "See {IERC721-ownerOf}."
      },
      "renounceOwnership()": {
        "details": "Leaves the contract without owner. It will not be possible to call `onlyOwner` functions anymore. Can only be called by the current owner. NOTE: Renouncing ownership will leave the contract without an owner, thereby removing any functionality that is only available to the owner."
      },
      "safeTransferFrom(address,address,uint256)": {
        "details": "See {IERC721-safeTransferFrom}."
      },
      "safeTransferFrom(address,address,uint256,bytes)": {
        "details": "See {IERC721-safeTransferFrom}."
      },
      "setApprovalForAll(address,bool)": {
        "details": "See {IERC721-setApprovalForAll}."
      },
      "supportsInterface(bytes4)": {
        "details": "See {IERC165-supportsInterface}."
      },
      "symbol()": {
        "details": "See {IERC721Metadata-symbol}."
      },
      "tokenByIndex(uint256)": {
        "details": "See {IERC721Enumerable-tokenByIndex}."
      },
      "tokenOfOwnerByIndex(address,uint256)": {
        "details": "See {IERC721Enumerable-tokenOfOwnerByIndex}."
      },
      "tokenURI(uint256)": {
        "details": "See {IERC721Metadata-tokenURI}."
      },
      "totalSupply()": {
        "details": "See {IERC721Enumerable-totalSupply}."
      },
      "transferFrom(address,address,uint256)": {
        "details": "See {IERC721-transferFrom}."
      },
      "transferOwnership(address)": {
        "details": "Transfers ownership of the contract to a new account (`newOwner`). Can only be called by the current owner."
      }
    },
    "version": 1
  },
  "userdoc": {
    "kind": "user",
    "methods": {},
    "version": 1
  }
}