{
  "contractName": "cryptoFont",
  "abi": [
    {
      "inputs": [
        {
          "internalType": "address",
          "name": "eBitcoinAddress",
          "type": "address"
        }
      ],
      "stateMutability": "nonpayable",
      "type": "constructor"
    },
    {
      "anonymous": false,
      "inputs": [
        {
          "indexed": true,
          "internalType": "address",
          "name": "owner",
          "type": "address"
        },
        {
          "indexed": true,
          "internalType": "address",
          "name": "approved",
          "type": "address"
        },
        {
          "indexed": true,
          "internalType": "uint256",
          "name": "tokenId",
          "type": "uint256"
        }
      ],
      "name": "Approval",
      "type": "event"
    },
    {
      "anonymous": false,
      "inputs": [
        {
          "indexed": true,
          "internalType": "address",
          "name": "owner",
          "type": "address"
        },
        {
          "indexed": true,
          "internalType": "address",
          "name": "operator",
          "type": "address"
        },
        {
          "indexed": false,
          "internalType": "bool",
          "name": "approved",
          "type": "bool"
        }
      ],
      "name": "ApprovalForAll",
      "type": "event"
    },
    {
      "anonymous": false,
      "inputs": [
        {
          "indexed": true,
          "internalType": "address",
          "name": "owner",
          "type": "address"
        },
        {
          "indexed": false,
          "internalType": "uint256",
          "name": "id",
          "type": "uint256"
        },
        {
          "indexed": false,
          "internalType": "uint256",
          "name": "dna",
          "type": "uint256"
        }
      ],
      "name": "NewcFont",
      "type": "event"
    },
    {
      "anonymous": false,
      "inputs": [
        {
          "indexed": true,
          "internalType": "address",
          "name": "from",
          "type": "address"
        },
        {
          "indexed": true,
          "internalType": "address",
          "name": "to",
          "type": "address"
        },
        {
          "indexed": true,
          "internalType": "uint256",
          "name": "tokenId",
          "type": "uint256"
        }
      ],
      "name": "Transfer",
      "type": "event"
    },
    {
      "inputs": [],
      "name": "_feePool",
      "outputs": [
        {
          "internalType": "uint256",
          "name": "",
          "type": "uint256"
        }
      ],
      "stateMutability": "view",
      "type": "function",
      "constant": true
    },
    {
      "inputs": [],
      "name": "_pastDistributedReward",
      "outputs": [
        {
          "internalType": "uint256",
          "name": "",
          "type": "uint256"
        }
      ],
      "stateMutability": "view",
      "type": "function",
      "constant": true
    },
    {
      "inputs": [],
      "name": "allRarityBurn",
      "outputs": [
        {
          "internalType": "uint256",
          "name": "",
          "type": "uint256"
        }
      ],
      "stateMutability": "view",
      "type": "function",
      "constant": true
    },
    {
      "inputs": [
        {
          "internalType": "address",
          "name": "to",
          "type": "address"
        },
        {
          "internalType": "uint256",
          "name": "tokenId",
          "type": "uint256"
        }
      ],
      "name": "approve",
      "outputs": [],
      "stateMutability": "nonpayable",
      "type": "function"
    },
    {
      "inputs": [
        {
          "internalType": "address",
          "name": "owner",
          "type": "address"
        }
      ],
      "name": "balanceOf",
      "outputs": [
        {
          "internalType": "uint256",
          "name": "",
          "type": "uint256"
        }
      ],
      "stateMutability": "view",
      "type": "function",
      "constant": true
    },
    {
      "inputs": [
        {
          "internalType": "address",
          "name": "",
          "type": "address"
        }
      ],
      "name": "burnCounter",
      "outputs": [
        {
          "internalType": "uint256",
          "name": "",
          "type": "uint256"
        }
      ],
      "stateMutability": "view",
      "type": "function",
      "constant": true
    },
    {
      "inputs": [
        {
          "internalType": "uint256",
          "name": "",
          "type": "uint256"
        }
      ],
      "name": "cFonts",
      "outputs": [
        {
          "internalType": "string",
          "name": "name",
          "type": "string"
        },
        {
          "internalType": "uint256",
          "name": "id",
          "type": "uint256"
        },
        {
          "internalType": "uint256",
          "name": "dna",
          "type": "uint256"
        },
        {
          "internalType": "uint8",
          "name": "rarity",
          "type": "uint8"
        },
        {
          "internalType": "uint16",
          "name": "power",
          "type": "uint16"
        },
        {
          "internalType": "uint8",
          "name": "size",
          "type": "uint8"
        },
        {
          "internalType": "uint256",
          "name": "mintDate",
          "type": "uint256"
        },
        {
          "internalType": "bool",
          "name": "burn",
          "type": "bool"
        }
      ],
      "stateMutability": "view",
      "type": "function",
      "constant": true
    },
    {
      "inputs": [],
      "name": "eBitcoin",
      "outputs": [
        {
          "internalType": "contract IEBTC",
          "name": "",
          "type": "address"
        }
      ],
      "stateMutability": "view",
      "type": "function",
      "constant": true
    },
    {
      "inputs": [
        {
          "internalType": "uint256",
          "name": "tokenId",
          "type": "uint256"
        }
      ],
      "name": "getApproved",
      "outputs": [
        {
          "internalType": "address",
          "name": "",
          "type": "address"
        }
      ],
      "stateMutability": "view",
      "type": "function",
      "constant": true
    },
    {
      "inputs": [
        {
          "internalType": "address",
          "name": "owner",
          "type": "address"
        },
        {
          "internalType": "address",
          "name": "operator",
          "type": "address"
        }
      ],
      "name": "isApprovedForAll",
      "outputs": [
        {
          "internalType": "bool",
          "name": "",
          "type": "bool"
        }
      ],
      "stateMutability": "view",
      "type": "function",
      "constant": true
    },
    {
      "inputs": [],
      "name": "name",
      "outputs": [
        {
          "internalType": "string",
          "name": "",
          "type": "string"
        }
      ],
      "stateMutability": "view",
      "type": "function",
      "constant": true
    },
    {
      "inputs": [
        {
          "internalType": "uint256",
          "name": "tokenId",
          "type": "uint256"
        }
      ],
      "name": "ownerOf",
      "outputs": [
        {
          "internalType": "address",
          "name": "",
          "type": "address"
        }
      ],
      "stateMutability": "view",
      "type": "function",
      "constant": true
    },
    {
      "inputs": [],
      "name": "rarityCounter",
      "outputs": [
        {
          "internalType": "uint256",
          "name": "",
          "type": "uint256"
        }
      ],
      "stateMutability": "view",
      "type": "function",
      "constant": true
    },
    {
      "inputs": [
        {
          "internalType": "address",
          "name": "from",
          "type": "address"
        },
        {
          "internalType": "address",
          "name": "to",
          "type": "address"
        },
        {
          "internalType": "uint256",
          "name": "tokenId",
          "type": "uint256"
        }
      ],
      "name": "safeTransferFrom",
      "outputs": [],
      "stateMutability": "nonpayable",
      "type": "function"
    },
    {
      "inputs": [
        {
          "internalType": "address",
          "name": "from",
          "type": "address"
        },
        {
          "internalType": "address",
          "name": "to",
          "type": "address"
        },
        {
          "internalType": "uint256",
          "name": "tokenId",
          "type": "uint256"
        },
        {
          "internalType": "bytes",
          "name": "_data",
          "type": "bytes"
        }
      ],
      "name": "safeTransferFrom",
      "outputs": [],
      "stateMutability": "nonpayable",
      "type": "function"
    },
    {
      "inputs": [
        {
          "internalType": "address",
          "name": "operator",
          "type": "address"
        },
        {
          "internalType": "bool",
          "name": "approved",
          "type": "bool"
        }
      ],
      "name": "setApprovalForAll",
      "outputs": [],
      "stateMutability": "nonpayable",
      "type": "function"
    },
    {
      "inputs": [
        {
          "internalType": "bytes4",
          "name": "interfaceId",
          "type": "bytes4"
        }
      ],
      "name": "supportsInterface",
      "outputs": [
        {
          "internalType": "bool",
          "name": "",
          "type": "bool"
        }
      ],
      "stateMutability": "view",
      "type": "function",
      "constant": true
    },
    {
      "inputs": [],
      "name": "symbol",
      "outputs": [
        {
          "internalType": "string",
          "name": "",
          "type": "string"
        }
      ],
      "stateMutability": "view",
      "type": "function",
      "constant": true
    },
    {
      "inputs": [
        {
          "internalType": "uint256",
          "name": "index",
          "type": "uint256"
        }
      ],
      "name": "tokenByIndex",
      "outputs": [
        {
          "internalType": "uint256",
          "name": "",
          "type": "uint256"
        }
      ],
      "stateMutability": "view",
      "type": "function",
      "constant": true
    },
    {
      "inputs": [
        {
          "internalType": "address",
          "name": "owner",
          "type": "address"
        },
        {
          "internalType": "uint256",
          "name": "index",
          "type": "uint256"
        }
      ],
      "name": "tokenOfOwnerByIndex",
      "outputs": [
        {
          "internalType": "uint256",
          "name": "",
          "type": "uint256"
        }
      ],
      "stateMutability": "view",
      "type": "function",
      "constant": true
    },
    {
      "inputs": [
        {
          "internalType": "uint256",
          "name": "",
          "type": "uint256"
        }
      ],
      "name": "tokenToEthers",
      "outputs": [
        {
          "internalType": "uint256",
          "name": "",
          "type": "uint256"
        }
      ],
      "stateMutability": "view",
      "type": "function",
      "constant": true
    },
    {
      "inputs": [
        {
          "internalType": "uint256",
          "name": "",
          "type": "uint256"
        }
      ],
      "name": "tokenToReward",
      "outputs": [
        {
          "internalType": "uint256",
          "name": "",
          "type": "uint256"
        }
      ],
      "stateMutability": "view",
      "type": "function",
      "constant": true
    },
    {
      "inputs": [
        {
          "internalType": "uint256",
          "name": "tokenId",
          "type": "uint256"
        }
      ],
      "name": "tokenURI",
      "outputs": [
        {
          "internalType": "string",
          "name": "",
          "type": "string"
        }
      ],
      "stateMutability": "view",
      "type": "function",
      "constant": true
    },
    {
      "inputs": [],
      "name": "totalSupply",
      "outputs": [
        {
          "internalType": "uint256",
          "name": "",
          "type": "uint256"
        }
      ],
      "stateMutability": "view",
      "type": "function",
      "constant": true
    },
    {
      "inputs": [
        {
          "internalType": "address",
          "name": "from",
          "type": "address"
        },
        {
          "internalType": "address",
          "name": "to",
          "type": "address"
        },
        {
          "internalType": "uint256",
          "name": "tokenId",
          "type": "uint256"
        }
      ],
      "name": "transferFrom",
      "outputs": [],
      "stateMutability": "nonpayable",
      "type": "function"
    },
    {
      "inputs": [],
      "name": "vcost",
      "outputs": [
        {
          "internalType": "uint256",
          "name": "",
          "type": "uint256"
        }
      ],
      "stateMutability": "view",
      "type": "function",
      "constant": true
    },
    {
      "inputs": [],
      "name": "vfee",
      "outputs": [
        {
          "internalType": "uint256",
          "name": "",
          "type": "uint256"
        }
      ],
      "stateMutability": "view",
      "type": "function",
      "constant": true
    },
    {
      "stateMutability": "payable",
      "type": "receive",
      "payable": true
    },
    {
      "inputs": [],
      "name": "createRandomcFont",
      "outputs": [],
      "stateMutability": "nonpayable",
      "type": "function"
    },
    {
      "inputs": [
        {
          "internalType": "uint256",
          "name": "id",
          "type": "uint256"
        }
      ],
      "name": "reverseSwap",
      "outputs": [],
      "stateMutability": "nonpayable",
      "type": "function"
    },
    {
      "inputs": [],
      "name": "getcFonts",
      "outputs": [
        {
          "components": [
            {
              "internalType": "string",
              "name": "name",
              "type": "string"
            },
            {
              "internalType": "uint256",
              "name": "id",
              "type": "uint256"
            },
            {
              "internalType": "uint256",
              "name": "dna",
              "type": "uint256"
            },
            {
              "internalType": "uint8",
              "name": "rarity",
              "type": "uint8"
            },
            {
              "internalType": "uint16",
              "name": "power",
              "type": "uint16"
            },
            {
              "internalType": "uint8",
              "name": "size",
              "type": "uint8"
            },
            {
              "internalType": "uint256",
              "name": "mintDate",
              "type": "uint256"
            },
            {
              "internalType": "bool",
              "name": "burn",
              "type": "bool"
            }
          ],
          "internalType": "struct cryptoFont.cFont[]",
          "name": "",
          "type": "tuple[]"
        }
      ],
      "stateMutability": "view",
      "type": "function",
      "constant": true
    },
    {
      "inputs": [],
      "name": "countAllReward",
      "outputs": [
        {
          "internalType": "uint256",
          "name": "",
          "type": "uint256"
        }
      ],
      "stateMutability": "view",
      "type": "function",
      "constant": true
    },
    {
      "inputs": [],
      "name": "countAllEthers",
      "outputs": [
        {
          "internalType": "uint256",
          "name": "",
          "type": "uint256"
        }
      ],
      "stateMutability": "view",
      "type": "function",
      "constant": true
    },
    {
      "inputs": [],
      "name": "remainingEthers",
      "outputs": [
        {
          "internalType": "uint256",
          "name": "",
          "type": "uint256"
        }
      ],
      "stateMutability": "view",
      "type": "function",
      "constant": true
    },
    {
      "inputs": [],
      "name": "remainingeBTC",
      "outputs": [
        {
          "internalType": "uint256",
          "name": "",
          "type": "uint256"
        }
      ],
      "stateMutability": "view",
      "type": "function",
      "constant": true
    },
    {
      "inputs": [],
      "name": "DistributeReward",
      "outputs": [],
      "stateMutability": "nonpayable",
      "type": "function"
    },
    {
      "inputs": [
        {
          "internalType": "address",
          "name": "account",
          "type": "address"
        }
      ],
      "name": "showEthers",
      "outputs": [
        {
          "internalType": "uint256",
          "name": "",
          "type": "uint256"
        }
      ],
      "stateMutability": "view",
      "type": "function",
      "constant": true
    },
    {
      "inputs": [],
      "name": "getAllEthers",
      "outputs": [],
      "stateMutability": "nonpayable",
      "type": "function"
    },
    {
      "inputs": [
        {
          "internalType": "address",
          "name": "account",
          "type": "address"
        }
      ],
      "name": "showReward",
      "outputs": [
        {
          "internalType": "uint256",
          "name": "",
          "type": "uint256"
        }
      ],
      "stateMutability": "view",
      "type": "function",
      "constant": true
    },
    {
      "inputs": [],
      "name": "getAllReward",
      "outputs": [],
      "stateMutability": "nonpayable",
      "type": "function"
    },
    {
      "inputs": [
        {
          "internalType": "string",
          "name": "name",
          "type": "string"
        },
        {
          "internalType": "uint256",
          "name": "id",
          "type": "uint256"
        }
      ],
      "name": "setName",
      "outputs": [],
      "stateMutability": "nonpayable",
      "type": "function"
    },
    {
      "inputs": [
        {
          "internalType": "uint256",
          "name": "_amount",
          "type": "uint256"
        }
      ],
      "name": "AddeBTCFee",
      "outputs": [],
      "stateMutability": "nonpayable",
      "type": "function"
    },
    {
      "inputs": [
        {
          "internalType": "address",
          "name": "_address",
          "type": "address"
        }
      ],
      "name": "getIdsOfOwner",
      "outputs": [
        {
          "internalType": "uint256[]",
          "name": "",
          "type": "uint256[]"
        }
      ],
      "stateMutability": "view",
      "type": "function",
      "constant": true
    }
  ],
  "bytecode": "0x60806040526000600a5568056bc75e2d63100000600d5560646032600d54620000299190620001cb565b62000035919062000245565b600e5560006015553480156200004a57600080fd5b5060405162005ad238038062005ad28339818101604052810190620000709190620002e7565b6040518060400160405280600b81526020017f43727970746f20466f6e740000000000000000000000000000000000000000008152506040518060400160405280600581526020017f63466f6e740000000000000000000000000000000000000000000000000000008152508160009081620000ed919062000589565b508060019081620000ff919062000589565b50505080600c60006101000a81548173ffffffffffffffffffffffffffffffffffffffff021916908373ffffffffffffffffffffffffffffffffffffffff1602179055504260108190555033600b60006101000a81548173ffffffffffffffffffffffffffffffffffffffff021916908373ffffffffffffffffffffffffffffffffffffffff1602179055505062000670565b6000819050919050565b7f4e487b7100000000000000000000000000000000000000000000000000000000600052601160045260246000fd5b6000620001d88262000192565b9150620001e58362000192565b9250828202620001f58162000192565b915082820484148315176200020f576200020e6200019c565b5b5092915050565b7f4e487b7100000000000000000000000000000000000000000000000000000000600052601260045260246000fd5b6000620002528262000192565b91506200025f8362000192565b92508262000272576200027162000216565b5b828204905092915050565b600080fd5b600073ffffffffffffffffffffffffffffffffffffffff82169050919050565b6000620002af8262000282565b9050919050565b620002c181620002a2565b8114620002cd57600080fd5b50565b600081519050620002e181620002b6565b92915050565b6000602082840312156200030057620002ff6200027d565b5b60006200031084828501620002d0565b91505092915050565b600081519050919050565b7f4e487b7100000000000000000000000000000000000000000000000000000000600052604160045260246000fd5b7f4e487b7100000000000000000000000000000000000000000000000000000000600052602260045260246000fd5b600060028204905060018216806200039b57607f821691505b602082108103620003b157620003b062000353565b5b50919050565b60008190508160005260206000209050919050565b60006020601f8301049050919050565b600082821b905092915050565b6000600883026200041b7fffffffffffffffffffffffffffffffffffffffffffffffffffffffffffffffff82620003dc565b620004278683620003dc565b95508019841693508086168417925050509392505050565b6000819050919050565b60006200046a620004646200045e8462000192565b6200043f565b62000192565b9050919050565b6000819050919050565b620004868362000449565b6200049e620004958262000471565b848454620003e9565b825550505050565b600090565b620004b5620004a6565b620004c28184846200047b565b505050565b5b81811015620004ea57620004de600082620004ab565b600181019050620004c8565b5050565b601f82111562000539576200050381620003b7565b6200050e84620003cc565b810160208510156200051e578190505b620005366200052d85620003cc565b830182620004c7565b50505b505050565b600082821c905092915050565b60006200055e600019846008026200053e565b1980831691505092915050565b60006200057983836200054b565b9150826002028217905092915050565b620005948262000319565b67ffffffffffffffff811115620005b057620005af62000324565b5b620005bc825462000382565b620005c9828285620004ee565b600060209050601f831160018114620006015760008415620005ec578287015190505b620005f885826200056b565b86555062000668565b601f1984166200061186620003b7565b60005b828110156200063b5784890151825560018201915060208501945060208101905062000614565b868310156200065b578489015162000657601f8916826200054b565b8355505b6001600288020188555050505b505050505050565b61545280620006806000396000f3fe6080604052600436106102555760003560e01c80636352211e11610139578063b88d4fde116100b6578063e1930a0f1161007a578063e1930a0f14610926578063e4a2a74214610951578063e817194914610968578063e985e9c5146109a5578063f56a29da146109e2578063fe4040cf146109f95761025c565b8063b88d4fde1461081b578063c44bfb7d14610844578063c45af5d814610881578063c87b56dd146108be578063d3c9ca69146108fb5761025c565b80637feaaacc116100fd5780637feaaacc146107345780639268595f1461077157806395d89b411461079c578063a22cb465146107c7578063a87ae509146107f05761025c565b80636352211e1461062757806365f5eb301461066457806367e602991461068f57806370a08231146106cc5780637237b231146107095761025c565b806323b872dd116101d25780633e6d4ec2116101965780633e6d4ec21461051057806342842e0e14610527578063475561dd146105505780634f6ccce71461057b5780635069918f146105b8578063614bfe2e146105fc5761025c565b806323b872dd1461042d5780632f745c591461045657806337c1caf41461049357806338b89803146104bc5780633baa8170146104e75761025c565b8063081812fc11610219578063081812fc1461035c5780630914e01114610399578063095ea7b3146103b05780631514472b146103d957806318160ddd146104025761025c565b806301ffc9a7146102615780630236d12b1461029e5780630518afdc146102c957806306fdde03146103065780630742de84146103315761025c565b3661025c57005b600080fd5b34801561026d57600080fd5b50610288600480360381019061028391906138bb565b610a24565b6040516102959190613903565b60405180910390f35b3480156102aa57600080fd5b506102b3610a9e565b6040516102c09190613937565b60405180910390f35b3480156102d557600080fd5b506102f060048036038101906102eb919061397e565b610aee565b6040516102fd9190613937565b60405180910390f35b34801561031257600080fd5b5061031b610b06565b6040516103289190613a3b565b60405180910390f35b34801561033d57600080fd5b50610346610b98565b6040516103539190613937565b60405180910390f35b34801561036857600080fd5b50610383600480360381019061037e919061397e565b610b9e565b6040516103909190613a9e565b60405180910390f35b3480156103a557600080fd5b506103ae610c23565b005b3480156103bc57600080fd5b506103d760048036038101906103d29190613ae5565b610d3b565b005b3480156103e557600080fd5b5061040060048036038101906103fb919061397e565b610e52565b005b34801561040e57600080fd5b50610417610fc1565b6040516104249190613937565b60405180910390f35b34801561043957600080fd5b50610454600480360381019061044f9190613b25565b610fce565b005b34801561046257600080fd5b5061047d60048036038101906104789190613ae5565b61102e565b60405161048a9190613937565b60405180910390f35b34801561049f57600080fd5b506104ba60048036038101906104b5919061397e565b6110d3565b005b3480156104c857600080fd5b506104d1611284565b6040516104de9190613937565b60405180910390f35b3480156104f357600080fd5b5061050e60048036038101906105099190613cad565b61128a565b005b34801561051c57600080fd5b5061052561130f565b005b34801561053357600080fd5b5061054e60048036038101906105499190613b25565b6113cd565b005b34801561055c57600080fd5b506105656113ed565b6040516105729190613937565b60405180910390f35b34801561058757600080fd5b506105a2600480360381019061059d919061397e565b61143d565b6040516105af9190613937565b60405180910390f35b3480156105c457600080fd5b506105df60048036038101906105da919061397e565b6114ae565b6040516105f3989796959493929190613d42565b60405180910390f35b34801561060857600080fd5b506106116115c3565b60405161061e9190613937565b60405180910390f35b34801561063357600080fd5b5061064e6004803603810190610649919061397e565b6115c9565b60405161065b9190613a9e565b60405180910390f35b34801561067057600080fd5b5061067961167a565b6040516106869190613fbf565b60405180910390f35b34801561069b57600080fd5b506106b660048036038101906106b19190613fe1565b6117ff565b6040516106c39190613937565b60405180910390f35b3480156106d857600080fd5b506106f360048036038101906106ee9190613fe1565b611860565b6040516107009190613937565b60405180910390f35b34801561071557600080fd5b5061071e611917565b60405161072b9190613937565b60405180910390f35b34801561074057600080fd5b5061075b60048036038101906107569190613fe1565b61191d565b60405161076891906140bd565b60405180910390f35b34801561077d57600080fd5b506107866119cd565b6040516107939190613937565b60405180910390f35b3480156107a857600080fd5b506107b16119e7565b6040516107be9190613a3b565b60405180910390f35b3480156107d357600080fd5b506107ee60048036038101906107e9919061410b565b611a79565b005b3480156107fc57600080fd5b50610805611a8f565b6040516108129190613937565b60405180910390f35b34801561082757600080fd5b50610842600480360381019061083d91906141ec565b611a95565b005b34801561085057600080fd5b5061086b6004803603810190610866919061397e565b611af7565b6040516108789190613937565b60405180910390f35b34801561088d57600080fd5b506108a860048036038101906108a39190613fe1565b611b0f565b6040516108b59190613937565b60405180910390f35b3480156108ca57600080fd5b506108e560048036038101906108e0919061397e565b611b70565b6040516108f29190613a3b565b60405180910390f35b34801561090757600080fd5b50610910611c17565b60405161091d9190613937565b60405180910390f35b34801561093257600080fd5b5061093b611cd9565b60405161094891906142ce565b60405180910390f35b34801561095d57600080fd5b50610966611cff565b005b34801561097457600080fd5b5061098f600480360381019061098a9190613fe1565b611e81565b60405161099c9190613937565b60405180910390f35b3480156109b157600080fd5b506109cc60048036038101906109c791906142e9565b611e99565b6040516109d99190613903565b60405180910390f35b3480156109ee57600080fd5b506109f7611f2d565b005b348015610a0557600080fd5b50610a0e612179565b604051610a1b9190613937565b60405180910390f35b60007f780e9d63000000000000000000000000000000000000000000000000000000007bffffffffffffffffffffffffffffffffffffffffffffffffffffffff1916827bffffffffffffffffffffffffffffffffffffffffffffffffffffffff19161480610a975750610a968261217f565b5b9050919050565b6000806000905060005b600a54811015610ae657601360008281526020019081526020016000205482610ad19190614358565b91508080610ade9061438c565b915050610aa8565b819250505090565b60126020528060005260406000206000915090505481565b606060008054610b1590614403565b80601f0160208091040260200160405190810160405280929190818152602001828054610b4190614403565b8015610b8e5780601f10610b6357610100808354040283529160200191610b8e565b820191906000526020600020905b815481529060010190602001808311610b7157829003601f168201915b5050505050905090565b60105481565b6000610ba982612261565b610be8576040517f08c379a0000000000000000000000000000000000000000000000000000000008152600401610bdf906144a6565b60405180910390fd5b6004600083815260200190815260200160002060009054906101000a900473ffffffffffffffffffffffffffffffffffffffff169050919050565b6000805b610c3033611860565b811015610c965760126000610c45338461102e565b81526020019081526020016000205482610c5f9190614358565b9150600060126000610c71338561102e565b8152602001908152602001600020819055508080610c8e9061438c565b915050610c27565b50600c60009054906101000a900473ffffffffffffffffffffffffffffffffffffffff1673ffffffffffffffffffffffffffffffffffffffff1663a9059cbb33836040518363ffffffff1660e01b8152600401610cf49291906144c6565b6020604051808303816000875af1158015610d13573d6000803e3d6000fd5b505050506040513d601f19601f82011682018060405250810190610d379190614504565b5050565b6000610d46826115c9565b90508073ffffffffffffffffffffffffffffffffffffffff168373ffffffffffffffffffffffffffffffffffffffff1603610db6576040517f08c379a0000000000000000000000000000000000000000000000000000000008152600401610dad906145a3565b60405180910390fd5b8073ffffffffffffffffffffffffffffffffffffffff16610dd56122cd565b73ffffffffffffffffffffffffffffffffffffffff161480610e045750610e0381610dfe6122cd565b611e99565b5b610e43576040517f08c379a0000000000000000000000000000000000000000000000000000000008152600401610e3a90614635565b60405180910390fd5b610e4d83836122d5565b505050565b80600c60009054906101000a900473ffffffffffffffffffffffffffffffffffffffff1673ffffffffffffffffffffffffffffffffffffffff166370a08231336040518263ffffffff1660e01b8152600401610eae9190613a9e565b602060405180830381865afa158015610ecb573d6000803e3d6000fd5b505050506040513d601f19601f82011682018060405250810190610eef919061466a565b1015610efa57600080fd5b600c60009054906101000a900473ffffffffffffffffffffffffffffffffffffffff1673ffffffffffffffffffffffffffffffffffffffff166323b872dd3330846040518463ffffffff1660e01b8152600401610f5993929190614697565b6020604051808303816000875af1158015610f78573d6000803e3d6000fd5b505050506040513d601f19601f82011682018060405250810190610f9c9190614504565b610fa557600080fd5b80600f6000828254610fb79190614358565b9250508190555050565b6000600880549050905090565b610fdf610fd96122cd565b8261238e565b61101e576040517f08c379a000000000000000000000000000000000000000000000000000000000815260040161101590614740565b60405180910390fd5b61102983838361246c565b505050565b600061103983611860565b821061107a576040517f08c379a0000000000000000000000000000000000000000000000000000000008152600401611071906147d2565b60405180910390fd5b600660008473ffffffffffffffffffffffffffffffffffffffff1673ffffffffffffffffffffffffffffffffffffffff168152602001908152602001600020600083815260200190815260200160002054905092915050565b3373ffffffffffffffffffffffffffffffffffffffff166110f3826115c9565b73ffffffffffffffffffffffffffffffffffffffff161461111357600080fd5b60168181548110611127576111266147f2565b5b906000526020600020906006020160030160009054906101000a900460ff1660ff16601460003373ffffffffffffffffffffffffffffffffffffffff1673ffffffffffffffffffffffffffffffffffffffff16815260200190815260200160002060008282546111979190614358565b92505081905550601681815481106111b2576111b16147f2565b5b906000526020600020906006020160030160009054906101000a900460ff1660ff16601160008282546111e59190614821565b9250508190555060168181548110611200576111ff6147f2565b5b906000526020600020906006020160030160009054906101000a900460ff1660ff16601560008282546112339190614358565b925050819055506001601682815481106112505761124f6147f2565b5b906000526020600020906006020160050160006101000a81548160ff021916908315150217905550611281816126c7565b50565b60155481565b3373ffffffffffffffffffffffffffffffffffffffff166112aa826115c9565b73ffffffffffffffffffffffffffffffffffffffff16146112ca57600080fd5b60008251116112d857600080fd5b81601682815481106112ed576112ec6147f2565b5b9060005260206000209060060201600001908161130a91906149f7565b505050565b6000805b61131c33611860565b8110156113825760136000611331338461102e565b8152602001908152602001600020548261134b9190614358565b915060006013600061135d338561102e565b815260200190815260200160002081905550808061137a9061438c565b915050611313565b503373ffffffffffffffffffffffffffffffffffffffff166108fc829081150290604051600060405180830381858888f193505050501580156113c9573d6000803e3d6000fd5b5050565b6113e883838360405180602001604052806000815250611a95565b505050565b6000806000905060005b600a54811015611435576012600082815260200190815260200160002054826114209190614358565b9150808061142d9061438c565b9150506113f7565b819250505090565b6000611447610fc1565b8210611488576040517f08c379a000000000000000000000000000000000000000000000000000000000815260040161147f90614b3b565b60405180910390fd5b6008828154811061149c5761149b6147f2565b5b90600052602060002001549050919050565b601681815481106114be57600080fd5b90600052602060002090600602016000915090508060000180546114e190614403565b80601f016020809104026020016040519081016040528092919081815260200182805461150d90614403565b801561155a5780601f1061152f5761010080835404028352916020019161155a565b820191906000526020600020905b81548152906001019060200180831161153d57829003601f168201915b5050505050908060010154908060020154908060030160009054906101000a900460ff16908060030160019054906101000a900461ffff16908060030160039054906101000a900460ff16908060040154908060050160009054906101000a900460ff16905088565b600f5481565b6000806002600084815260200190815260200160002060009054906101000a900473ffffffffffffffffffffffffffffffffffffffff169050600073ffffffffffffffffffffffffffffffffffffffff168173ffffffffffffffffffffffffffffffffffffffff1603611671576040517f08c379a000000000000000000000000000000000000000000000000000000000815260040161166890614bcd565b60405180910390fd5b80915050919050565b60606016805480602002602001604051908101604052809291908181526020016000905b828210156117f65783829060005260206000209060060201604051806101000160405290816000820180546116d290614403565b80601f01602080910402602001604051908101604052809291908181526020018280546116fe90614403565b801561174b5780601f106117205761010080835404028352916020019161174b565b820191906000526020600020905b81548152906001019060200180831161172e57829003601f168201915b5050505050815260200160018201548152602001600282015481526020016003820160009054906101000a900460ff1660ff1660ff1681526020016003820160019054906101000a900461ffff1661ffff1661ffff1681526020016003820160039054906101000a900460ff1660ff1660ff168152602001600482015481526020016005820160009054906101000a900460ff1615151515815250508152602001906001019061169e565b50505050905090565b6000806000905060005b61181284611860565b8110156118565760136000611827868461102e565b815260200190815260200160002054826118419190614358565b9150808061184e9061438c565b915050611809565b5080915050919050565b60008073ffffffffffffffffffffffffffffffffffffffff168273ffffffffffffffffffffffffffffffffffffffff16036118d0576040517f08c379a00000000000000000000000000000000000000000000000000000000081526004016118c790614c5f565b60405180910390fd5b600360008373ffffffffffffffffffffffffffffffffffffffff1673ffffffffffffffffffffffffffffffffffffffff168152602001908152602001600020549050919050565b600e5481565b6060600061192a83611860565b67ffffffffffffffff81111561194357611942613b82565b5b6040519080825280602002602001820160405280156119715781602001602082028036833780820191505090505b50905060005b61198084611860565b8110156119c357611991848261102e565b8282815181106119a4576119a36147f2565b5b60200260200101818152505080806119bb9061438c565b915050611977565b8192505050919050565b60006119d7610a9e565b476119e29190614821565b905090565b6060600180546119f690614403565b80601f0160208091040260200160405190810160405280929190818152602001828054611a2290614403565b8015611a6f5780601f10611a4457610100808354040283529160200191611a6f565b820191906000526020600020905b815481529060010190602001808311611a5257829003601f168201915b5050505050905090565b611a8b611a846122cd565b83836127d8565b5050565b60115481565b611aa6611aa06122cd565b8361238e565b611ae5576040517f08c379a0000000000000000000000000000000000000000000000000000000008152600401611adc90614740565b60405180910390fd5b611af184848484612944565b50505050565b60136020528060005260406000206000915090505481565b6000806000905060005b611b2284611860565b811015611b665760126000611b37868461102e565b81526020019081526020016000205482611b519190614358565b91508080611b5e9061438c565b915050611b19565b5080915050919050565b6060611b7b82612261565b611bba576040517f08c379a0000000000000000000000000000000000000000000000000000000008152600401611bb190614cf1565b60405180910390fd5b6000611bc46129a0565b90506000815111611be45760405180602001604052806000815250611c0f565b80611bee846129b7565b604051602001611bff929190614d4d565b6040516020818303038152906040525b915050919050565b6000600f54611c246113ed565b600c60009054906101000a900473ffffffffffffffffffffffffffffffffffffffff1673ffffffffffffffffffffffffffffffffffffffff166370a08231306040518263ffffffff1660e01b8152600401611c7f9190613a9e565b602060405180830381865afa158015611c9c573d6000803e3d6000fd5b505050506040513d601f19601f82011682018060405250810190611cc0919061466a565b611cca9190614821565b611cd49190614821565b905090565b600c60009054906101000a900473ffffffffffffffffffffffffffffffffffffffff1681565b6000601054611d0e9190614358565b4211611d1957600080fd5b60008060009050601154611d2b611c17565b1115611d6557601154611d3c611c17565b611d469190614da0565b9150678ac7230489e80000821115611d6457678ac7230489e8000091505b5b601154600f541115611d8457601154600f54611d819190614da0565b90505b8082611d909190614358565b9150600080601154611da06119cd565b611daa9190614da0565b9050600091505b600a54821015611e7457611dc482612b17565b84611dcf9190614dd1565b601260008481526020019081526020016000206000828254611df19190614358565b92505081905550611e0182612b17565b81611e0c9190614dd1565b601360008481526020019081526020016000206000828254611e2e9190614358565b92505081905550611e3e82612b17565b83611e499190614dd1565b600f6000828254611e5a9190614821565b925050819055508180611e6c9061438c565b925050611db1565b4260108190555050505050565b60146020528060005260406000206000915090505481565b6000600560008473ffffffffffffffffffffffffffffffffffffffff1673ffffffffffffffffffffffffffffffffffffffff16815260200190815260200160002060008373ffffffffffffffffffffffffffffffffffffffff1673ffffffffffffffffffffffffffffffffffffffff16815260200190815260200160002060009054906101000a900460ff16905092915050565b600d54600c60009054906101000a900473ffffffffffffffffffffffffffffffffffffffff1673ffffffffffffffffffffffffffffffffffffffff166370a08231336040518263ffffffff1660e01b8152600401611f8b9190613a9e565b602060405180830381865afa158015611fa8573d6000803e3d6000fd5b505050506040513d601f19601f82011682018060405250810190611fcc919061466a565b1015611fd757600080fd5b600c60009054906101000a900473ffffffffffffffffffffffffffffffffffffffff1673ffffffffffffffffffffffffffffffffffffffff166323b872dd3330600d546040518463ffffffff1660e01b815260040161203893929190614697565b6020604051808303816000875af1158015612057573d6000803e3d6000fd5b505050506040513d601f19601f8201168201806040525081019061207b9190614504565b61208457600080fd5b600c60009054906101000a900473ffffffffffffffffffffffffffffffffffffffff1673ffffffffffffffffffffffffffffffffffffffff166342966c68600e54600d546120d29190614821565b6040518263ffffffff1660e01b81526004016120ee9190613937565b600060405180830381600087803b15801561210857600080fd5b505af115801561211c573d6000803e3d6000fd5b50505050600061216b6040518060400160405280600781526020017f63466f6e74202300000000000000000000000000000000000000000000000000815250612166600a54612b97565b612cfd565b905061217681612d29565b50565b600d5481565b60007f80ac58cd000000000000000000000000000000000000000000000000000000007bffffffffffffffffffffffffffffffffffffffffffffffffffffffff1916827bffffffffffffffffffffffffffffffffffffffffffffffffffffffff1916148061224a57507f5b5e139f000000000000000000000000000000000000000000000000000000007bffffffffffffffffffffffffffffffffffffffffffffffffffffffff1916827bffffffffffffffffffffffffffffffffffffffffffffffffffffffff1916145b8061225a575061225982612f9e565b5b9050919050565b60008073ffffffffffffffffffffffffffffffffffffffff166002600084815260200190815260200160002060009054906101000a900473ffffffffffffffffffffffffffffffffffffffff1673ffffffffffffffffffffffffffffffffffffffff1614159050919050565b600033905090565b816004600083815260200190815260200160002060006101000a81548173ffffffffffffffffffffffffffffffffffffffff021916908373ffffffffffffffffffffffffffffffffffffffff160217905550808273ffffffffffffffffffffffffffffffffffffffff16612348836115c9565b73ffffffffffffffffffffffffffffffffffffffff167f8c5be1e5ebec7d5bd14f71427d1e84f3dd0314c0f7b2291e5b200ac8c7c3b92560405160405180910390a45050565b600061239982612261565b6123d8576040517f08c379a00000000000000000000000000000000000000000000000000000000081526004016123cf90614e85565b60405180910390fd5b60006123e3836115c9565b90508073ffffffffffffffffffffffffffffffffffffffff168473ffffffffffffffffffffffffffffffffffffffff16148061245257508373ffffffffffffffffffffffffffffffffffffffff1661243a84610b9e565b73ffffffffffffffffffffffffffffffffffffffff16145b8061246357506124628185611e99565b5b91505092915050565b8273ffffffffffffffffffffffffffffffffffffffff1661248c826115c9565b73ffffffffffffffffffffffffffffffffffffffff16146124e2576040517f08c379a00000000000000000000000000000000000000000000000000000000081526004016124d990614f17565b60405180910390fd5b600073ffffffffffffffffffffffffffffffffffffffff168273ffffffffffffffffffffffffffffffffffffffff1603612551576040517f08c379a000000000000000000000000000000000000000000000000000000000815260040161254890614fa9565b60405180910390fd5b61255c838383613008565b6125676000826122d5565b6001600360008573ffffffffffffffffffffffffffffffffffffffff1673ffffffffffffffffffffffffffffffffffffffff16815260200190815260200160002060008282546125b79190614821565b925050819055506001600360008473ffffffffffffffffffffffffffffffffffffffff1673ffffffffffffffffffffffffffffffffffffffff168152602001908152602001600020600082825461260e9190614358565b92505081905550816002600083815260200190815260200160002060006101000a81548173ffffffffffffffffffffffffffffffffffffffff021916908373ffffffffffffffffffffffffffffffffffffffff160217905550808273ffffffffffffffffffffffffffffffffffffffff168473ffffffffffffffffffffffffffffffffffffffff167fddf252ad1be2c89b69c2b068fc378daa952ba7f163c4a11628f55a4df523b3ef60405160405180910390a4505050565b60006126d2826115c9565b90506126e081600084613008565b6126eb6000836122d5565b6001600360008373ffffffffffffffffffffffffffffffffffffffff1673ffffffffffffffffffffffffffffffffffffffff168152602001908152602001600020600082825461273b9190614821565b925050819055506002600083815260200190815260200160002060006101000a81549073ffffffffffffffffffffffffffffffffffffffff021916905581600073ffffffffffffffffffffffffffffffffffffffff168273ffffffffffffffffffffffffffffffffffffffff167fddf252ad1be2c89b69c2b068fc378daa952ba7f163c4a11628f55a4df523b3ef60405160405180910390a45050565b8173ffffffffffffffffffffffffffffffffffffffff168373ffffffffffffffffffffffffffffffffffffffff1603612846576040517f08c379a000000000000000000000000000000000000000000000000000000000815260040161283d90615015565b60405180910390fd5b80600560008573ffffffffffffffffffffffffffffffffffffffff1673ffffffffffffffffffffffffffffffffffffffff16815260200190815260200160002060008473ffffffffffffffffffffffffffffffffffffffff1673ffffffffffffffffffffffffffffffffffffffff16815260200190815260200160002060006101000a81548160ff0219169083151502179055508173ffffffffffffffffffffffffffffffffffffffff168373ffffffffffffffffffffffffffffffffffffffff167f17307eab39ab6107e8899845ad3d59bd9653f200f220920489ca2b5937696c31836040516129379190613903565b60405180910390a3505050565b61294f84848461246c565b61295b8484848461311a565b61299a576040517f08c379a0000000000000000000000000000000000000000000000000000000008152600401612991906150a7565b60405180910390fd5b50505050565b606060405180602001604052806000815250905090565b6060600082036129fe576040518060400160405280600181526020017f30000000000000000000000000000000000000000000000000000000000000008152509050612b12565b600082905060005b60008214612a30578080612a199061438c565b915050600a82612a299190614da0565b9150612a06565b60008167ffffffffffffffff811115612a4c57612a4b613b82565b5b6040519080825280601f01601f191660200182016040528015612a7e5781602001600182028036833780820191505090505b5090505b60008514612b0b57600182612a979190614821565b9150600a85612aa691906150c7565b6030612ab29190614358565b60f81b818381518110612ac857612ac76147f2565b5b60200101907effffffffffffffffffffffffffffffffffffffffffffffffffffffffffffff1916908160001a905350600a85612b049190614da0565b9450612a82565b8093505050505b919050565b6000806000905060168381548110612b3257612b316147f2565b5b906000526020600020906006020160050160009054906101000a900460ff16612b8e5760168381548110612b6957612b686147f2565b5b906000526020600020906006020160030160009054906101000a900460ff1660ff1690505b80915050919050565b606060008203612bde576040518060400160405280600181526020017f30000000000000000000000000000000000000000000000000000000000000008152509050612cf8565b600082905060005b60008214612c10578080612bf99061438c565b915050600a82612c099190614da0565b9150612be6565b60008167ffffffffffffffff811115612c2c57612c2b613b82565b5b6040519080825280601f01601f191660200182016040528015612c5e5781602001600182028036833780820191505090505b50905060008290508593505b60008414612cf057600a84612c7f91906150c7565b6030612c8b9190614358565b60f81b8282612c99906150f8565b92508281518110612cad57612cac6147f2565b5b60200101907effffffffffffffffffffffffffffffffffffffffffffffffffffffffffffff1916908160001a905350600a84612ce99190614da0565b9350612c6a565b819450505050505b919050565b60608282604051602001612d12929190614d4d565b604051602081830303815290604052905092915050565b60006001612d386064846132a1565b612d429190615121565b90506000612d57662386f26fc10000846132a1565b905060006001612d69612710866132a1565b612d739190614358565b90506000600a612d84608c876132a1565b612d8e9190614358565b90506000600190506000429050601e8660ff161015612dce576002915060068660ff161015612dcd576003915060018260ff161015612dcc57600491505b5b5b8160ff1660116000828254612de39190614358565b925050819055506000604051806101000160405280898152602001600a5481526020018781526020018460ff1681526020018661ffff1681526020018560ff16815260200183815260200160001515815250905060168190806001815401808255809150506001900390600052602060002090600602016000909190919091506000820151816000019081612e7891906149f7565b50602082015181600101556040820151816002015560608201518160030160006101000a81548160ff021916908360ff16021790555060808201518160030160016101000a81548161ffff021916908361ffff16021790555060a08201518160030160036101000a81548160ff021916908360ff16021790555060c0820151816004015560e08201518160050160006101000a81548160ff0219169083151502179055505050612f2a33600a546132eb565b3373ffffffffffffffffffffffffffffffffffffffff167fe6b5d2375ea5860192277472eed072ebc6805abc7699b637dfe1e4806126208a600a5488604051612f74929190615156565b60405180910390a2600a6000815480929190612f8f9061438c565b91905055505050505050505050565b60007f01ffc9a7000000000000000000000000000000000000000000000000000000007bffffffffffffffffffffffffffffffffffffffffffffffffffffffff1916827bffffffffffffffffffffffffffffffffffffffffffffffffffffffff1916149050919050565b613013838383613309565b600073ffffffffffffffffffffffffffffffffffffffff168373ffffffffffffffffffffffffffffffffffffffff1603613055576130508161330e565b613094565b8173ffffffffffffffffffffffffffffffffffffffff168373ffffffffffffffffffffffffffffffffffffffff1614613093576130928382613357565b5b5b600073ffffffffffffffffffffffffffffffffffffffff168273ffffffffffffffffffffffffffffffffffffffff16036130d6576130d1816134c4565b613115565b8273ffffffffffffffffffffffffffffffffffffffff168273ffffffffffffffffffffffffffffffffffffffff1614613114576131138282613595565b5b5b505050565b600061313b8473ffffffffffffffffffffffffffffffffffffffff16613614565b15613294578373ffffffffffffffffffffffffffffffffffffffff1663150b7a026131646122cd565b8786866040518563ffffffff1660e01b815260040161318694939291906151d4565b6020604051808303816000875af19250505080156131c257506040513d601f19601f820116820180604052508101906131bf9190615235565b60015b613244573d80600081146131f2576040519150601f19603f3d011682016040523d82523d6000602084013e6131f7565b606091505b50600081510361323c576040517f08c379a0000000000000000000000000000000000000000000000000000000008152600401613233906150a7565b60405180910390fd5b805181602001fd5b63150b7a0260e01b7bffffffffffffffffffffffffffffffffffffffffffffffffffffffff1916817bffffffffffffffffffffffffffffffffffffffffffffffffffffffff191614915050613299565b600190505b949350505050565b600080444233856040516020016132bb94939291906152cb565b6040516020818303038152906040528051906020012060001c905083816132e291906150c7565b91505092915050565b613305828260405180602001604052806000815250613627565b5050565b505050565b6008805490506009600083815260200190815260200160002081905550600881908060018154018082558091505060019003906000526020600020016000909190919091505550565b6000600161336484611860565b61336e9190614821565b9050600060076000848152602001908152602001600020549050818114613453576000600660008673ffffffffffffffffffffffffffffffffffffffff1673ffffffffffffffffffffffffffffffffffffffff168152602001908152602001600020600084815260200190815260200160002054905080600660008773ffffffffffffffffffffffffffffffffffffffff1673ffffffffffffffffffffffffffffffffffffffff168152602001908152602001600020600084815260200190815260200160002081905550816007600083815260200190815260200160002081905550505b6007600084815260200190815260200160002060009055600660008573ffffffffffffffffffffffffffffffffffffffff1673ffffffffffffffffffffffffffffffffffffffff16815260200190815260200160002060008381526020019081526020016000206000905550505050565b600060016008805490506134d89190614821565b9050600060096000848152602001908152602001600020549050600060088381548110613508576135076147f2565b5b90600052602060002001549050806008838154811061352a576135296147f2565b5b90600052602060002001819055508160096000838152602001908152602001600020819055506009600085815260200190815260200160002060009055600880548061357957613578615315565b5b6001900381819060005260206000200160009055905550505050565b60006135a083611860565b905081600660008573ffffffffffffffffffffffffffffffffffffffff1673ffffffffffffffffffffffffffffffffffffffff168152602001908152602001600020600083815260200190815260200160002081905550806007600084815260200190815260200160002081905550505050565b600080823b905060008111915050919050565b6136318383613682565b61363e600084848461311a565b61367d576040517f08c379a0000000000000000000000000000000000000000000000000000000008152600401613674906150a7565b60405180910390fd5b505050565b600073ffffffffffffffffffffffffffffffffffffffff168273ffffffffffffffffffffffffffffffffffffffff16036136f1576040517f08c379a00000000000000000000000000000000000000000000000000000000081526004016136e890615390565b60405180910390fd5b6136fa81612261565b1561373a576040517f08c379a0000000000000000000000000000000000000000000000000000000008152600401613731906153fc565b60405180910390fd5b61374660008383613008565b6001600360008473ffffffffffffffffffffffffffffffffffffffff1673ffffffffffffffffffffffffffffffffffffffff16815260200190815260200160002060008282546137969190614358565b92505081905550816002600083815260200190815260200160002060006101000a81548173ffffffffffffffffffffffffffffffffffffffff021916908373ffffffffffffffffffffffffffffffffffffffff160217905550808273ffffffffffffffffffffffffffffffffffffffff16600073ffffffffffffffffffffffffffffffffffffffff167fddf252ad1be2c89b69c2b068fc378daa952ba7f163c4a11628f55a4df523b3ef60405160405180910390a45050565b6000604051905090565b600080fd5b600080fd5b60007fffffffff0000000000000000000000000000000000000000000000000000000082169050919050565b61389881613863565b81146138a357600080fd5b50565b6000813590506138b58161388f565b92915050565b6000602082840312156138d1576138d0613859565b5b60006138df848285016138a6565b91505092915050565b60008115159050919050565b6138fd816138e8565b82525050565b600060208201905061391860008301846138f4565b92915050565b6000819050919050565b6139318161391e565b82525050565b600060208201905061394c6000830184613928565b92915050565b61395b8161391e565b811461396657600080fd5b50565b60008135905061397881613952565b92915050565b60006020828403121561399457613993613859565b5b60006139a284828501613969565b91505092915050565b600081519050919050565b600082825260208201905092915050565b60005b838110156139e55780820151818401526020810190506139ca565b60008484015250505050565b6000601f19601f8301169050919050565b6000613a0d826139ab565b613a1781856139b6565b9350613a278185602086016139c7565b613a30816139f1565b840191505092915050565b60006020820190508181036000830152613a558184613a02565b905092915050565b600073ffffffffffffffffffffffffffffffffffffffff82169050919050565b6000613a8882613a5d565b9050919050565b613a9881613a7d565b82525050565b6000602082019050613ab36000830184613a8f565b92915050565b613ac281613a7d565b8114613acd57600080fd5b50565b600081359050613adf81613ab9565b92915050565b60008060408385031215613afc57613afb613859565b5b6000613b0a85828601613ad0565b9250506020613b1b85828601613969565b9150509250929050565b600080600060608486031215613b3e57613b3d613859565b5b6000613b4c86828701613ad0565b9350506020613b5d86828701613ad0565b9250506040613b6e86828701613969565b9150509250925092565b600080fd5b600080fd5b7f4e487b7100000000000000000000000000000000000000000000000000000000600052604160045260246000fd5b613bba826139f1565b810181811067ffffffffffffffff82111715613bd957613bd8613b82565b5b80604052505050565b6000613bec61384f565b9050613bf88282613bb1565b919050565b600067ffffffffffffffff821115613c1857613c17613b82565b5b613c21826139f1565b9050602081019050919050565b82818337600083830152505050565b6000613c50613c4b84613bfd565b613be2565b905082815260208101848484011115613c6c57613c6b613b7d565b5b613c77848285613c2e565b509392505050565b600082601f830112613c9457613c93613b78565b5b8135613ca4848260208601613c3d565b91505092915050565b60008060408385031215613cc457613cc3613859565b5b600083013567ffffffffffffffff811115613ce257613ce161385e565b5b613cee85828601613c7f565b9250506020613cff85828601613969565b9150509250929050565b600060ff82169050919050565b613d1f81613d09565b82525050565b600061ffff82169050919050565b613d3c81613d25565b82525050565b6000610100820190508181036000830152613d5d818b613a02565b9050613d6c602083018a613928565b613d796040830189613928565b613d866060830188613d16565b613d936080830187613d33565b613da060a0830186613d16565b613dad60c0830185613928565b613dba60e08301846138f4565b9998505050505050505050565b600081519050919050565b600082825260208201905092915050565b6000819050602082019050919050565b600082825260208201905092915050565b6000613e0f826139ab565b613e198185613df3565b9350613e298185602086016139c7565b613e32816139f1565b840191505092915050565b613e468161391e565b82525050565b613e5581613d09565b82525050565b613e6481613d25565b82525050565b613e73816138e8565b82525050565b6000610100830160008301518482036000860152613e978282613e04565b9150506020830151613eac6020860182613e3d565b506040830151613ebf6040860182613e3d565b506060830151613ed26060860182613e4c565b506080830151613ee56080860182613e5b565b5060a0830151613ef860a0860182613e4c565b5060c0830151613f0b60c0860182613e3d565b5060e0830151613f1e60e0860182613e6a565b508091505092915050565b6000613f358383613e79565b905092915050565b6000602082019050919050565b6000613f5582613dc7565b613f5f8185613dd2565b935083602082028501613f7185613de3565b8060005b85811015613fad5784840389528151613f8e8582613f29565b9450613f9983613f3d565b925060208a01995050600181019050613f75565b50829750879550505050505092915050565b60006020820190508181036000830152613fd98184613f4a565b905092915050565b600060208284031215613ff757613ff6613859565b5b600061400584828501613ad0565b91505092915050565b600081519050919050565b600082825260208201905092915050565b6000819050602082019050919050565b60006140468383613e3d565b60208301905092915050565b6000602082019050919050565b600061406a8261400e565b6140748185614019565b935061407f8361402a565b8060005b838110156140b0578151614097888261403a565b97506140a283614052565b925050600181019050614083565b5085935050505092915050565b600060208201905081810360008301526140d7818461405f565b905092915050565b6140e8816138e8565b81146140f357600080fd5b50565b600081359050614105816140df565b92915050565b6000806040838503121561412257614121613859565b5b600061413085828601613ad0565b9250506020614141858286016140f6565b9150509250929050565b600067ffffffffffffffff82111561416657614165613b82565b5b61416f826139f1565b9050602081019050919050565b600061418f61418a8461414b565b613be2565b9050828152602081018484840111156141ab576141aa613b7d565b5b6141b6848285613c2e565b509392505050565b600082601f8301126141d3576141d2613b78565b5b81356141e384826020860161417c565b91505092915050565b6000806000806080858703121561420657614205613859565b5b600061421487828801613ad0565b945050602061422587828801613ad0565b935050604061423687828801613969565b925050606085013567ffffffffffffffff8111156142575761425661385e565b5b614263878288016141be565b91505092959194509250565b6000819050919050565b600061429461428f61428a84613a5d565b61426f565b613a5d565b9050919050565b60006142a682614279565b9050919050565b60006142b88261429b565b9050919050565b6142c8816142ad565b82525050565b60006020820190506142e360008301846142bf565b92915050565b60008060408385031215614300576142ff613859565b5b600061430e85828601613ad0565b925050602061431f85828601613ad0565b9150509250929050565b7f4e487b7100000000000000000000000000000000000000000000000000000000600052601160045260246000fd5b60006143638261391e565b915061436e8361391e565b925082820190508082111561438657614385614329565b5b92915050565b60006143978261391e565b91507fffffffffffffffffffffffffffffffffffffffffffffffffffffffffffffffff82036143c9576143c8614329565b5b600182019050919050565b7f4e487b7100000000000000000000000000000000000000000000000000000000600052602260045260246000fd5b6000600282049050600182168061441b57607f821691505b60208210810361442e5761442d6143d4565b5b50919050565b7f4552433732313a20617070726f76656420717565727920666f72206e6f6e657860008201527f697374656e7420746f6b656e0000000000000000000000000000000000000000602082015250565b6000614490602c836139b6565b915061449b82614434565b604082019050919050565b600060208201905081810360008301526144bf81614483565b9050919050565b60006040820190506144db6000830185613a8f565b6144e86020830184613928565b9392505050565b6000815190506144fe816140df565b92915050565b60006020828403121561451a57614519613859565b5b6000614528848285016144ef565b91505092915050565b7f4552433732313a20617070726f76616c20746f2063757272656e74206f776e6560008201527f7200000000000000000000000000000000000000000000000000000000000000602082015250565b600061458d6021836139b6565b915061459882614531565b604082019050919050565b600060208201905081810360008301526145bc81614580565b9050919050565b7f4552433732313a20617070726f76652063616c6c6572206973206e6f74206f7760008201527f6e6572206e6f7220617070726f76656420666f7220616c6c0000000000000000602082015250565b600061461f6038836139b6565b915061462a826145c3565b604082019050919050565b6000602082019050818103600083015261464e81614612565b9050919050565b60008151905061466481613952565b92915050565b6000602082840312156146805761467f613859565b5b600061468e84828501614655565b91505092915050565b60006060820190506146ac6000830186613a8f565b6146b96020830185613a8f565b6146c66040830184613928565b949350505050565b7f4552433732313a207472616e736665722063616c6c6572206973206e6f74206f60008201527f776e6572206e6f7220617070726f766564000000000000000000000000000000602082015250565b600061472a6031836139b6565b9150614735826146ce565b604082019050919050565b600060208201905081810360008301526147598161471d565b9050919050565b7f455243373231456e756d657261626c653a206f776e657220696e646578206f7560008201527f74206f6620626f756e6473000000000000000000000000000000000000000000602082015250565b60006147bc602b836139b6565b91506147c782614760565b604082019050919050565b600060208201905081810360008301526147eb816147af565b9050919050565b7f4e487b7100000000000000000000000000000000000000000000000000000000600052603260045260246000fd5b600061482c8261391e565b91506148378361391e565b925082820390508181111561484f5761484e614329565b5b92915050565b60008190508160005260206000209050919050565b60006020601f8301049050919050565b600082821b905092915050565b6000600883026148b77fffffffffffffffffffffffffffffffffffffffffffffffffffffffffffffffff8261487a565b6148c1868361487a565b95508019841693508086168417925050509392505050565b60006148f46148ef6148ea8461391e565b61426f565b61391e565b9050919050565b6000819050919050565b61490e836148d9565b61492261491a826148fb565b848454614887565b825550505050565b600090565b61493761492a565b614942818484614905565b505050565b5b818110156149665761495b60008261492f565b600181019050614948565b5050565b601f8211156149ab5761497c81614855565b6149858461486a565b81016020851015614994578190505b6149a86149a08561486a565b830182614947565b50505b505050565b600082821c905092915050565b60006149ce600019846008026149b0565b1980831691505092915050565b60006149e783836149bd565b9150826002028217905092915050565b614a00826139ab565b67ffffffffffffffff811115614a1957614a18613b82565b5b614a238254614403565b614a2e82828561496a565b600060209050601f831160018114614a615760008415614a4f578287015190505b614a5985826149db565b865550614ac1565b601f198416614a6f86614855565b60005b82811015614a9757848901518255600182019150602085019450602081019050614a72565b86831015614ab45784890151614ab0601f8916826149bd565b8355505b6001600288020188555050505b505050505050565b7f455243373231456e756d657261626c653a20676c6f62616c20696e646578206f60008201527f7574206f6620626f756e64730000000000000000000000000000000000000000602082015250565b6000614b25602c836139b6565b9150614b3082614ac9565b604082019050919050565b60006020820190508181036000830152614b5481614b18565b9050919050565b7f4552433732313a206f776e657220717565727920666f72206e6f6e657869737460008201527f656e7420746f6b656e0000000000000000000000000000000000000000000000602082015250565b6000614bb76029836139b6565b9150614bc282614b5b565b604082019050919050565b60006020820190508181036000830152614be681614baa565b9050919050565b7f4552433732313a2062616c616e636520717565727920666f7220746865207a6560008201527f726f206164647265737300000000000000000000000000000000000000000000602082015250565b6000614c49602a836139b6565b9150614c5482614bed565b604082019050919050565b60006020820190508181036000830152614c7881614c3c565b9050919050565b7f4552433732314d657461646174613a2055524920717565727920666f72206e6f60008201527f6e6578697374656e7420746f6b656e0000000000000000000000000000000000602082015250565b6000614cdb602f836139b6565b9150614ce682614c7f565b604082019050919050565b60006020820190508181036000830152614d0a81614cce565b9050919050565b600081905092915050565b6000614d27826139ab565b614d318185614d11565b9350614d418185602086016139c7565b80840191505092915050565b6000614d598285614d1c565b9150614d658284614d1c565b91508190509392505050565b7f4e487b7100000000000000000000000000000000000000000000000000000000600052601260045260246000fd5b6000614dab8261391e565b9150614db68361391e565b925082614dc657614dc5614d71565b5b828204905092915050565b6000614ddc8261391e565b9150614de78361391e565b9250828202614df58161391e565b91508282048414831517614e0c57614e0b614329565b5b5092915050565b7f4552433732313a206f70657261746f7220717565727920666f72206e6f6e657860008201527f697374656e7420746f6b656e0000000000000000000000000000000000000000602082015250565b6000614e6f602c836139b6565b9150614e7a82614e13565b604082019050919050565b60006020820190508181036000830152614e9e81614e62565b9050919050565b7f4552433732313a207472616e73666572206f6620746f6b656e2074686174206960008201527f73206e6f74206f776e0000000000000000000000000000000000000000000000602082015250565b6000614f016029836139b6565b9150614f0c82614ea5565b604082019050919050565b60006020820190508181036000830152614f3081614ef4565b9050919050565b7f4552433732313a207472616e7366657220746f20746865207a65726f2061646460008201527f7265737300000000000000000000000000000000000000000000000000000000602082015250565b6000614f936024836139b6565b9150614f9e82614f37565b604082019050919050565b60006020820190508181036000830152614fc281614f86565b9050919050565b7f4552433732313a20617070726f766520746f2063616c6c657200000000000000600082015250565b6000614fff6019836139b6565b915061500a82614fc9565b602082019050919050565b6000602082019050818103600083015261502e81614ff2565b9050919050565b7f4552433732313a207472616e7366657220746f206e6f6e20455243373231526560008201527f63656976657220696d706c656d656e7465720000000000000000000000000000602082015250565b60006150916032836139b6565b915061509c82615035565b604082019050919050565b600060208201905081810360008301526150c081615084565b9050919050565b60006150d28261391e565b91506150dd8361391e565b9250826150ed576150ec614d71565b5b828206905092915050565b60006151038261391e565b91506000820361511657615115614329565b5b600182039050919050565b600061512c82613d09565b915061513783613d09565b9250828201905060ff8111156151505761514f614329565b5b92915050565b600060408201905061516b6000830185613928565b6151786020830184613928565b9392505050565b600081519050919050565b600082825260208201905092915050565b60006151a68261517f565b6151b0818561518a565b93506151c08185602086016139c7565b6151c9816139f1565b840191505092915050565b60006080820190506151e96000830187613a8f565b6151f66020830186613a8f565b6152036040830185613928565b8181036060830152615215818461519b565b905095945050505050565b60008151905061522f8161388f565b92915050565b60006020828403121561524b5761524a613859565b5b600061525984828501615220565b91505092915050565b6000819050919050565b61527d6152788261391e565b615262565b82525050565b60008160601b9050919050565b600061529b82615283565b9050919050565b60006152ad82615290565b9050919050565b6152c56152c082613a7d565b6152a2565b82525050565b60006152d7828761526c565b6020820191506152e7828661526c565b6020820191506152f782856152b4565b6014820191506153078284614d1c565b915081905095945050505050565b7f4e487b7100000000000000000000000000000000000000000000000000000000600052603160045260246000fd5b7f4552433732313a206d696e7420746f20746865207a65726f2061646472657373600082015250565b600061537a6020836139b6565b915061538582615344565b602082019050919050565b600060208201905081810360008301526153a98161536d565b9050919050565b7f4552433732313a20746f6b656e20616c7265616479206d696e74656400000000600082015250565b60006153e6601c836139b6565b91506153f1826153b0565b602082019050919050565b60006020820190508181036000830152615415816153d9565b905091905056fea26469706673582212201d83ef5705e73ef59da813ad982c0c900a3256f37a67aa271b95651a274417f564736f6c63430008110033",
  "immutableReferences": {},
  "source": "// SPDX-License-Identifier: MIT\n\npragma solidity ^0.8.0;\n\nimport \"@openzeppelin/contracts/token/ERC721/ERC721.sol\";\nimport \"@openzeppelin/contracts/access/Ownable.sol\";\nimport \"@openzeppelin/contracts/token/ERC721/extensions/ERC721Enumerable.sol\";\nimport \"@openzeppelin/contracts/token/ERC20/IERC20.sol\";\nimport \"./utils.sol\";\nimport \"./ebtc.sol\";\n\ncontract cryptoFont is ERC721Enumerable, utils {\n    uint256 COUNTER = 0;\n    address _owner;\n    IEBTC public eBitcoin;\n    uint256 public vcost = 100 * 10**18;\n    uint256 public vfee = (vcost * 50) / 100;\n    uint256 public _feePool;\n    uint256 public _pastDistributedReward;\n\n    // counters\n    uint256 public rarityCounter;\n\n    mapping(uint256 => uint256) public tokenToReward;\n    mapping(uint256 => uint256) public tokenToEthers;\n    mapping(address => uint256) public burnCounter;\n    uint256 public allRarityBurn = 0;\n\n    struct cFont {\n        string name;\n        uint256 id;\n        uint256 dna;\n        uint8 rarity;\n        uint16 power;\n        uint8 size;\n        uint256 mintDate;\n        bool burn;\n    }\n\n    cFont[] public cFonts;\n\n    event NewcFont(address indexed owner, uint256 id, uint256 dna);\n\n    function _createRandomNum(uint256 _mod, string memory str)\n        internal\n        view\n        returns (uint256)\n    {\n        uint256 randomNum = uint256(\n            keccak256(\n                abi.encodePacked(\n                    block.difficulty,\n                    block.timestamp,\n                    msg.sender,\n                    str\n                )\n            )\n        );\n        return randomNum % _mod;\n    }\n\n    constructor(address eBitcoinAddress) ERC721(\"Crypto Font\", \"cFont\") {\n        eBitcoin = IEBTC(eBitcoinAddress);\n        _pastDistributedReward = block.timestamp;\n        _owner = msg.sender;\n    }\n\n    function _createcFont(string memory _name) internal {\n        uint8 randRarity = uint8(_createRandomNum(100, _name)) + 1;\n        uint256 randDna = _createRandomNum(10**16, _name);\n        uint16 randPower = uint16(_createRandomNum(10000, _name) + 1);\n        uint8 randSize = uint8(_createRandomNum(140, _name) + 10);\n        uint8 rarity = 1;\n        uint256 mint_date = block.timestamp;\n\n        if (randRarity < 30) {\n            rarity = 2;\n            if (randRarity < 6) {\n                rarity = 3;\n                if (rarity < 1) {\n                    rarity = 4;\n                }\n            }\n        }\n\n        rarityCounter += rarity;\n\n        cFont memory newcFont = cFont(\n            _name,\n            COUNTER,\n            randDna,\n            rarity,\n            randPower,\n            randSize,\n            mint_date,\n            false\n        );\n        cFonts.push(newcFont);\n        _safeMint(msg.sender, COUNTER);\n        emit NewcFont(msg.sender, COUNTER, randDna);\n        COUNTER++;\n    }\n\n    function createRandomcFont() public {\n        require(eBitcoin.balanceOf(msg.sender) >= vcost);\n        require(eBitcoin.transferFrom(msg.sender, address(this), vcost));\n        eBitcoin.burn(vcost - vfee);\n        string memory name = concatenate(\"cFont #\", uint2str(COUNTER));\n        _createcFont(name);\n    }\n\n    function reverseSwap(uint256 id) public {\n        require(ownerOf(id) == msg.sender);\n        burnCounter[msg.sender] += cFonts[id].rarity;\n        rarityCounter -= cFonts[id].rarity;\n        allRarityBurn+=cFonts[id].rarity;\n        cFonts[id].burn = true;\n        _burn(id);\n    }\n\n    function getcFonts() public view returns (cFont[] memory) {\n        return cFonts;\n    }\n\n    function _getRarity(uint256 id) internal view returns (uint256) {\n        uint256 rarity = 0;\n        if (!cFonts[id].burn) {\n            rarity = cFonts[id].rarity;\n        }\n        return rarity;\n    }\n\n    function countAllReward() public view returns (uint256) {\n        uint256 reward = 0;\n        uint256 i;\n        for (i = 0; i < COUNTER; i++) {\n            reward += tokenToReward[i];\n        }\n\n        return reward;\n    }\n\n    function countAllEthers() public view returns (uint256) {\n        uint256 reward = 0;\n        uint256 i;\n        for (i = 0; i < COUNTER; i++) {\n            reward += tokenToEthers[i];\n        }\n\n        return reward;\n    }\n\n    function remainingEthers() public view returns (uint256) {\n        return address(this).balance - countAllEthers();\n    }\n\n    function remainingeBTC() public view returns (uint256) {\n        return eBitcoin.balanceOf(address(this)) - countAllReward() - _feePool;\n    }\n\n    function DistributeReward() public {\n        require(block.timestamp > _pastDistributedReward + 0 days);\n        uint256 rewardPerRare;\n        uint256 feePerRare = 0;\n        if (remainingeBTC() > rarityCounter) {\n            rewardPerRare = remainingeBTC() / rarityCounter;\n            if (rewardPerRare > 10 * 10**18) {\n                rewardPerRare = 10 * 10**18;\n            }\n        }\n        if (_feePool > rarityCounter) {\n            feePerRare = _feePool / rarityCounter;\n        }\n        rewardPerRare += feePerRare;\n\n        uint256 i;\n\n        uint256 ethersPerRare = remainingEthers() / rarityCounter;\n        for (i = 0; i < COUNTER; i++) {\n            tokenToReward[i] += rewardPerRare * _getRarity(i);\n            tokenToEthers[i] += ethersPerRare * _getRarity(i);\n            _feePool -= feePerRare * _getRarity(i);\n        }\n\n        _pastDistributedReward = block.timestamp;\n    }\n\n    function showEthers(address account) public view returns (uint256) {\n        uint256 reward = 0;\n        for (uint256 i = 0; i < balanceOf(account); i++) {\n            reward += tokenToEthers[tokenOfOwnerByIndex(account, i)];\n        }\n        return reward;\n    }\n\n    function getAllEthers() public {\n        uint256 reward = 0;\n        for (uint256 i = 0; i < balanceOf(msg.sender); i++) {\n            reward += tokenToEthers[tokenOfOwnerByIndex(msg.sender, i)];\n            tokenToEthers[tokenOfOwnerByIndex(msg.sender, i)] = 0;\n        }\n        payable(msg.sender).transfer(reward);\n    }\n\n    receive() external payable {}\n\n    function showReward(address account) public view returns (uint256) {\n        uint256 reward = 0;\n        for (uint256 i = 0; i < balanceOf(account); i++) {\n            reward += tokenToReward[tokenOfOwnerByIndex(account, i)];\n        }\n        return reward;\n    }\n\n    function getAllReward() public {\n        uint256 reward = 0;\n        for (uint256 i = 0; i < balanceOf(msg.sender); i++) {\n            reward += tokenToReward[tokenOfOwnerByIndex(msg.sender, i)];\n            tokenToReward[tokenOfOwnerByIndex(msg.sender, i)] = 0;\n        }\n        eBitcoin.transfer(msg.sender, reward);\n    }\n\n    function setName(string memory name, uint256 id) public {\n        require(ownerOf(id) == msg.sender);\n        require(bytes(name).length > 0);\n        cFonts[id].name = name;\n    }\n\n    function AddeBTCFee(uint256 _amount) public {\n        require(eBitcoin.balanceOf(msg.sender) >= _amount);\n        require(eBitcoin.transferFrom(msg.sender, address(this), _amount));\n        _feePool += _amount;\n    }\n\n    function getIdsOfOwner(address _address)\n        public\n        view\n        returns (uint256[] memory)\n    {\n        uint256[] memory _tokensOfOwner = new uint256[](\n            ERC721.balanceOf(_address)\n        );\n        uint256 i;\n\n        for (i = 0; i < ERC721.balanceOf(_address); i++) {\n            _tokensOfOwner[i] = ERC721Enumerable.tokenOfOwnerByIndex(\n                _address,\n                i\n            );\n        }\n        return (_tokensOfOwner);\n    }\n}\n",
  "sourcePath": "/Users/jarupaksrisuchat/Documents/github/ppenter/crypto-font/contracts/cFont.sol",
  "compiler": {
    "name": "solc",
    "version": "0.8.17+commit.8df45f5f.Emscripten.clang"
  },
  "schemaVersion": "3.4.10",
  "updatedAt": "2022-11-18T07:22:46.125Z",
  "networkType": "ethereum",
  "devdoc": {
    "kind": "dev",
    "methods": {
      "approve(address,uint256)": {
        "details": "See {IERC721-approve}."
      },
      "balanceOf(address)": {
        "details": "See {IERC721-balanceOf}."
      },
      "getApproved(uint256)": {
        "details": "See {IERC721-getApproved}."
      },
      "isApprovedForAll(address,address)": {
        "details": "See {IERC721-isApprovedForAll}."
      },
      "name()": {
        "details": "See {IERC721Metadata-name}."
      },
      "ownerOf(uint256)": {
        "details": "See {IERC721-ownerOf}."
      },
      "safeTransferFrom(address,address,uint256)": {
        "details": "See {IERC721-safeTransferFrom}."
      },
      "safeTransferFrom(address,address,uint256,bytes)": {
        "details": "See {IERC721-safeTransferFrom}."
      },
      "setApprovalForAll(address,bool)": {
        "details": "See {IERC721-setApprovalForAll}."
      },
      "supportsInterface(bytes4)": {
        "details": "See {IERC165-supportsInterface}."
      },
      "symbol()": {
        "details": "See {IERC721Metadata-symbol}."
      },
      "tokenByIndex(uint256)": {
        "details": "See {IERC721Enumerable-tokenByIndex}."
      },
      "tokenOfOwnerByIndex(address,uint256)": {
        "details": "See {IERC721Enumerable-tokenOfOwnerByIndex}."
      },
      "tokenURI(uint256)": {
        "details": "See {IERC721Metadata-tokenURI}."
      },
      "totalSupply()": {
        "details": "See {IERC721Enumerable-totalSupply}."
      },
      "transferFrom(address,address,uint256)": {
        "details": "See {IERC721-transferFrom}."
      }
    },
    "version": 1
  },
  "userdoc": {
    "kind": "user",
    "methods": {},
    "version": 1
  }
}