{
  "contractName": "cryptoFont",
  "abi": [
    {
      "inputs": [
        {
          "internalType": "address",
          "name": "eBitcoinAddress",
          "type": "address"
        }
      ],
      "stateMutability": "nonpayable",
      "type": "constructor"
    },
    {
      "anonymous": false,
      "inputs": [
        {
          "indexed": true,
          "internalType": "address",
          "name": "owner",
          "type": "address"
        },
        {
          "indexed": true,
          "internalType": "address",
          "name": "approved",
          "type": "address"
        },
        {
          "indexed": true,
          "internalType": "uint256",
          "name": "tokenId",
          "type": "uint256"
        }
      ],
      "name": "Approval",
      "type": "event"
    },
    {
      "anonymous": false,
      "inputs": [
        {
          "indexed": true,
          "internalType": "address",
          "name": "owner",
          "type": "address"
        },
        {
          "indexed": true,
          "internalType": "address",
          "name": "operator",
          "type": "address"
        },
        {
          "indexed": false,
          "internalType": "bool",
          "name": "approved",
          "type": "bool"
        }
      ],
      "name": "ApprovalForAll",
      "type": "event"
    },
    {
      "anonymous": false,
      "inputs": [
        {
          "indexed": true,
          "internalType": "address",
          "name": "owner",
          "type": "address"
        },
        {
          "indexed": false,
          "internalType": "uint256",
          "name": "id",
          "type": "uint256"
        },
        {
          "indexed": false,
          "internalType": "uint256",
          "name": "dna",
          "type": "uint256"
        }
      ],
      "name": "NewcFont",
      "type": "event"
    },
    {
      "anonymous": false,
      "inputs": [
        {
          "indexed": true,
          "internalType": "address",
          "name": "from",
          "type": "address"
        },
        {
          "indexed": true,
          "internalType": "address",
          "name": "to",
          "type": "address"
        },
        {
          "indexed": true,
          "internalType": "uint256",
          "name": "tokenId",
          "type": "uint256"
        }
      ],
      "name": "Transfer",
      "type": "event"
    },
    {
      "inputs": [],
      "name": "_feePool",
      "outputs": [
        {
          "internalType": "uint256",
          "name": "",
          "type": "uint256"
        }
      ],
      "stateMutability": "view",
      "type": "function",
      "constant": true
    },
    {
      "inputs": [],
      "name": "_pastDistributedReward",
      "outputs": [
        {
          "internalType": "uint256",
          "name": "",
          "type": "uint256"
        }
      ],
      "stateMutability": "view",
      "type": "function",
      "constant": true
    },
    {
      "inputs": [
        {
          "internalType": "address",
          "name": "to",
          "type": "address"
        },
        {
          "internalType": "uint256",
          "name": "tokenId",
          "type": "uint256"
        }
      ],
      "name": "approve",
      "outputs": [],
      "stateMutability": "nonpayable",
      "type": "function"
    },
    {
      "inputs": [
        {
          "internalType": "address",
          "name": "owner",
          "type": "address"
        }
      ],
      "name": "balanceOf",
      "outputs": [
        {
          "internalType": "uint256",
          "name": "",
          "type": "uint256"
        }
      ],
      "stateMutability": "view",
      "type": "function",
      "constant": true
    },
    {
      "inputs": [
        {
          "internalType": "address",
          "name": "",
          "type": "address"
        }
      ],
      "name": "burnCounter",
      "outputs": [
        {
          "internalType": "uint256",
          "name": "",
          "type": "uint256"
        }
      ],
      "stateMutability": "view",
      "type": "function",
      "constant": true
    },
    {
      "inputs": [
        {
          "internalType": "uint256",
          "name": "",
          "type": "uint256"
        }
      ],
      "name": "cFonts",
      "outputs": [
        {
          "internalType": "string",
          "name": "name",
          "type": "string"
        },
        {
          "internalType": "uint256",
          "name": "id",
          "type": "uint256"
        },
        {
          "internalType": "uint256",
          "name": "dna",
          "type": "uint256"
        },
        {
          "internalType": "uint8",
          "name": "rarity",
          "type": "uint8"
        },
        {
          "internalType": "uint16",
          "name": "power",
          "type": "uint16"
        },
        {
          "internalType": "uint8",
          "name": "size",
          "type": "uint8"
        },
        {
          "internalType": "uint256",
          "name": "mintDate",
          "type": "uint256"
        },
        {
          "internalType": "bool",
          "name": "burn",
          "type": "bool"
        }
      ],
      "stateMutability": "view",
      "type": "function",
      "constant": true
    },
    {
      "inputs": [],
      "name": "eBitcoin",
      "outputs": [
        {
          "internalType": "contract IEBTC",
          "name": "",
          "type": "address"
        }
      ],
      "stateMutability": "view",
      "type": "function",
      "constant": true
    },
    {
      "inputs": [
        {
          "internalType": "uint256",
          "name": "tokenId",
          "type": "uint256"
        }
      ],
      "name": "getApproved",
      "outputs": [
        {
          "internalType": "address",
          "name": "",
          "type": "address"
        }
      ],
      "stateMutability": "view",
      "type": "function",
      "constant": true
    },
    {
      "inputs": [
        {
          "internalType": "address",
          "name": "owner",
          "type": "address"
        },
        {
          "internalType": "address",
          "name": "operator",
          "type": "address"
        }
      ],
      "name": "isApprovedForAll",
      "outputs": [
        {
          "internalType": "bool",
          "name": "",
          "type": "bool"
        }
      ],
      "stateMutability": "view",
      "type": "function",
      "constant": true
    },
    {
      "inputs": [],
      "name": "name",
      "outputs": [
        {
          "internalType": "string",
          "name": "",
          "type": "string"
        }
      ],
      "stateMutability": "view",
      "type": "function",
      "constant": true
    },
    {
      "inputs": [
        {
          "internalType": "uint256",
          "name": "tokenId",
          "type": "uint256"
        }
      ],
      "name": "ownerOf",
      "outputs": [
        {
          "internalType": "address",
          "name": "",
          "type": "address"
        }
      ],
      "stateMutability": "view",
      "type": "function",
      "constant": true
    },
    {
      "inputs": [],
      "name": "rarityCounter",
      "outputs": [
        {
          "internalType": "uint256",
          "name": "",
          "type": "uint256"
        }
      ],
      "stateMutability": "view",
      "type": "function",
      "constant": true
    },
    {
      "inputs": [
        {
          "internalType": "address",
          "name": "from",
          "type": "address"
        },
        {
          "internalType": "address",
          "name": "to",
          "type": "address"
        },
        {
          "internalType": "uint256",
          "name": "tokenId",
          "type": "uint256"
        }
      ],
      "name": "safeTransferFrom",
      "outputs": [],
      "stateMutability": "nonpayable",
      "type": "function"
    },
    {
      "inputs": [
        {
          "internalType": "address",
          "name": "from",
          "type": "address"
        },
        {
          "internalType": "address",
          "name": "to",
          "type": "address"
        },
        {
          "internalType": "uint256",
          "name": "tokenId",
          "type": "uint256"
        },
        {
          "internalType": "bytes",
          "name": "_data",
          "type": "bytes"
        }
      ],
      "name": "safeTransferFrom",
      "outputs": [],
      "stateMutability": "nonpayable",
      "type": "function"
    },
    {
      "inputs": [
        {
          "internalType": "address",
          "name": "operator",
          "type": "address"
        },
        {
          "internalType": "bool",
          "name": "approved",
          "type": "bool"
        }
      ],
      "name": "setApprovalForAll",
      "outputs": [],
      "stateMutability": "nonpayable",
      "type": "function"
    },
    {
      "inputs": [
        {
          "internalType": "bytes4",
          "name": "interfaceId",
          "type": "bytes4"
        }
      ],
      "name": "supportsInterface",
      "outputs": [
        {
          "internalType": "bool",
          "name": "",
          "type": "bool"
        }
      ],
      "stateMutability": "view",
      "type": "function",
      "constant": true
    },
    {
      "inputs": [],
      "name": "symbol",
      "outputs": [
        {
          "internalType": "string",
          "name": "",
          "type": "string"
        }
      ],
      "stateMutability": "view",
      "type": "function",
      "constant": true
    },
    {
      "inputs": [
        {
          "internalType": "uint256",
          "name": "index",
          "type": "uint256"
        }
      ],
      "name": "tokenByIndex",
      "outputs": [
        {
          "internalType": "uint256",
          "name": "",
          "type": "uint256"
        }
      ],
      "stateMutability": "view",
      "type": "function",
      "constant": true
    },
    {
      "inputs": [
        {
          "internalType": "address",
          "name": "owner",
          "type": "address"
        },
        {
          "internalType": "uint256",
          "name": "index",
          "type": "uint256"
        }
      ],
      "name": "tokenOfOwnerByIndex",
      "outputs": [
        {
          "internalType": "uint256",
          "name": "",
          "type": "uint256"
        }
      ],
      "stateMutability": "view",
      "type": "function",
      "constant": true
    },
    {
      "inputs": [
        {
          "internalType": "uint256",
          "name": "",
          "type": "uint256"
        }
      ],
      "name": "tokenToEthers",
      "outputs": [
        {
          "internalType": "uint256",
          "name": "",
          "type": "uint256"
        }
      ],
      "stateMutability": "view",
      "type": "function",
      "constant": true
    },
    {
      "inputs": [
        {
          "internalType": "uint256",
          "name": "",
          "type": "uint256"
        }
      ],
      "name": "tokenToReward",
      "outputs": [
        {
          "internalType": "uint256",
          "name": "",
          "type": "uint256"
        }
      ],
      "stateMutability": "view",
      "type": "function",
      "constant": true
    },
    {
      "inputs": [
        {
          "internalType": "uint256",
          "name": "tokenId",
          "type": "uint256"
        }
      ],
      "name": "tokenURI",
      "outputs": [
        {
          "internalType": "string",
          "name": "",
          "type": "string"
        }
      ],
      "stateMutability": "view",
      "type": "function",
      "constant": true
    },
    {
      "inputs": [],
      "name": "totalSupply",
      "outputs": [
        {
          "internalType": "uint256",
          "name": "",
          "type": "uint256"
        }
      ],
      "stateMutability": "view",
      "type": "function",
      "constant": true
    },
    {
      "inputs": [
        {
          "internalType": "address",
          "name": "from",
          "type": "address"
        },
        {
          "internalType": "address",
          "name": "to",
          "type": "address"
        },
        {
          "internalType": "uint256",
          "name": "tokenId",
          "type": "uint256"
        }
      ],
      "name": "transferFrom",
      "outputs": [],
      "stateMutability": "nonpayable",
      "type": "function"
    },
    {
      "inputs": [],
      "name": "vcost",
      "outputs": [
        {
          "internalType": "uint256",
          "name": "",
          "type": "uint256"
        }
      ],
      "stateMutability": "view",
      "type": "function",
      "constant": true
    },
    {
      "inputs": [],
      "name": "vfee",
      "outputs": [
        {
          "internalType": "uint256",
          "name": "",
          "type": "uint256"
        }
      ],
      "stateMutability": "view",
      "type": "function",
      "constant": true
    },
    {
      "stateMutability": "payable",
      "type": "receive",
      "payable": true
    },
    {
      "inputs": [],
      "name": "createRandomcFont",
      "outputs": [],
      "stateMutability": "nonpayable",
      "type": "function"
    },
    {
      "inputs": [
        {
          "internalType": "uint256",
          "name": "id",
          "type": "uint256"
        }
      ],
      "name": "reverseSwap",
      "outputs": [],
      "stateMutability": "nonpayable",
      "type": "function"
    },
    {
      "inputs": [],
      "name": "getcFonts",
      "outputs": [
        {
          "components": [
            {
              "internalType": "string",
              "name": "name",
              "type": "string"
            },
            {
              "internalType": "uint256",
              "name": "id",
              "type": "uint256"
            },
            {
              "internalType": "uint256",
              "name": "dna",
              "type": "uint256"
            },
            {
              "internalType": "uint8",
              "name": "rarity",
              "type": "uint8"
            },
            {
              "internalType": "uint16",
              "name": "power",
              "type": "uint16"
            },
            {
              "internalType": "uint8",
              "name": "size",
              "type": "uint8"
            },
            {
              "internalType": "uint256",
              "name": "mintDate",
              "type": "uint256"
            },
            {
              "internalType": "bool",
              "name": "burn",
              "type": "bool"
            }
          ],
          "internalType": "struct cryptoFont.cFont[]",
          "name": "",
          "type": "tuple[]"
        }
      ],
      "stateMutability": "view",
      "type": "function",
      "constant": true
    },
    {
      "inputs": [],
      "name": "countAllReward",
      "outputs": [
        {
          "internalType": "uint256",
          "name": "",
          "type": "uint256"
        }
      ],
      "stateMutability": "view",
      "type": "function",
      "constant": true
    },
    {
      "inputs": [],
      "name": "countAllEthers",
      "outputs": [
        {
          "internalType": "uint256",
          "name": "",
          "type": "uint256"
        }
      ],
      "stateMutability": "view",
      "type": "function",
      "constant": true
    },
    {
      "inputs": [],
      "name": "remainingEthers",
      "outputs": [
        {
          "internalType": "uint256",
          "name": "",
          "type": "uint256"
        }
      ],
      "stateMutability": "view",
      "type": "function",
      "constant": true
    },
    {
      "inputs": [],
      "name": "remainingeBTC",
      "outputs": [
        {
          "internalType": "uint256",
          "name": "",
          "type": "uint256"
        }
      ],
      "stateMutability": "view",
      "type": "function",
      "constant": true
    },
    {
      "inputs": [],
      "name": "DistributeReward",
      "outputs": [],
      "stateMutability": "nonpayable",
      "type": "function"
    },
    {
      "inputs": [
        {
          "internalType": "address",
          "name": "account",
          "type": "address"
        }
      ],
      "name": "showEthers",
      "outputs": [
        {
          "internalType": "uint256",
          "name": "",
          "type": "uint256"
        }
      ],
      "stateMutability": "view",
      "type": "function",
      "constant": true
    },
    {
      "inputs": [],
      "name": "getAllEthers",
      "outputs": [],
      "stateMutability": "nonpayable",
      "type": "function"
    },
    {
      "inputs": [
        {
          "internalType": "address",
          "name": "account",
          "type": "address"
        }
      ],
      "name": "showReward",
      "outputs": [
        {
          "internalType": "uint256",
          "name": "",
          "type": "uint256"
        }
      ],
      "stateMutability": "view",
      "type": "function",
      "constant": true
    },
    {
      "inputs": [],
      "name": "getAllReward",
      "outputs": [],
      "stateMutability": "nonpayable",
      "type": "function"
    },
    {
      "inputs": [
        {
          "internalType": "string",
          "name": "name",
          "type": "string"
        },
        {
          "internalType": "uint256",
          "name": "id",
          "type": "uint256"
        }
      ],
      "name": "setName",
      "outputs": [],
      "stateMutability": "nonpayable",
      "type": "function"
    },
    {
      "inputs": [
        {
          "internalType": "uint256",
          "name": "_amount",
          "type": "uint256"
        }
      ],
      "name": "AddeBTCFee",
      "outputs": [],
      "stateMutability": "nonpayable",
      "type": "function"
    },
    {
      "inputs": [
        {
          "internalType": "address",
          "name": "_address",
          "type": "address"
        }
      ],
      "name": "getIdsOfOwner",
      "outputs": [
        {
          "internalType": "uint256[]",
          "name": "",
          "type": "uint256[]"
        }
      ],
      "stateMutability": "view",
      "type": "function",
      "constant": true
    }
  ],
  "bytecode": "0x60806040526000600a5568056bc75e2d63100000600d5560646032600d5462000029919062000284565b62000035919062000314565b600e553480156200004557600080fd5b50604051620056b5380380620056b583398181016040528101906200006b9190620003b6565b6040518060400160405280600b81526020017f43727970746f20466f6e740000000000000000000000000000000000000000008152506040518060400160405280600581526020017f63466f6e740000000000000000000000000000000000000000000000000000008152508160009080519060200190620000ef9291906200019b565b508060019080519060200190620001089291906200019b565b50505080600c60006101000a81548173ffffffffffffffffffffffffffffffffffffffff021916908373ffffffffffffffffffffffffffffffffffffffff1602179055504260108190555033600b60006101000a81548173ffffffffffffffffffffffffffffffffffffffff021916908373ffffffffffffffffffffffffffffffffffffffff160217905550506200044d565b828054620001a99062000417565b90600052602060002090601f016020900481019282620001cd576000855562000219565b82601f10620001e857805160ff191683800117855562000219565b8280016001018555821562000219579182015b8281111562000218578251825591602001919060010190620001fb565b5b5090506200022891906200022c565b5090565b5b80821115620002475760008160009055506001016200022d565b5090565b6000819050919050565b7f4e487b7100000000000000000000000000000000000000000000000000000000600052601160045260246000fd5b600062000291826200024b565b91506200029e836200024b565b9250817fffffffffffffffffffffffffffffffffffffffffffffffffffffffffffffffff0483118215151615620002da57620002d962000255565b5b828202905092915050565b7f4e487b7100000000000000000000000000000000000000000000000000000000600052601260045260246000fd5b600062000321826200024b565b91506200032e836200024b565b925082620003415762000340620002e5565b5b828204905092915050565b600080fd5b600073ffffffffffffffffffffffffffffffffffffffff82169050919050565b60006200037e8262000351565b9050919050565b620003908162000371565b81146200039c57600080fd5b50565b600081519050620003b08162000385565b92915050565b600060208284031215620003cf57620003ce6200034c565b5b6000620003df848285016200039f565b91505092915050565b7f4e487b7100000000000000000000000000000000000000000000000000000000600052602260045260246000fd5b600060028204905060018216806200043057607f821691505b60208210811415620004475762000446620003e8565b5b50919050565b615258806200045d6000396000f3fe60806040526004361061024a5760003560e01c80636352211e11610139578063b88d4fde116100b6578063e1930a0f1161007a578063e1930a0f146108f0578063e4a2a7421461091b578063e817194914610932578063e985e9c51461096f578063f56a29da146109ac578063fe4040cf146109c357610251565b8063b88d4fde146107e5578063c44bfb7d1461080e578063c45af5d81461084b578063c87b56dd14610888578063d3c9ca69146108c557610251565b80637feaaacc116100fd5780637feaaacc146106fe5780639268595f1461073b57806395d89b4114610766578063a22cb46514610791578063a87ae509146107ba57610251565b80636352211e146105f157806365f5eb301461062e57806367e602991461065957806370a08231146106965780637237b231146106d357610251565b806323b872dd116101c757806342842e0e1161018b57806342842e0e146104f1578063475561dd1461051a5780634f6ccce7146105455780635069918f14610582578063614bfe2e146105c657610251565b806323b872dd146104225780632f745c591461044b57806337c1caf4146104885780633baa8170146104b15780633e6d4ec2146104da57610251565b8063081812fc1161020e578063081812fc146103515780630914e0111461038e578063095ea7b3146103a55780631514472b146103ce57806318160ddd146103f757610251565b806301ffc9a7146102565780630236d12b146102935780630518afdc146102be57806306fdde03146102fb5780630742de841461032657610251565b3661025157005b600080fd5b34801561026257600080fd5b5061027d600480360381019061027891906138ed565b6109ee565b60405161028a9190613935565b60405180910390f35b34801561029f57600080fd5b506102a8610a68565b6040516102b59190613969565b60405180910390f35b3480156102ca57600080fd5b506102e560048036038101906102e091906139b0565b610ab8565b6040516102f29190613969565b60405180910390f35b34801561030757600080fd5b50610310610ad0565b60405161031d9190613a76565b60405180910390f35b34801561033257600080fd5b5061033b610b62565b6040516103489190613969565b60405180910390f35b34801561035d57600080fd5b50610378600480360381019061037391906139b0565b610b68565b6040516103859190613ad9565b60405180910390f35b34801561039a57600080fd5b506103a3610bed565b005b3480156103b157600080fd5b506103cc60048036038101906103c79190613b20565b610d05565b005b3480156103da57600080fd5b506103f560048036038101906103f091906139b0565b610e1d565b005b34801561040357600080fd5b5061040c610f8c565b6040516104199190613969565b60405180910390f35b34801561042e57600080fd5b5061044960048036038101906104449190613b60565b610f99565b005b34801561045757600080fd5b50610472600480360381019061046d9190613b20565b610ff9565b60405161047f9190613969565b60405180910390f35b34801561049457600080fd5b506104af60048036038101906104aa91906139b0565b61109e565b005b3480156104bd57600080fd5b506104d860048036038101906104d39190613ce8565b611201565b005b3480156104e657600080fd5b506104ef61128d565b005b3480156104fd57600080fd5b5061051860048036038101906105139190613b60565b61134b565b005b34801561052657600080fd5b5061052f61136b565b60405161053c9190613969565b60405180910390f35b34801561055157600080fd5b5061056c600480360381019061056791906139b0565b6113bb565b6040516105799190613969565b60405180910390f35b34801561058e57600080fd5b506105a960048036038101906105a491906139b0565b61142c565b6040516105bd989796959493929190613d7d565b60405180910390f35b3480156105d257600080fd5b506105db611541565b6040516105e89190613969565b60405180910390f35b3480156105fd57600080fd5b50610618600480360381019061061391906139b0565b611547565b6040516106259190613ad9565b60405180910390f35b34801561063a57600080fd5b506106436115f9565b6040516106509190613ffa565b60405180910390f35b34801561066557600080fd5b50610680600480360381019061067b919061401c565b61177e565b60405161068d9190613969565b60405180910390f35b3480156106a257600080fd5b506106bd60048036038101906106b8919061401c565b6117df565b6040516106ca9190613969565b60405180910390f35b3480156106df57600080fd5b506106e8611897565b6040516106f59190613969565b60405180910390f35b34801561070a57600080fd5b506107256004803603810190610720919061401c565b61189d565b60405161073291906140f8565b60405180910390f35b34801561074757600080fd5b5061075061194d565b60405161075d9190613969565b60405180910390f35b34801561077257600080fd5b5061077b611967565b6040516107889190613a76565b60405180910390f35b34801561079d57600080fd5b506107b860048036038101906107b39190614146565b6119f9565b005b3480156107c657600080fd5b506107cf611a0f565b6040516107dc9190613969565b60405180910390f35b3480156107f157600080fd5b5061080c60048036038101906108079190614227565b611a15565b005b34801561081a57600080fd5b50610835600480360381019061083091906139b0565b611a77565b6040516108429190613969565b60405180910390f35b34801561085757600080fd5b50610872600480360381019061086d919061401c565b611a8f565b60405161087f9190613969565b60405180910390f35b34801561089457600080fd5b506108af60048036038101906108aa91906139b0565b611af0565b6040516108bc9190613a76565b60405180910390f35b3480156108d157600080fd5b506108da611b97565b6040516108e79190613969565b60405180910390f35b3480156108fc57600080fd5b50610905611c59565b6040516109129190614309565b60405180910390f35b34801561092757600080fd5b50610930611c7f565b005b34801561093e57600080fd5b506109596004803603810190610954919061401c565b611e01565b6040516109669190613969565b60405180910390f35b34801561097b57600080fd5b5061099660048036038101906109919190614324565b611e19565b6040516109a39190613935565b60405180910390f35b3480156109b857600080fd5b506109c1611ead565b005b3480156109cf57600080fd5b506109d86120f9565b6040516109e59190613969565b60405180910390f35b60007f780e9d63000000000000000000000000000000000000000000000000000000007bffffffffffffffffffffffffffffffffffffffffffffffffffffffff1916827bffffffffffffffffffffffffffffffffffffffffffffffffffffffff19161480610a615750610a60826120ff565b5b9050919050565b6000806000905060005b600a54811015610ab057601360008281526020019081526020016000205482610a9b9190614393565b91508080610aa8906143e9565b915050610a72565b819250505090565b60126020528060005260406000206000915090505481565b606060008054610adf90614461565b80601f0160208091040260200160405190810160405280929190818152602001828054610b0b90614461565b8015610b585780601f10610b2d57610100808354040283529160200191610b58565b820191906000526020600020905b815481529060010190602001808311610b3b57829003601f168201915b5050505050905090565b60105481565b6000610b73826121e1565b610bb2576040517f08c379a0000000000000000000000000000000000000000000000000000000008152600401610ba990614505565b60405180910390fd5b6004600083815260200190815260200160002060009054906101000a900473ffffffffffffffffffffffffffffffffffffffff169050919050565b6000805b610bfa336117df565b811015610c605760126000610c0f3384610ff9565b81526020019081526020016000205482610c299190614393565b9150600060126000610c3b3385610ff9565b8152602001908152602001600020819055508080610c58906143e9565b915050610bf1565b50600c60009054906101000a900473ffffffffffffffffffffffffffffffffffffffff1673ffffffffffffffffffffffffffffffffffffffff1663a9059cbb33836040518363ffffffff1660e01b8152600401610cbe929190614525565b6020604051808303816000875af1158015610cdd573d6000803e3d6000fd5b505050506040513d601f19601f82011682018060405250810190610d019190614563565b5050565b6000610d1082611547565b90508073ffffffffffffffffffffffffffffffffffffffff168373ffffffffffffffffffffffffffffffffffffffff161415610d81576040517f08c379a0000000000000000000000000000000000000000000000000000000008152600401610d7890614602565b60405180910390fd5b8073ffffffffffffffffffffffffffffffffffffffff16610da061224d565b73ffffffffffffffffffffffffffffffffffffffff161480610dcf5750610dce81610dc961224d565b611e19565b5b610e0e576040517f08c379a0000000000000000000000000000000000000000000000000000000008152600401610e0590614694565b60405180910390fd5b610e188383612255565b505050565b80600c60009054906101000a900473ffffffffffffffffffffffffffffffffffffffff1673ffffffffffffffffffffffffffffffffffffffff166370a08231336040518263ffffffff1660e01b8152600401610e799190613ad9565b602060405180830381865afa158015610e96573d6000803e3d6000fd5b505050506040513d601f19601f82011682018060405250810190610eba91906146c9565b1015610ec557600080fd5b600c60009054906101000a900473ffffffffffffffffffffffffffffffffffffffff1673ffffffffffffffffffffffffffffffffffffffff166323b872dd3330846040518463ffffffff1660e01b8152600401610f24939291906146f6565b6020604051808303816000875af1158015610f43573d6000803e3d6000fd5b505050506040513d601f19601f82011682018060405250810190610f679190614563565b610f7057600080fd5b80600f6000828254610f829190614393565b9250508190555050565b6000600880549050905090565b610faa610fa461224d565b8261230e565b610fe9576040517f08c379a0000000000000000000000000000000000000000000000000000000008152600401610fe09061479f565b60405180910390fd5b610ff48383836123ec565b505050565b6000611004836117df565b8210611045576040517f08c379a000000000000000000000000000000000000000000000000000000000815260040161103c90614831565b60405180910390fd5b600660008473ffffffffffffffffffffffffffffffffffffffff1673ffffffffffffffffffffffffffffffffffffffff168152602001908152602001600020600083815260200190815260200160002054905092915050565b3373ffffffffffffffffffffffffffffffffffffffff166110be82611547565b73ffffffffffffffffffffffffffffffffffffffff16146110de57600080fd5b601581815481106110f2576110f1614851565b5b906000526020600020906006020160030160009054906101000a900460ff1660ff16601460003373ffffffffffffffffffffffffffffffffffffffff1673ffffffffffffffffffffffffffffffffffffffff16815260200190815260200160002060008282546111629190614393565b925050819055506015818154811061117d5761117c614851565b5b906000526020600020906006020160030160009054906101000a900460ff1660ff16601160008282546111b09190614880565b925050819055506111c081612648565b6001601582815481106111d6576111d5614851565b5b906000526020600020906006020160050160006101000a81548160ff02191690831515021790555050565b3373ffffffffffffffffffffffffffffffffffffffff1661122182611547565b73ffffffffffffffffffffffffffffffffffffffff161461124157600080fd5b600082511161124f57600080fd5b816015828154811061126457611263614851565b5b906000526020600020906006020160000190805190602001906112889291906137de565b505050565b6000805b61129a336117df565b81101561130057601360006112af3384610ff9565b815260200190815260200160002054826112c99190614393565b91506000601360006112db3385610ff9565b81526020019081526020016000208190555080806112f8906143e9565b915050611291565b503373ffffffffffffffffffffffffffffffffffffffff166108fc829081150290604051600060405180830381858888f19350505050158015611347573d6000803e3d6000fd5b5050565b61136683838360405180602001604052806000815250611a15565b505050565b6000806000905060005b600a548110156113b35760126000828152602001908152602001600020548261139e9190614393565b915080806113ab906143e9565b915050611375565b819250505090565b60006113c5610f8c565b8210611406576040517f08c379a00000000000000000000000000000000000000000000000000000000081526004016113fd90614926565b60405180910390fd5b6008828154811061141a57611419614851565b5b90600052602060002001549050919050565b6015818154811061143c57600080fd5b906000526020600020906006020160009150905080600001805461145f90614461565b80601f016020809104026020016040519081016040528092919081815260200182805461148b90614461565b80156114d85780601f106114ad576101008083540402835291602001916114d8565b820191906000526020600020905b8154815290600101906020018083116114bb57829003601f168201915b5050505050908060010154908060020154908060030160009054906101000a900460ff16908060030160019054906101000a900461ffff16908060030160039054906101000a900460ff16908060040154908060050160009054906101000a900460ff16905088565b600f5481565b6000806002600084815260200190815260200160002060009054906101000a900473ffffffffffffffffffffffffffffffffffffffff169050600073ffffffffffffffffffffffffffffffffffffffff168173ffffffffffffffffffffffffffffffffffffffff1614156115f0576040517f08c379a00000000000000000000000000000000000000000000000000000000081526004016115e7906149b8565b60405180910390fd5b80915050919050565b60606015805480602002602001604051908101604052809291908181526020016000905b8282101561177557838290600052602060002090600602016040518061010001604052908160008201805461165190614461565b80601f016020809104026020016040519081016040528092919081815260200182805461167d90614461565b80156116ca5780601f1061169f576101008083540402835291602001916116ca565b820191906000526020600020905b8154815290600101906020018083116116ad57829003601f168201915b5050505050815260200160018201548152602001600282015481526020016003820160009054906101000a900460ff1660ff1660ff1681526020016003820160019054906101000a900461ffff1661ffff1661ffff1681526020016003820160039054906101000a900460ff1660ff1660ff168152602001600482015481526020016005820160009054906101000a900460ff1615151515815250508152602001906001019061161d565b50505050905090565b6000806000905060005b611791846117df565b8110156117d557601360006117a68684610ff9565b815260200190815260200160002054826117c09190614393565b915080806117cd906143e9565b915050611788565b5080915050919050565b60008073ffffffffffffffffffffffffffffffffffffffff168273ffffffffffffffffffffffffffffffffffffffff161415611850576040517f08c379a000000000000000000000000000000000000000000000000000000000815260040161184790614a4a565b60405180910390fd5b600360008373ffffffffffffffffffffffffffffffffffffffff1673ffffffffffffffffffffffffffffffffffffffff168152602001908152602001600020549050919050565b600e5481565b606060006118aa836117df565b67ffffffffffffffff8111156118c3576118c2613bbd565b5b6040519080825280602002602001820160405280156118f15781602001602082028036833780820191505090505b50905060005b611900846117df565b811015611943576119118482610ff9565b82828151811061192457611923614851565b5b602002602001018181525050808061193b906143e9565b9150506118f7565b8192505050919050565b6000611957610a68565b476119629190614880565b905090565b60606001805461197690614461565b80601f01602080910402602001604051908101604052809291908181526020018280546119a290614461565b80156119ef5780601f106119c4576101008083540402835291602001916119ef565b820191906000526020600020905b8154815290600101906020018083116119d257829003601f168201915b5050505050905090565b611a0b611a0461224d565b8383612759565b5050565b60115481565b611a26611a2061224d565b8361230e565b611a65576040517f08c379a0000000000000000000000000000000000000000000000000000000008152600401611a5c9061479f565b60405180910390fd5b611a71848484846128c6565b50505050565b60136020528060005260406000206000915090505481565b6000806000905060005b611aa2846117df565b811015611ae65760126000611ab78684610ff9565b81526020019081526020016000205482611ad19190614393565b91508080611ade906143e9565b915050611a99565b5080915050919050565b6060611afb826121e1565b611b3a576040517f08c379a0000000000000000000000000000000000000000000000000000000008152600401611b3190614adc565b60405180910390fd5b6000611b44612922565b90506000815111611b645760405180602001604052806000815250611b8f565b80611b6e84612939565b604051602001611b7f929190614b38565b6040516020818303038152906040525b915050919050565b6000600f54611ba461136b565b600c60009054906101000a900473ffffffffffffffffffffffffffffffffffffffff1673ffffffffffffffffffffffffffffffffffffffff166370a08231306040518263ffffffff1660e01b8152600401611bff9190613ad9565b602060405180830381865afa158015611c1c573d6000803e3d6000fd5b505050506040513d601f19601f82011682018060405250810190611c4091906146c9565b611c4a9190614880565b611c549190614880565b905090565b600c60009054906101000a900473ffffffffffffffffffffffffffffffffffffffff1681565b6000601054611c8e9190614393565b4211611c9957600080fd5b60008060009050601154611cab611b97565b1115611ce557601154611cbc611b97565b611cc69190614b8b565b9150678ac7230489e80000821115611ce457678ac7230489e8000091505b5b601154600f541115611d0457601154600f54611d019190614b8b565b90505b8082611d109190614393565b9150600080601154611d2061194d565b611d2a9190614b8b565b9050600091505b600a54821015611df457611d4482612a9a565b84611d4f9190614bbc565b601260008481526020019081526020016000206000828254611d719190614393565b92505081905550611d8182612a9a565b81611d8c9190614bbc565b601360008481526020019081526020016000206000828254611dae9190614393565b92505081905550611dbe82612a9a565b83611dc99190614bbc565b600f6000828254611dda9190614880565b925050819055508180611dec906143e9565b925050611d31565b4260108190555050505050565b60146020528060005260406000206000915090505481565b6000600560008473ffffffffffffffffffffffffffffffffffffffff1673ffffffffffffffffffffffffffffffffffffffff16815260200190815260200160002060008373ffffffffffffffffffffffffffffffffffffffff1673ffffffffffffffffffffffffffffffffffffffff16815260200190815260200160002060009054906101000a900460ff16905092915050565b600d54600c60009054906101000a900473ffffffffffffffffffffffffffffffffffffffff1673ffffffffffffffffffffffffffffffffffffffff166370a08231336040518263ffffffff1660e01b8152600401611f0b9190613ad9565b602060405180830381865afa158015611f28573d6000803e3d6000fd5b505050506040513d601f19601f82011682018060405250810190611f4c91906146c9565b1015611f5757600080fd5b600c60009054906101000a900473ffffffffffffffffffffffffffffffffffffffff1673ffffffffffffffffffffffffffffffffffffffff166323b872dd3330600d546040518463ffffffff1660e01b8152600401611fb8939291906146f6565b6020604051808303816000875af1158015611fd7573d6000803e3d6000fd5b505050506040513d601f19601f82011682018060405250810190611ffb9190614563565b61200457600080fd5b600c60009054906101000a900473ffffffffffffffffffffffffffffffffffffffff1673ffffffffffffffffffffffffffffffffffffffff166342966c68600e54600d546120529190614880565b6040518263ffffffff1660e01b815260040161206e9190613969565b600060405180830381600087803b15801561208857600080fd5b505af115801561209c573d6000803e3d6000fd5b5050505060006120eb6040518060400160405280600781526020017f63466f6e742023000000000000000000000000000000000000000000000000008152506120e6600a54612b1a565b612c81565b90506120f681612cad565b50565b600d5481565b60007f80ac58cd000000000000000000000000000000000000000000000000000000007bffffffffffffffffffffffffffffffffffffffffffffffffffffffff1916827bffffffffffffffffffffffffffffffffffffffffffffffffffffffff191614806121ca57507f5b5e139f000000000000000000000000000000000000000000000000000000007bffffffffffffffffffffffffffffffffffffffffffffffffffffffff1916827bffffffffffffffffffffffffffffffffffffffffffffffffffffffff1916145b806121da57506121d982612f29565b5b9050919050565b60008073ffffffffffffffffffffffffffffffffffffffff166002600084815260200190815260200160002060009054906101000a900473ffffffffffffffffffffffffffffffffffffffff1673ffffffffffffffffffffffffffffffffffffffff1614159050919050565b600033905090565b816004600083815260200190815260200160002060006101000a81548173ffffffffffffffffffffffffffffffffffffffff021916908373ffffffffffffffffffffffffffffffffffffffff160217905550808273ffffffffffffffffffffffffffffffffffffffff166122c883611547565b73ffffffffffffffffffffffffffffffffffffffff167f8c5be1e5ebec7d5bd14f71427d1e84f3dd0314c0f7b2291e5b200ac8c7c3b92560405160405180910390a45050565b6000612319826121e1565b612358576040517f08c379a000000000000000000000000000000000000000000000000000000000815260040161234f90614c88565b60405180910390fd5b600061236383611547565b90508073ffffffffffffffffffffffffffffffffffffffff168473ffffffffffffffffffffffffffffffffffffffff1614806123d257508373ffffffffffffffffffffffffffffffffffffffff166123ba84610b68565b73ffffffffffffffffffffffffffffffffffffffff16145b806123e357506123e28185611e19565b5b91505092915050565b8273ffffffffffffffffffffffffffffffffffffffff1661240c82611547565b73ffffffffffffffffffffffffffffffffffffffff1614612462576040517f08c379a000000000000000000000000000000000000000000000000000000000815260040161245990614d1a565b60405180910390fd5b600073ffffffffffffffffffffffffffffffffffffffff168273ffffffffffffffffffffffffffffffffffffffff1614156124d2576040517f08c379a00000000000000000000000000000000000000000000000000000000081526004016124c990614dac565b60405180910390fd5b6124dd838383612f93565b6124e8600082612255565b6001600360008573ffffffffffffffffffffffffffffffffffffffff1673ffffffffffffffffffffffffffffffffffffffff16815260200190815260200160002060008282546125389190614880565b925050819055506001600360008473ffffffffffffffffffffffffffffffffffffffff1673ffffffffffffffffffffffffffffffffffffffff168152602001908152602001600020600082825461258f9190614393565b92505081905550816002600083815260200190815260200160002060006101000a81548173ffffffffffffffffffffffffffffffffffffffff021916908373ffffffffffffffffffffffffffffffffffffffff160217905550808273ffffffffffffffffffffffffffffffffffffffff168473ffffffffffffffffffffffffffffffffffffffff167fddf252ad1be2c89b69c2b068fc378daa952ba7f163c4a11628f55a4df523b3ef60405160405180910390a4505050565b600061265382611547565b905061266181600084612f93565b61266c600083612255565b6001600360008373ffffffffffffffffffffffffffffffffffffffff1673ffffffffffffffffffffffffffffffffffffffff16815260200190815260200160002060008282546126bc9190614880565b925050819055506002600083815260200190815260200160002060006101000a81549073ffffffffffffffffffffffffffffffffffffffff021916905581600073ffffffffffffffffffffffffffffffffffffffff168273ffffffffffffffffffffffffffffffffffffffff167fddf252ad1be2c89b69c2b068fc378daa952ba7f163c4a11628f55a4df523b3ef60405160405180910390a45050565b8173ffffffffffffffffffffffffffffffffffffffff168373ffffffffffffffffffffffffffffffffffffffff1614156127c8576040517f08c379a00000000000000000000000000000000000000000000000000000000081526004016127bf90614e18565b60405180910390fd5b80600560008573ffffffffffffffffffffffffffffffffffffffff1673ffffffffffffffffffffffffffffffffffffffff16815260200190815260200160002060008473ffffffffffffffffffffffffffffffffffffffff1673ffffffffffffffffffffffffffffffffffffffff16815260200190815260200160002060006101000a81548160ff0219169083151502179055508173ffffffffffffffffffffffffffffffffffffffff168373ffffffffffffffffffffffffffffffffffffffff167f17307eab39ab6107e8899845ad3d59bd9653f200f220920489ca2b5937696c31836040516128b99190613935565b60405180910390a3505050565b6128d18484846123ec565b6128dd848484846130a7565b61291c576040517f08c379a000000000000000000000000000000000000000000000000000000000815260040161291390614eaa565b60405180910390fd5b50505050565b606060405180602001604052806000815250905090565b60606000821415612981576040518060400160405280600181526020017f30000000000000000000000000000000000000000000000000000000000000008152509050612a95565b600082905060005b600082146129b357808061299c906143e9565b915050600a826129ac9190614b8b565b9150612989565b60008167ffffffffffffffff8111156129cf576129ce613bbd565b5b6040519080825280601f01601f191660200182016040528015612a015781602001600182028036833780820191505090505b5090505b60008514612a8e57600182612a1a9190614880565b9150600a85612a299190614eca565b6030612a359190614393565b60f81b818381518110612a4b57612a4a614851565b5b60200101907effffffffffffffffffffffffffffffffffffffffffffffffffffffffffffff1916908160001a905350600a85612a879190614b8b565b9450612a05565b8093505050505b919050565b6000806000905060158381548110612ab557612ab4614851565b5b906000526020600020906006020160050160009054906101000a900460ff16612b115760158381548110612aec57612aeb614851565b5b906000526020600020906006020160030160009054906101000a900460ff1660ff1690505b80915050919050565b60606000821415612b62576040518060400160405280600181526020017f30000000000000000000000000000000000000000000000000000000000000008152509050612c7c565b600082905060005b60008214612b94578080612b7d906143e9565b915050600a82612b8d9190614b8b565b9150612b6a565b60008167ffffffffffffffff811115612bb057612baf613bbd565b5b6040519080825280601f01601f191660200182016040528015612be25781602001600182028036833780820191505090505b50905060008290508593505b60008414612c7457600a84612c039190614eca565b6030612c0f9190614393565b60f81b8282612c1d90614efb565b92508281518110612c3157612c30614851565b5b60200101907effffffffffffffffffffffffffffffffffffffffffffffffffffffffffffff1916908160001a905350600a84612c6d9190614b8b565b9350612bee565b819450505050505b919050565b60608282604051602001612c96929190614b38565b604051602081830303815290604052905092915050565b60006001612cbc60648461322f565b612cc69190614f25565b90506000612cdb662386f26fc100008461322f565b905060006001612ced6127108661322f565b612cf79190614393565b90506000600a612d08608c8761322f565b612d129190614393565b90506000600190506000429050601e8660ff161015612d52576002915060068660ff161015612d51576003915060018260ff161015612d5057600491505b5b5b8160ff1660116000828254612d679190614393565b925050819055506000604051806101000160405280898152602001600a5481526020018781526020018460ff1681526020018661ffff1681526020018560ff16815260200183815260200160001515815250905060158190806001815401808255809150506001900390600052602060002090600602016000909190919091506000820151816000019080519060200190612e039291906137de565b50602082015181600101556040820151816002015560608201518160030160006101000a81548160ff021916908360ff16021790555060808201518160030160016101000a81548161ffff021916908361ffff16021790555060a08201518160030160036101000a81548160ff021916908360ff16021790555060c0820151816004015560e08201518160050160006101000a81548160ff0219169083151502179055505050612eb533600a54613279565b3373ffffffffffffffffffffffffffffffffffffffff167fe6b5d2375ea5860192277472eed072ebc6805abc7699b637dfe1e4806126208a600a5488604051612eff929190614f5c565b60405180910390a2600a6000815480929190612f1a906143e9565b91905055505050505050505050565b60007f01ffc9a7000000000000000000000000000000000000000000000000000000007bffffffffffffffffffffffffffffffffffffffffffffffffffffffff1916827bffffffffffffffffffffffffffffffffffffffffffffffffffffffff1916149050919050565b612f9e838383613297565b600073ffffffffffffffffffffffffffffffffffffffff168373ffffffffffffffffffffffffffffffffffffffff161415612fe157612fdc8161329c565b613020565b8173ffffffffffffffffffffffffffffffffffffffff168373ffffffffffffffffffffffffffffffffffffffff161461301f5761301e83826132e5565b5b5b600073ffffffffffffffffffffffffffffffffffffffff168273ffffffffffffffffffffffffffffffffffffffff1614156130635761305e81613452565b6130a2565b8273ffffffffffffffffffffffffffffffffffffffff168273ffffffffffffffffffffffffffffffffffffffff16146130a1576130a08282613523565b5b5b505050565b60006130c88473ffffffffffffffffffffffffffffffffffffffff166135a2565b15613222578373ffffffffffffffffffffffffffffffffffffffff1663150b7a026130f161224d565b8786866040518563ffffffff1660e01b81526004016131139493929190614fda565b6020604051808303816000875af192505050801561314f57506040513d601f19601f8201168201806040525081019061314c919061503b565b60015b6131d2573d806000811461317f576040519150601f19603f3d011682016040523d82523d6000602084013e613184565b606091505b506000815114156131ca576040517f08c379a00000000000000000000000000000000000000000000000000000000081526004016131c190614eaa565b60405180910390fd5b805181602001fd5b63150b7a0260e01b7bffffffffffffffffffffffffffffffffffffffffffffffffffffffff1916817bffffffffffffffffffffffffffffffffffffffffffffffffffffffff191614915050613227565b600190505b949350505050565b6000804442338560405160200161324994939291906150d1565b6040516020818303038152906040528051906020012060001c905083816132709190614eca565b91505092915050565b6132938282604051806020016040528060008152506135b5565b5050565b505050565b6008805490506009600083815260200190815260200160002081905550600881908060018154018082558091505060019003906000526020600020016000909190919091505550565b600060016132f2846117df565b6132fc9190614880565b90506000600760008481526020019081526020016000205490508181146133e1576000600660008673ffffffffffffffffffffffffffffffffffffffff1673ffffffffffffffffffffffffffffffffffffffff168152602001908152602001600020600084815260200190815260200160002054905080600660008773ffffffffffffffffffffffffffffffffffffffff1673ffffffffffffffffffffffffffffffffffffffff168152602001908152602001600020600084815260200190815260200160002081905550816007600083815260200190815260200160002081905550505b6007600084815260200190815260200160002060009055600660008573ffffffffffffffffffffffffffffffffffffffff1673ffffffffffffffffffffffffffffffffffffffff16815260200190815260200160002060008381526020019081526020016000206000905550505050565b600060016008805490506134669190614880565b905060006009600084815260200190815260200160002054905060006008838154811061349657613495614851565b5b9060005260206000200154905080600883815481106134b8576134b7614851565b5b9060005260206000200181905550816009600083815260200190815260200160002081905550600960008581526020019081526020016000206000905560088054806135075761350661511b565b5b6001900381819060005260206000200160009055905550505050565b600061352e836117df565b905081600660008573ffffffffffffffffffffffffffffffffffffffff1673ffffffffffffffffffffffffffffffffffffffff168152602001908152602001600020600083815260200190815260200160002081905550806007600084815260200190815260200160002081905550505050565b600080823b905060008111915050919050565b6135bf8383613610565b6135cc60008484846130a7565b61360b576040517f08c379a000000000000000000000000000000000000000000000000000000000815260040161360290614eaa565b60405180910390fd5b505050565b600073ffffffffffffffffffffffffffffffffffffffff168273ffffffffffffffffffffffffffffffffffffffff161415613680576040517f08c379a000000000000000000000000000000000000000000000000000000000815260040161367790615196565b60405180910390fd5b613689816121e1565b156136c9576040517f08c379a00000000000000000000000000000000000000000000000000000000081526004016136c090615202565b60405180910390fd5b6136d560008383612f93565b6001600360008473ffffffffffffffffffffffffffffffffffffffff1673ffffffffffffffffffffffffffffffffffffffff16815260200190815260200160002060008282546137259190614393565b92505081905550816002600083815260200190815260200160002060006101000a81548173ffffffffffffffffffffffffffffffffffffffff021916908373ffffffffffffffffffffffffffffffffffffffff160217905550808273ffffffffffffffffffffffffffffffffffffffff16600073ffffffffffffffffffffffffffffffffffffffff167fddf252ad1be2c89b69c2b068fc378daa952ba7f163c4a11628f55a4df523b3ef60405160405180910390a45050565b8280546137ea90614461565b90600052602060002090601f01602090048101928261380c5760008555613853565b82601f1061382557805160ff1916838001178555613853565b82800160010185558215613853579182015b82811115613852578251825591602001919060010190613837565b5b5090506138609190613864565b5090565b5b8082111561387d576000816000905550600101613865565b5090565b6000604051905090565b600080fd5b600080fd5b60007fffffffff0000000000000000000000000000000000000000000000000000000082169050919050565b6138ca81613895565b81146138d557600080fd5b50565b6000813590506138e7816138c1565b92915050565b6000602082840312156139035761390261388b565b5b6000613911848285016138d8565b91505092915050565b60008115159050919050565b61392f8161391a565b82525050565b600060208201905061394a6000830184613926565b92915050565b6000819050919050565b61396381613950565b82525050565b600060208201905061397e600083018461395a565b92915050565b61398d81613950565b811461399857600080fd5b50565b6000813590506139aa81613984565b92915050565b6000602082840312156139c6576139c561388b565b5b60006139d48482850161399b565b91505092915050565b600081519050919050565b600082825260208201905092915050565b60005b83811015613a175780820151818401526020810190506139fc565b83811115613a26576000848401525b50505050565b6000601f19601f8301169050919050565b6000613a48826139dd565b613a5281856139e8565b9350613a628185602086016139f9565b613a6b81613a2c565b840191505092915050565b60006020820190508181036000830152613a908184613a3d565b905092915050565b600073ffffffffffffffffffffffffffffffffffffffff82169050919050565b6000613ac382613a98565b9050919050565b613ad381613ab8565b82525050565b6000602082019050613aee6000830184613aca565b92915050565b613afd81613ab8565b8114613b0857600080fd5b50565b600081359050613b1a81613af4565b92915050565b60008060408385031215613b3757613b3661388b565b5b6000613b4585828601613b0b565b9250506020613b568582860161399b565b9150509250929050565b600080600060608486031215613b7957613b7861388b565b5b6000613b8786828701613b0b565b9350506020613b9886828701613b0b565b9250506040613ba98682870161399b565b9150509250925092565b600080fd5b600080fd5b7f4e487b7100000000000000000000000000000000000000000000000000000000600052604160045260246000fd5b613bf582613a2c565b810181811067ffffffffffffffff82111715613c1457613c13613bbd565b5b80604052505050565b6000613c27613881565b9050613c338282613bec565b919050565b600067ffffffffffffffff821115613c5357613c52613bbd565b5b613c5c82613a2c565b9050602081019050919050565b82818337600083830152505050565b6000613c8b613c8684613c38565b613c1d565b905082815260208101848484011115613ca757613ca6613bb8565b5b613cb2848285613c69565b509392505050565b600082601f830112613ccf57613cce613bb3565b5b8135613cdf848260208601613c78565b91505092915050565b60008060408385031215613cff57613cfe61388b565b5b600083013567ffffffffffffffff811115613d1d57613d1c613890565b5b613d2985828601613cba565b9250506020613d3a8582860161399b565b9150509250929050565b600060ff82169050919050565b613d5a81613d44565b82525050565b600061ffff82169050919050565b613d7781613d60565b82525050565b6000610100820190508181036000830152613d98818b613a3d565b9050613da7602083018a61395a565b613db4604083018961395a565b613dc16060830188613d51565b613dce6080830187613d6e565b613ddb60a0830186613d51565b613de860c083018561395a565b613df560e0830184613926565b9998505050505050505050565b600081519050919050565b600082825260208201905092915050565b6000819050602082019050919050565b600082825260208201905092915050565b6000613e4a826139dd565b613e548185613e2e565b9350613e648185602086016139f9565b613e6d81613a2c565b840191505092915050565b613e8181613950565b82525050565b613e9081613d44565b82525050565b613e9f81613d60565b82525050565b613eae8161391a565b82525050565b6000610100830160008301518482036000860152613ed28282613e3f565b9150506020830151613ee76020860182613e78565b506040830151613efa6040860182613e78565b506060830151613f0d6060860182613e87565b506080830151613f206080860182613e96565b5060a0830151613f3360a0860182613e87565b5060c0830151613f4660c0860182613e78565b5060e0830151613f5960e0860182613ea5565b508091505092915050565b6000613f708383613eb4565b905092915050565b6000602082019050919050565b6000613f9082613e02565b613f9a8185613e0d565b935083602082028501613fac85613e1e565b8060005b85811015613fe85784840389528151613fc98582613f64565b9450613fd483613f78565b925060208a01995050600181019050613fb0565b50829750879550505050505092915050565b600060208201905081810360008301526140148184613f85565b905092915050565b6000602082840312156140325761403161388b565b5b600061404084828501613b0b565b91505092915050565b600081519050919050565b600082825260208201905092915050565b6000819050602082019050919050565b60006140818383613e78565b60208301905092915050565b6000602082019050919050565b60006140a582614049565b6140af8185614054565b93506140ba83614065565b8060005b838110156140eb5781516140d28882614075565b97506140dd8361408d565b9250506001810190506140be565b5085935050505092915050565b60006020820190508181036000830152614112818461409a565b905092915050565b6141238161391a565b811461412e57600080fd5b50565b6000813590506141408161411a565b92915050565b6000806040838503121561415d5761415c61388b565b5b600061416b85828601613b0b565b925050602061417c85828601614131565b9150509250929050565b600067ffffffffffffffff8211156141a1576141a0613bbd565b5b6141aa82613a2c565b9050602081019050919050565b60006141ca6141c584614186565b613c1d565b9050828152602081018484840111156141e6576141e5613bb8565b5b6141f1848285613c69565b509392505050565b600082601f83011261420e5761420d613bb3565b5b813561421e8482602086016141b7565b91505092915050565b600080600080608085870312156142415761424061388b565b5b600061424f87828801613b0b565b945050602061426087828801613b0b565b93505060406142718782880161399b565b925050606085013567ffffffffffffffff81111561429257614291613890565b5b61429e878288016141f9565b91505092959194509250565b6000819050919050565b60006142cf6142ca6142c584613a98565b6142aa565b613a98565b9050919050565b60006142e1826142b4565b9050919050565b60006142f3826142d6565b9050919050565b614303816142e8565b82525050565b600060208201905061431e60008301846142fa565b92915050565b6000806040838503121561433b5761433a61388b565b5b600061434985828601613b0b565b925050602061435a85828601613b0b565b9150509250929050565b7f4e487b7100000000000000000000000000000000000000000000000000000000600052601160045260246000fd5b600061439e82613950565b91506143a983613950565b9250827fffffffffffffffffffffffffffffffffffffffffffffffffffffffffffffffff038211156143de576143dd614364565b5b828201905092915050565b60006143f482613950565b91507fffffffffffffffffffffffffffffffffffffffffffffffffffffffffffffffff82141561442757614426614364565b5b600182019050919050565b7f4e487b7100000000000000000000000000000000000000000000000000000000600052602260045260246000fd5b6000600282049050600182168061447957607f821691505b6020821081141561448d5761448c614432565b5b50919050565b7f4552433732313a20617070726f76656420717565727920666f72206e6f6e657860008201527f697374656e7420746f6b656e0000000000000000000000000000000000000000602082015250565b60006144ef602c836139e8565b91506144fa82614493565b604082019050919050565b6000602082019050818103600083015261451e816144e2565b9050919050565b600060408201905061453a6000830185613aca565b614547602083018461395a565b9392505050565b60008151905061455d8161411a565b92915050565b6000602082840312156145795761457861388b565b5b60006145878482850161454e565b91505092915050565b7f4552433732313a20617070726f76616c20746f2063757272656e74206f776e6560008201527f7200000000000000000000000000000000000000000000000000000000000000602082015250565b60006145ec6021836139e8565b91506145f782614590565b604082019050919050565b6000602082019050818103600083015261461b816145df565b9050919050565b7f4552433732313a20617070726f76652063616c6c6572206973206e6f74206f7760008201527f6e6572206e6f7220617070726f76656420666f7220616c6c0000000000000000602082015250565b600061467e6038836139e8565b915061468982614622565b604082019050919050565b600060208201905081810360008301526146ad81614671565b9050919050565b6000815190506146c381613984565b92915050565b6000602082840312156146df576146de61388b565b5b60006146ed848285016146b4565b91505092915050565b600060608201905061470b6000830186613aca565b6147186020830185613aca565b614725604083018461395a565b949350505050565b7f4552433732313a207472616e736665722063616c6c6572206973206e6f74206f60008201527f776e6572206e6f7220617070726f766564000000000000000000000000000000602082015250565b60006147896031836139e8565b91506147948261472d565b604082019050919050565b600060208201905081810360008301526147b88161477c565b9050919050565b7f455243373231456e756d657261626c653a206f776e657220696e646578206f7560008201527f74206f6620626f756e6473000000000000000000000000000000000000000000602082015250565b600061481b602b836139e8565b9150614826826147bf565b604082019050919050565b6000602082019050818103600083015261484a8161480e565b9050919050565b7f4e487b7100000000000000000000000000000000000000000000000000000000600052603260045260246000fd5b600061488b82613950565b915061489683613950565b9250828210156148a9576148a8614364565b5b828203905092915050565b7f455243373231456e756d657261626c653a20676c6f62616c20696e646578206f60008201527f7574206f6620626f756e64730000000000000000000000000000000000000000602082015250565b6000614910602c836139e8565b915061491b826148b4565b604082019050919050565b6000602082019050818103600083015261493f81614903565b9050919050565b7f4552433732313a206f776e657220717565727920666f72206e6f6e657869737460008201527f656e7420746f6b656e0000000000000000000000000000000000000000000000602082015250565b60006149a26029836139e8565b91506149ad82614946565b604082019050919050565b600060208201905081810360008301526149d181614995565b9050919050565b7f4552433732313a2062616c616e636520717565727920666f7220746865207a6560008201527f726f206164647265737300000000000000000000000000000000000000000000602082015250565b6000614a34602a836139e8565b9150614a3f826149d8565b604082019050919050565b60006020820190508181036000830152614a6381614a27565b9050919050565b7f4552433732314d657461646174613a2055524920717565727920666f72206e6f60008201527f6e6578697374656e7420746f6b656e0000000000000000000000000000000000602082015250565b6000614ac6602f836139e8565b9150614ad182614a6a565b604082019050919050565b60006020820190508181036000830152614af581614ab9565b9050919050565b600081905092915050565b6000614b12826139dd565b614b1c8185614afc565b9350614b2c8185602086016139f9565b80840191505092915050565b6000614b448285614b07565b9150614b508284614b07565b91508190509392505050565b7f4e487b7100000000000000000000000000000000000000000000000000000000600052601260045260246000fd5b6000614b9682613950565b9150614ba183613950565b925082614bb157614bb0614b5c565b5b828204905092915050565b6000614bc782613950565b9150614bd283613950565b9250817fffffffffffffffffffffffffffffffffffffffffffffffffffffffffffffffff0483118215151615614c0b57614c0a614364565b5b828202905092915050565b7f4552433732313a206f70657261746f7220717565727920666f72206e6f6e657860008201527f697374656e7420746f6b656e0000000000000000000000000000000000000000602082015250565b6000614c72602c836139e8565b9150614c7d82614c16565b604082019050919050565b60006020820190508181036000830152614ca181614c65565b9050919050565b7f4552433732313a207472616e73666572206f6620746f6b656e2074686174206960008201527f73206e6f74206f776e0000000000000000000000000000000000000000000000602082015250565b6000614d046029836139e8565b9150614d0f82614ca8565b604082019050919050565b60006020820190508181036000830152614d3381614cf7565b9050919050565b7f4552433732313a207472616e7366657220746f20746865207a65726f2061646460008201527f7265737300000000000000000000000000000000000000000000000000000000602082015250565b6000614d966024836139e8565b9150614da182614d3a565b604082019050919050565b60006020820190508181036000830152614dc581614d89565b9050919050565b7f4552433732313a20617070726f766520746f2063616c6c657200000000000000600082015250565b6000614e026019836139e8565b9150614e0d82614dcc565b602082019050919050565b60006020820190508181036000830152614e3181614df5565b9050919050565b7f4552433732313a207472616e7366657220746f206e6f6e20455243373231526560008201527f63656976657220696d706c656d656e7465720000000000000000000000000000602082015250565b6000614e946032836139e8565b9150614e9f82614e38565b604082019050919050565b60006020820190508181036000830152614ec381614e87565b9050919050565b6000614ed582613950565b9150614ee083613950565b925082614ef057614eef614b5c565b5b828206905092915050565b6000614f0682613950565b91506000821415614f1a57614f19614364565b5b600182039050919050565b6000614f3082613d44565b9150614f3b83613d44565b92508260ff03821115614f5157614f50614364565b5b828201905092915050565b6000604082019050614f71600083018561395a565b614f7e602083018461395a565b9392505050565b600081519050919050565b600082825260208201905092915050565b6000614fac82614f85565b614fb68185614f90565b9350614fc68185602086016139f9565b614fcf81613a2c565b840191505092915050565b6000608082019050614fef6000830187613aca565b614ffc6020830186613aca565b615009604083018561395a565b818103606083015261501b8184614fa1565b905095945050505050565b600081519050615035816138c1565b92915050565b6000602082840312156150515761505061388b565b5b600061505f84828501615026565b91505092915050565b6000819050919050565b61508361507e82613950565b615068565b82525050565b60008160601b9050919050565b60006150a182615089565b9050919050565b60006150b382615096565b9050919050565b6150cb6150c682613ab8565b6150a8565b82525050565b60006150dd8287615072565b6020820191506150ed8286615072565b6020820191506150fd82856150ba565b60148201915061510d8284614b07565b915081905095945050505050565b7f4e487b7100000000000000000000000000000000000000000000000000000000600052603160045260246000fd5b7f4552433732313a206d696e7420746f20746865207a65726f2061646472657373600082015250565b60006151806020836139e8565b915061518b8261514a565b602082019050919050565b600060208201905081810360008301526151af81615173565b9050919050565b7f4552433732313a20746f6b656e20616c7265616479206d696e74656400000000600082015250565b60006151ec601c836139e8565b91506151f7826151b6565b602082019050919050565b6000602082019050818103600083015261521b816151df565b905091905056fea26469706673582212203c6dd77e2da7c691a786e028ad0d084741cadfca43360bf8d6d87f7ea15933a464736f6c634300080b0033",
  "immutableReferences": {},
  "source": "// SPDX-License-Identifier: MIT\n\npragma solidity ^0.8.0;\n\nimport \"@openzeppelin/contracts/token/ERC721/ERC721.sol\";\nimport \"@openzeppelin/contracts/access/Ownable.sol\";\nimport \"@openzeppelin/contracts/token/ERC721/extensions/ERC721Enumerable.sol\";\nimport \"@openzeppelin/contracts/token/ERC20/IERC20.sol\";\nimport \"./utils.sol\";\nimport \"./ebtc.sol\";\n\ncontract cryptoFont is ERC721Enumerable,utils  {\n    uint256 COUNTER = 0;\n    address _owner;\n    IEBTC public eBitcoin;\n    uint256 public vcost = 100 * 10**18;\n    uint256 public vfee = vcost * 50 / 100;\n    uint256 public _feePool;\n    uint256 public _pastDistributedReward;\n\n    // counters\n    uint256 public rarityCounter;\n\n    mapping(uint256 => uint256) public tokenToReward;\n    mapping(uint256 => uint256) public tokenToEthers;\n    mapping(address => uint256) public burnCounter;\n\n    struct cFont {\n        string name;\n        uint256 id;\n        uint256 dna;\n        uint8 rarity;\n        uint16 power;\n        uint8 size;\n        uint256 mintDate;\n        bool burn;\n    }\n\n    cFont[] public cFonts;\n\n    event NewcFont(address indexed owner, uint256 id, uint dna);\n\n    function _createRandomNum(uint256 _mod, string memory str) internal view returns(uint256){\n        uint256 randomNum = uint256(keccak256(abi.encodePacked(block.difficulty, block.timestamp, msg.sender, str)));\n        return randomNum % _mod;\n    }\n\n    constructor(address eBitcoinAddress)\n        ERC721(\"Crypto Font\", \"cFont\")\n    {\n        eBitcoin = IEBTC(eBitcoinAddress);\n        _pastDistributedReward = block.timestamp;\n        _owner = msg.sender;\n    }\n    \n    function _createcFont(string memory _name) internal{\n        uint8 randRarity = uint8(_createRandomNum(100, _name)) + 1;\n        uint256 randDna = _createRandomNum(10**16, _name);\n        uint16 randPower = uint16(_createRandomNum(10000, _name) + 1);\n        uint8 randSize = uint8(_createRandomNum(140, _name) + 10);\n        uint8 rarity = 1;\n        uint256 mint_date = block.timestamp;\n\n        if(randRarity < 30){\n            rarity = 2;\n            if(randRarity < 6){\n                rarity = 3;\n                if(rarity <1){\n                    rarity = 4;\n                }\n            }\n        }\n\n        rarityCounter+= rarity;\n        \n        cFont memory newcFont = cFont(_name, COUNTER, randDna, rarity, randPower,randSize,mint_date,false);\n        cFonts.push(newcFont);\n        _safeMint(msg.sender, COUNTER);\n        emit NewcFont(msg.sender,COUNTER, randDna);\n        COUNTER++;\n    }\n\n    function createRandomcFont() public{\n        require(eBitcoin.balanceOf(msg.sender) >= vcost);\n        require(eBitcoin.transferFrom(msg.sender,address(this), vcost));\n        eBitcoin.burn(vcost-vfee);\n        string memory name = concatenate(\"cFont #\",uint2str(COUNTER));\n        _createcFont(name);\n    }\n\n    function reverseSwap(uint256 id) public{\n        require(ownerOf(id) == msg.sender);\n        burnCounter[msg.sender] += cFonts[id].rarity;\n        rarityCounter -= cFonts[id].rarity;\n        _burn(id);\n        cFonts[id].burn = true;\n    }\n\n    function getcFonts() public view returns(cFont[] memory) {\n        return cFonts;\n    }\n\n    function _getRarity(uint256 id) internal view returns(uint256){\n        uint256 rarity = 0;\n        if(!cFonts[id].burn){\n                rarity=cFonts[id].rarity;\n            }\n        return rarity;\n    }\n\n    function countAllReward() public view returns(uint256){\n        uint256 reward = 0;\n        uint256 i;\n        for (i=0;i<COUNTER;i++){\n            reward+=tokenToReward[i];\n        }\n        \n        return reward;\n    }\n\n    function countAllEthers() public view returns(uint256){\n        uint256 reward = 0;\n        uint256 i;\n        for (i=0;i<COUNTER;i++){\n            reward+=tokenToEthers[i];\n        }\n        \n        return reward;\n    }\n\n\n    function remainingEthers() public view returns(uint256){\n        return address(this).balance - countAllEthers();\n    }\n\n    function remainingeBTC() public view returns(uint256){\n        return eBitcoin.balanceOf(address(this)) - countAllReward() - _feePool;\n    }\n\n    function DistributeReward() public{\n        require(block.timestamp > _pastDistributedReward + 0 days);\n        uint256 rewardPerRare;\n        uint256 feePerRare = 0;\n        if(remainingeBTC() > rarityCounter){\n            rewardPerRare = remainingeBTC() / rarityCounter;\n            if(rewardPerRare > 10*10**18){\n                rewardPerRare = 10*10**18;\n            }   \n        }\n        if(_feePool > rarityCounter){\n            feePerRare = _feePool / rarityCounter;  \n        }\n        rewardPerRare += feePerRare;\n\n        uint256 i;\n\n        uint256 ethersPerRare = remainingEthers() / rarityCounter;\n        for(i=0; i<COUNTER;i++){\n            tokenToReward[i] += rewardPerRare * _getRarity(i);\n            tokenToEthers[i] += ethersPerRare * _getRarity(i);\n            _feePool -= feePerRare * _getRarity(i);\n        }\n\n        _pastDistributedReward = block.timestamp;\n    }\n\n    function showEthers(address account) public view returns(uint256){\n        uint256 reward = 0;\n        for(uint256 i =0; i< balanceOf(account); i++){\n            reward += tokenToEthers[tokenOfOwnerByIndex(account, i)];\n        }\n        return reward;\n    }\n\n    function getAllEthers() public{\n        uint256 reward = 0;\n        for(uint256 i = 0;i< balanceOf(msg.sender); i++){\n            reward += tokenToEthers[tokenOfOwnerByIndex(msg.sender, i)];\n            tokenToEthers[tokenOfOwnerByIndex(msg.sender, i)] = 0;\n        }\n        payable(msg.sender).transfer(reward);\n    }\n\n    receive() external payable {}\n\n    function showReward(address account) public view returns(uint256){\n        uint256 reward = 0;\n        for(uint256 i =0; i< balanceOf(account); i++){\n            reward += tokenToReward[tokenOfOwnerByIndex(account, i)];\n        }\n        return reward;\n    }\n\n    function getAllReward() public{\n        uint256 reward = 0;\n        for(uint256 i = 0;i< balanceOf(msg.sender); i++){\n            reward += tokenToReward[tokenOfOwnerByIndex(msg.sender, i)];\n            tokenToReward[tokenOfOwnerByIndex(msg.sender, i)] = 0;\n        }\n        eBitcoin.transfer(msg.sender, reward);\n    }\n\n    function setName(string memory name, uint256 id) public {\n        require(ownerOf(id) == msg.sender);\n        require(bytes(name).length > 0);\n        cFonts[id].name = name;\n    }\n\n\n    function AddeBTCFee(uint256 _amount) public{\n        require(eBitcoin.balanceOf(msg.sender) >= _amount);\n        require(eBitcoin.transferFrom(msg.sender,address(this), _amount));\n        _feePool += _amount;\n    }\n\n    function getIdsOfOwner(address _address) public view returns (uint[] memory) {\n        uint[] memory _tokensOfOwner = new uint[](ERC721.balanceOf(_address));\n        uint i;\n\n        for (i=0;i<ERC721.balanceOf(_address);i++){\n            _tokensOfOwner[i] = ERC721Enumerable.tokenOfOwnerByIndex(_address, i);\n        }\n        return (_tokensOfOwner);\n    }\n}",
  "sourcePath": "/Users/jarupaksrisuchat/Documents/github/crypto-font/contracts/cFont.sol",
  "compiler": {
    "name": "solc",
    "version": "0.8.11+commit.d7f03943.Emscripten.clang"
  },
  "schemaVersion": "3.4.3",
  "updatedAt": "2021-12-23T09:42:30.728Z",
  "networkType": "ethereum",
  "devdoc": {
    "kind": "dev",
    "methods": {
      "approve(address,uint256)": {
        "details": "See {IERC721-approve}."
      },
      "balanceOf(address)": {
        "details": "See {IERC721-balanceOf}."
      },
      "getApproved(uint256)": {
        "details": "See {IERC721-getApproved}."
      },
      "isApprovedForAll(address,address)": {
        "details": "See {IERC721-isApprovedForAll}."
      },
      "name()": {
        "details": "See {IERC721Metadata-name}."
      },
      "ownerOf(uint256)": {
        "details": "See {IERC721-ownerOf}."
      },
      "safeTransferFrom(address,address,uint256)": {
        "details": "See {IERC721-safeTransferFrom}."
      },
      "safeTransferFrom(address,address,uint256,bytes)": {
        "details": "See {IERC721-safeTransferFrom}."
      },
      "setApprovalForAll(address,bool)": {
        "details": "See {IERC721-setApprovalForAll}."
      },
      "supportsInterface(bytes4)": {
        "details": "See {IERC165-supportsInterface}."
      },
      "symbol()": {
        "details": "See {IERC721Metadata-symbol}."
      },
      "tokenByIndex(uint256)": {
        "details": "See {IERC721Enumerable-tokenByIndex}."
      },
      "tokenOfOwnerByIndex(address,uint256)": {
        "details": "See {IERC721Enumerable-tokenOfOwnerByIndex}."
      },
      "tokenURI(uint256)": {
        "details": "See {IERC721Metadata-tokenURI}."
      },
      "totalSupply()": {
        "details": "See {IERC721Enumerable-totalSupply}."
      },
      "transferFrom(address,address,uint256)": {
        "details": "See {IERC721-transferFrom}."
      }
    },
    "version": 1
  },
  "userdoc": {
    "kind": "user",
    "methods": {},
    "version": 1
  }
}