{
  "contractName": "cryptoFont",
  "abi": [
    {
      "inputs": [
        {
          "internalType": "address",
          "name": "eBitcoinAddress",
          "type": "address"
        }
      ],
      "stateMutability": "nonpayable",
      "type": "constructor"
    },
    {
      "anonymous": false,
      "inputs": [
        {
          "indexed": true,
          "internalType": "address",
          "name": "owner",
          "type": "address"
        },
        {
          "indexed": true,
          "internalType": "address",
          "name": "approved",
          "type": "address"
        },
        {
          "indexed": true,
          "internalType": "uint256",
          "name": "tokenId",
          "type": "uint256"
        }
      ],
      "name": "Approval",
      "type": "event"
    },
    {
      "anonymous": false,
      "inputs": [
        {
          "indexed": true,
          "internalType": "address",
          "name": "owner",
          "type": "address"
        },
        {
          "indexed": true,
          "internalType": "address",
          "name": "operator",
          "type": "address"
        },
        {
          "indexed": false,
          "internalType": "bool",
          "name": "approved",
          "type": "bool"
        }
      ],
      "name": "ApprovalForAll",
      "type": "event"
    },
    {
      "anonymous": false,
      "inputs": [
        {
          "indexed": true,
          "internalType": "address",
          "name": "owner",
          "type": "address"
        },
        {
          "indexed": false,
          "internalType": "uint256",
          "name": "id",
          "type": "uint256"
        },
        {
          "indexed": false,
          "internalType": "uint256",
          "name": "dna",
          "type": "uint256"
        }
      ],
      "name": "NewcFont",
      "type": "event"
    },
    {
      "anonymous": false,
      "inputs": [
        {
          "indexed": true,
          "internalType": "address",
          "name": "previousOwner",
          "type": "address"
        },
        {
          "indexed": true,
          "internalType": "address",
          "name": "newOwner",
          "type": "address"
        }
      ],
      "name": "OwnershipTransferred",
      "type": "event"
    },
    {
      "anonymous": false,
      "inputs": [
        {
          "indexed": true,
          "internalType": "address",
          "name": "from",
          "type": "address"
        },
        {
          "indexed": true,
          "internalType": "address",
          "name": "to",
          "type": "address"
        },
        {
          "indexed": true,
          "internalType": "uint256",
          "name": "tokenId",
          "type": "uint256"
        }
      ],
      "name": "Transfer",
      "type": "event"
    },
    {
      "inputs": [
        {
          "internalType": "address",
          "name": "to",
          "type": "address"
        },
        {
          "internalType": "uint256",
          "name": "tokenId",
          "type": "uint256"
        }
      ],
      "name": "approve",
      "outputs": [],
      "stateMutability": "nonpayable",
      "type": "function"
    },
    {
      "inputs": [
        {
          "internalType": "address",
          "name": "owner",
          "type": "address"
        }
      ],
      "name": "balanceOf",
      "outputs": [
        {
          "internalType": "uint256",
          "name": "",
          "type": "uint256"
        }
      ],
      "stateMutability": "view",
      "type": "function",
      "constant": true
    },
    {
      "inputs": [
        {
          "internalType": "uint256",
          "name": "",
          "type": "uint256"
        }
      ],
      "name": "cFonts",
      "outputs": [
        {
          "internalType": "string",
          "name": "name",
          "type": "string"
        },
        {
          "internalType": "uint256",
          "name": "id",
          "type": "uint256"
        },
        {
          "internalType": "uint256",
          "name": "dna",
          "type": "uint256"
        },
        {
          "internalType": "uint8",
          "name": "rarity",
          "type": "uint8"
        },
        {
          "internalType": "uint256",
          "name": "Stat",
          "type": "uint256"
        },
        {
          "internalType": "uint16",
          "name": "Power",
          "type": "uint16"
        },
        {
          "internalType": "uint8",
          "name": "Size",
          "type": "uint8"
        },
        {
          "internalType": "uint256",
          "name": "mintDate",
          "type": "uint256"
        }
      ],
      "stateMutability": "view",
      "type": "function",
      "constant": true
    },
    {
      "inputs": [],
      "name": "cost",
      "outputs": [
        {
          "internalType": "uint256",
          "name": "",
          "type": "uint256"
        }
      ],
      "stateMutability": "view",
      "type": "function",
      "constant": true
    },
    {
      "inputs": [],
      "name": "eBitcoin",
      "outputs": [
        {
          "internalType": "contract IERC20",
          "name": "",
          "type": "address"
        }
      ],
      "stateMutability": "view",
      "type": "function",
      "constant": true
    },
    {
      "inputs": [],
      "name": "fee",
      "outputs": [
        {
          "internalType": "uint256",
          "name": "",
          "type": "uint256"
        }
      ],
      "stateMutability": "view",
      "type": "function",
      "constant": true
    },
    {
      "inputs": [
        {
          "internalType": "uint256",
          "name": "tokenId",
          "type": "uint256"
        }
      ],
      "name": "getApproved",
      "outputs": [
        {
          "internalType": "address",
          "name": "",
          "type": "address"
        }
      ],
      "stateMutability": "view",
      "type": "function",
      "constant": true
    },
    {
      "inputs": [
        {
          "internalType": "address",
          "name": "owner",
          "type": "address"
        },
        {
          "internalType": "address",
          "name": "operator",
          "type": "address"
        }
      ],
      "name": "isApprovedForAll",
      "outputs": [
        {
          "internalType": "bool",
          "name": "",
          "type": "bool"
        }
      ],
      "stateMutability": "view",
      "type": "function",
      "constant": true
    },
    {
      "inputs": [],
      "name": "name",
      "outputs": [
        {
          "internalType": "string",
          "name": "",
          "type": "string"
        }
      ],
      "stateMutability": "view",
      "type": "function",
      "constant": true
    },
    {
      "inputs": [],
      "name": "owner",
      "outputs": [
        {
          "internalType": "address",
          "name": "",
          "type": "address"
        }
      ],
      "stateMutability": "view",
      "type": "function",
      "constant": true
    },
    {
      "inputs": [
        {
          "internalType": "uint256",
          "name": "tokenId",
          "type": "uint256"
        }
      ],
      "name": "ownerOf",
      "outputs": [
        {
          "internalType": "address",
          "name": "",
          "type": "address"
        }
      ],
      "stateMutability": "view",
      "type": "function",
      "constant": true
    },
    {
      "inputs": [],
      "name": "renounceOwnership",
      "outputs": [],
      "stateMutability": "nonpayable",
      "type": "function"
    },
    {
      "inputs": [
        {
          "internalType": "address",
          "name": "from",
          "type": "address"
        },
        {
          "internalType": "address",
          "name": "to",
          "type": "address"
        },
        {
          "internalType": "uint256",
          "name": "tokenId",
          "type": "uint256"
        }
      ],
      "name": "safeTransferFrom",
      "outputs": [],
      "stateMutability": "nonpayable",
      "type": "function"
    },
    {
      "inputs": [
        {
          "internalType": "address",
          "name": "from",
          "type": "address"
        },
        {
          "internalType": "address",
          "name": "to",
          "type": "address"
        },
        {
          "internalType": "uint256",
          "name": "tokenId",
          "type": "uint256"
        },
        {
          "internalType": "bytes",
          "name": "_data",
          "type": "bytes"
        }
      ],
      "name": "safeTransferFrom",
      "outputs": [],
      "stateMutability": "nonpayable",
      "type": "function"
    },
    {
      "inputs": [
        {
          "internalType": "address",
          "name": "operator",
          "type": "address"
        },
        {
          "internalType": "bool",
          "name": "approved",
          "type": "bool"
        }
      ],
      "name": "setApprovalForAll",
      "outputs": [],
      "stateMutability": "nonpayable",
      "type": "function"
    },
    {
      "inputs": [
        {
          "internalType": "bytes4",
          "name": "interfaceId",
          "type": "bytes4"
        }
      ],
      "name": "supportsInterface",
      "outputs": [
        {
          "internalType": "bool",
          "name": "",
          "type": "bool"
        }
      ],
      "stateMutability": "view",
      "type": "function",
      "constant": true
    },
    {
      "inputs": [],
      "name": "symbol",
      "outputs": [
        {
          "internalType": "string",
          "name": "",
          "type": "string"
        }
      ],
      "stateMutability": "view",
      "type": "function",
      "constant": true
    },
    {
      "inputs": [
        {
          "internalType": "uint256",
          "name": "index",
          "type": "uint256"
        }
      ],
      "name": "tokenByIndex",
      "outputs": [
        {
          "internalType": "uint256",
          "name": "",
          "type": "uint256"
        }
      ],
      "stateMutability": "view",
      "type": "function",
      "constant": true
    },
    {
      "inputs": [
        {
          "internalType": "address",
          "name": "owner",
          "type": "address"
        },
        {
          "internalType": "uint256",
          "name": "index",
          "type": "uint256"
        }
      ],
      "name": "tokenOfOwnerByIndex",
      "outputs": [
        {
          "internalType": "uint256",
          "name": "",
          "type": "uint256"
        }
      ],
      "stateMutability": "view",
      "type": "function",
      "constant": true
    },
    {
      "inputs": [
        {
          "internalType": "uint256",
          "name": "tokenId",
          "type": "uint256"
        }
      ],
      "name": "tokenURI",
      "outputs": [
        {
          "internalType": "string",
          "name": "",
          "type": "string"
        }
      ],
      "stateMutability": "view",
      "type": "function",
      "constant": true
    },
    {
      "inputs": [],
      "name": "totalSupply",
      "outputs": [
        {
          "internalType": "uint256",
          "name": "",
          "type": "uint256"
        }
      ],
      "stateMutability": "view",
      "type": "function",
      "constant": true
    },
    {
      "inputs": [
        {
          "internalType": "address",
          "name": "from",
          "type": "address"
        },
        {
          "internalType": "address",
          "name": "to",
          "type": "address"
        },
        {
          "internalType": "uint256",
          "name": "tokenId",
          "type": "uint256"
        }
      ],
      "name": "transferFrom",
      "outputs": [],
      "stateMutability": "nonpayable",
      "type": "function"
    },
    {
      "inputs": [
        {
          "internalType": "address",
          "name": "newOwner",
          "type": "address"
        }
      ],
      "name": "transferOwnership",
      "outputs": [],
      "stateMutability": "nonpayable",
      "type": "function"
    },
    {
      "inputs": [],
      "name": "createRandomcFont",
      "outputs": [],
      "stateMutability": "nonpayable",
      "type": "function"
    },
    {
      "inputs": [],
      "name": "getcFont",
      "outputs": [
        {
          "components": [
            {
              "internalType": "string",
              "name": "name",
              "type": "string"
            },
            {
              "internalType": "uint256",
              "name": "id",
              "type": "uint256"
            },
            {
              "internalType": "uint256",
              "name": "dna",
              "type": "uint256"
            },
            {
              "internalType": "uint8",
              "name": "rarity",
              "type": "uint8"
            },
            {
              "internalType": "uint256",
              "name": "Stat",
              "type": "uint256"
            },
            {
              "internalType": "uint16",
              "name": "Power",
              "type": "uint16"
            },
            {
              "internalType": "uint8",
              "name": "Size",
              "type": "uint8"
            },
            {
              "internalType": "uint256",
              "name": "mintDate",
              "type": "uint256"
            }
          ],
          "internalType": "struct cryptoFont.cFont[]",
          "name": "",
          "type": "tuple[]"
        }
      ],
      "stateMutability": "view",
      "type": "function",
      "constant": true
    },
    {
      "inputs": [
        {
          "internalType": "address",
          "name": "_owner",
          "type": "address"
        }
      ],
      "name": "getIdsOfOwner",
      "outputs": [
        {
          "internalType": "uint256[]",
          "name": "",
          "type": "uint256[]"
        }
      ],
      "stateMutability": "view",
      "type": "function",
      "constant": true
    }
  ],
  "bytecode": "0x60806040526000600b55680ad78ebc5ac6200000600d556064600a600d546200002991906200032a565b620000359190620003ba565b600e553480156200004557600080fd5b506040516200484f3803806200484f83398181016040528101906200006b91906200045c565b6040518060400160405280600b81526020017f43727970746f20466f6e740000000000000000000000000000000000000000008152506040518060400160405280600581526020017f63466f6e740000000000000000000000000000000000000000000000000000008152508160009080519060200190620000ef92919062000241565b5080600190805190602001906200010892919062000241565b5050506200012b6200011f6200017360201b60201c565b6200017b60201b60201c565b80600c60006101000a81548173ffffffffffffffffffffffffffffffffffffffff021916908373ffffffffffffffffffffffffffffffffffffffff16021790555050620004f3565b600033905090565b6000600a60009054906101000a900473ffffffffffffffffffffffffffffffffffffffff16905081600a60006101000a81548173ffffffffffffffffffffffffffffffffffffffff021916908373ffffffffffffffffffffffffffffffffffffffff1602179055508173ffffffffffffffffffffffffffffffffffffffff168173ffffffffffffffffffffffffffffffffffffffff167f8be0079c531659141344cd1fd0a4f28419497f9722a3daafe3b4186f6b6457e060405160405180910390a35050565b8280546200024f90620004bd565b90600052602060002090601f016020900481019282620002735760008555620002bf565b82601f106200028e57805160ff1916838001178555620002bf565b82800160010185558215620002bf579182015b82811115620002be578251825591602001919060010190620002a1565b5b509050620002ce9190620002d2565b5090565b5b80821115620002ed576000816000905550600101620002d3565b5090565b6000819050919050565b7f4e487b7100000000000000000000000000000000000000000000000000000000600052601160045260246000fd5b60006200033782620002f1565b91506200034483620002f1565b9250817fffffffffffffffffffffffffffffffffffffffffffffffffffffffffffffffff048311821515161562000380576200037f620002fb565b5b828202905092915050565b7f4e487b7100000000000000000000000000000000000000000000000000000000600052601260045260246000fd5b6000620003c782620002f1565b9150620003d483620002f1565b925082620003e757620003e66200038b565b5b828204905092915050565b600080fd5b600073ffffffffffffffffffffffffffffffffffffffff82169050919050565b60006200042482620003f7565b9050919050565b620004368162000417565b81146200044257600080fd5b50565b60008151905062000456816200042b565b92915050565b600060208284031215620004755762000474620003f2565b5b6000620004858482850162000445565b91505092915050565b7f4e487b7100000000000000000000000000000000000000000000000000000000600052602260045260246000fd5b60006002820490506001821680620004d657607f821691505b60208210811415620004ed57620004ec6200048e565b5b50919050565b61434c80620005036000396000f3fe608060405234801561001057600080fd5b506004361061018e5760003560e01c806370a08231116100de578063b88d4fde11610097578063e1930a0f11610071578063e1930a0f146104b2578063e985e9c5146104d0578063f2fde38b14610500578063f56a29da1461051c5761018e565b8063b88d4fde14610448578063c87b56dd14610464578063ddca3f43146104945761018e565b806370a0823114610386578063715018a6146103b65780637feaaacc146103c05780638da5cb5b146103f057806395d89b411461040e578063a22cb4651461042c5761018e565b806323b872dd1161014b5780634f6ccce7116101255780634f6ccce7146102d15780635069918f146103015780635e204dbb146103385780636352211e146103565761018e565b806323b872dd146102695780632f745c591461028557806342842e0e146102b55761018e565b806301ffc9a71461019357806306fdde03146101c3578063081812fc146101e1578063095ea7b31461021157806313faede61461022d57806318160ddd1461024b575b600080fd5b6101ad60048036038101906101a89190612a8c565b610526565b6040516101ba9190612ad4565b60405180910390f35b6101cb6105a0565b6040516101d89190612b88565b60405180910390f35b6101fb60048036038101906101f69190612be0565b610632565b6040516102089190612c4e565b60405180910390f35b61022b60048036038101906102269190612c95565b6106b7565b005b6102356107cf565b6040516102429190612ce4565b60405180910390f35b6102536107d5565b6040516102609190612ce4565b60405180910390f35b610283600480360381019061027e9190612cff565b6107e2565b005b61029f600480360381019061029a9190612c95565b610842565b6040516102ac9190612ce4565b60405180910390f35b6102cf60048036038101906102ca9190612cff565b6108e7565b005b6102eb60048036038101906102e69190612be0565b610907565b6040516102f89190612ce4565b60405180910390f35b61031b60048036038101906103169190612be0565b610978565b60405161032f989796959493929190612d8b565b60405180910390f35b610340610a80565b60405161034d9190612ff9565b60405180910390f35b610370600480360381019061036b9190612be0565b610bf4565b60405161037d9190612c4e565b60405180910390f35b6103a0600480360381019061039b919061301b565b610ca6565b6040516103ad9190612ce4565b60405180910390f35b6103be610d5e565b005b6103da60048036038101906103d5919061301b565b610de6565b6040516103e791906130f7565b60405180910390f35b6103f8610e96565b6040516104059190612c4e565b60405180910390f35b610416610ec0565b6040516104239190612b88565b60405180910390f35b61044660048036038101906104419190613145565b610f52565b005b610462600480360381019061045d91906132ba565b610f68565b005b61047e60048036038101906104799190612be0565b610fca565b60405161048b9190612b88565b60405180910390f35b61049c611071565b6040516104a99190612ce4565b60405180910390f35b6104ba611077565b6040516104c7919061339c565b60405180910390f35b6104ea60048036038101906104e591906133b7565b61109d565b6040516104f79190612ad4565b60405180910390f35b61051a6004803603810190610515919061301b565b611131565b005b610524611229565b005b60007f780e9d63000000000000000000000000000000000000000000000000000000007bffffffffffffffffffffffffffffffffffffffffffffffffffffffff1916827bffffffffffffffffffffffffffffffffffffffffffffffffffffffff191614806105995750610598826113d8565b5b9050919050565b6060600080546105af90613426565b80601f01602080910402602001604051908101604052809291908181526020018280546105db90613426565b80156106285780601f106105fd57610100808354040283529160200191610628565b820191906000526020600020905b81548152906001019060200180831161060b57829003601f168201915b5050505050905090565b600061063d826114ba565b61067c576040517f08c379a0000000000000000000000000000000000000000000000000000000008152600401610673906134ca565b60405180910390fd5b6004600083815260200190815260200160002060009054906101000a900473ffffffffffffffffffffffffffffffffffffffff169050919050565b60006106c282610bf4565b90508073ffffffffffffffffffffffffffffffffffffffff168373ffffffffffffffffffffffffffffffffffffffff161415610733576040517f08c379a000000000000000000000000000000000000000000000000000000000815260040161072a9061355c565b60405180910390fd5b8073ffffffffffffffffffffffffffffffffffffffff16610752611526565b73ffffffffffffffffffffffffffffffffffffffff16148061078157506107808161077b611526565b61109d565b5b6107c0576040517f08c379a00000000000000000000000000000000000000000000000000000000081526004016107b7906135ee565b60405180910390fd5b6107ca838361152e565b505050565b600d5481565b6000600880549050905090565b6107f36107ed611526565b826115e7565b610832576040517f08c379a000000000000000000000000000000000000000000000000000000000815260040161082990613680565b60405180910390fd5b61083d8383836116c5565b505050565b600061084d83610ca6565b821061088e576040517f08c379a000000000000000000000000000000000000000000000000000000000815260040161088590613712565b60405180910390fd5b600660008473ffffffffffffffffffffffffffffffffffffffff1673ffffffffffffffffffffffffffffffffffffffff168152602001908152602001600020600083815260200190815260200160002054905092915050565b61090283838360405180602001604052806000815250610f68565b505050565b60006109116107d5565b8210610952576040517f08c379a0000000000000000000000000000000000000000000000000000000008152600401610949906137a4565b60405180910390fd5b60088281548110610966576109656137c4565b5b90600052602060002001549050919050565b600f818154811061098857600080fd5b90600052602060002090600702016000915090508060000180546109ab90613426565b80601f01602080910402602001604051908101604052809291908181526020018280546109d790613426565b8015610a245780601f106109f957610100808354040283529160200191610a24565b820191906000526020600020905b815481529060010190602001808311610a0757829003601f168201915b5050505050908060010154908060020154908060030160009054906101000a900460ff16908060040154908060050160009054906101000a900461ffff16908060050160029054906101000a900460ff16908060060154905088565b6060600f805480602002602001604051908101604052809291908181526020016000905b82821015610beb578382906000526020600020906007020160405180610100016040529081600082018054610ad890613426565b80601f0160208091040260200160405190810160405280929190818152602001828054610b0490613426565b8015610b515780601f10610b2657610100808354040283529160200191610b51565b820191906000526020600020905b815481529060010190602001808311610b3457829003601f168201915b5050505050815260200160018201548152602001600282015481526020016003820160009054906101000a900460ff1660ff1660ff168152602001600482015481526020016005820160009054906101000a900461ffff1661ffff1661ffff1681526020016005820160029054906101000a900460ff1660ff1660ff16815260200160068201548152505081526020019060010190610aa4565b50505050905090565b6000806002600084815260200190815260200160002060009054906101000a900473ffffffffffffffffffffffffffffffffffffffff169050600073ffffffffffffffffffffffffffffffffffffffff168173ffffffffffffffffffffffffffffffffffffffff161415610c9d576040517f08c379a0000000000000000000000000000000000000000000000000000000008152600401610c9490613865565b60405180910390fd5b80915050919050565b60008073ffffffffffffffffffffffffffffffffffffffff168273ffffffffffffffffffffffffffffffffffffffff161415610d17576040517f08c379a0000000000000000000000000000000000000000000000000000000008152600401610d0e906138f7565b60405180910390fd5b600360008373ffffffffffffffffffffffffffffffffffffffff1673ffffffffffffffffffffffffffffffffffffffff168152602001908152602001600020549050919050565b610d66611526565b73ffffffffffffffffffffffffffffffffffffffff16610d84610e96565b73ffffffffffffffffffffffffffffffffffffffff1614610dda576040517f08c379a0000000000000000000000000000000000000000000000000000000008152600401610dd190613963565b60405180910390fd5b610de46000611921565b565b60606000610df383610ca6565b67ffffffffffffffff811115610e0c57610e0b61318f565b5b604051908082528060200260200182016040528015610e3a5781602001602082028036833780820191505090505b50905060005b610e4984610ca6565b811015610e8c57610e5a8482610842565b828281518110610e6d57610e6c6137c4565b5b6020026020010181815250508080610e84906139b2565b915050610e40565b8192505050919050565b6000600a60009054906101000a900473ffffffffffffffffffffffffffffffffffffffff16905090565b606060018054610ecf90613426565b80601f0160208091040260200160405190810160405280929190818152602001828054610efb90613426565b8015610f485780601f10610f1d57610100808354040283529160200191610f48565b820191906000526020600020905b815481529060010190602001808311610f2b57829003601f168201915b5050505050905090565b610f64610f5d611526565b83836119e7565b5050565b610f79610f73611526565b836115e7565b610fb8576040517f08c379a0000000000000000000000000000000000000000000000000000000008152600401610faf90613680565b60405180910390fd5b610fc484848484611b54565b50505050565b6060610fd5826114ba565b611014576040517f08c379a000000000000000000000000000000000000000000000000000000000815260040161100b90613a6d565b60405180910390fd5b600061101e611bb0565b9050600081511161103e5760405180602001604052806000815250611069565b8061104884611bc7565b604051602001611059929190613ac9565b6040516020818303038152906040525b915050919050565b600e5481565b600c60009054906101000a900473ffffffffffffffffffffffffffffffffffffffff1681565b6000600560008473ffffffffffffffffffffffffffffffffffffffff1673ffffffffffffffffffffffffffffffffffffffff16815260200190815260200160002060008373ffffffffffffffffffffffffffffffffffffffff1673ffffffffffffffffffffffffffffffffffffffff16815260200190815260200160002060009054906101000a900460ff16905092915050565b611139611526565b73ffffffffffffffffffffffffffffffffffffffff16611157610e96565b73ffffffffffffffffffffffffffffffffffffffff16146111ad576040517f08c379a00000000000000000000000000000000000000000000000000000000081526004016111a490613963565b60405180910390fd5b600073ffffffffffffffffffffffffffffffffffffffff168173ffffffffffffffffffffffffffffffffffffffff16141561121d576040517f08c379a000000000000000000000000000000000000000000000000000000000815260040161121490613b5f565b60405180910390fd5b61122681611921565b50565b600d54600c60009054906101000a900473ffffffffffffffffffffffffffffffffffffffff1673ffffffffffffffffffffffffffffffffffffffff166370a08231336040518263ffffffff1660e01b81526004016112879190612c4e565b602060405180830381865afa1580156112a4573d6000803e3d6000fd5b505050506040513d601f19601f820116820180604052508101906112c89190613b94565b10156112d357600080fd5b600c60009054906101000a900473ffffffffffffffffffffffffffffffffffffffff1673ffffffffffffffffffffffffffffffffffffffff166323b872dd3330680ad78ebc5ac62000006040518463ffffffff1660e01b815260040161133b93929190613bfc565b6020604051808303816000875af115801561135a573d6000803e3d6000fd5b505050506040513d601f19601f8201168201806040525081019061137e9190613c48565b5060006113ca6040518060400160405280600781526020017f63466f6e742023000000000000000000000000000000000000000000000000008152506113c5600b54611d28565b611e8f565b90506113d581611ebb565b50565b60007f80ac58cd000000000000000000000000000000000000000000000000000000007bffffffffffffffffffffffffffffffffffffffffffffffffffffffff1916827bffffffffffffffffffffffffffffffffffffffffffffffffffffffff191614806114a357507f5b5e139f000000000000000000000000000000000000000000000000000000007bffffffffffffffffffffffffffffffffffffffffffffffffffffffff1916827bffffffffffffffffffffffffffffffffffffffffffffffffffffffff1916145b806114b357506114b2826120cd565b5b9050919050565b60008073ffffffffffffffffffffffffffffffffffffffff166002600084815260200190815260200160002060009054906101000a900473ffffffffffffffffffffffffffffffffffffffff1673ffffffffffffffffffffffffffffffffffffffff1614159050919050565b600033905090565b816004600083815260200190815260200160002060006101000a81548173ffffffffffffffffffffffffffffffffffffffff021916908373ffffffffffffffffffffffffffffffffffffffff160217905550808273ffffffffffffffffffffffffffffffffffffffff166115a183610bf4565b73ffffffffffffffffffffffffffffffffffffffff167f8c5be1e5ebec7d5bd14f71427d1e84f3dd0314c0f7b2291e5b200ac8c7c3b92560405160405180910390a45050565b60006115f2826114ba565b611631576040517f08c379a000000000000000000000000000000000000000000000000000000000815260040161162890613ce7565b60405180910390fd5b600061163c83610bf4565b90508073ffffffffffffffffffffffffffffffffffffffff168473ffffffffffffffffffffffffffffffffffffffff1614806116ab57508373ffffffffffffffffffffffffffffffffffffffff1661169384610632565b73ffffffffffffffffffffffffffffffffffffffff16145b806116bc57506116bb818561109d565b5b91505092915050565b8273ffffffffffffffffffffffffffffffffffffffff166116e582610bf4565b73ffffffffffffffffffffffffffffffffffffffff161461173b576040517f08c379a000000000000000000000000000000000000000000000000000000000815260040161173290613d79565b60405180910390fd5b600073ffffffffffffffffffffffffffffffffffffffff168273ffffffffffffffffffffffffffffffffffffffff1614156117ab576040517f08c379a00000000000000000000000000000000000000000000000000000000081526004016117a290613e0b565b60405180910390fd5b6117b6838383612137565b6117c160008261152e565b6001600360008573ffffffffffffffffffffffffffffffffffffffff1673ffffffffffffffffffffffffffffffffffffffff16815260200190815260200160002060008282546118119190613e2b565b925050819055506001600360008473ffffffffffffffffffffffffffffffffffffffff1673ffffffffffffffffffffffffffffffffffffffff16815260200190815260200160002060008282546118689190613e5f565b92505081905550816002600083815260200190815260200160002060006101000a81548173ffffffffffffffffffffffffffffffffffffffff021916908373ffffffffffffffffffffffffffffffffffffffff160217905550808273ffffffffffffffffffffffffffffffffffffffff168473ffffffffffffffffffffffffffffffffffffffff167fddf252ad1be2c89b69c2b068fc378daa952ba7f163c4a11628f55a4df523b3ef60405160405180910390a4505050565b6000600a60009054906101000a900473ffffffffffffffffffffffffffffffffffffffff16905081600a60006101000a81548173ffffffffffffffffffffffffffffffffffffffff021916908373ffffffffffffffffffffffffffffffffffffffff1602179055508173ffffffffffffffffffffffffffffffffffffffff168173ffffffffffffffffffffffffffffffffffffffff167f8be0079c531659141344cd1fd0a4f28419497f9722a3daafe3b4186f6b6457e060405160405180910390a35050565b8173ffffffffffffffffffffffffffffffffffffffff168373ffffffffffffffffffffffffffffffffffffffff161415611a56576040517f08c379a0000000000000000000000000000000000000000000000000000000008152600401611a4d90613f01565b60405180910390fd5b80600560008573ffffffffffffffffffffffffffffffffffffffff1673ffffffffffffffffffffffffffffffffffffffff16815260200190815260200160002060008473ffffffffffffffffffffffffffffffffffffffff1673ffffffffffffffffffffffffffffffffffffffff16815260200190815260200160002060006101000a81548160ff0219169083151502179055508173ffffffffffffffffffffffffffffffffffffffff168373ffffffffffffffffffffffffffffffffffffffff167f17307eab39ab6107e8899845ad3d59bd9653f200f220920489ca2b5937696c3183604051611b479190612ad4565b60405180910390a3505050565b611b5f8484846116c5565b611b6b8484848461224b565b611baa576040517f08c379a0000000000000000000000000000000000000000000000000000000008152600401611ba190613f93565b60405180910390fd5b50505050565b606060405180602001604052806000815250905090565b60606000821415611c0f576040518060400160405280600181526020017f30000000000000000000000000000000000000000000000000000000000000008152509050611d23565b600082905060005b60008214611c41578080611c2a906139b2565b915050600a82611c3a9190613fe2565b9150611c17565b60008167ffffffffffffffff811115611c5d57611c5c61318f565b5b6040519080825280601f01601f191660200182016040528015611c8f5781602001600182028036833780820191505090505b5090505b60008514611d1c57600182611ca89190613e2b565b9150600a85611cb79190614013565b6030611cc39190613e5f565b60f81b818381518110611cd957611cd86137c4565b5b60200101907effffffffffffffffffffffffffffffffffffffffffffffffffffffffffffff1916908160001a905350600a85611d159190613fe2565b9450611c93565b8093505050505b919050565b60606000821415611d70576040518060400160405280600181526020017f30000000000000000000000000000000000000000000000000000000000000008152509050611e8a565b600082905060005b60008214611da2578080611d8b906139b2565b915050600a82611d9b9190613fe2565b9150611d78565b60008167ffffffffffffffff811115611dbe57611dbd61318f565b5b6040519080825280601f01601f191660200182016040528015611df05781602001600182028036833780820191505090505b50905060008290508593505b60008414611e8257600a84611e119190614013565b6030611e1d9190613e5f565b60f81b8282611e2b90614044565b92508281518110611e3f57611e3e6137c4565b5b60200101907effffffffffffffffffffffffffffffffffffffffffffffffffffffffffffff1916908160001a905350600a84611e7b9190613fe2565b9350611dfc565b819450505050505b919050565b60608282604051602001611ea4929190613ac9565b604051602081830303815290604052905092915050565b6000611ec760646123d3565b90506000611edb662386f26fc100006123d3565b90506000611eef662386f26fc100006123d3565b905060006001611f006127106123d3565b611f0a9190613e5f565b90506000600a611f1a608c6123d3565b611f249190613e5f565b905060004290506000604051806101000160405280898152602001600b5481526020018781526020018860ff1681526020018681526020018561ffff1681526020018460ff168152602001838152509050600f8190806001815401808255809150506001900390600052602060002090600702016000909190919091506000820151816000019080519060200190611fbd92919061297d565b50602082015181600101556040820151816002015560608201518160030160006101000a81548160ff021916908360ff1602179055506080820151816004015560a08201518160050160006101000a81548161ffff021916908361ffff16021790555060c08201518160050160026101000a81548160ff021916908360ff16021790555060e08201518160060155505061205933600b54612418565b3373ffffffffffffffffffffffffffffffffffffffff167fe6b5d2375ea5860192277472eed072ebc6805abc7699b637dfe1e4806126208a600b54886040516120a392919061406e565b60405180910390a2600b60008154809291906120be906139b2565b91905055505050505050505050565b60007f01ffc9a7000000000000000000000000000000000000000000000000000000007bffffffffffffffffffffffffffffffffffffffffffffffffffffffff1916827bffffffffffffffffffffffffffffffffffffffffffffffffffffffff1916149050919050565b612142838383612436565b600073ffffffffffffffffffffffffffffffffffffffff168373ffffffffffffffffffffffffffffffffffffffff161415612185576121808161243b565b6121c4565b8173ffffffffffffffffffffffffffffffffffffffff168373ffffffffffffffffffffffffffffffffffffffff16146121c3576121c28382612484565b5b5b600073ffffffffffffffffffffffffffffffffffffffff168273ffffffffffffffffffffffffffffffffffffffff16141561220757612202816125f1565b612246565b8273ffffffffffffffffffffffffffffffffffffffff168273ffffffffffffffffffffffffffffffffffffffff16146122455761224482826126c2565b5b5b505050565b600061226c8473ffffffffffffffffffffffffffffffffffffffff16612741565b156123c6578373ffffffffffffffffffffffffffffffffffffffff1663150b7a02612295611526565b8786866040518563ffffffff1660e01b81526004016122b794939291906140ec565b6020604051808303816000875af19250505080156122f357506040513d601f19601f820116820180604052508101906122f0919061414d565b60015b612376573d8060008114612323576040519150601f19603f3d011682016040523d82523d6000602084013e612328565b606091505b5060008151141561236e576040517f08c379a000000000000000000000000000000000000000000000000000000000815260040161236590613f93565b60405180910390fd5b805181602001fd5b63150b7a0260e01b7bffffffffffffffffffffffffffffffffffffffffffffffffffffffff1916817bffffffffffffffffffffffffffffffffffffffffffffffffffffffff1916149150506123cb565b600190505b949350505050565b60008042336040516020016123e99291906141e3565b6040516020818303038152906040528051906020012060001c905082816124109190614013565b915050919050565b612432828260405180602001604052806000815250612754565b5050565b505050565b6008805490506009600083815260200190815260200160002081905550600881908060018154018082558091505060019003906000526020600020016000909190919091505550565b6000600161249184610ca6565b61249b9190613e2b565b9050600060076000848152602001908152602001600020549050818114612580576000600660008673ffffffffffffffffffffffffffffffffffffffff1673ffffffffffffffffffffffffffffffffffffffff168152602001908152602001600020600084815260200190815260200160002054905080600660008773ffffffffffffffffffffffffffffffffffffffff1673ffffffffffffffffffffffffffffffffffffffff168152602001908152602001600020600084815260200190815260200160002081905550816007600083815260200190815260200160002081905550505b6007600084815260200190815260200160002060009055600660008573ffffffffffffffffffffffffffffffffffffffff1673ffffffffffffffffffffffffffffffffffffffff16815260200190815260200160002060008381526020019081526020016000206000905550505050565b600060016008805490506126059190613e2b565b9050600060096000848152602001908152602001600020549050600060088381548110612635576126346137c4565b5b906000526020600020015490508060088381548110612657576126566137c4565b5b9060005260206000200181905550816009600083815260200190815260200160002081905550600960008581526020019081526020016000206000905560088054806126a6576126a561420f565b5b6001900381819060005260206000200160009055905550505050565b60006126cd83610ca6565b905081600660008573ffffffffffffffffffffffffffffffffffffffff1673ffffffffffffffffffffffffffffffffffffffff168152602001908152602001600020600083815260200190815260200160002081905550806007600084815260200190815260200160002081905550505050565b600080823b905060008111915050919050565b61275e83836127af565b61276b600084848461224b565b6127aa576040517f08c379a00000000000000000000000000000000000000000000000000000000081526004016127a190613f93565b60405180910390fd5b505050565b600073ffffffffffffffffffffffffffffffffffffffff168273ffffffffffffffffffffffffffffffffffffffff16141561281f576040517f08c379a00000000000000000000000000000000000000000000000000000000081526004016128169061428a565b60405180910390fd5b612828816114ba565b15612868576040517f08c379a000000000000000000000000000000000000000000000000000000000815260040161285f906142f6565b60405180910390fd5b61287460008383612137565b6001600360008473ffffffffffffffffffffffffffffffffffffffff1673ffffffffffffffffffffffffffffffffffffffff16815260200190815260200160002060008282546128c49190613e5f565b92505081905550816002600083815260200190815260200160002060006101000a81548173ffffffffffffffffffffffffffffffffffffffff021916908373ffffffffffffffffffffffffffffffffffffffff160217905550808273ffffffffffffffffffffffffffffffffffffffff16600073ffffffffffffffffffffffffffffffffffffffff167fddf252ad1be2c89b69c2b068fc378daa952ba7f163c4a11628f55a4df523b3ef60405160405180910390a45050565b82805461298990613426565b90600052602060002090601f0160209004810192826129ab57600085556129f2565b82601f106129c457805160ff19168380011785556129f2565b828001600101855582156129f2579182015b828111156129f15782518255916020019190600101906129d6565b5b5090506129ff9190612a03565b5090565b5b80821115612a1c576000816000905550600101612a04565b5090565b6000604051905090565b600080fd5b600080fd5b60007fffffffff0000000000000000000000000000000000000000000000000000000082169050919050565b612a6981612a34565b8114612a7457600080fd5b50565b600081359050612a8681612a60565b92915050565b600060208284031215612aa257612aa1612a2a565b5b6000612ab084828501612a77565b91505092915050565b60008115159050919050565b612ace81612ab9565b82525050565b6000602082019050612ae96000830184612ac5565b92915050565b600081519050919050565b600082825260208201905092915050565b60005b83811015612b29578082015181840152602081019050612b0e565b83811115612b38576000848401525b50505050565b6000601f19601f8301169050919050565b6000612b5a82612aef565b612b648185612afa565b9350612b74818560208601612b0b565b612b7d81612b3e565b840191505092915050565b60006020820190508181036000830152612ba28184612b4f565b905092915050565b6000819050919050565b612bbd81612baa565b8114612bc857600080fd5b50565b600081359050612bda81612bb4565b92915050565b600060208284031215612bf657612bf5612a2a565b5b6000612c0484828501612bcb565b91505092915050565b600073ffffffffffffffffffffffffffffffffffffffff82169050919050565b6000612c3882612c0d565b9050919050565b612c4881612c2d565b82525050565b6000602082019050612c636000830184612c3f565b92915050565b612c7281612c2d565b8114612c7d57600080fd5b50565b600081359050612c8f81612c69565b92915050565b60008060408385031215612cac57612cab612a2a565b5b6000612cba85828601612c80565b9250506020612ccb85828601612bcb565b9150509250929050565b612cde81612baa565b82525050565b6000602082019050612cf96000830184612cd5565b92915050565b600080600060608486031215612d1857612d17612a2a565b5b6000612d2686828701612c80565b9350506020612d3786828701612c80565b9250506040612d4886828701612bcb565b9150509250925092565b600060ff82169050919050565b612d6881612d52565b82525050565b600061ffff82169050919050565b612d8581612d6e565b82525050565b6000610100820190508181036000830152612da6818b612b4f565b9050612db5602083018a612cd5565b612dc26040830189612cd5565b612dcf6060830188612d5f565b612ddc6080830187612cd5565b612de960a0830186612d7c565b612df660c0830185612d5f565b612e0360e0830184612cd5565b9998505050505050505050565b600081519050919050565b600082825260208201905092915050565b6000819050602082019050919050565b600082825260208201905092915050565b6000612e5882612aef565b612e628185612e3c565b9350612e72818560208601612b0b565b612e7b81612b3e565b840191505092915050565b612e8f81612baa565b82525050565b612e9e81612d52565b82525050565b612ead81612d6e565b82525050565b6000610100830160008301518482036000860152612ed18282612e4d565b9150506020830151612ee66020860182612e86565b506040830151612ef96040860182612e86565b506060830151612f0c6060860182612e95565b506080830151612f1f6080860182612e86565b5060a0830151612f3260a0860182612ea4565b5060c0830151612f4560c0860182612e95565b5060e0830151612f5860e0860182612e86565b508091505092915050565b6000612f6f8383612eb3565b905092915050565b6000602082019050919050565b6000612f8f82612e10565b612f998185612e1b565b935083602082028501612fab85612e2c565b8060005b85811015612fe75784840389528151612fc88582612f63565b9450612fd383612f77565b925060208a01995050600181019050612faf565b50829750879550505050505092915050565b600060208201905081810360008301526130138184612f84565b905092915050565b60006020828403121561303157613030612a2a565b5b600061303f84828501612c80565b91505092915050565b600081519050919050565b600082825260208201905092915050565b6000819050602082019050919050565b60006130808383612e86565b60208301905092915050565b6000602082019050919050565b60006130a482613048565b6130ae8185613053565b93506130b983613064565b8060005b838110156130ea5781516130d18882613074565b97506130dc8361308c565b9250506001810190506130bd565b5085935050505092915050565b600060208201905081810360008301526131118184613099565b905092915050565b61312281612ab9565b811461312d57600080fd5b50565b60008135905061313f81613119565b92915050565b6000806040838503121561315c5761315b612a2a565b5b600061316a85828601612c80565b925050602061317b85828601613130565b9150509250929050565b600080fd5b600080fd5b7f4e487b7100000000000000000000000000000000000000000000000000000000600052604160045260246000fd5b6131c782612b3e565b810181811067ffffffffffffffff821117156131e6576131e561318f565b5b80604052505050565b60006131f9612a20565b905061320582826131be565b919050565b600067ffffffffffffffff8211156132255761322461318f565b5b61322e82612b3e565b9050602081019050919050565b82818337600083830152505050565b600061325d6132588461320a565b6131ef565b9050828152602081018484840111156132795761327861318a565b5b61328484828561323b565b509392505050565b600082601f8301126132a1576132a0613185565b5b81356132b184826020860161324a565b91505092915050565b600080600080608085870312156132d4576132d3612a2a565b5b60006132e287828801612c80565b94505060206132f387828801612c80565b935050604061330487828801612bcb565b925050606085013567ffffffffffffffff81111561332557613324612a2f565b5b6133318782880161328c565b91505092959194509250565b6000819050919050565b600061336261335d61335884612c0d565b61333d565b612c0d565b9050919050565b600061337482613347565b9050919050565b600061338682613369565b9050919050565b6133968161337b565b82525050565b60006020820190506133b1600083018461338d565b92915050565b600080604083850312156133ce576133cd612a2a565b5b60006133dc85828601612c80565b92505060206133ed85828601612c80565b9150509250929050565b7f4e487b7100000000000000000000000000000000000000000000000000000000600052602260045260246000fd5b6000600282049050600182168061343e57607f821691505b60208210811415613452576134516133f7565b5b50919050565b7f4552433732313a20617070726f76656420717565727920666f72206e6f6e657860008201527f697374656e7420746f6b656e0000000000000000000000000000000000000000602082015250565b60006134b4602c83612afa565b91506134bf82613458565b604082019050919050565b600060208201905081810360008301526134e3816134a7565b9050919050565b7f4552433732313a20617070726f76616c20746f2063757272656e74206f776e6560008201527f7200000000000000000000000000000000000000000000000000000000000000602082015250565b6000613546602183612afa565b9150613551826134ea565b604082019050919050565b6000602082019050818103600083015261357581613539565b9050919050565b7f4552433732313a20617070726f76652063616c6c6572206973206e6f74206f7760008201527f6e6572206e6f7220617070726f76656420666f7220616c6c0000000000000000602082015250565b60006135d8603883612afa565b91506135e38261357c565b604082019050919050565b60006020820190508181036000830152613607816135cb565b9050919050565b7f4552433732313a207472616e736665722063616c6c6572206973206e6f74206f60008201527f776e6572206e6f7220617070726f766564000000000000000000000000000000602082015250565b600061366a603183612afa565b91506136758261360e565b604082019050919050565b600060208201905081810360008301526136998161365d565b9050919050565b7f455243373231456e756d657261626c653a206f776e657220696e646578206f7560008201527f74206f6620626f756e6473000000000000000000000000000000000000000000602082015250565b60006136fc602b83612afa565b9150613707826136a0565b604082019050919050565b6000602082019050818103600083015261372b816136ef565b9050919050565b7f455243373231456e756d657261626c653a20676c6f62616c20696e646578206f60008201527f7574206f6620626f756e64730000000000000000000000000000000000000000602082015250565b600061378e602c83612afa565b915061379982613732565b604082019050919050565b600060208201905081810360008301526137bd81613781565b9050919050565b7f4e487b7100000000000000000000000000000000000000000000000000000000600052603260045260246000fd5b7f4552433732313a206f776e657220717565727920666f72206e6f6e657869737460008201527f656e7420746f6b656e0000000000000000000000000000000000000000000000602082015250565b600061384f602983612afa565b915061385a826137f3565b604082019050919050565b6000602082019050818103600083015261387e81613842565b9050919050565b7f4552433732313a2062616c616e636520717565727920666f7220746865207a6560008201527f726f206164647265737300000000000000000000000000000000000000000000602082015250565b60006138e1602a83612afa565b91506138ec82613885565b604082019050919050565b60006020820190508181036000830152613910816138d4565b9050919050565b7f4f776e61626c653a2063616c6c6572206973206e6f7420746865206f776e6572600082015250565b600061394d602083612afa565b915061395882613917565b602082019050919050565b6000602082019050818103600083015261397c81613940565b9050919050565b7f4e487b7100000000000000000000000000000000000000000000000000000000600052601160045260246000fd5b60006139bd82612baa565b91507fffffffffffffffffffffffffffffffffffffffffffffffffffffffffffffffff8214156139f0576139ef613983565b5b600182019050919050565b7f4552433732314d657461646174613a2055524920717565727920666f72206e6f60008201527f6e6578697374656e7420746f6b656e0000000000000000000000000000000000602082015250565b6000613a57602f83612afa565b9150613a62826139fb565b604082019050919050565b60006020820190508181036000830152613a8681613a4a565b9050919050565b600081905092915050565b6000613aa382612aef565b613aad8185613a8d565b9350613abd818560208601612b0b565b80840191505092915050565b6000613ad58285613a98565b9150613ae18284613a98565b91508190509392505050565b7f4f776e61626c653a206e6577206f776e657220697320746865207a65726f206160008201527f6464726573730000000000000000000000000000000000000000000000000000602082015250565b6000613b49602683612afa565b9150613b5482613aed565b604082019050919050565b60006020820190508181036000830152613b7881613b3c565b9050919050565b600081519050613b8e81612bb4565b92915050565b600060208284031215613baa57613ba9612a2a565b5b6000613bb884828501613b7f565b91505092915050565b6000819050919050565b6000613be6613be1613bdc84613bc1565b61333d565b612baa565b9050919050565b613bf681613bcb565b82525050565b6000606082019050613c116000830186612c3f565b613c1e6020830185612c3f565b613c2b6040830184613bed565b949350505050565b600081519050613c4281613119565b92915050565b600060208284031215613c5e57613c5d612a2a565b5b6000613c6c84828501613c33565b91505092915050565b7f4552433732313a206f70657261746f7220717565727920666f72206e6f6e657860008201527f697374656e7420746f6b656e0000000000000000000000000000000000000000602082015250565b6000613cd1602c83612afa565b9150613cdc82613c75565b604082019050919050565b60006020820190508181036000830152613d0081613cc4565b9050919050565b7f4552433732313a207472616e73666572206f6620746f6b656e2074686174206960008201527f73206e6f74206f776e0000000000000000000000000000000000000000000000602082015250565b6000613d63602983612afa565b9150613d6e82613d07565b604082019050919050565b60006020820190508181036000830152613d9281613d56565b9050919050565b7f4552433732313a207472616e7366657220746f20746865207a65726f2061646460008201527f7265737300000000000000000000000000000000000000000000000000000000602082015250565b6000613df5602483612afa565b9150613e0082613d99565b604082019050919050565b60006020820190508181036000830152613e2481613de8565b9050919050565b6000613e3682612baa565b9150613e4183612baa565b925082821015613e5457613e53613983565b5b828203905092915050565b6000613e6a82612baa565b9150613e7583612baa565b9250827fffffffffffffffffffffffffffffffffffffffffffffffffffffffffffffffff03821115613eaa57613ea9613983565b5b828201905092915050565b7f4552433732313a20617070726f766520746f2063616c6c657200000000000000600082015250565b6000613eeb601983612afa565b9150613ef682613eb5565b602082019050919050565b60006020820190508181036000830152613f1a81613ede565b9050919050565b7f4552433732313a207472616e7366657220746f206e6f6e20455243373231526560008201527f63656976657220696d706c656d656e7465720000000000000000000000000000602082015250565b6000613f7d603283612afa565b9150613f8882613f21565b604082019050919050565b60006020820190508181036000830152613fac81613f70565b9050919050565b7f4e487b7100000000000000000000000000000000000000000000000000000000600052601260045260246000fd5b6000613fed82612baa565b9150613ff883612baa565b92508261400857614007613fb3565b5b828204905092915050565b600061401e82612baa565b915061402983612baa565b92508261403957614038613fb3565b5b828206905092915050565b600061404f82612baa565b9150600082141561406357614062613983565b5b600182039050919050565b60006040820190506140836000830185612cd5565b6140906020830184612cd5565b9392505050565b600081519050919050565b600082825260208201905092915050565b60006140be82614097565b6140c881856140a2565b93506140d8818560208601612b0b565b6140e181612b3e565b840191505092915050565b60006080820190506141016000830187612c3f565b61410e6020830186612c3f565b61411b6040830185612cd5565b818103606083015261412d81846140b3565b905095945050505050565b60008151905061414781612a60565b92915050565b60006020828403121561416357614162612a2a565b5b600061417184828501614138565b91505092915050565b6000819050919050565b61419561419082612baa565b61417a565b82525050565b60008160601b9050919050565b60006141b38261419b565b9050919050565b60006141c5826141a8565b9050919050565b6141dd6141d882612c2d565b6141ba565b82525050565b60006141ef8285614184565b6020820191506141ff82846141cc565b6014820191508190509392505050565b7f4e487b7100000000000000000000000000000000000000000000000000000000600052603160045260246000fd5b7f4552433732313a206d696e7420746f20746865207a65726f2061646472657373600082015250565b6000614274602083612afa565b915061427f8261423e565b602082019050919050565b600060208201905081810360008301526142a381614267565b9050919050565b7f4552433732313a20746f6b656e20616c7265616479206d696e74656400000000600082015250565b60006142e0601c83612afa565b91506142eb826142aa565b602082019050919050565b6000602082019050818103600083015261430f816142d3565b905091905056fea2646970667358221220ec29ffd9ddd4bf069db28b61bf54d882bcafc030cd1af39d352da7563458ee4e64736f6c634300080a0033",
  "immutableReferences": {},
  "source": "// SPDX-License-Identifier: MIT\r\n\r\npragma solidity ^0.8.0;\r\n\r\nimport \"@openzeppelin/contracts/token/ERC721/ERC721.sol\";\r\nimport \"@openzeppelin/contracts/access/Ownable.sol\";\r\nimport \"@openzeppelin/contracts/token/ERC721/extensions/ERC721Enumerable.sol\";\r\nimport \"@openzeppelin/contracts/token/ERC20/IERC20.sol\";\r\n\r\ncontract cryptoFont is ERC721Enumerable, Ownable  {\r\n    uint256 COUNTER = 0;\r\n    IERC20 public eBitcoin;\r\n    uint256 public cost = 200 * 10**18;\r\n    uint256 public fee = cost * 10 / 100;\r\n\r\n    struct cFont {\r\n        string name;\r\n        uint256 id;\r\n        uint256 dna;\r\n        uint8 rarity;\r\n        uint256 Stat;\r\n        uint16 Power;\r\n        uint8 Size;\r\n        uint256 mintDate;\r\n    }\r\n\r\n    cFont[] public cFonts;\r\n\r\n    event NewcFont(address indexed owner, uint256 id, uint dna);\r\n\r\n    function _createRandomNum(uint256 _mod) internal view returns(uint256){\r\n        uint256 randomNum = uint256(keccak256(abi.encodePacked(block.timestamp, msg.sender)));\r\n        return randomNum % _mod;\r\n    }\r\n\r\n    constructor(address eBitcoinAddress)\r\n        ERC721(\"Crypto Font\", \"cFont\")\r\n    {\r\n        eBitcoin = IERC20(eBitcoinAddress);\r\n        // phudleFee = PhudleFeeCollector(phudFeeAddress);\r\n        // phudleReward = PhudleRewardPool(phudRewardAddress);\r\n    }\r\n\r\n    function uint2str(uint256 _i) internal pure returns (string memory str){\r\n        if (_i == 0){\r\n            return \"0\";\r\n        }\r\n        uint256 j = _i;\r\n        uint256 length;\r\n        while (j != 0)\r\n        {\r\n            length++;\r\n            j /= 10;\r\n        }\r\n        bytes memory bstr = new bytes(length);\r\n        uint256 k = length;\r\n        j = _i;\r\n        while (j != 0)\r\n        {\r\n            bstr[--k] = bytes1(uint8(48 + j % 10));\r\n            j /= 10;\r\n        }\r\n        str = string(bstr);\r\n    }\r\n\r\n    function concatenate(string memory s1, string memory s2) internal pure returns (string memory) {\r\n        return string(abi.encodePacked(s1, s2));\r\n    }\r\n\r\n    function _createcFont(string memory _name) internal{\r\n        uint8 randRarity = uint8(_createRandomNum(100));\r\n        uint256 randDna = _createRandomNum(10**16);\r\n        uint256 randStat = _createRandomNum(10**16);\r\n        uint16 randPower = uint16(_createRandomNum(10000) + 1);\r\n        uint8 randSize = uint8(_createRandomNum(140) + 10);\r\n        uint256 mint_date = block.timestamp;\r\n        \r\n        cFont memory newcFont = cFont(_name, COUNTER, randDna, randRarity, randStat, randPower,randSize,mint_date);\r\n        cFonts.push(newcFont);\r\n        _safeMint(msg.sender, COUNTER);\r\n        emit NewcFont(msg.sender,COUNTER, randDna);\r\n        COUNTER++;\r\n    }\r\n\r\n    function createRandomcFont() public{\r\n        require(eBitcoin.balanceOf(msg.sender) >= cost);\r\n        eBitcoin.transferFrom(msg.sender,address(this), 200 * 10 ** 18);\r\n        string memory name = concatenate(\"cFont #\",uint2str(COUNTER));\r\n        _createcFont(name);\r\n    }\r\n\r\n    function getcFont() public view returns(cFont[] memory) {\r\n        return cFonts;\r\n    }\r\n\r\n\r\n    function getIdsOfOwner(address _owner) public view returns (uint[] memory) {\r\n        uint[] memory _tokensOfOwner = new uint[](ERC721.balanceOf(_owner));\r\n        uint i;\r\n\r\n        for (i=0;i<ERC721.balanceOf(_owner);i++){\r\n            _tokensOfOwner[i] = ERC721Enumerable.tokenOfOwnerByIndex(_owner, i);\r\n        }\r\n        return (_tokensOfOwner);\r\n    }\r\n}",
  "sourcePath": "C:\\Users\\jarup\\Documents\\GitHub\\crypto-font\\contracts\\cFont.sol",
  "compiler": {
    "name": "solc",
    "version": "0.8.10+commit.fc410830.Emscripten.clang"
  },
  "schemaVersion": "3.4.3",
  "updatedAt": "2021-12-14T03:12:54.319Z",
  "networkType": "ethereum",
  "devdoc": {
    "kind": "dev",
    "methods": {
      "approve(address,uint256)": {
        "details": "See {IERC721-approve}."
      },
      "balanceOf(address)": {
        "details": "See {IERC721-balanceOf}."
      },
      "getApproved(uint256)": {
        "details": "See {IERC721-getApproved}."
      },
      "isApprovedForAll(address,address)": {
        "details": "See {IERC721-isApprovedForAll}."
      },
      "name()": {
        "details": "See {IERC721Metadata-name}."
      },
      "owner()": {
        "details": "Returns the address of the current owner."
      },
      "ownerOf(uint256)": {
        "details": "See {IERC721-ownerOf}."
      },
      "renounceOwnership()": {
        "details": "Leaves the contract without owner. It will not be possible to call `onlyOwner` functions anymore. Can only be called by the current owner. NOTE: Renouncing ownership will leave the contract without an owner, thereby removing any functionality that is only available to the owner."
      },
      "safeTransferFrom(address,address,uint256)": {
        "details": "See {IERC721-safeTransferFrom}."
      },
      "safeTransferFrom(address,address,uint256,bytes)": {
        "details": "See {IERC721-safeTransferFrom}."
      },
      "setApprovalForAll(address,bool)": {
        "details": "See {IERC721-setApprovalForAll}."
      },
      "supportsInterface(bytes4)": {
        "details": "See {IERC165-supportsInterface}."
      },
      "symbol()": {
        "details": "See {IERC721Metadata-symbol}."
      },
      "tokenByIndex(uint256)": {
        "details": "See {IERC721Enumerable-tokenByIndex}."
      },
      "tokenOfOwnerByIndex(address,uint256)": {
        "details": "See {IERC721Enumerable-tokenOfOwnerByIndex}."
      },
      "tokenURI(uint256)": {
        "details": "See {IERC721Metadata-tokenURI}."
      },
      "totalSupply()": {
        "details": "See {IERC721Enumerable-totalSupply}."
      },
      "transferFrom(address,address,uint256)": {
        "details": "See {IERC721-transferFrom}."
      },
      "transferOwnership(address)": {
        "details": "Transfers ownership of the contract to a new account (`newOwner`). Can only be called by the current owner."
      }
    },
    "version": 1
  },
  "userdoc": {
    "kind": "user",
    "methods": {},
    "version": 1
  }
}