{
  "contractName": "ICO",
  "abi": [
    {
      "inputs": [],
      "stateMutability": "nonpayable",
      "type": "constructor"
    },
    {
      "inputs": [],
      "name": "admin",
      "outputs": [
        {
          "internalType": "address",
          "name": "",
          "type": "address"
        }
      ],
      "stateMutability": "view",
      "type": "function",
      "constant": true
    },
    {
      "inputs": [],
      "name": "availableTokens",
      "outputs": [
        {
          "internalType": "uint256",
          "name": "",
          "type": "uint256"
        }
      ],
      "stateMutability": "view",
      "type": "function",
      "constant": true
    },
    {
      "inputs": [],
      "name": "end",
      "outputs": [
        {
          "internalType": "uint256",
          "name": "",
          "type": "uint256"
        }
      ],
      "stateMutability": "view",
      "type": "function",
      "constant": true
    },
    {
      "inputs": [
        {
          "internalType": "address",
          "name": "",
          "type": "address"
        }
      ],
      "name": "investors",
      "outputs": [
        {
          "internalType": "bool",
          "name": "",
          "type": "bool"
        }
      ],
      "stateMutability": "view",
      "type": "function",
      "constant": true
    },
    {
      "inputs": [],
      "name": "maxPurchase",
      "outputs": [
        {
          "internalType": "uint256",
          "name": "",
          "type": "uint256"
        }
      ],
      "stateMutability": "view",
      "type": "function",
      "constant": true
    },
    {
      "inputs": [],
      "name": "minPurchase",
      "outputs": [
        {
          "internalType": "uint256",
          "name": "",
          "type": "uint256"
        }
      ],
      "stateMutability": "view",
      "type": "function",
      "constant": true
    },
    {
      "inputs": [],
      "name": "price",
      "outputs": [
        {
          "internalType": "uint256",
          "name": "",
          "type": "uint256"
        }
      ],
      "stateMutability": "view",
      "type": "function",
      "constant": true
    },
    {
      "inputs": [],
      "name": "released",
      "outputs": [
        {
          "internalType": "bool",
          "name": "",
          "type": "bool"
        }
      ],
      "stateMutability": "view",
      "type": "function",
      "constant": true
    },
    {
      "inputs": [
        {
          "internalType": "uint256",
          "name": "",
          "type": "uint256"
        }
      ],
      "name": "sales",
      "outputs": [
        {
          "internalType": "address",
          "name": "investor",
          "type": "address"
        },
        {
          "internalType": "uint256",
          "name": "quantity",
          "type": "uint256"
        }
      ],
      "stateMutability": "view",
      "type": "function",
      "constant": true
    },
    {
      "inputs": [],
      "name": "token",
      "outputs": [
        {
          "internalType": "address",
          "name": "",
          "type": "address"
        }
      ],
      "stateMutability": "view",
      "type": "function",
      "constant": true
    },
    {
      "inputs": [],
      "name": "whitelistStatus",
      "outputs": [
        {
          "internalType": "bool",
          "name": "",
          "type": "bool"
        }
      ],
      "stateMutability": "view",
      "type": "function",
      "constant": true
    },
    {
      "inputs": [
        {
          "internalType": "uint256",
          "name": "duration",
          "type": "uint256"
        },
        {
          "internalType": "address",
          "name": "_token",
          "type": "address"
        },
        {
          "internalType": "uint256",
          "name": "_price",
          "type": "uint256"
        },
        {
          "internalType": "uint256",
          "name": "_availableTokens",
          "type": "uint256"
        },
        {
          "internalType": "uint256",
          "name": "_minPurchase",
          "type": "uint256"
        },
        {
          "internalType": "uint256",
          "name": "_maxPurchase",
          "type": "uint256"
        },
        {
          "internalType": "bool",
          "name": "_whitelistStatus",
          "type": "bool"
        }
      ],
      "name": "start",
      "outputs": [],
      "stateMutability": "nonpayable",
      "type": "function"
    },
    {
      "inputs": [
        {
          "internalType": "address",
          "name": "investor",
          "type": "address"
        }
      ],
      "name": "whitelist",
      "outputs": [],
      "stateMutability": "nonpayable",
      "type": "function"
    },
    {
      "inputs": [],
      "name": "getBalance",
      "outputs": [
        {
          "internalType": "uint256",
          "name": "",
          "type": "uint256"
        }
      ],
      "stateMutability": "view",
      "type": "function",
      "constant": true
    },
    {
      "inputs": [],
      "name": "buy",
      "outputs": [],
      "stateMutability": "payable",
      "type": "function",
      "payable": true
    },
    {
      "inputs": [],
      "name": "release",
      "outputs": [],
      "stateMutability": "nonpayable",
      "type": "function"
    },
    {
      "inputs": [],
      "name": "stop",
      "outputs": [],
      "stateMutability": "nonpayable",
      "type": "function"
    },
    {
      "inputs": [
        {
          "internalType": "address payable",
          "name": "to",
          "type": "address"
        },
        {
          "internalType": "uint256",
          "name": "amount",
          "type": "uint256"
        }
      ],
      "name": "withdraw",
      "outputs": [],
      "stateMutability": "nonpayable",
      "type": "function"
    }
  ],
  "bytecode": "0x60806040526000600960016101000a81548160ff02191690831515021790555034801561002b57600080fd5b5033600360006101000a81548173ffffffffffffffffffffffffffffffffffffffff021916908373ffffffffffffffffffffffffffffffffffffffff160217905550611e588061007c6000396000f3fe6080604052600436106101095760003560e01c80639ddf7ad311610095578063ed096c1511610064578063ed096c1514610317578063efbe1c1c14610340578063f3fef3a31461036b578063f851a44014610394578063fc0c546a146103bf57610109565b80639ddf7ad314610279578063a035b1fe146102a4578063a6f2ae3a146102cf578063b5f522f7146102d957610109565b80636f7bc9be116100dc5780636f7bc9be146101a657806386d1a69f146101e357806396132521146101fa578063977b055b146102255780639b19251a1461025057610109565b806307da68f51461010e57806312065fe01461012557806333b5b62e1461015057806369bb4dc21461017b575b600080fd5b34801561011a57600080fd5b506101236103ea565b005b34801561013157600080fd5b5061013a610549565b6040516101479190611256565b60405180910390f35b34801561015c57600080fd5b50610165610551565b6040516101729190611256565b60405180910390f35b34801561018757600080fd5b50610190610557565b60405161019d9190611256565b60405180910390f35b3480156101b257600080fd5b506101cd60048036038101906101c891906112d4565b61055d565b6040516101da919061131c565b60405180910390f35b3480156101ef57600080fd5b506101f861057d565b005b34801561020657600080fd5b5061020f610778565b60405161021c919061131c565b60405180910390f35b34801561023157600080fd5b5061023a61078b565b6040516102479190611256565b60405180910390f35b34801561025c57600080fd5b50610277600480360381019061027291906112d4565b610791565b005b34801561028557600080fd5b5061028e61087b565b60405161029b919061131c565b60405180910390f35b3480156102b057600080fd5b506102b961088e565b6040516102c69190611256565b60405180910390f35b6102d7610894565b005b3480156102e557600080fd5b5061030060048036038101906102fb9190611363565b610b14565b60405161030e92919061139f565b60405180910390f35b34801561032357600080fd5b5061033e600480360381019061033991906113f4565b610b68565b005b34801561034c57600080fd5b50610355610f2b565b6040516103629190611256565b60405180910390f35b34801561037757600080fd5b50610392600480360381019061038d91906114d4565b610f31565b005b3480156103a057600080fd5b506103a96111f1565b6040516103b69190611514565b60405180910390f35b3480156103cb57600080fd5b506103d4611217565b6040516103e19190611514565b60405180910390f35b600060045411801561041a5750600454421015806104195750600554600754610413919061155e565b60065411155b5b610459576040517f08c379a000000000000000000000000000000000000000000000000000000000815260040161045090611615565b60405180910390fd5b600360009054906101000a900473ffffffffffffffffffffffffffffffffffffffff1673ffffffffffffffffffffffffffffffffffffffff163373ffffffffffffffffffffffffffffffffffffffff16146104e9576040517f08c379a00000000000000000000000000000000000000000000000000000000081526004016104e090611681565b60405180910390fd5b60011515600960009054906101000a900460ff1615151461053f576040517f08c379a0000000000000000000000000000000000000000000000000000000008152600401610536906116ed565b60405180910390fd5b6000600481905550565b600047905090565b60075481565b60065481565b60016020528060005260406000206000915054906101000a900460ff1681565b60006004541180156105ad5750600454421015806105ac57506005546007546105a6919061155e565b60065411155b5b6105ec576040517f08c379a00000000000000000000000000000000000000000000000000000000081526004016105e390611615565b60405180910390fd5b60001515600960009054906101000a900460ff16151514610642576040517f08c379a00000000000000000000000000000000000000000000000000000000081526004016106399061177f565b60405180910390fd5b6000600260009054906101000a900473ffffffffffffffffffffffffffffffffffffffff16905060005b60008054905081101561075957600080828154811061068e5761068d61179f565b5b906000526020600020906002020190508273ffffffffffffffffffffffffffffffffffffffff1663a9059cbb8260000160009054906101000a900473ffffffffffffffffffffffffffffffffffffffff1683600101546040518363ffffffff1660e01b815260040161070192919061139f565b6020604051808303816000875af1158015610720573d6000803e3d6000fd5b505050506040513d601f19601f8201168201806040525081019061074491906117e3565b5050808061075190611810565b91505061066c565b506001600960006101000a81548160ff02191690831515021790555050565b600960009054906101000a900460ff1681565b60085481565b600360009054906101000a900473ffffffffffffffffffffffffffffffffffffffff1673ffffffffffffffffffffffffffffffffffffffff163373ffffffffffffffffffffffffffffffffffffffff1614610821576040517f08c379a000000000000000000000000000000000000000000000000000000000815260040161081890611681565b60405180910390fd5b60018060008373ffffffffffffffffffffffffffffffffffffffff1673ffffffffffffffffffffffffffffffffffffffff16815260200190815260200160002060006101000a81548160ff02191690831515021790555050565b600960019054906101000a900460ff1681565b60055481565b60001515600960019054906101000a900460ff1615151480610906575060011515600160003373ffffffffffffffffffffffffffffffffffffffff1673ffffffffffffffffffffffffffffffffffffffff16815260200190815260200160002060009054906101000a900460ff161515145b610945576040517f08c379a000000000000000000000000000000000000000000000000000000000815260040161093c906118a5565b60405180910390fd5b6000600454118015610958575060045442105b801561096657506000600654115b6109a5576040517f08c379a000000000000000000000000000000000000000000000000000000000815260040161099c90611911565b60405180910390fd5b60075434101580156109b957506008543411155b6109f8576040517f08c379a00000000000000000000000000000000000000000000000000000000081526004016109ef906119a3565b60405180910390fd5b600034600554610a08919061155e565b9050600654811115610a4f576040517f08c379a0000000000000000000000000000000000000000000000000000000008152600401610a4690611a0f565b60405180910390fd5b600060405180604001604052803373ffffffffffffffffffffffffffffffffffffffff16815260200183815250908060018154018082558091505060019003906000526020600020906002020160009091909190915060008201518160000160006101000a81548173ffffffffffffffffffffffffffffffffffffffff021916908373ffffffffffffffffffffffffffffffffffffffff1602179055506020820151816001015550508060066000828254610b0a9190611a2f565b9250508190555050565b60008181548110610b2457600080fd5b90600052602060002090600202016000915090508060000160009054906101000a900473ffffffffffffffffffffffffffffffffffffffff16908060010154905082565b600360009054906101000a900473ffffffffffffffffffffffffffffffffffffffff1673ffffffffffffffffffffffffffffffffffffffff163373ffffffffffffffffffffffffffffffffffffffff1614610bf8576040517f08c379a0000000000000000000000000000000000000000000000000000000008152600401610bef90611681565b60405180910390fd5b600060045414610c3d576040517f08c379a0000000000000000000000000000000000000000000000000000000008152600401610c3490611aaf565b60405180910390fd5b60008711610c80576040517f08c379a0000000000000000000000000000000000000000000000000000000008152600401610c7790611b1b565b60405180910390fd5b60008673ffffffffffffffffffffffffffffffffffffffff166318160ddd6040518163ffffffff1660e01b8152600401602060405180830381865afa158015610ccd573d6000803e3d6000fd5b505050506040513d601f19601f82011682018060405250810190610cf19190611b50565b9050600085118015610d035750808511155b610d42576040517f08c379a0000000000000000000000000000000000000000000000000000000008152600401610d3990611bef565b60405180910390fd5b60008411610d85576040517f08c379a0000000000000000000000000000000000000000000000000000000008152600401610d7c90611c5b565b60405180910390fd5b600083118015610d955750848311155b610dd4576040517f08c379a0000000000000000000000000000000000000000000000000000000008152600401610dcb90611ced565b60405180910390fd5b6000600960006101000a81548160ff02191690831515021790555086600260006101000a81548173ffffffffffffffffffffffffffffffffffffffff021916908373ffffffffffffffffffffffffffffffffffffffff1602179055506000600260009054906101000a900473ffffffffffffffffffffffffffffffffffffffff1690508073ffffffffffffffffffffffffffffffffffffffff166323b872dd3330896040518463ffffffff1660e01b8152600401610e9493929190611d0d565b6020604051808303816000875af1158015610eb3573d6000803e3d6000fd5b505050506040513d601f19601f82011682018060405250810190610ed791906117e3565b504289610ee49190611d44565b60048190555082600960016101000a81548160ff02191690831515021790555086600581905550856006819055508460078190555083600881905550505050505050505050565b60045481565b600360009054906101000a900473ffffffffffffffffffffffffffffffffffffffff1673ffffffffffffffffffffffffffffffffffffffff163373ffffffffffffffffffffffffffffffffffffffff1614610fc1576040517f08c379a0000000000000000000000000000000000000000000000000000000008152600401610fb890611681565b60405180910390fd5b6000600454118015610ff1575060045442101580610ff05750600554600754610fea919061155e565b60065411155b5b611030576040517f08c379a000000000000000000000000000000000000000000000000000000000815260040161102790611615565b60405180910390fd5b60011515600960009054906101000a900460ff16151514611086576040517f08c379a000000000000000000000000000000000000000000000000000000000815260040161107d906116ed565b60405180910390fd5b8173ffffffffffffffffffffffffffffffffffffffff166108fc829081150290604051600060405180830381858888f193505050501580156110cc573d6000803e3d6000fd5b506000600260009054906101000a900473ffffffffffffffffffffffffffffffffffffffff1690508073ffffffffffffffffffffffffffffffffffffffff1663a9059cbb848373ffffffffffffffffffffffffffffffffffffffff166370a08231306040518263ffffffff1660e01b815260040161114a9190611514565b602060405180830381865afa158015611167573d6000803e3d6000fd5b505050506040513d601f19601f8201168201806040525081019061118b9190611b50565b6040518363ffffffff1660e01b81526004016111a8929190611df9565b6020604051808303816000875af11580156111c7573d6000803e3d6000fd5b505050506040513d601f19601f820116820180604052508101906111eb91906117e3565b50505050565b600360009054906101000a900473ffffffffffffffffffffffffffffffffffffffff1681565b600260009054906101000a900473ffffffffffffffffffffffffffffffffffffffff1681565b6000819050919050565b6112508161123d565b82525050565b600060208201905061126b6000830184611247565b92915050565b600080fd5b600073ffffffffffffffffffffffffffffffffffffffff82169050919050565b60006112a182611276565b9050919050565b6112b181611296565b81146112bc57600080fd5b50565b6000813590506112ce816112a8565b92915050565b6000602082840312156112ea576112e9611271565b5b60006112f8848285016112bf565b91505092915050565b60008115159050919050565b61131681611301565b82525050565b6000602082019050611331600083018461130d565b92915050565b6113408161123d565b811461134b57600080fd5b50565b60008135905061135d81611337565b92915050565b60006020828403121561137957611378611271565b5b60006113878482850161134e565b91505092915050565b61139981611296565b82525050565b60006040820190506113b46000830185611390565b6113c16020830184611247565b9392505050565b6113d181611301565b81146113dc57600080fd5b50565b6000813590506113ee816113c8565b92915050565b600080600080600080600060e0888a03121561141357611412611271565b5b60006114218a828b0161134e565b97505060206114328a828b016112bf565b96505060406114438a828b0161134e565b95505060606114548a828b0161134e565b94505060806114658a828b0161134e565b93505060a06114768a828b0161134e565b92505060c06114878a828b016113df565b91505092959891949750929550565b60006114a182611276565b9050919050565b6114b181611496565b81146114bc57600080fd5b50565b6000813590506114ce816114a8565b92915050565b600080604083850312156114eb576114ea611271565b5b60006114f9858286016114bf565b925050602061150a8582860161134e565b9150509250929050565b60006020820190506115296000830184611390565b92915050565b7f4e487b7100000000000000000000000000000000000000000000000000000000600052601160045260246000fd5b60006115698261123d565b91506115748361123d565b9250817fffffffffffffffffffffffffffffffffffffffffffffffffffffffffffffffff04831182151516156115ad576115ac61152f565b5b828202905092915050565b600082825260208201905092915050565b7f49434f206d757374206861766520656e64656400000000000000000000000000600082015250565b60006115ff6013836115b8565b915061160a826115c9565b602082019050919050565b6000602082019050818103600083015261162e816115f2565b9050919050565b7f6f6e6c792061646d696e00000000000000000000000000000000000000000000600082015250565b600061166b600a836115b8565b915061167682611635565b602082019050919050565b6000602082019050818103600083015261169a8161165e565b9050919050565b7f546f6b656e73206d7573742068617665206265656e2072656c65617365640000600082015250565b60006116d7601e836115b8565b91506116e2826116a1565b602082019050919050565b60006020820190508181036000830152611706816116ca565b9050919050565b7f546f6b656e73206d757374204e4f542068617665206265656e2072656c65617360008201527f6564000000000000000000000000000000000000000000000000000000000000602082015250565b60006117696022836115b8565b91506117748261170d565b604082019050919050565b600060208201905081810360008301526117988161175c565b9050919050565b7f4e487b7100000000000000000000000000000000000000000000000000000000600052603260045260246000fd5b6000815190506117dd816113c8565b92915050565b6000602082840312156117f9576117f8611271565b5b6000611807848285016117ce565b91505092915050565b600061181b8261123d565b91507fffffffffffffffffffffffffffffffffffffffffffffffffffffffffffffffff82141561184e5761184d61152f565b5b600182019050919050565b7f6f6e6c7920696e766573746f7273000000000000000000000000000000000000600082015250565b600061188f600e836115b8565b915061189a82611859565b602082019050919050565b600060208201905081810360008301526118be81611882565b9050919050565b7f49434f206d757374206265206163746976650000000000000000000000000000600082015250565b60006118fb6012836115b8565b9150611906826118c5565b602082019050919050565b6000602082019050818103600083015261192a816118ee565b9050919050565b7f6861766520746f2073656e64206265747765656e206d696e507572636861736560008201527f20616e64206d6178507572636861736500000000000000000000000000000000602082015250565b600061198d6030836115b8565b915061199882611931565b604082019050919050565b600060208201905081810360008301526119bc81611980565b9050919050565b7f4e6f7420656e6f75676820746f6b656e73206c65667420666f722073616c6500600082015250565b60006119f9601f836115b8565b9150611a04826119c3565b602082019050919050565b60006020820190508181036000830152611a28816119ec565b9050919050565b6000611a3a8261123d565b9150611a458361123d565b925082821015611a5857611a5761152f565b5b828203905092915050565b7f49434f2073686f756c64206e6f74206265206163746976650000000000000000600082015250565b6000611a996018836115b8565b9150611aa482611a63565b602082019050919050565b60006020820190508181036000830152611ac881611a8c565b9050919050565b7f6475726174696f6e2073686f756c64206265203e203000000000000000000000600082015250565b6000611b056016836115b8565b9150611b1082611acf565b602082019050919050565b60006020820190508181036000830152611b3481611af8565b9050919050565b600081519050611b4a81611337565b92915050565b600060208284031215611b6657611b65611271565b5b6000611b7484828501611b3b565b91505092915050565b7f746f74616c537570706c792073686f756c64206265203e203020616e64203c3d60008201527f20746f74616c537570706c790000000000000000000000000000000000000000602082015250565b6000611bd9602c836115b8565b9150611be482611b7d565b604082019050919050565b60006020820190508181036000830152611c0881611bcc565b9050919050565b7f5f6d696e50757263686173652073686f756c64203e2030000000000000000000600082015250565b6000611c456017836115b8565b9150611c5082611c0f565b602082019050919050565b60006020820190508181036000830152611c7481611c38565b9050919050565b7f5f6d617850757263686173652073686f756c64206265203e203020616e64203c60008201527f3d205f617661696c61626c65546f6b656e730000000000000000000000000000602082015250565b6000611cd76032836115b8565b9150611ce282611c7b565b604082019050919050565b60006020820190508181036000830152611d0681611cca565b9050919050565b6000606082019050611d226000830186611390565b611d2f6020830185611390565b611d3c6040830184611247565b949350505050565b6000611d4f8261123d565b9150611d5a8361123d565b9250827fffffffffffffffffffffffffffffffffffffffffffffffffffffffffffffffff03821115611d8f57611d8e61152f565b5b828201905092915050565b6000819050919050565b6000611dbf611dba611db584611276565b611d9a565b611276565b9050919050565b6000611dd182611da4565b9050919050565b6000611de382611dc6565b9050919050565b611df381611dd8565b82525050565b6000604082019050611e0e6000830185611dea565b611e1b6020830184611247565b939250505056fea2646970667358221220b1530a43dd88b2da1d5bcd7f918efbea8da8f9f0472f36571d95a95189735f8b64736f6c634300080b0033",
  "immutableReferences": {},
  "source": "// SPDX-License-Identifier: MIT\n\npragma solidity ^0.8.0;\n\ninterface ERC20Interface {\n    function transfer(address to, uint tokens) external returns (bool success);\n    function transferFrom(address from, address to, uint tokens) external returns (bool success);\n    function balanceOf(address tokenOwner) external view returns (uint balance);\n    function approve(address spender, uint tokens) external returns (bool success);\n    function allowance(address tokenOwner, address spender) external view returns (uint remaining);\n    function totalSupply() external view returns (uint);\n\n    event Transfer(address indexed from, address indexed to, uint tokens);\n    event Approval(address indexed tokenOwner, address indexed spender, uint tokens);\n}\n\ncontract ICO {\n    struct Sale {\n        address investor;\n        uint quantity;\n    }\n    Sale[] public sales;\n    mapping(address => bool) public investors;\n    address public token;\n    address public admin;\n    uint public end;\n    uint public price;\n    uint public availableTokens;\n    uint public minPurchase;\n    uint public maxPurchase;\n    bool public released;\n    bool public whitelistStatus = false;\n    \n    constructor() {\n        admin = msg.sender;\n    }\n    \n    function start(\n        uint duration,\n        address _token,\n        uint _price,\n        uint _availableTokens,\n        uint _minPurchase,\n        uint _maxPurchase,\n        bool _whitelistStatus)\n        external\n        onlyAdmin() \n        icoNotActive() {\n        require(duration > 0, 'duration should be > 0');\n        uint totalSupply = ERC20Interface(_token).totalSupply();\n        require(_availableTokens > 0 && _availableTokens <= totalSupply, 'totalSupply should be > 0 and <= totalSupply');\n        require(_minPurchase > 0, '_minPurchase should > 0');\n        require(_maxPurchase > 0 && _maxPurchase <= _availableTokens, '_maxPurchase should be > 0 and <= _availableTokens');\n        released = false;\n        token = _token;\n        ERC20Interface tokenInstance = ERC20Interface(token);\n        tokenInstance.transferFrom(msg.sender,address(this), _availableTokens);\n        end = duration + block.timestamp; \n        whitelistStatus = _whitelistStatus;\n        price = _price;\n        availableTokens = _availableTokens;\n        minPurchase = _minPurchase;\n        maxPurchase = _maxPurchase;\n    }\n    \n    function whitelist(address investor)\n        external\n        onlyAdmin() {\n        investors[investor] = true;    \n    }\n\n    function getBalance() public view returns(uint256){\n        return address(this).balance;\n    }\n    \n    function buy()\n        payable\n        external\n        onlyInvestors()\n        icoActive() {\n        require(msg.value >= minPurchase && msg.value <= maxPurchase, 'have to send between minPurchase and maxPurchase');\n        uint quantity = price * msg.value;\n        require(quantity <= availableTokens, 'Not enough tokens left for sale');\n        sales.push(Sale(\n            msg.sender,\n            quantity\n        ));\n        availableTokens -= quantity;\n    }\n    \n    function release()\n        external\n        icoEnded()\n        tokensNotReleased() {\n        ERC20Interface tokenInstance = ERC20Interface(token);\n        for(uint i = 0; i < sales.length; i++) {\n            Sale storage sale = sales[i];\n            tokenInstance.transfer(sale.investor, sale.quantity);\n        }\n        released = true;\n    }\n\n    function stop() public\n        icoEnded()\n        onlyAdmin()\n        tokensReleased(){\n            end = 0;\n        }\n    \n    function withdraw(\n        address payable to,\n        uint amount)\n        external\n        onlyAdmin()\n        icoEnded()\n        tokensReleased() {\n        to.transfer(amount);\n        ERC20Interface tokenInstance = ERC20Interface(token);\n        tokenInstance.transfer(to, tokenInstance.balanceOf(address(this)));\n    }\n    \n    modifier icoActive() {\n        require(end > 0 && block.timestamp < end && availableTokens > 0, \"ICO must be active\");\n        _;\n    }\n    \n    modifier icoNotActive() {\n        require(end == 0, 'ICO should not be active');\n        _;\n    }\n    \n    modifier icoEnded() {\n        require(end > 0 && (block.timestamp >= end || availableTokens <= minPurchase * price), 'ICO must have ended');\n        _;\n    }\n    \n    modifier tokensNotReleased() {\n        require(released == false, 'Tokens must NOT have been released');\n        _;\n    }\n    \n    modifier tokensReleased() {\n        require(released == true, 'Tokens must have been released');\n        _;\n    }\n    \n    modifier onlyInvestors() {\n        require(whitelistStatus == false || investors[msg.sender] == true, 'only investors');\n        _;\n    }\n    \n    modifier onlyAdmin() {\n        require(msg.sender == admin, 'only admin');\n        _;\n    }\n    \n}",
  "sourcePath": "/Users/jarupaksrisuchat/Documents/github/crypto-font/contracts/ico.sol",
  "compiler": {
    "name": "solc",
    "version": "0.8.11+commit.d7f03943.Emscripten.clang"
  },
  "schemaVersion": "3.4.3",
  "updatedAt": "2021-12-23T09:42:30.770Z",
  "networkType": "ethereum",
  "devdoc": {
    "kind": "dev",
    "methods": {},
    "version": 1
  },
  "userdoc": {
    "kind": "user",
    "methods": {},
    "version": 1
  }
}