{
  "contractName": "ICO",
  "abi": [
    {
      "inputs": [],
      "stateMutability": "nonpayable",
      "type": "constructor"
    },
    {
      "inputs": [],
      "name": "admin",
      "outputs": [
        {
          "internalType": "address",
          "name": "",
          "type": "address"
        }
      ],
      "stateMutability": "view",
      "type": "function",
      "constant": true
    },
    {
      "inputs": [],
      "name": "availableTokens",
      "outputs": [
        {
          "internalType": "uint256",
          "name": "",
          "type": "uint256"
        }
      ],
      "stateMutability": "view",
      "type": "function",
      "constant": true
    },
    {
      "inputs": [],
      "name": "end",
      "outputs": [
        {
          "internalType": "uint256",
          "name": "",
          "type": "uint256"
        }
      ],
      "stateMutability": "view",
      "type": "function",
      "constant": true
    },
    {
      "inputs": [
        {
          "internalType": "address",
          "name": "",
          "type": "address"
        }
      ],
      "name": "investors",
      "outputs": [
        {
          "internalType": "bool",
          "name": "",
          "type": "bool"
        }
      ],
      "stateMutability": "view",
      "type": "function",
      "constant": true
    },
    {
      "inputs": [],
      "name": "maxPurchase",
      "outputs": [
        {
          "internalType": "uint256",
          "name": "",
          "type": "uint256"
        }
      ],
      "stateMutability": "view",
      "type": "function",
      "constant": true
    },
    {
      "inputs": [],
      "name": "minPurchase",
      "outputs": [
        {
          "internalType": "uint256",
          "name": "",
          "type": "uint256"
        }
      ],
      "stateMutability": "view",
      "type": "function",
      "constant": true
    },
    {
      "inputs": [],
      "name": "price",
      "outputs": [
        {
          "internalType": "uint256",
          "name": "",
          "type": "uint256"
        }
      ],
      "stateMutability": "view",
      "type": "function",
      "constant": true
    },
    {
      "inputs": [
        {
          "internalType": "address",
          "name": "",
          "type": "address"
        }
      ],
      "name": "sales",
      "outputs": [
        {
          "internalType": "uint256",
          "name": "",
          "type": "uint256"
        }
      ],
      "stateMutability": "view",
      "type": "function",
      "constant": true
    },
    {
      "inputs": [],
      "name": "token",
      "outputs": [
        {
          "internalType": "address",
          "name": "",
          "type": "address"
        }
      ],
      "stateMutability": "view",
      "type": "function",
      "constant": true
    },
    {
      "inputs": [],
      "name": "whitelistStatus",
      "outputs": [
        {
          "internalType": "bool",
          "name": "",
          "type": "bool"
        }
      ],
      "stateMutability": "view",
      "type": "function",
      "constant": true
    },
    {
      "inputs": [
        {
          "internalType": "uint256",
          "name": "duration",
          "type": "uint256"
        },
        {
          "internalType": "address",
          "name": "_token",
          "type": "address"
        },
        {
          "internalType": "uint256",
          "name": "_price",
          "type": "uint256"
        },
        {
          "internalType": "uint256",
          "name": "_availableTokens",
          "type": "uint256"
        },
        {
          "internalType": "uint256",
          "name": "_minPurchase",
          "type": "uint256"
        },
        {
          "internalType": "uint256",
          "name": "_maxPurchase",
          "type": "uint256"
        },
        {
          "internalType": "bool",
          "name": "_whitelistStatus",
          "type": "bool"
        }
      ],
      "name": "create",
      "outputs": [],
      "stateMutability": "nonpayable",
      "type": "function"
    },
    {
      "inputs": [
        {
          "internalType": "address",
          "name": "investor",
          "type": "address"
        }
      ],
      "name": "whitelist",
      "outputs": [],
      "stateMutability": "nonpayable",
      "type": "function"
    },
    {
      "inputs": [],
      "name": "getBalance",
      "outputs": [
        {
          "internalType": "uint256",
          "name": "",
          "type": "uint256"
        }
      ],
      "stateMutability": "view",
      "type": "function",
      "constant": true
    },
    {
      "inputs": [],
      "name": "buy",
      "outputs": [],
      "stateMutability": "payable",
      "type": "function",
      "payable": true
    },
    {
      "inputs": [],
      "name": "claim",
      "outputs": [],
      "stateMutability": "nonpayable",
      "type": "function"
    },
    {
      "inputs": [],
      "name": "stop",
      "outputs": [],
      "stateMutability": "nonpayable",
      "type": "function"
    },
    {
      "inputs": [
        {
          "internalType": "address payable",
          "name": "to",
          "type": "address"
        },
        {
          "internalType": "uint256",
          "name": "amount",
          "type": "uint256"
        }
      ],
      "name": "withdraw",
      "outputs": [],
      "stateMutability": "nonpayable",
      "type": "function"
    }
  ],
  "bytecode": "0x60806040526000600960006101000a81548160ff02191690831515021790555034801561002b57600080fd5b5033600360006101000a81548173ffffffffffffffffffffffffffffffffffffffff021916908373ffffffffffffffffffffffffffffffffffffffff160217905550611a4d8061007c6000396000f3fe6080604052600436106100fe5760003560e01c80639b19251a11610095578063c6b9f06a11610064578063c6b9f06a146102cc578063efbe1c1c14610309578063f3fef3a314610334578063f851a4401461035d578063fc0c546a14610388576100fe565b80639b19251a146102435780639ddf7ad31461026c578063a035b1fe14610297578063a6f2ae3a146102c2576100fe565b806369bb4dc2116100d157806369bb4dc2146101875780636f7bc9be146101b2578063964cef97146101ef578063977b055b14610218576100fe565b806307da68f51461010357806312065fe01461011a57806333b5b62e146101455780634e71d92d14610170575b600080fd5b34801561010f57600080fd5b506101186103b3565b005b34801561012657600080fd5b5061012f6104bc565b60405161013c9190611028565b60405180910390f35b34801561015157600080fd5b5061015a6104c4565b6040516101679190611028565b60405180910390f35b34801561017c57600080fd5b506101856104ca565b005b34801561019357600080fd5b5061019c610621565b6040516101a99190611028565b60405180910390f35b3480156101be57600080fd5b506101d960048036038101906101d491906110a6565b610627565b6040516101e691906110ee565b60405180910390f35b3480156101fb57600080fd5b5061021660048036038101906102119190611161565b610647565b005b34801561022457600080fd5b5061022d610a06565b60405161023a9190611028565b60405180910390f35b34801561024f57600080fd5b5061026a600480360381019061026591906110a6565b610a0c565b005b34801561027857600080fd5b50610281610af6565b60405161028e91906110ee565b60405180910390f35b3480156102a357600080fd5b506102ac610b09565b6040516102b99190611028565b60405180910390f35b6102ca610b0f565b005b3480156102d857600080fd5b506102f360048036038101906102ee91906110a6565b610d3b565b6040516103009190611028565b60405180910390f35b34801561031557600080fd5b5061031e610d53565b60405161032b9190611028565b60405180910390f35b34801561034057600080fd5b5061035b60048036038101906103569190611241565b610d59565b005b34801561036957600080fd5b50610372610fc3565b60405161037f9190611290565b60405180910390f35b34801561039457600080fd5b5061039d610fe9565b6040516103aa9190611290565b60405180910390f35b60006004541180156103e35750600454421015806103e257506005546007546103dc91906112da565b60065411155b5b610422576040517f08c379a000000000000000000000000000000000000000000000000000000000815260040161041990611379565b60405180910390fd5b600360009054906101000a900473ffffffffffffffffffffffffffffffffffffffff1673ffffffffffffffffffffffffffffffffffffffff163373ffffffffffffffffffffffffffffffffffffffff16146104b2576040517f08c379a00000000000000000000000000000000000000000000000000000000081526004016104a9906113e5565b60405180910390fd5b6000600481905550565b600047905090565b60075481565b60006004541180156104fa5750600454421015806104f957506005546007546104f391906112da565b60065411155b5b610539576040517f08c379a000000000000000000000000000000000000000000000000000000000815260040161053090611379565b60405180910390fd5b6000600260009054906101000a900473ffffffffffffffffffffffffffffffffffffffff1690508073ffffffffffffffffffffffffffffffffffffffff1663a9059cbb33600160003373ffffffffffffffffffffffffffffffffffffffff1673ffffffffffffffffffffffffffffffffffffffff168152602001908152602001600020546040518363ffffffff1660e01b81526004016105da929190611405565b6020604051808303816000875af11580156105f9573d6000803e3d6000fd5b505050506040513d601f19601f8201168201806040525081019061061d9190611443565b5050565b60065481565b60006020528060005260406000206000915054906101000a900460ff1681565b600360009054906101000a900473ffffffffffffffffffffffffffffffffffffffff1673ffffffffffffffffffffffffffffffffffffffff163373ffffffffffffffffffffffffffffffffffffffff16146106d7576040517f08c379a00000000000000000000000000000000000000000000000000000000081526004016106ce906113e5565b60405180910390fd5b60006004541461071c576040517f08c379a0000000000000000000000000000000000000000000000000000000008152600401610713906114bc565b60405180910390fd5b6000871161075f576040517f08c379a000000000000000000000000000000000000000000000000000000000815260040161075690611528565b60405180910390fd5b60008673ffffffffffffffffffffffffffffffffffffffff166318160ddd6040518163ffffffff1660e01b8152600401602060405180830381865afa1580156107ac573d6000803e3d6000fd5b505050506040513d601f19601f820116820180604052508101906107d0919061155d565b90506000851180156107e25750808511155b610821576040517f08c379a0000000000000000000000000000000000000000000000000000000008152600401610818906115fc565b60405180910390fd5b60008411801561083c575084868561083991906112da565b11155b61087b576040517f08c379a000000000000000000000000000000000000000000000000000000000815260040161087290611668565b60405180910390fd5b60008311801561088b5750838310155b6108ca576040517f08c379a00000000000000000000000000000000000000000000000000000000081526004016108c1906116fa565b60405180910390fd5b86600260006101000a81548173ffffffffffffffffffffffffffffffffffffffff021916908373ffffffffffffffffffffffffffffffffffffffff1602179055506000600260009054906101000a900473ffffffffffffffffffffffffffffffffffffffff1690508073ffffffffffffffffffffffffffffffffffffffff166323b872dd3330896040518463ffffffff1660e01b815260040161096f9392919061171a565b6020604051808303816000875af115801561098e573d6000803e3d6000fd5b505050506040513d601f19601f820116820180604052508101906109b29190611443565b5042896109bf9190611751565b60048190555082600960006101000a81548160ff02191690831515021790555086600581905550856006819055508460078190555083600881905550505050505050505050565b60085481565b600360009054906101000a900473ffffffffffffffffffffffffffffffffffffffff1673ffffffffffffffffffffffffffffffffffffffff163373ffffffffffffffffffffffffffffffffffffffff1614610a9c576040517f08c379a0000000000000000000000000000000000000000000000000000000008152600401610a93906113e5565b60405180910390fd5b60016000808373ffffffffffffffffffffffffffffffffffffffff1673ffffffffffffffffffffffffffffffffffffffff16815260200190815260200160002060006101000a81548160ff02191690831515021790555050565b600960009054906101000a900460ff1681565b60055481565b60001515600960009054906101000a900460ff1615151480610b805750600115156000803373ffffffffffffffffffffffffffffffffffffffff1673ffffffffffffffffffffffffffffffffffffffff16815260200190815260200160002060009054906101000a900460ff161515145b610bbf576040517f08c379a0000000000000000000000000000000000000000000000000000000008152600401610bb6906117d1565b60405180910390fd5b6000600454118015610bd2575060045442105b8015610be057506000600654115b610c1f576040517f08c379a0000000000000000000000000000000000000000000000000000000008152600401610c169061183d565b60405180910390fd5b6007543410158015610c3357506008543411155b610c72576040517f08c379a0000000000000000000000000000000000000000000000000000000008152600401610c69906118cf565b60405180910390fd5b600034600554610c8291906112da565b9050600654811115610cc9576040517f08c379a0000000000000000000000000000000000000000000000000000000008152600401610cc09061193b565b60405180910390fd5b80600160003373ffffffffffffffffffffffffffffffffffffffff1673ffffffffffffffffffffffffffffffffffffffff1681526020019081526020016000206000828254610d189190611751565b925050819055508060066000828254610d31919061195b565b9250508190555050565b60016020528060005260406000206000915090505481565b60045481565b600360009054906101000a900473ffffffffffffffffffffffffffffffffffffffff1673ffffffffffffffffffffffffffffffffffffffff163373ffffffffffffffffffffffffffffffffffffffff1614610de9576040517f08c379a0000000000000000000000000000000000000000000000000000000008152600401610de0906113e5565b60405180910390fd5b6000600454118015610e19575060045442101580610e185750600554600754610e1291906112da565b60065411155b5b610e58576040517f08c379a0000000000000000000000000000000000000000000000000000000008152600401610e4f90611379565b60405180910390fd5b8173ffffffffffffffffffffffffffffffffffffffff166108fc829081150290604051600060405180830381858888f19350505050158015610e9e573d6000803e3d6000fd5b506000600260009054906101000a900473ffffffffffffffffffffffffffffffffffffffff1690508073ffffffffffffffffffffffffffffffffffffffff1663a9059cbb848373ffffffffffffffffffffffffffffffffffffffff166370a08231306040518263ffffffff1660e01b8152600401610f1c9190611290565b602060405180830381865afa158015610f39573d6000803e3d6000fd5b505050506040513d601f19601f82011682018060405250810190610f5d919061155d565b6040518363ffffffff1660e01b8152600401610f7a9291906119ee565b6020604051808303816000875af1158015610f99573d6000803e3d6000fd5b505050506040513d601f19601f82011682018060405250810190610fbd9190611443565b50505050565b600360009054906101000a900473ffffffffffffffffffffffffffffffffffffffff1681565b600260009054906101000a900473ffffffffffffffffffffffffffffffffffffffff1681565b6000819050919050565b6110228161100f565b82525050565b600060208201905061103d6000830184611019565b92915050565b600080fd5b600073ffffffffffffffffffffffffffffffffffffffff82169050919050565b600061107382611048565b9050919050565b61108381611068565b811461108e57600080fd5b50565b6000813590506110a08161107a565b92915050565b6000602082840312156110bc576110bb611043565b5b60006110ca84828501611091565b91505092915050565b60008115159050919050565b6110e8816110d3565b82525050565b600060208201905061110360008301846110df565b92915050565b6111128161100f565b811461111d57600080fd5b50565b60008135905061112f81611109565b92915050565b61113e816110d3565b811461114957600080fd5b50565b60008135905061115b81611135565b92915050565b600080600080600080600060e0888a0312156111805761117f611043565b5b600061118e8a828b01611120565b975050602061119f8a828b01611091565b96505060406111b08a828b01611120565b95505060606111c18a828b01611120565b94505060806111d28a828b01611120565b93505060a06111e38a828b01611120565b92505060c06111f48a828b0161114c565b91505092959891949750929550565b600061120e82611048565b9050919050565b61121e81611203565b811461122957600080fd5b50565b60008135905061123b81611215565b92915050565b6000806040838503121561125857611257611043565b5b60006112668582860161122c565b925050602061127785828601611120565b9150509250929050565b61128a81611068565b82525050565b60006020820190506112a56000830184611281565b92915050565b7f4e487b7100000000000000000000000000000000000000000000000000000000600052601160045260246000fd5b60006112e58261100f565b91506112f08361100f565b92508282026112fe8161100f565b91508282048414831517611315576113146112ab565b5b5092915050565b600082825260208201905092915050565b7f49434f206d757374206861766520656e64656400000000000000000000000000600082015250565b600061136360138361131c565b915061136e8261132d565b602082019050919050565b6000602082019050818103600083015261139281611356565b9050919050565b7f6f6e6c792061646d696e00000000000000000000000000000000000000000000600082015250565b60006113cf600a8361131c565b91506113da82611399565b602082019050919050565b600060208201905081810360008301526113fe816113c2565b9050919050565b600060408201905061141a6000830185611281565b6114276020830184611019565b9392505050565b60008151905061143d81611135565b92915050565b60006020828403121561145957611458611043565b5b60006114678482850161142e565b91505092915050565b7f49434f2073686f756c64206e6f74206265206163746976650000000000000000600082015250565b60006114a660188361131c565b91506114b182611470565b602082019050919050565b600060208201905081810360008301526114d581611499565b9050919050565b7f6475726174696f6e2073686f756c64206265203e203000000000000000000000600082015250565b600061151260168361131c565b915061151d826114dc565b602082019050919050565b6000602082019050818103600083015261154181611505565b9050919050565b60008151905061155781611109565b92915050565b60006020828403121561157357611572611043565b5b600061158184828501611548565b91505092915050565b7f746f74616c537570706c792073686f756c64206265203e203020616e64203c3d60008201527f20746f74616c537570706c790000000000000000000000000000000000000000602082015250565b60006115e6602c8361131c565b91506115f18261158a565b604082019050919050565b60006020820190508181036000830152611615816115d9565b9050919050565b7f5f6d696e50757263686173652073686f756c64203e2030000000000000000000600082015250565b600061165260178361131c565b915061165d8261161c565b602082019050919050565b6000602082019050818103600083015261168181611645565b9050919050565b7f5f6d617850757263686173652073686f756c64206265203e203020616e64203c60008201527f3d205f617661696c61626c65546f6b656e730000000000000000000000000000602082015250565b60006116e460328361131c565b91506116ef82611688565b604082019050919050565b60006020820190508181036000830152611713816116d7565b9050919050565b600060608201905061172f6000830186611281565b61173c6020830185611281565b6117496040830184611019565b949350505050565b600061175c8261100f565b91506117678361100f565b925082820190508082111561177f5761177e6112ab565b5b92915050565b7f6f6e6c7920696e766573746f7273000000000000000000000000000000000000600082015250565b60006117bb600e8361131c565b91506117c682611785565b602082019050919050565b600060208201905081810360008301526117ea816117ae565b9050919050565b7f49434f206d757374206265206163746976650000000000000000000000000000600082015250565b600061182760128361131c565b9150611832826117f1565b602082019050919050565b600060208201905081810360008301526118568161181a565b9050919050565b7f6861766520746f2073656e64206265747765656e206d696e507572636861736560008201527f20616e64206d6178507572636861736500000000000000000000000000000000602082015250565b60006118b960308361131c565b91506118c48261185d565b604082019050919050565b600060208201905081810360008301526118e8816118ac565b9050919050565b7f4e6f7420656e6f75676820746f6b656e73206c65667420666f722073616c6500600082015250565b6000611925601f8361131c565b9150611930826118ef565b602082019050919050565b6000602082019050818103600083015261195481611918565b9050919050565b60006119668261100f565b91506119718361100f565b9250828203905081811115611989576119886112ab565b5b92915050565b6000819050919050565b60006119b46119af6119aa84611048565b61198f565b611048565b9050919050565b60006119c682611999565b9050919050565b60006119d8826119bb565b9050919050565b6119e8816119cd565b82525050565b6000604082019050611a0360008301856119df565b611a106020830184611019565b939250505056fea264697066735822122038d6ced44f7bdd2ca01ddcbe12dffd6aa6e1d305c72c374abc708ad42012553464736f6c63430008110033",
  "immutableReferences": {},
  "source": "// SPDX-License-Identifier: MIT\n\npragma solidity ^0.8.0;\n\ninterface ERC20Interface {\n    function transfer(address to, uint tokens) external returns (bool success);\n    function transferFrom(address from, address to, uint tokens) external returns (bool success);\n    function balanceOf(address tokenOwner) external view returns (uint balance);\n    function approve(address spender, uint tokens) external returns (bool success);\n    function allowance(address tokenOwner, address spender) external view returns (uint remaining);\n    function totalSupply() external view returns (uint);\n\n    event Transfer(address indexed from, address indexed to, uint tokens);\n    event Approval(address indexed tokenOwner, address indexed spender, uint tokens);\n}\n\ninterface ICOInterface{\n\n}\n\ncontract ICO {\n    struct Sale {\n        address investor;\n        uint quantity;\n    }\n    mapping(address => bool) public investors;\n    mapping(address => uint256) public sales;\n    address public token;\n    address public admin;\n    uint public end;\n    uint public price;\n    uint public availableTokens;\n    uint public minPurchase;\n    uint public maxPurchase;\n    bool public whitelistStatus = false;\n    \n    constructor() {\n        admin = msg.sender;\n    }\n    \n    function create(\n        uint duration,\n        address _token,\n        uint _price,\n        uint _availableTokens,\n        uint _minPurchase,\n        uint _maxPurchase,\n        bool _whitelistStatus)\n        external\n        onlyAdmin() \n        icoNotActive() {\n        require(duration > 0, 'duration should be > 0');\n        uint totalSupply = ERC20Interface(_token).totalSupply();\n        require(_availableTokens > 0 && _availableTokens <= totalSupply, 'totalSupply should be > 0 and <= totalSupply');\n        require(_minPurchase > 0 && _minPurchase * _price <= _availableTokens, '_minPurchase should > 0');\n        require(_maxPurchase > 0 && _maxPurchase >= _minPurchase, '_maxPurchase should be > 0 and <= _availableTokens');\n        token = _token;\n        ERC20Interface tokenInstance = ERC20Interface(token);\n        tokenInstance.transferFrom(msg.sender,address(this), _availableTokens);\n        end = duration + block.timestamp; \n        whitelistStatus = _whitelistStatus;\n        price = _price;\n        availableTokens = _availableTokens;\n        minPurchase = _minPurchase;\n        maxPurchase = _maxPurchase;\n    }\n    \n    function whitelist(address investor)\n        external\n        onlyAdmin() {\n        investors[investor] = true;    \n    }\n\n    function getBalance() public view returns(uint256){\n        return address(this).balance;\n    }\n    \n    function buy()\n        payable\n        external\n        onlyInvestors()\n        icoActive() {\n        require(msg.value >= minPurchase && msg.value <= maxPurchase, 'have to send between minPurchase and maxPurchase');\n        uint quantity = price * msg.value;\n        require(quantity <= availableTokens, 'Not enough tokens left for sale');\n        sales[msg.sender] += quantity;\n        availableTokens -= quantity;\n    }\n    \n    function claim()\n        external\n        icoEnded()\n        {\n        ERC20Interface tokenInstance = ERC20Interface(token);\n        tokenInstance.transfer(msg.sender, sales[msg.sender]);\n    }\n\n    function stop() public\n        icoEnded()\n        onlyAdmin()\n        {\n            end = 0;\n        }\n    \n    function withdraw(\n        address payable to,\n        uint amount)\n        external\n        onlyAdmin()\n        icoEnded()\n        {\n        to.transfer(amount);\n        ERC20Interface tokenInstance = ERC20Interface(token);\n        tokenInstance.transfer(to, tokenInstance.balanceOf(address(this)));\n    }\n    \n    modifier icoActive() {\n        require(end > 0 && block.timestamp < end && availableTokens > 0, \"ICO must be active\");\n        _;\n    }\n    \n    modifier icoNotActive() {\n        require(end == 0, 'ICO should not be active');\n        _;\n    }\n    \n    modifier icoEnded() {\n        require(end > 0 && (block.timestamp >= end || availableTokens <= minPurchase * price), 'ICO must have ended');\n        _;\n    }\n    \n    modifier onlyInvestors() {\n        require(whitelistStatus == false || investors[msg.sender] == true, 'only investors');\n        _;\n    }\n    \n    modifier onlyAdmin() {\n        require(msg.sender == admin, 'only admin');\n        _;\n    }\n    \n}",
  "sourcePath": "/Users/jarupaksrisuchat/Documents/github/ppenter/crypto-font/contracts/ico.sol",
  "compiler": {
    "name": "solc",
    "version": "0.8.17+commit.8df45f5f.Emscripten.clang"
  },
  "schemaVersion": "3.4.10",
  "updatedAt": "2022-11-18T07:22:46.157Z",
  "networkType": "ethereum",
  "devdoc": {
    "kind": "dev",
    "methods": {},
    "version": 1
  },
  "userdoc": {
    "kind": "user",
    "methods": {},
    "version": 1
  }
}