{
  "contractName": "ICO",
  "abi": [
    {
      "inputs": [
        {
          "internalType": "address",
          "name": "tokenAddress",
          "type": "address"
        }
      ],
      "stateMutability": "nonpayable",
      "type": "constructor"
    },
    {
      "inputs": [],
      "name": "admin",
      "outputs": [
        {
          "internalType": "address",
          "name": "",
          "type": "address"
        }
      ],
      "stateMutability": "view",
      "type": "function",
      "constant": true
    },
    {
      "inputs": [],
      "name": "availableTokens",
      "outputs": [
        {
          "internalType": "uint256",
          "name": "",
          "type": "uint256"
        }
      ],
      "stateMutability": "view",
      "type": "function",
      "constant": true
    },
    {
      "inputs": [],
      "name": "end",
      "outputs": [
        {
          "internalType": "uint256",
          "name": "",
          "type": "uint256"
        }
      ],
      "stateMutability": "view",
      "type": "function",
      "constant": true
    },
    {
      "inputs": [
        {
          "internalType": "address",
          "name": "",
          "type": "address"
        }
      ],
      "name": "investors",
      "outputs": [
        {
          "internalType": "bool",
          "name": "",
          "type": "bool"
        }
      ],
      "stateMutability": "view",
      "type": "function",
      "constant": true
    },
    {
      "inputs": [],
      "name": "maxPurchase",
      "outputs": [
        {
          "internalType": "uint256",
          "name": "",
          "type": "uint256"
        }
      ],
      "stateMutability": "view",
      "type": "function",
      "constant": true
    },
    {
      "inputs": [],
      "name": "minPurchase",
      "outputs": [
        {
          "internalType": "uint256",
          "name": "",
          "type": "uint256"
        }
      ],
      "stateMutability": "view",
      "type": "function",
      "constant": true
    },
    {
      "inputs": [],
      "name": "price",
      "outputs": [
        {
          "internalType": "uint256",
          "name": "",
          "type": "uint256"
        }
      ],
      "stateMutability": "view",
      "type": "function",
      "constant": true
    },
    {
      "inputs": [],
      "name": "released",
      "outputs": [
        {
          "internalType": "bool",
          "name": "",
          "type": "bool"
        }
      ],
      "stateMutability": "view",
      "type": "function",
      "constant": true
    },
    {
      "inputs": [
        {
          "internalType": "uint256",
          "name": "",
          "type": "uint256"
        }
      ],
      "name": "sales",
      "outputs": [
        {
          "internalType": "address",
          "name": "investor",
          "type": "address"
        },
        {
          "internalType": "uint256",
          "name": "quantity",
          "type": "uint256"
        }
      ],
      "stateMutability": "view",
      "type": "function",
      "constant": true
    },
    {
      "inputs": [],
      "name": "token",
      "outputs": [
        {
          "internalType": "address",
          "name": "",
          "type": "address"
        }
      ],
      "stateMutability": "view",
      "type": "function",
      "constant": true
    },
    {
      "inputs": [
        {
          "internalType": "uint256",
          "name": "duration",
          "type": "uint256"
        },
        {
          "internalType": "uint256",
          "name": "_price",
          "type": "uint256"
        },
        {
          "internalType": "uint256",
          "name": "_availableTokens",
          "type": "uint256"
        },
        {
          "internalType": "uint256",
          "name": "_minPurchase",
          "type": "uint256"
        },
        {
          "internalType": "uint256",
          "name": "_maxPurchase",
          "type": "uint256"
        }
      ],
      "name": "start",
      "outputs": [],
      "stateMutability": "nonpayable",
      "type": "function"
    },
    {
      "inputs": [
        {
          "internalType": "address",
          "name": "investor",
          "type": "address"
        }
      ],
      "name": "whitelist",
      "outputs": [],
      "stateMutability": "nonpayable",
      "type": "function"
    },
    {
      "inputs": [],
      "name": "buy",
      "outputs": [],
      "stateMutability": "payable",
      "type": "function",
      "payable": true
    },
    {
      "inputs": [],
      "name": "release",
      "outputs": [],
      "stateMutability": "nonpayable",
      "type": "function"
    },
    {
      "inputs": [
        {
          "internalType": "address payable",
          "name": "to",
          "type": "address"
        },
        {
          "internalType": "uint256",
          "name": "amount",
          "type": "uint256"
        }
      ],
      "name": "withdraw",
      "outputs": [],
      "stateMutability": "nonpayable",
      "type": "function"
    }
  ],
  "bytecode": "0x60806040523480156200001157600080fd5b5060405162001af938038062001af983398181016040528101906200003791906200012a565b80600260006101000a81548173ffffffffffffffffffffffffffffffffffffffff021916908373ffffffffffffffffffffffffffffffffffffffff16021790555033600360006101000a81548173ffffffffffffffffffffffffffffffffffffffff021916908373ffffffffffffffffffffffffffffffffffffffff160217905550506200015c565b600080fd5b600073ffffffffffffffffffffffffffffffffffffffff82169050919050565b6000620000f282620000c5565b9050919050565b6200010481620000e5565b81146200011057600080fd5b50565b6000815190506200012481620000f9565b92915050565b600060208284031215620001435762000142620000c0565b5b6000620001538482850162000113565b91505092915050565b61198d806200016c6000396000f3fe6080604052600436106100e85760003560e01c8063a035b1fe1161008a578063efbe1c1c11610059578063efbe1c1c146102b2578063f3fef3a3146102dd578063f851a44014610306578063fc0c546a14610331576100e8565b8063a035b1fe14610216578063a6f2ae3a14610241578063b5f522f71461024b578063d607b55b14610289576100e8565b806386d1a69f116100c657806386d1a69f146101805780639613252114610197578063977b055b146101c25780639b19251a146101ed576100e8565b806333b5b62e146100ed57806369bb4dc2146101185780636f7bc9be14610143575b600080fd5b3480156100f957600080fd5b5061010261035c565b60405161010f9190610e86565b60405180910390f35b34801561012457600080fd5b5061012d610362565b60405161013a9190610e86565b60405180910390f35b34801561014f57600080fd5b5061016a60048036038101906101659190610f04565b610368565b6040516101779190610f4c565b60405180910390f35b34801561018c57600080fd5b50610195610388565b005b3480156101a357600080fd5b506101ac6105f8565b6040516101b99190610f4c565b60405180910390f35b3480156101ce57600080fd5b506101d761060b565b6040516101e49190610e86565b60405180910390f35b3480156101f957600080fd5b50610214600480360381019061020f9190610f04565b610611565b005b34801561022257600080fd5b5061022b6106fb565b6040516102389190610e86565b60405180910390f35b610249610701565b005b34801561025757600080fd5b50610272600480360381019061026d9190610f93565b610963565b604051610280929190610fcf565b60405180910390f35b34801561029557600080fd5b506102b060048036038101906102ab9190610ff8565b6109b7565b005b3480156102be57600080fd5b506102c7610c7b565b6040516102d49190610e86565b60405180910390f35b3480156102e957600080fd5b5061030460048036038101906102ff91906110b1565b610c81565b005b34801561031257600080fd5b5061031b610e21565b60405161032891906110f1565b60405180910390f35b34801561033d57600080fd5b50610346610e47565b60405161035391906110f1565b60405180910390f35b60075481565b60065481565b60016020528060005260406000206000915054906101000a900460ff1681565b600360009054906101000a900473ffffffffffffffffffffffffffffffffffffffff1673ffffffffffffffffffffffffffffffffffffffff163373ffffffffffffffffffffffffffffffffffffffff1614610418576040517f08c379a000000000000000000000000000000000000000000000000000000000815260040161040f90611169565b60405180910390fd5b6000600454118015610448575060045442101580610447575060055460075461044191906111b8565b60065411155b5b610487576040517f08c379a000000000000000000000000000000000000000000000000000000000815260040161047e9061125e565b60405180910390fd5b60001515600960009054906101000a900460ff161515146104dd576040517f08c379a00000000000000000000000000000000000000000000000000000000081526004016104d4906112f0565b60405180910390fd5b6000600260009054906101000a900473ffffffffffffffffffffffffffffffffffffffff16905060005b6000805490508110156105f457600080828154811061052957610528611310565b5b906000526020600020906002020190508273ffffffffffffffffffffffffffffffffffffffff1663a9059cbb8260000160009054906101000a900473ffffffffffffffffffffffffffffffffffffffff1683600101546040518363ffffffff1660e01b815260040161059c929190610fcf565b6020604051808303816000875af11580156105bb573d6000803e3d6000fd5b505050506040513d601f19601f820116820180604052508101906105df919061136b565b505080806105ec90611398565b915050610507565b5050565b600960009054906101000a900460ff1681565b60085481565b600360009054906101000a900473ffffffffffffffffffffffffffffffffffffffff1673ffffffffffffffffffffffffffffffffffffffff163373ffffffffffffffffffffffffffffffffffffffff16146106a1576040517f08c379a000000000000000000000000000000000000000000000000000000000815260040161069890611169565b60405180910390fd5b60018060008373ffffffffffffffffffffffffffffffffffffffff1673ffffffffffffffffffffffffffffffffffffffff16815260200190815260200160002060006101000a81548160ff02191690831515021790555050565b60055481565b60011515600160003373ffffffffffffffffffffffffffffffffffffffff1673ffffffffffffffffffffffffffffffffffffffff16815260200190815260200160002060009054906101000a900460ff16151514610794576040517f08c379a000000000000000000000000000000000000000000000000000000000815260040161078b9061142d565b60405180910390fd5b60006004541180156107a7575060045442105b80156107b557506000600654115b6107f4576040517f08c379a00000000000000000000000000000000000000000000000000000000081526004016107eb90611499565b60405180910390fd5b600754341015801561080857506008543411155b610847576040517f08c379a000000000000000000000000000000000000000000000000000000000815260040161083e9061152b565b60405180910390fd5b60003460055461085791906111b8565b905060065481111561089e576040517f08c379a000000000000000000000000000000000000000000000000000000000815260040161089590611597565b60405180910390fd5b600060405180604001604052803373ffffffffffffffffffffffffffffffffffffffff16815260200183815250908060018154018082558091505060019003906000526020600020906002020160009091909190915060008201518160000160006101000a81548173ffffffffffffffffffffffffffffffffffffffff021916908373ffffffffffffffffffffffffffffffffffffffff160217905550602082015181600101555050806006600082825461095991906115b7565b9250508190555050565b6000818154811061097357600080fd5b90600052602060002090600202016000915090508060000160009054906101000a900473ffffffffffffffffffffffffffffffffffffffff16908060010154905082565b600360009054906101000a900473ffffffffffffffffffffffffffffffffffffffff1673ffffffffffffffffffffffffffffffffffffffff163373ffffffffffffffffffffffffffffffffffffffff1614610a47576040517f08c379a0000000000000000000000000000000000000000000000000000000008152600401610a3e90611169565b60405180910390fd5b600060045414610a8c576040517f08c379a0000000000000000000000000000000000000000000000000000000008152600401610a8390611637565b60405180910390fd5b60008511610acf576040517f08c379a0000000000000000000000000000000000000000000000000000000008152600401610ac6906116a3565b60405180910390fd5b6000600260009054906101000a900473ffffffffffffffffffffffffffffffffffffffff1673ffffffffffffffffffffffffffffffffffffffff166318160ddd6040518163ffffffff1660e01b8152600401602060405180830381865afa158015610b3e573d6000803e3d6000fd5b505050506040513d601f19601f82011682018060405250810190610b6291906116d8565b9050600084118015610b745750808411155b610bb3576040517f08c379a0000000000000000000000000000000000000000000000000000000008152600401610baa90611777565b60405180910390fd5b60008311610bf6576040517f08c379a0000000000000000000000000000000000000000000000000000000008152600401610bed906117e3565b60405180910390fd5b600082118015610c065750838211155b610c45576040517f08c379a0000000000000000000000000000000000000000000000000000000008152600401610c3c90611875565b60405180910390fd5b4286610c519190611895565b60048190555084600581905550836006819055508260078190555081600881905550505050505050565b60045481565b600360009054906101000a900473ffffffffffffffffffffffffffffffffffffffff1673ffffffffffffffffffffffffffffffffffffffff163373ffffffffffffffffffffffffffffffffffffffff1614610d11576040517f08c379a0000000000000000000000000000000000000000000000000000000008152600401610d0890611169565b60405180910390fd5b6000600454118015610d41575060045442101580610d405750600554600754610d3a91906111b8565b60065411155b5b610d80576040517f08c379a0000000000000000000000000000000000000000000000000000000008152600401610d779061125e565b60405180910390fd5b60011515600960009054906101000a900460ff16151514610dd6576040517f08c379a0000000000000000000000000000000000000000000000000000000008152600401610dcd90611937565b60405180910390fd5b8173ffffffffffffffffffffffffffffffffffffffff166108fc829081150290604051600060405180830381858888f19350505050158015610e1c573d6000803e3d6000fd5b505050565b600360009054906101000a900473ffffffffffffffffffffffffffffffffffffffff1681565b600260009054906101000a900473ffffffffffffffffffffffffffffffffffffffff1681565b6000819050919050565b610e8081610e6d565b82525050565b6000602082019050610e9b6000830184610e77565b92915050565b600080fd5b600073ffffffffffffffffffffffffffffffffffffffff82169050919050565b6000610ed182610ea6565b9050919050565b610ee181610ec6565b8114610eec57600080fd5b50565b600081359050610efe81610ed8565b92915050565b600060208284031215610f1a57610f19610ea1565b5b6000610f2884828501610eef565b91505092915050565b60008115159050919050565b610f4681610f31565b82525050565b6000602082019050610f616000830184610f3d565b92915050565b610f7081610e6d565b8114610f7b57600080fd5b50565b600081359050610f8d81610f67565b92915050565b600060208284031215610fa957610fa8610ea1565b5b6000610fb784828501610f7e565b91505092915050565b610fc981610ec6565b82525050565b6000604082019050610fe46000830185610fc0565b610ff16020830184610e77565b9392505050565b600080600080600060a0868803121561101457611013610ea1565b5b600061102288828901610f7e565b955050602061103388828901610f7e565b945050604061104488828901610f7e565b935050606061105588828901610f7e565b925050608061106688828901610f7e565b9150509295509295909350565b600061107e82610ea6565b9050919050565b61108e81611073565b811461109957600080fd5b50565b6000813590506110ab81611085565b92915050565b600080604083850312156110c8576110c7610ea1565b5b60006110d68582860161109c565b92505060206110e785828601610f7e565b9150509250929050565b60006020820190506111066000830184610fc0565b92915050565b600082825260208201905092915050565b7f6f6e6c792061646d696e00000000000000000000000000000000000000000000600082015250565b6000611153600a8361110c565b915061115e8261111d565b602082019050919050565b6000602082019050818103600083015261118281611146565b9050919050565b7f4e487b7100000000000000000000000000000000000000000000000000000000600052601160045260246000fd5b60006111c382610e6d565b91506111ce83610e6d565b9250817fffffffffffffffffffffffffffffffffffffffffffffffffffffffffffffffff048311821515161561120757611206611189565b5b828202905092915050565b7f49434f206d757374206861766520656e64656400000000000000000000000000600082015250565b600061124860138361110c565b915061125382611212565b602082019050919050565b600060208201905081810360008301526112778161123b565b9050919050565b7f546f6b656e73206d757374204e4f542068617665206265656e2072656c65617360008201527f6564000000000000000000000000000000000000000000000000000000000000602082015250565b60006112da60228361110c565b91506112e58261127e565b604082019050919050565b60006020820190508181036000830152611309816112cd565b9050919050565b7f4e487b7100000000000000000000000000000000000000000000000000000000600052603260045260246000fd5b61134881610f31565b811461135357600080fd5b50565b6000815190506113658161133f565b92915050565b60006020828403121561138157611380610ea1565b5b600061138f84828501611356565b91505092915050565b60006113a382610e6d565b91507fffffffffffffffffffffffffffffffffffffffffffffffffffffffffffffffff8214156113d6576113d5611189565b5b600182019050919050565b7f6f6e6c7920696e766573746f7273000000000000000000000000000000000000600082015250565b6000611417600e8361110c565b9150611422826113e1565b602082019050919050565b600060208201905081810360008301526114468161140a565b9050919050565b7f49434f206d757374206265206163746976650000000000000000000000000000600082015250565b600061148360128361110c565b915061148e8261144d565b602082019050919050565b600060208201905081810360008301526114b281611476565b9050919050565b7f6861766520746f2073656e64206265747765656e206d696e507572636861736560008201527f20616e64206d6178507572636861736500000000000000000000000000000000602082015250565b600061151560308361110c565b9150611520826114b9565b604082019050919050565b6000602082019050818103600083015261154481611508565b9050919050565b7f4e6f7420656e6f75676820746f6b656e73206c65667420666f722073616c6500600082015250565b6000611581601f8361110c565b915061158c8261154b565b602082019050919050565b600060208201905081810360008301526115b081611574565b9050919050565b60006115c282610e6d565b91506115cd83610e6d565b9250828210156115e0576115df611189565b5b828203905092915050565b7f49434f2073686f756c64206e6f74206265206163746976650000000000000000600082015250565b600061162160188361110c565b915061162c826115eb565b602082019050919050565b6000602082019050818103600083015261165081611614565b9050919050565b7f6475726174696f6e2073686f756c64206265203e203000000000000000000000600082015250565b600061168d60168361110c565b915061169882611657565b602082019050919050565b600060208201905081810360008301526116bc81611680565b9050919050565b6000815190506116d281610f67565b92915050565b6000602082840312156116ee576116ed610ea1565b5b60006116fc848285016116c3565b91505092915050565b7f746f74616c537570706c792073686f756c64206265203e203020616e64203c3d60008201527f20746f74616c537570706c790000000000000000000000000000000000000000602082015250565b6000611761602c8361110c565b915061176c82611705565b604082019050919050565b6000602082019050818103600083015261179081611754565b9050919050565b7f5f6d696e50757263686173652073686f756c64203e2030000000000000000000600082015250565b60006117cd60178361110c565b91506117d882611797565b602082019050919050565b600060208201905081810360008301526117fc816117c0565b9050919050565b7f5f6d617850757263686173652073686f756c64206265203e203020616e64203c60008201527f3d205f617661696c61626c65546f6b656e730000000000000000000000000000602082015250565b600061185f60328361110c565b915061186a82611803565b604082019050919050565b6000602082019050818103600083015261188e81611852565b9050919050565b60006118a082610e6d565b91506118ab83610e6d565b9250827fffffffffffffffffffffffffffffffffffffffffffffffffffffffffffffffff038211156118e0576118df611189565b5b828201905092915050565b7f546f6b656e73206d7573742068617665206265656e2072656c65617365640000600082015250565b6000611921601e8361110c565b915061192c826118eb565b602082019050919050565b6000602082019050818103600083015261195081611914565b905091905056fea26469706673582212202a2eb9d11ce385017b8bd2164a2be4c7e1cbd0499721cfa77a60e7c8c5c9849064736f6c634300080b0033",
  "immutableReferences": {},
  "source": "// SPDX-License-Identifier: MIT\r\n\r\npragma solidity ^0.8.0;\r\n\r\ninterface ERC20Interface {\r\n    function transfer(address to, uint tokens) external returns (bool success);\r\n    function transferFrom(address from, address to, uint tokens) external returns (bool success);\r\n    function balanceOf(address tokenOwner) external view returns (uint balance);\r\n    function approve(address spender, uint tokens) external returns (bool success);\r\n    function allowance(address tokenOwner, address spender) external view returns (uint remaining);\r\n    function totalSupply() external view returns (uint);\r\n\r\n    event Transfer(address indexed from, address indexed to, uint tokens);\r\n    event Approval(address indexed tokenOwner, address indexed spender, uint tokens);\r\n}\r\n\r\ncontract ICO {\r\n    struct Sale {\r\n        address investor;\r\n        uint quantity;\r\n    }\r\n    Sale[] public sales;\r\n    mapping(address => bool) public investors;\r\n    address public token;\r\n    address public admin;\r\n    uint public end;\r\n    uint public price;\r\n    uint public availableTokens;\r\n    uint public minPurchase;\r\n    uint public maxPurchase;\r\n    bool public released;\r\n    \r\n    constructor(address tokenAddress) {\r\n        token = tokenAddress;\r\n        admin = msg.sender;\r\n    }\r\n    \r\n    function start(\r\n        uint duration,\r\n        uint _price,\r\n        uint _availableTokens,\r\n        uint _minPurchase,\r\n        uint _maxPurchase)\r\n        external\r\n        onlyAdmin() \r\n        icoNotActive() {\r\n        require(duration > 0, 'duration should be > 0');\r\n        uint totalSupply = ERC20Interface(token).totalSupply();\r\n        require(_availableTokens > 0 && _availableTokens <= totalSupply, 'totalSupply should be > 0 and <= totalSupply');\r\n        require(_minPurchase > 0, '_minPurchase should > 0');\r\n        require(_maxPurchase > 0 && _maxPurchase <= _availableTokens, '_maxPurchase should be > 0 and <= _availableTokens');\r\n        end = duration + block.timestamp; \r\n        price = _price;\r\n        availableTokens = _availableTokens;\r\n        minPurchase = _minPurchase;\r\n        maxPurchase = _maxPurchase;\r\n    }\r\n    \r\n    function whitelist(address investor)\r\n        external\r\n        onlyAdmin() {\r\n        investors[investor] = true;    \r\n    }\r\n    \r\n    function buy()\r\n        payable\r\n        external\r\n        onlyInvestors()\r\n        icoActive() {\r\n        require(msg.value >= minPurchase && msg.value <= maxPurchase, 'have to send between minPurchase and maxPurchase');\r\n        uint quantity = price * msg.value;\r\n        require(quantity <= availableTokens, 'Not enough tokens left for sale');\r\n        sales.push(Sale(\r\n            msg.sender,\r\n            quantity\r\n        ));\r\n        availableTokens -= quantity;\r\n    }\r\n    \r\n    function release()\r\n        external\r\n        onlyAdmin()\r\n        icoEnded()\r\n        tokensNotReleased() {\r\n        ERC20Interface tokenInstance = ERC20Interface(token);\r\n        for(uint i = 0; i < sales.length; i++) {\r\n            Sale storage sale = sales[i];\r\n            tokenInstance.transfer(sale.investor, sale.quantity);\r\n        }\r\n    }\r\n    \r\n    function withdraw(\r\n        address payable to,\r\n        uint amount)\r\n        external\r\n        onlyAdmin()\r\n        icoEnded()\r\n        tokensReleased() {\r\n        to.transfer(amount);    \r\n    }\r\n    \r\n    modifier icoActive() {\r\n        require(end > 0 && block.timestamp < end && availableTokens > 0, \"ICO must be active\");\r\n        _;\r\n    }\r\n    \r\n    modifier icoNotActive() {\r\n        require(end == 0, 'ICO should not be active');\r\n        _;\r\n    }\r\n    \r\n    modifier icoEnded() {\r\n        require(end > 0 && (block.timestamp >= end || availableTokens <= minPurchase * price), 'ICO must have ended');\r\n        _;\r\n    }\r\n    \r\n    modifier tokensNotReleased() {\r\n        require(released == false, 'Tokens must NOT have been released');\r\n        _;\r\n    }\r\n    \r\n    modifier tokensReleased() {\r\n        require(released == true, 'Tokens must have been released');\r\n        _;\r\n    }\r\n    \r\n    modifier onlyInvestors() {\r\n        require(investors[msg.sender] == true, 'only investors');\r\n        _;\r\n    }\r\n    \r\n    modifier onlyAdmin() {\r\n        require(msg.sender == admin, 'only admin');\r\n        _;\r\n    }\r\n    \r\n}",
  "sourcePath": "C:\\Users\\jarup\\Documents\\GitHub\\crypto-font\\contracts\\ico.sol",
  "compiler": {
    "name": "solc",
    "version": "0.8.11+commit.d7f03943.Emscripten.clang"
  },
  "schemaVersion": "3.4.3",
  "updatedAt": "2021-12-21T01:39:23.778Z",
  "networkType": "ethereum",
  "devdoc": {
    "kind": "dev",
    "methods": {},
    "version": 1
  },
  "userdoc": {
    "kind": "user",
    "methods": {},
    "version": 1
  }
}