{
  "contractName": "Market",
  "abi": [
    {
      "inputs": [
        {
          "internalType": "address",
          "name": "eBTCAddress",
          "type": "address"
        }
      ],
      "stateMutability": "nonpayable",
      "type": "constructor"
    },
    {
      "anonymous": false,
      "inputs": [
        {
          "indexed": false,
          "internalType": "uint256",
          "name": "listingId",
          "type": "uint256"
        },
        {
          "indexed": false,
          "internalType": "address",
          "name": "seller",
          "type": "address"
        },
        {
          "indexed": false,
          "internalType": "uint256",
          "name": "timestamp",
          "type": "uint256"
        }
      ],
      "name": "Cancel",
      "type": "event"
    },
    {
      "anonymous": false,
      "inputs": [
        {
          "indexed": false,
          "internalType": "uint256",
          "name": "listingId",
          "type": "uint256"
        },
        {
          "indexed": false,
          "internalType": "address",
          "name": "seller",
          "type": "address"
        },
        {
          "indexed": false,
          "internalType": "address",
          "name": "token",
          "type": "address"
        },
        {
          "indexed": false,
          "internalType": "uint256",
          "name": "tokenId",
          "type": "uint256"
        },
        {
          "indexed": false,
          "internalType": "uint256",
          "name": "price",
          "type": "uint256"
        },
        {
          "indexed": false,
          "internalType": "uint256",
          "name": "timestamp",
          "type": "uint256"
        }
      ],
      "name": "Listed",
      "type": "event"
    },
    {
      "anonymous": false,
      "inputs": [
        {
          "indexed": false,
          "internalType": "uint256",
          "name": "listingId",
          "type": "uint256"
        },
        {
          "indexed": false,
          "internalType": "address",
          "name": "buyer",
          "type": "address"
        },
        {
          "indexed": false,
          "internalType": "address",
          "name": "token",
          "type": "address"
        },
        {
          "indexed": false,
          "internalType": "uint256",
          "name": "tokenId",
          "type": "uint256"
        },
        {
          "indexed": false,
          "internalType": "uint256",
          "name": "price",
          "type": "uint256"
        },
        {
          "indexed": false,
          "internalType": "uint256",
          "name": "timestamp",
          "type": "uint256"
        }
      ],
      "name": "Sale",
      "type": "event"
    },
    {
      "inputs": [
        {
          "internalType": "address",
          "name": "token",
          "type": "address"
        },
        {
          "internalType": "uint256",
          "name": "tokenId",
          "type": "uint256"
        },
        {
          "internalType": "uint256",
          "name": "price",
          "type": "uint256"
        }
      ],
      "name": "listToken",
      "outputs": [],
      "stateMutability": "nonpayable",
      "type": "function"
    },
    {
      "inputs": [
        {
          "internalType": "uint256",
          "name": "listingId",
          "type": "uint256"
        }
      ],
      "name": "getListing",
      "outputs": [
        {
          "components": [
            {
              "internalType": "uint256",
              "name": "listingId",
              "type": "uint256"
            },
            {
              "internalType": "enum Market.ListingStatus",
              "name": "status",
              "type": "uint8"
            },
            {
              "internalType": "address",
              "name": "seller",
              "type": "address"
            },
            {
              "internalType": "address",
              "name": "token",
              "type": "address"
            },
            {
              "internalType": "uint256",
              "name": "tokenId",
              "type": "uint256"
            },
            {
              "internalType": "uint256",
              "name": "price",
              "type": "uint256"
            },
            {
              "internalType": "uint256",
              "name": "timestamp",
              "type": "uint256"
            }
          ],
          "internalType": "struct Market.Listing",
          "name": "",
          "type": "tuple"
        }
      ],
      "stateMutability": "view",
      "type": "function",
      "constant": true
    },
    {
      "inputs": [
        {
          "internalType": "uint256",
          "name": "listingId",
          "type": "uint256"
        }
      ],
      "name": "buyToken",
      "outputs": [],
      "stateMutability": "nonpayable",
      "type": "function"
    },
    {
      "inputs": [
        {
          "internalType": "uint256",
          "name": "listingId",
          "type": "uint256"
        }
      ],
      "name": "cancel",
      "outputs": [],
      "stateMutability": "nonpayable",
      "type": "function"
    },
    {
      "inputs": [],
      "name": "countActiveListing",
      "outputs": [
        {
          "internalType": "uint256",
          "name": "",
          "type": "uint256"
        }
      ],
      "stateMutability": "view",
      "type": "function",
      "constant": true
    },
    {
      "inputs": [
        {
          "internalType": "address",
          "name": "token",
          "type": "address"
        }
      ],
      "name": "countActiveListingOfContract",
      "outputs": [
        {
          "internalType": "uint256",
          "name": "",
          "type": "uint256"
        }
      ],
      "stateMutability": "view",
      "type": "function",
      "constant": true
    },
    {
      "inputs": [],
      "name": "getActiveListing",
      "outputs": [
        {
          "internalType": "uint256[]",
          "name": "",
          "type": "uint256[]"
        }
      ],
      "stateMutability": "view",
      "type": "function",
      "constant": true
    },
    {
      "inputs": [
        {
          "internalType": "address",
          "name": "token",
          "type": "address"
        }
      ],
      "name": "getActiveListingOfContract",
      "outputs": [
        {
          "internalType": "uint256[]",
          "name": "",
          "type": "uint256[]"
        }
      ],
      "stateMutability": "view",
      "type": "function",
      "constant": true
    },
    {
      "inputs": [
        {
          "internalType": "address",
          "name": "token",
          "type": "address"
        }
      ],
      "name": "getActiveArrayOfContract",
      "outputs": [
        {
          "components": [
            {
              "internalType": "uint256",
              "name": "listingId",
              "type": "uint256"
            },
            {
              "internalType": "enum Market.ListingStatus",
              "name": "status",
              "type": "uint8"
            },
            {
              "internalType": "address",
              "name": "seller",
              "type": "address"
            },
            {
              "internalType": "address",
              "name": "token",
              "type": "address"
            },
            {
              "internalType": "uint256",
              "name": "tokenId",
              "type": "uint256"
            },
            {
              "internalType": "uint256",
              "name": "price",
              "type": "uint256"
            },
            {
              "internalType": "uint256",
              "name": "timestamp",
              "type": "uint256"
            }
          ],
          "internalType": "struct Market.Listing[]",
          "name": "",
          "type": "tuple[]"
        }
      ],
      "stateMutability": "view",
      "type": "function",
      "constant": true
    },
    {
      "inputs": [
        {
          "internalType": "address",
          "name": "token",
          "type": "address"
        }
      ],
      "name": "getOnsaleOfToken",
      "outputs": [
        {
          "internalType": "uint256[]",
          "name": "",
          "type": "uint256[]"
        }
      ],
      "stateMutability": "view",
      "type": "function",
      "constant": true
    },
    {
      "inputs": [
        {
          "internalType": "address",
          "name": "token",
          "type": "address"
        },
        {
          "internalType": "uint256",
          "name": "tokenId",
          "type": "uint256"
        }
      ],
      "name": "getPriceOfId",
      "outputs": [
        {
          "internalType": "uint256",
          "name": "",
          "type": "uint256"
        }
      ],
      "stateMutability": "view",
      "type": "function",
      "constant": true
    },
    {
      "inputs": [],
      "name": "getAllListing",
      "outputs": [
        {
          "components": [
            {
              "internalType": "uint256",
              "name": "listingId",
              "type": "uint256"
            },
            {
              "internalType": "enum Market.ListingStatus",
              "name": "status",
              "type": "uint8"
            },
            {
              "internalType": "address",
              "name": "seller",
              "type": "address"
            },
            {
              "internalType": "address",
              "name": "token",
              "type": "address"
            },
            {
              "internalType": "uint256",
              "name": "tokenId",
              "type": "uint256"
            },
            {
              "internalType": "uint256",
              "name": "price",
              "type": "uint256"
            },
            {
              "internalType": "uint256",
              "name": "timestamp",
              "type": "uint256"
            }
          ],
          "internalType": "struct Market.Listing[]",
          "name": "",
          "type": "tuple[]"
        }
      ],
      "stateMutability": "view",
      "type": "function",
      "constant": true
    },
    {
      "inputs": [
        {
          "internalType": "address",
          "name": "token",
          "type": "address"
        },
        {
          "internalType": "uint256",
          "name": "tokenId",
          "type": "uint256"
        }
      ],
      "name": "isTokenIdOnSale",
      "outputs": [
        {
          "internalType": "bool",
          "name": "",
          "type": "bool"
        }
      ],
      "stateMutability": "view",
      "type": "function",
      "constant": true
    }
  ],
  "bytecode": "0x6080604052600080553480156200001557600080fd5b50604051620025313803806200253183398181016040528101906200003b9190620000ed565b80600260006101000a81548173ffffffffffffffffffffffffffffffffffffffff021916908373ffffffffffffffffffffffffffffffffffffffff160217905550506200011f565b600080fd5b600073ffffffffffffffffffffffffffffffffffffffff82169050919050565b6000620000b58262000088565b9050919050565b620000c781620000a8565b8114620000d357600080fd5b50565b600081519050620000e781620000bc565b92915050565b60006020828403121562000106576200010562000083565b5b60006200011684828501620000d6565b91505092915050565b612402806200012f6000396000f3fe608060405234801561001057600080fd5b50600436106100cf5760003560e01c80637e07590d1161008c578063a17ae7b211610066578063a17ae7b214610224578063e17dcbb014610254578063e8fd2e3a14610272578063ff6f118b146102a2576100cf565b80637e07590d146101a85780638a3f352a146101c4578063a0a032a0146101f4576100cf565b8063107a274a146100d45780632d296bf114610104578063317d08231461012057806336b40a3c1461013e57806340e58ee51461016e578063467efe5a1461018a575b600080fd5b6100ee60048036038101906100e99190611a09565b6102d2565b6040516100fb9190611b8b565b60405180910390f35b61011e60048036038101906101199190611a09565b61040e565b005b6101286108b7565b6040516101359190611bb5565b60405180910390f35b61015860048036038101906101539190611bfc565b610957565b6040516101659190611bb5565b60405180910390f35b61018860048036038101906101839190611a09565b610a52565b005b610192610c9a565b60405161019f9190611d66565b60405180910390f35b6101c260048036038101906101bd9190611d88565b610e74565b005b6101de60048036038101906101d99190611ddb565b6110c6565b6040516101eb9190611bb5565b60405180910390f35b61020e60048036038101906102099190611bfc565b61114b565b60405161021b9190611eca565b60405180910390f35b61023e60048036038101906102399190611bfc565b6112cc565b60405161024b9190611eca565b60405180910390f35b61025c611461565b6040516102699190611eca565b60405180910390f35b61028c60048036038101906102879190611ddb565b61159a565b6040516102999190611f07565b60405180910390f35b6102bc60048036038101906102b79190611bfc565b61169e565b6040516102c99190611d66565b60405180910390f35b6102da611953565b600160008381526020019081526020016000206040518060e0016040529081600082015481526020016001820160009054906101000a900460ff16600281111561032757610326611a45565b5b600281111561033957610338611a45565b5b81526020016001820160019054906101000a900473ffffffffffffffffffffffffffffffffffffffff1673ffffffffffffffffffffffffffffffffffffffff1673ffffffffffffffffffffffffffffffffffffffff1681526020016002820160009054906101000a900473ffffffffffffffffffffffffffffffffffffffff1673ffffffffffffffffffffffffffffffffffffffff1673ffffffffffffffffffffffffffffffffffffffff16815260200160038201548152602001600482015481526020016005820154815250509050919050565b60006001600083815260200190815260200160002090508060010160019054906101000a900473ffffffffffffffffffffffffffffffffffffffff1673ffffffffffffffffffffffffffffffffffffffff163373ffffffffffffffffffffffffffffffffffffffff1614156104b8576040517f08c379a00000000000000000000000000000000000000000000000000000000081526004016104af90611f7f565b60405180910390fd5b600060028111156104cc576104cb611a45565b5b8160010160009054906101000a900460ff1660028111156104f0576104ef611a45565b5b14610530576040517f08c379a000000000000000000000000000000000000000000000000000000000815260040161052790611feb565b60405180910390fd5b8060040154600260009054906101000a900473ffffffffffffffffffffffffffffffffffffffff1673ffffffffffffffffffffffffffffffffffffffff166370a08231336040518263ffffffff1660e01b8152600401610590919061201a565b602060405180830381865afa1580156105ad573d6000803e3d6000fd5b505050506040513d601f19601f820116820180604052508101906105d1919061204a565b1015610612576040517f08c379a0000000000000000000000000000000000000000000000000000000008152600401610609906120c3565b60405180910390fd5b60018160010160006101000a81548160ff0219169083600281111561063a57610639611a45565b5b02179055508060020160009054906101000a900473ffffffffffffffffffffffffffffffffffffffff1673ffffffffffffffffffffffffffffffffffffffff166323b872dd303384600301546040518463ffffffff1660e01b81526004016106a4939291906120e3565b600060405180830381600087803b1580156106be57600080fd5b505af11580156106d2573d6000803e3d6000fd5b50505050600260009054906101000a900473ffffffffffffffffffffffffffffffffffffffff1673ffffffffffffffffffffffffffffffffffffffff166323b872dd333084600401546040518463ffffffff1660e01b8152600401610739939291906120e3565b6020604051808303816000875af1158015610758573d6000803e3d6000fd5b505050506040513d601f19601f8201168201806040525081019061077c9190612146565b50600260009054906101000a900473ffffffffffffffffffffffffffffffffffffffff1673ffffffffffffffffffffffffffffffffffffffff1663a9059cbb8260010160019054906101000a900473ffffffffffffffffffffffffffffffffffffffff1683600401546040518363ffffffff1660e01b8152600401610802929190612173565b6020604051808303816000875af1158015610821573d6000803e3d6000fd5b505050506040513d601f19601f820116820180604052508101906108459190612146565b507fd54b56881e7d8e485ae13972347facc2cbdf328603b65c7af6c972cf81a5393382338360020160009054906101000a900473ffffffffffffffffffffffffffffffffffffffff1684600301548560040154426040516108ab9695949392919061219c565b60405180910390a15050565b6000806000905060005b60005481101561094f576000600160006001846108de919061222c565b815260200190815260200160002090506000600281111561090257610901611a45565b5b8160010160009054906101000a900460ff16600281111561092657610925611a45565b5b141561093b57828061093790612282565b9350505b50808061094790612282565b9150506108c1565b508091505090565b6000806000905060005b600054811015610a485760006001600060018461097e919061222c565b815260200190815260200160002090508473ffffffffffffffffffffffffffffffffffffffff168160020160009054906101000a900473ffffffffffffffffffffffffffffffffffffffff1673ffffffffffffffffffffffffffffffffffffffff161415610a3457600060028111156109fa576109f9611a45565b5b8160010160009054906101000a900460ff166002811115610a1e57610a1d611a45565b5b1415610a33578280610a2f90612282565b9350505b5b508080610a4090612282565b915050610961565b5080915050919050565b60006001600083815260200190815260200160002090508060010160019054906101000a900473ffffffffffffffffffffffffffffffffffffffff1673ffffffffffffffffffffffffffffffffffffffff163373ffffffffffffffffffffffffffffffffffffffff1614610afb576040517f08c379a0000000000000000000000000000000000000000000000000000000008152600401610af290612317565b60405180910390fd5b60006002811115610b0f57610b0e611a45565b5b8160010160009054906101000a900460ff166002811115610b3357610b32611a45565b5b14610b73576040517f08c379a0000000000000000000000000000000000000000000000000000000008152600401610b6a90611feb565b60405180910390fd5b60028160010160006101000a81548160ff02191690836002811115610b9b57610b9a611a45565b5b02179055508060020160009054906101000a900473ffffffffffffffffffffffffffffffffffffffff1673ffffffffffffffffffffffffffffffffffffffff166323b872dd303384600301546040518463ffffffff1660e01b8152600401610c05939291906120e3565b600060405180830381600087803b158015610c1f57600080fd5b505af1158015610c33573d6000803e3d6000fd5b505050507f4e4fbd9f26259e82cfb30871ba8fb37535ebc893e81ff81141c1a2dc925d930f828260010160019054906101000a900473ffffffffffffffffffffffffffffffffffffffff1642604051610c8e93929190612337565b60405180910390a15050565b60606000805467ffffffffffffffff811115610cb957610cb861236e565b5b604051908082528060200260200182016040528015610cf257816020015b610cdf611953565b815260200190600190039081610cd75790505b50905060005b600054811015610e6c5760016000600183610d13919061222c565b81526020019081526020016000206040518060e0016040529081600082015481526020016001820160009054906101000a900460ff166002811115610d5b57610d5a611a45565b5b6002811115610d6d57610d6c611a45565b5b81526020016001820160019054906101000a900473ffffffffffffffffffffffffffffffffffffffff1673ffffffffffffffffffffffffffffffffffffffff1673ffffffffffffffffffffffffffffffffffffffff1681526020016002820160009054906101000a900473ffffffffffffffffffffffffffffffffffffffff1673ffffffffffffffffffffffffffffffffffffffff1673ffffffffffffffffffffffffffffffffffffffff1681526020016003820154815260200160048201548152602001600582015481525050828281518110610e4e57610e4d61239d565b5b60200260200101819052508080610e6490612282565b915050610cf8565b508091505090565b60008111610e8157600080fd5b8273ffffffffffffffffffffffffffffffffffffffff166323b872dd3330856040518463ffffffff1660e01b8152600401610ebe939291906120e3565b600060405180830381600087803b158015610ed857600080fd5b505af1158015610eec573d6000803e3d6000fd5b50505050600080815480929190610f0290612282565b919050555060006040518060e00160405280600054815260200160006002811115610f3057610f2f611a45565b5b81526020013373ffffffffffffffffffffffffffffffffffffffff1681526020018573ffffffffffffffffffffffffffffffffffffffff1681526020018481526020018381526020014281525090508060016000805481526020019081526020016000206000820151816000015560208201518160010160006101000a81548160ff02191690836002811115610fc957610fc8611a45565b5b021790555060408201518160010160016101000a81548173ffffffffffffffffffffffffffffffffffffffff021916908373ffffffffffffffffffffffffffffffffffffffff16021790555060608201518160020160006101000a81548173ffffffffffffffffffffffffffffffffffffffff021916908373ffffffffffffffffffffffffffffffffffffffff1602179055506080820151816003015560a0820151816004015560c082015181600501559050507f1d2286580411f12056775bf9e0fd10101148b09a6fca67c9f426fb113a28d1f860005433868686426040516110b89695949392919061219c565b60405180910390a150505050565b6000806000905060006110d8856112cc565b905060005b815181101561113f576000600160008484815181106110ff576110fe61239d565b5b602002602001015181526020019081526020016000209050858160030154141561112b57806004015493505b50808061113790612282565b9150506110dd565b50819250505092915050565b6060600061115883610957565b905060008167ffffffffffffffff8111156111765761117561236e565b5b6040519080825280602002602001820160405280156111a45781602001602082028036833780820191505090505b50905060008211156112c2576000805b6000548110156112bf576000600160006001846111d1919061222c565b81526020019081526020016000209050600060028111156111f5576111f4611a45565b5b8160010160009054906101000a900460ff16600281111561121957611218611a45565b5b14156112ab578673ffffffffffffffffffffffffffffffffffffffff168160020160009054906101000a900473ffffffffffffffffffffffffffffffffffffffff1673ffffffffffffffffffffffffffffffffffffffff1614156112aa57806003015484848151811061128f5761128e61239d565b5b60200260200101818152505082806112a690612282565b9350505b5b5080806112b790612282565b9150506111b4565b50505b8092505050919050565b606060006112d983610957565b90506000808267ffffffffffffffff8111156112f8576112f761236e565b5b6040519080825280602002602001820160405280156113265781602001602082028036833780820191505090505b50905060005b60005481101561145557600060016000600184611349919061222c565b815260200190815260200160002090506000600281111561136d5761136c611a45565b5b8160010160009054906101000a900460ff16600281111561139157611390611a45565b5b1415611441578673ffffffffffffffffffffffffffffffffffffffff168160020160009054906101000a900473ffffffffffffffffffffffffffffffffffffffff1673ffffffffffffffffffffffffffffffffffffffff1614156114405760016000600184611400919061222c565b8152602001908152602001600020600001548385815181106114255761142461239d565b5b602002602001018181525050838061143c90612282565b9450505b5b50808061144d90612282565b91505061132c565b50809350505050919050565b6060600061146d6108b7565b90506000808267ffffffffffffffff81111561148c5761148b61236e565b5b6040519080825280602002602001820160405280156114ba5781602001602082028036833780820191505090505b50905060005b600054811015611590576000600160006001846114dd919061222c565b815260200190815260200160002090506000600281111561150157611500611a45565b5b8160010160009054906101000a900460ff16600281111561152557611524611a45565b5b141561157c576001600060018461153c919061222c565b8152602001908152602001600020600001548385815181106115615761156061239d565b5b602002602001018181525050838061157890612282565b9450505b50808061158890612282565b9150506114c0565b5080935050505090565b600080600090505b600054811015611692576000600160006001846115bf919061222c565b81526020019081526020016000209050600060028111156115e3576115e2611a45565b5b8160010160009054906101000a900460ff16600281111561160757611606611a45565b5b141561167e578473ffffffffffffffffffffffffffffffffffffffff168160020160009054906101000a900473ffffffffffffffffffffffffffffffffffffffff1673ffffffffffffffffffffffffffffffffffffffff16141561167d57838160030154141561167c57600192505050611698565b5b5b50808061168a90612282565b9150506115a2565b50600090505b92915050565b606060006116ab83610957565b90506000808267ffffffffffffffff8111156116ca576116c961236e565b5b60405190808252806020026020018201604052801561170357816020015b6116f0611953565b8152602001906001900390816116e85790505b50905060005b60005481101561194757600060016000600184611726919061222c565b815260200190815260200160002090506000600281111561174a57611749611a45565b5b8160010160009054906101000a900460ff16600281111561176e5761176d611a45565b5b1415611933578673ffffffffffffffffffffffffffffffffffffffff168160020160009054906101000a900473ffffffffffffffffffffffffffffffffffffffff1673ffffffffffffffffffffffffffffffffffffffff16141561193257600160006001846117dd919061222c565b81526020019081526020016000206040518060e0016040529081600082015481526020016001820160009054906101000a900460ff16600281111561182557611824611a45565b5b600281111561183757611836611a45565b5b81526020016001820160019054906101000a900473ffffffffffffffffffffffffffffffffffffffff1673ffffffffffffffffffffffffffffffffffffffff1673ffffffffffffffffffffffffffffffffffffffff1681526020016002820160009054906101000a900473ffffffffffffffffffffffffffffffffffffffff1673ffffffffffffffffffffffffffffffffffffffff1673ffffffffffffffffffffffffffffffffffffffff16815260200160038201548152602001600482015481526020016005820154815250508385815181106119185761191761239d565b5b6020026020010181905250838061192e90612282565b9450505b5b50808061193f90612282565b915050611709565b50809350505050919050565b6040518060e00160405280600081526020016000600281111561197957611978611a45565b5b8152602001600073ffffffffffffffffffffffffffffffffffffffff168152602001600073ffffffffffffffffffffffffffffffffffffffff1681526020016000815260200160008152602001600081525090565b600080fd5b6000819050919050565b6119e6816119d3565b81146119f157600080fd5b50565b600081359050611a03816119dd565b92915050565b600060208284031215611a1f57611a1e6119ce565b5b6000611a2d848285016119f4565b91505092915050565b611a3f816119d3565b82525050565b7f4e487b7100000000000000000000000000000000000000000000000000000000600052602160045260246000fd5b60038110611a8557611a84611a45565b5b50565b6000819050611a9682611a74565b919050565b6000611aa682611a88565b9050919050565b611ab681611a9b565b82525050565b600073ffffffffffffffffffffffffffffffffffffffff82169050919050565b6000611ae782611abc565b9050919050565b611af781611adc565b82525050565b60e082016000820151611b136000850182611a36565b506020820151611b266020850182611aad565b506040820151611b396040850182611aee565b506060820151611b4c6060850182611aee565b506080820151611b5f6080850182611a36565b5060a0820151611b7260a0850182611a36565b5060c0820151611b8560c0850182611a36565b50505050565b600060e082019050611ba06000830184611afd565b92915050565b611baf816119d3565b82525050565b6000602082019050611bca6000830184611ba6565b92915050565b611bd981611adc565b8114611be457600080fd5b50565b600081359050611bf681611bd0565b92915050565b600060208284031215611c1257611c116119ce565b5b6000611c2084828501611be7565b91505092915050565b600081519050919050565b600082825260208201905092915050565b6000819050602082019050919050565b60e082016000820151611c6b6000850182611a36565b506020820151611c7e6020850182611aad565b506040820151611c916040850182611aee565b506060820151611ca46060850182611aee565b506080820151611cb76080850182611a36565b5060a0820151611cca60a0850182611a36565b5060c0820151611cdd60c0850182611a36565b50505050565b6000611cef8383611c55565b60e08301905092915050565b6000602082019050919050565b6000611d1382611c29565b611d1d8185611c34565b9350611d2883611c45565b8060005b83811015611d59578151611d408882611ce3565b9750611d4b83611cfb565b925050600181019050611d2c565b5085935050505092915050565b60006020820190508181036000830152611d808184611d08565b905092915050565b600080600060608486031215611da157611da06119ce565b5b6000611daf86828701611be7565b9350506020611dc0868287016119f4565b9250506040611dd1868287016119f4565b9150509250925092565b60008060408385031215611df257611df16119ce565b5b6000611e0085828601611be7565b9250506020611e11858286016119f4565b9150509250929050565b600081519050919050565b600082825260208201905092915050565b6000819050602082019050919050565b6000611e538383611a36565b60208301905092915050565b6000602082019050919050565b6000611e7782611e1b565b611e818185611e26565b9350611e8c83611e37565b8060005b83811015611ebd578151611ea48882611e47565b9750611eaf83611e5f565b925050600181019050611e90565b5085935050505092915050565b60006020820190508181036000830152611ee48184611e6c565b905092915050565b60008115159050919050565b611f0181611eec565b82525050565b6000602082019050611f1c6000830184611ef8565b92915050565b600082825260208201905092915050565b7f53656c6c65722063616e6e6f7420626520627579657200000000000000000000600082015250565b6000611f69601683611f22565b9150611f7482611f33565b602082019050919050565b60006020820190508181036000830152611f9881611f5c565b9050919050565b7f4c697374696e67206973206e6f74206163746976650000000000000000000000600082015250565b6000611fd5601583611f22565b9150611fe082611f9f565b602082019050919050565b6000602082019050818103600083015261200481611fc8565b9050919050565b61201481611adc565b82525050565b600060208201905061202f600083018461200b565b92915050565b600081519050612044816119dd565b92915050565b6000602082840312156120605761205f6119ce565b5b600061206e84828501612035565b91505092915050565b7f496e73756666696369656e74207061796d656e74000000000000000000000000600082015250565b60006120ad601483611f22565b91506120b882612077565b602082019050919050565b600060208201905081810360008301526120dc816120a0565b9050919050565b60006060820190506120f8600083018661200b565b612105602083018561200b565b6121126040830184611ba6565b949350505050565b61212381611eec565b811461212e57600080fd5b50565b6000815190506121408161211a565b92915050565b60006020828403121561215c5761215b6119ce565b5b600061216a84828501612131565b91505092915050565b6000604082019050612188600083018561200b565b6121956020830184611ba6565b9392505050565b600060c0820190506121b16000830189611ba6565b6121be602083018861200b565b6121cb604083018761200b565b6121d86060830186611ba6565b6121e56080830185611ba6565b6121f260a0830184611ba6565b979650505050505050565b7f4e487b7100000000000000000000000000000000000000000000000000000000600052601160045260246000fd5b6000612237826119d3565b9150612242836119d3565b9250827fffffffffffffffffffffffffffffffffffffffffffffffffffffffffffffffff03821115612277576122766121fd565b5b828201905092915050565b600061228d826119d3565b91507fffffffffffffffffffffffffffffffffffffffffffffffffffffffffffffffff8214156122c0576122bf6121fd565b5b600182019050919050565b7f4f6e6c792073656c6c65722063616e2063616e63656c206c697374696e670000600082015250565b6000612301601e83611f22565b915061230c826122cb565b602082019050919050565b60006020820190508181036000830152612330816122f4565b9050919050565b600060608201905061234c6000830186611ba6565b612359602083018561200b565b6123666040830184611ba6565b949350505050565b7f4e487b7100000000000000000000000000000000000000000000000000000000600052604160045260246000fd5b7f4e487b7100000000000000000000000000000000000000000000000000000000600052603260045260246000fdfea26469706673582212202d618130fd9c62cb2529e1b797ece68c1b891011931d9ef2654947b25efc6d0d64736f6c634300080a0033",
  "immutableReferences": {},
  "source": "// SPDX-License-Identifier: MIT\n\npragma solidity ^0.8.0;\n\nimport \"@openzeppelin/contracts/token/ERC721/IERC721.sol\";\nimport \"./ebitcoin.sol\";\n\ncontract Market {\n\tenum ListingStatus {\n\t\tActive,\n\t\tSold,\n\t\tCancelled\n\t}\n\n\tstruct Listing {\n\t\tuint256 listingId;\n\t\tListingStatus status;\n\t\taddress seller;\n\t\taddress token;\n\t\tuint256 tokenId;\n\t\tuint256 price;\n\t\tuint256 timestamp;\n\t}\n\n\tevent Listed(\n\t\tuint256 listingId,\n\t\taddress seller,\n\t\taddress token,\n\t\tuint256 tokenId,\n\t\tuint256 price,\n\t\tuint256 timestamp\n\t);\n\n\tevent Sale(\n\t\tuint256 listingId,\n\t\taddress buyer,\n\t\taddress token,\n\t\tuint256 tokenId,\n\t\tuint256 price,\n\t\tuint256 timestamp\n\t);\n\n\tevent Cancel(\n\t\tuint256 listingId,\n\t\taddress seller,\n\t\tuint256 timestamp\n\t);\n\n\t\n\n\tuint256 private _listingId = 0;\n\tmapping(uint256 => Listing) private _listings;\n\tIERC20 eBTC;\n\n\tconstructor(address eBTCAddress){\n\t\teBTC = IERC20(eBTCAddress);\n\t}\n\n\tfunction listToken(address token, uint256 tokenId, uint256 price) external {\n\t\trequire(price > 0);\n\t\tIERC721(token).transferFrom(msg.sender, address(this), tokenId);\n\n\t\t_listingId++;\n\n\t\tListing memory listing = Listing(\n\t\t\t_listingId,\n\t\t\tListingStatus.Active,\n\t\t\tmsg.sender,\n\t\t\ttoken,\n\t\t\ttokenId,\n\t\t\tprice,\n\t\t\tblock.timestamp\n\t\t);\n\n\t\t\n\n\t\t_listings[_listingId] = listing;\n\n\t\temit Listed(\n\t\t\t_listingId,\n\t\t\tmsg.sender,\n\t\t\ttoken,\n\t\t\ttokenId,\n\t\t\tprice,\n\t\t\tblock.timestamp\n\t\t);\n\n\t\t\n\t}\n\n\tfunction getListing(uint256 listingId) public view returns (Listing memory) {\n\t\treturn _listings[listingId];\n\t}\n\n\tfunction buyToken(uint256 listingId) external{\n\t\tListing storage listing = _listings[listingId];\n\n\t\trequire(msg.sender != listing.seller, \"Seller cannot be buyer\");\n\t\trequire(listing.status == ListingStatus.Active, \"Listing is not active\");\n\n\t\trequire(eBTC.balanceOf(msg.sender) >= listing.price, \"Insufficient payment\");\n\n\t\tlisting.status = ListingStatus.Sold;\n\n\t\tIERC721(listing.token).transferFrom(address(this), msg.sender, listing.tokenId);\n\t\teBTC.transferFrom(msg.sender, address(this), listing.price);\n\t\teBTC.transfer(listing.seller, listing.price);\n\t\t// payable(listing.seller).transfer(listing.price);\n\n\t\temit Sale(\n\t\t\tlistingId,\n\t\t\tmsg.sender,\n\t\t\tlisting.token,\n\t\t\tlisting.tokenId,\n\t\t\tlisting.price,\n\t\t\tblock.timestamp\n\t\t);\n\t}\n\n\tfunction cancel(uint256 listingId) public {\n\t\tListing storage listing = _listings[listingId];\n\n\t\trequire(msg.sender == listing.seller, \"Only seller can cancel listing\");\n\t\trequire(listing.status == ListingStatus.Active, \"Listing is not active\");\n\n\t\tlisting.status = ListingStatus.Cancelled;\n\t\n\t\tIERC721(listing.token).transferFrom(address(this), msg.sender, listing.tokenId);\n\n\t\temit Cancel(listingId, listing.seller, block.timestamp);\n\t}\n\n\tstruct TokenActive{\n\t\taddress token;\n\t\tuint256 tokenId;\n\t\tuint256 price;\n\t}\n\n\tfunction countActiveListing() public view returns (uint256){\n\t\tuint256 counter = 0;\n\t\tfor(uint256 i = 0; i < _listingId; i++) {\n\t\t\tListing storage listing = _listings[i+1];\n\t\t\tif(listing.status == ListingStatus.Active){\n\t\t\t\tcounter++;\n\t\t\t}\n        }\n\t\treturn counter;\n\t}\n\n\tfunction countActiveListingOfContract(address token) public view returns (uint256){\n\t\tuint256 counter = 0;\n\t\tfor(uint256 i = 0; i < _listingId; i++) {\n\t\t\tListing storage listing = _listings[i+1];\n\t\t\tif(listing.token == token){\n\t\t\t\tif(listing.status == ListingStatus.Active){\n\t\t\t\tcounter++;\n\t\t\t\t}\n\t\t\t}\n        }\n\t\treturn counter;\n\t}\n\n\tfunction getActiveListing() public view returns(uint256[] memory){\n\t\tuint256 number = countActiveListing();\n\t\tuint  counter2 = 0;\n\t\tuint256[] memory memoryArray = new uint256[](number);\n\t\tfor(uint256 i = 0; i < _listingId; i++) {\n\t\t\tListing storage listing = _listings[i+1];\n\t\t\tif(listing.status == ListingStatus.Active){\n\t\t\t\tmemoryArray[counter2] = _listings[i+1].listingId;\n\t\t\t\tcounter2++;\n\t\t\t}\n        }\n\t\treturn memoryArray;\n\t}\n\n\tfunction getActiveListingOfContract(address token) public view returns (uint256[] memory) {\n\t\tuint256 number = countActiveListingOfContract(token);\n\t\tuint256 counter2 = 0;\n        uint256[] memory memoryArray = new uint256[](number);\n        for(uint256 i = 0; i < _listingId; i++) {\n\t\t\tListing storage listing = _listings[i+1];\n\t\t\tif(listing.status == ListingStatus.Active){\n\t\t\t\tif(listing.token == token){\n\t\t\t\t\tmemoryArray[counter2] = _listings[i+1].listingId;\n\t\t\t\t\tcounter2++;\n\t\t\t\t}\n\t\t\t}\n        }\n        return memoryArray;\n    }\n\n\tfunction getActiveArrayOfContract(address token) public view returns (Listing[] memory) {\n\t\tuint256 number = countActiveListingOfContract(token);\n\t\tuint256 counter2 = 0;\n        Listing[] memory memoryArray = new Listing[](number);\n        for(uint256 i = 0; i < _listingId; i++) {\n\t\t\tListing storage listing = _listings[i+1];\n\t\t\tif(listing.status == ListingStatus.Active){\n\t\t\t\tif(listing.token == token){\n\t\t\t\t\tmemoryArray[counter2] = _listings[i+1];\n\t\t\t\t\tcounter2++;\n\t\t\t\t}\n\t\t\t}\n        }\n        return memoryArray;\n    }\n\n\tfunction getOnsaleOfToken(address token) public view returns (uint256[] memory){\n\t\tuint256 counter = countActiveListingOfContract(token);\n\t\t\n\t\tuint256[] memory memoryArray = new uint256[](counter);\n\t\tif(counter>0){\n\t\t\tuint256 counter2 = 0;\n\t\t\tfor(uint256 i = 0; i < _listingId; i++) {\n\t\t\tListing storage listing = _listings[i+1];\n\t\t\tif(listing.status == ListingStatus.Active){\n\t\t\t\tif(listing.token == token){\n\t\t\t\t\tmemoryArray[counter2] = listing.tokenId;\n\t\t\t\t\tcounter2++;\n\t\t\t\t}\n\t\t\t}\n        \t}\n\t\t}\n\t\treturn memoryArray;\n\t}\n\n\tfunction getPriceOfId(address token, uint256 tokenId) public view returns(uint256){\n\t\tuint price = 0;\n\t\tuint256[] memory activeListingId = getActiveListingOfContract(token);\n\t\tfor(uint256 i = 0; i < activeListingId.length; i++) {\n\t\t\tListing storage listing = _listings[activeListingId[i]];\n\t\t\tif(listing.tokenId == tokenId){\n\t\t\t\tprice = listing.price;\n\t\t\t}\n        }\n\t\treturn price;\n\t}\n\n\tfunction getAllListing() public view returns (Listing[] memory) {\n        Listing[] memory memoryArray = new Listing[](_listingId);\n        for(uint256 i = 0; i < _listingId; i++) {\n            memoryArray[i] = _listings[i+1];\n        }\n        return memoryArray;\n    }\n\n\tfunction isTokenIdOnSale(address token, uint256 tokenId)public view returns (bool) {\n\t\tfor(uint256 i = 0; i < _listingId; i++) {\n\t\t\tListing storage listing = _listings[i+1];\n\t\t\tif(listing.status == ListingStatus.Active){\n\t\t\t\tif(listing.token == token){\n\t\t\t\t\tif(listing.tokenId == tokenId){\n\t\t\t\t\t\treturn true;\n\t\t\t\t\t}\n\t\t\t\t}\n\t\t\t}\n        }\n\t\treturn false;\n\t}\n\n}",
  "sourcePath": "/Users/jarupaksrisuchat/Documents/github/crypto-font/contracts/eBTCmarketplace.sol",
  "compiler": {
    "name": "solc",
    "version": "0.8.10+commit.fc410830.Emscripten.clang"
  },
  "schemaVersion": "3.4.3",
  "updatedAt": "2021-12-17T02:06:29.613Z",
  "networkType": "ethereum",
  "devdoc": {
    "kind": "dev",
    "methods": {},
    "version": 1
  },
  "userdoc": {
    "kind": "user",
    "methods": {},
    "version": 1
  }
}