{
  "contractName": "Market",
  "abi": [
    {
      "inputs": [
        {
          "internalType": "address",
          "name": "eBTCAddress",
          "type": "address"
        },
        {
          "internalType": "address",
          "name": "cFontAddress",
          "type": "address"
        }
      ],
      "stateMutability": "nonpayable",
      "type": "constructor"
    },
    {
      "anonymous": false,
      "inputs": [
        {
          "indexed": false,
          "internalType": "uint256",
          "name": "listingId",
          "type": "uint256"
        },
        {
          "indexed": false,
          "internalType": "address",
          "name": "seller",
          "type": "address"
        },
        {
          "indexed": false,
          "internalType": "uint256",
          "name": "timestamp",
          "type": "uint256"
        }
      ],
      "name": "Cancel",
      "type": "event"
    },
    {
      "anonymous": false,
      "inputs": [
        {
          "indexed": false,
          "internalType": "uint256",
          "name": "listingId",
          "type": "uint256"
        },
        {
          "indexed": false,
          "internalType": "address",
          "name": "seller",
          "type": "address"
        },
        {
          "indexed": false,
          "internalType": "address",
          "name": "token",
          "type": "address"
        },
        {
          "indexed": false,
          "internalType": "uint256",
          "name": "tokenId",
          "type": "uint256"
        },
        {
          "indexed": false,
          "internalType": "uint256",
          "name": "price",
          "type": "uint256"
        },
        {
          "indexed": false,
          "internalType": "uint256",
          "name": "timestamp",
          "type": "uint256"
        }
      ],
      "name": "Listed",
      "type": "event"
    },
    {
      "anonymous": false,
      "inputs": [
        {
          "indexed": false,
          "internalType": "uint256",
          "name": "listingId",
          "type": "uint256"
        },
        {
          "indexed": false,
          "internalType": "address",
          "name": "buyer",
          "type": "address"
        },
        {
          "indexed": false,
          "internalType": "address",
          "name": "token",
          "type": "address"
        },
        {
          "indexed": false,
          "internalType": "uint256",
          "name": "tokenId",
          "type": "uint256"
        },
        {
          "indexed": false,
          "internalType": "uint256",
          "name": "price",
          "type": "uint256"
        },
        {
          "indexed": false,
          "internalType": "uint256",
          "name": "timestamp",
          "type": "uint256"
        }
      ],
      "name": "Sale",
      "type": "event"
    },
    {
      "inputs": [],
      "name": "fee",
      "outputs": [
        {
          "internalType": "uint256",
          "name": "",
          "type": "uint256"
        }
      ],
      "stateMutability": "view",
      "type": "function"
    },
    {
      "inputs": [
        {
          "internalType": "address",
          "name": "token",
          "type": "address"
        },
        {
          "internalType": "uint256",
          "name": "tokenId",
          "type": "uint256"
        },
        {
          "internalType": "uint256",
          "name": "price",
          "type": "uint256"
        }
      ],
      "name": "listToken",
      "outputs": [],
      "stateMutability": "nonpayable",
      "type": "function"
    },
    {
      "inputs": [
        {
          "internalType": "uint256",
          "name": "_fee",
          "type": "uint256"
        }
      ],
      "name": "setFee",
      "outputs": [],
      "stateMutability": "nonpayable",
      "type": "function"
    },
    {
      "inputs": [
        {
          "internalType": "uint256",
          "name": "listingId",
          "type": "uint256"
        }
      ],
      "name": "getListing",
      "outputs": [
        {
          "components": [
            {
              "internalType": "uint256",
              "name": "listingId",
              "type": "uint256"
            },
            {
              "internalType": "enum Market.ListingStatus",
              "name": "status",
              "type": "uint8"
            },
            {
              "internalType": "address",
              "name": "seller",
              "type": "address"
            },
            {
              "internalType": "address",
              "name": "token",
              "type": "address"
            },
            {
              "internalType": "uint256",
              "name": "tokenId",
              "type": "uint256"
            },
            {
              "internalType": "uint256",
              "name": "price",
              "type": "uint256"
            },
            {
              "internalType": "uint256",
              "name": "timestamp",
              "type": "uint256"
            }
          ],
          "internalType": "struct Market.Listing",
          "name": "",
          "type": "tuple"
        }
      ],
      "stateMutability": "view",
      "type": "function"
    },
    {
      "inputs": [
        {
          "internalType": "uint256",
          "name": "listingId",
          "type": "uint256"
        }
      ],
      "name": "buyToken",
      "outputs": [],
      "stateMutability": "nonpayable",
      "type": "function"
    },
    {
      "inputs": [
        {
          "internalType": "uint256",
          "name": "listingId",
          "type": "uint256"
        }
      ],
      "name": "cancel",
      "outputs": [],
      "stateMutability": "nonpayable",
      "type": "function"
    },
    {
      "inputs": [],
      "name": "countActiveListing",
      "outputs": [
        {
          "internalType": "uint256",
          "name": "",
          "type": "uint256"
        }
      ],
      "stateMutability": "view",
      "type": "function"
    },
    {
      "inputs": [
        {
          "internalType": "address",
          "name": "token",
          "type": "address"
        }
      ],
      "name": "countActiveListingOfContract",
      "outputs": [
        {
          "internalType": "uint256",
          "name": "",
          "type": "uint256"
        }
      ],
      "stateMutability": "view",
      "type": "function"
    },
    {
      "inputs": [],
      "name": "getActiveListing",
      "outputs": [
        {
          "internalType": "uint256[]",
          "name": "",
          "type": "uint256[]"
        }
      ],
      "stateMutability": "view",
      "type": "function"
    },
    {
      "inputs": [
        {
          "internalType": "address",
          "name": "token",
          "type": "address"
        }
      ],
      "name": "getActiveListingOfContract",
      "outputs": [
        {
          "internalType": "uint256[]",
          "name": "",
          "type": "uint256[]"
        }
      ],
      "stateMutability": "view",
      "type": "function"
    },
    {
      "inputs": [
        {
          "internalType": "address",
          "name": "token",
          "type": "address"
        }
      ],
      "name": "getActiveArrayOfContract",
      "outputs": [
        {
          "components": [
            {
              "internalType": "uint256",
              "name": "listingId",
              "type": "uint256"
            },
            {
              "internalType": "enum Market.ListingStatus",
              "name": "status",
              "type": "uint8"
            },
            {
              "internalType": "address",
              "name": "seller",
              "type": "address"
            },
            {
              "internalType": "address",
              "name": "token",
              "type": "address"
            },
            {
              "internalType": "uint256",
              "name": "tokenId",
              "type": "uint256"
            },
            {
              "internalType": "uint256",
              "name": "price",
              "type": "uint256"
            },
            {
              "internalType": "uint256",
              "name": "timestamp",
              "type": "uint256"
            }
          ],
          "internalType": "struct Market.Listing[]",
          "name": "",
          "type": "tuple[]"
        }
      ],
      "stateMutability": "view",
      "type": "function"
    },
    {
      "inputs": [
        {
          "internalType": "address",
          "name": "token",
          "type": "address"
        }
      ],
      "name": "getOnsaleOfToken",
      "outputs": [
        {
          "internalType": "uint256[]",
          "name": "",
          "type": "uint256[]"
        }
      ],
      "stateMutability": "view",
      "type": "function"
    },
    {
      "inputs": [
        {
          "internalType": "address",
          "name": "token",
          "type": "address"
        },
        {
          "internalType": "uint256",
          "name": "tokenId",
          "type": "uint256"
        }
      ],
      "name": "getPriceOfId",
      "outputs": [
        {
          "internalType": "uint256",
          "name": "",
          "type": "uint256"
        }
      ],
      "stateMutability": "view",
      "type": "function"
    },
    {
      "inputs": [],
      "name": "getAllListing",
      "outputs": [
        {
          "components": [
            {
              "internalType": "uint256",
              "name": "listingId",
              "type": "uint256"
            },
            {
              "internalType": "enum Market.ListingStatus",
              "name": "status",
              "type": "uint8"
            },
            {
              "internalType": "address",
              "name": "seller",
              "type": "address"
            },
            {
              "internalType": "address",
              "name": "token",
              "type": "address"
            },
            {
              "internalType": "uint256",
              "name": "tokenId",
              "type": "uint256"
            },
            {
              "internalType": "uint256",
              "name": "price",
              "type": "uint256"
            },
            {
              "internalType": "uint256",
              "name": "timestamp",
              "type": "uint256"
            }
          ],
          "internalType": "struct Market.Listing[]",
          "name": "",
          "type": "tuple[]"
        }
      ],
      "stateMutability": "view",
      "type": "function"
    },
    {
      "inputs": [
        {
          "internalType": "address",
          "name": "token",
          "type": "address"
        },
        {
          "internalType": "uint256",
          "name": "tokenId",
          "type": "uint256"
        }
      ],
      "name": "isTokenIdOnSale",
      "outputs": [
        {
          "internalType": "bool",
          "name": "",
          "type": "bool"
        }
      ],
      "stateMutability": "view",
      "type": "function"
    }
  ],
  "bytecode": "0x60806040526040518060400160405280601081526020017f65425443204d61726b6574706c61636500000000000000000000000000000000815250600090816200004a9190620003cd565b50600060015560056006553480156200006257600080fd5b5060405162002c6a38038062002c6a83398181016040528101906200008891906200051e565b81600360006101000a81548173ffffffffffffffffffffffffffffffffffffffff021916908373ffffffffffffffffffffffffffffffffffffffff16021790555080600460006101000a81548173ffffffffffffffffffffffffffffffffffffffff021916908373ffffffffffffffffffffffffffffffffffffffff16021790555033600560006101000a81548173ffffffffffffffffffffffffffffffffffffffff021916908373ffffffffffffffffffffffffffffffffffffffff160217905550505062000565565b600081519050919050565b7f4e487b7100000000000000000000000000000000000000000000000000000000600052604160045260246000fd5b7f4e487b7100000000000000000000000000000000000000000000000000000000600052602260045260246000fd5b60006002820490506001821680620001d557607f821691505b602082108103620001eb57620001ea6200018d565b5b50919050565b60008190508160005260206000209050919050565b60006020601f8301049050919050565b600082821b905092915050565b600060088302620002557fffffffffffffffffffffffffffffffffffffffffffffffffffffffffffffffff8262000216565b62000261868362000216565b95508019841693508086168417925050509392505050565b6000819050919050565b6000819050919050565b6000620002ae620002a8620002a28462000279565b62000283565b62000279565b9050919050565b6000819050919050565b620002ca836200028d565b620002e2620002d982620002b5565b84845462000223565b825550505050565b600090565b620002f9620002ea565b62000306818484620002bf565b505050565b5b818110156200032e5762000322600082620002ef565b6001810190506200030c565b5050565b601f8211156200037d576200034781620001f1565b620003528462000206565b8101602085101562000362578190505b6200037a620003718562000206565b8301826200030b565b50505b505050565b600082821c905092915050565b6000620003a26000198460080262000382565b1980831691505092915050565b6000620003bd83836200038f565b9150826002028217905092915050565b620003d88262000153565b67ffffffffffffffff811115620003f457620003f36200015e565b5b620004008254620001bc565b6200040d82828562000332565b600060209050601f83116001811462000445576000841562000430578287015190505b6200043c8582620003af565b865550620004ac565b601f1984166200045586620001f1565b60005b828110156200047f5784890151825560018201915060208501945060208101905062000458565b868310156200049f57848901516200049b601f8916826200038f565b8355505b6001600288020188555050505b505050505050565b600080fd5b600073ffffffffffffffffffffffffffffffffffffffff82169050919050565b6000620004e682620004b9565b9050919050565b620004f881620004d9565b81146200050457600080fd5b50565b6000815190506200051881620004ed565b92915050565b60008060408385031215620005385762000537620004b4565b5b6000620005488582860162000507565b92505060206200055b8582860162000507565b9150509250929050565b6126f580620005756000396000f3fe608060405234801561001057600080fd5b50600436106100f55760003560e01c80637e07590d11610097578063ddca3f4311610066578063ddca3f4314610296578063e17dcbb0146102b4578063e8fd2e3a146102d2578063ff6f118b14610302576100f5565b80637e07590d146101ea5780638a3f352a14610206578063a0a032a014610236578063a17ae7b214610266576100f5565b806336b40a3c116100d357806336b40a3c1461016457806340e58ee514610194578063467efe5a146101b057806369fe0e2d146101ce576100f5565b8063107a274a146100fa5780632d296bf11461012a578063317d082314610146575b600080fd5b610114600480360381019061010f9190611c49565b610332565b6040516101219190611dcb565b60405180910390f35b610144600480360381019061013f9190611c49565b61046e565b005b61014e610a98565b60405161015b9190611df5565b60405180910390f35b61017e60048036038101906101799190611e3c565b610b37565b60405161018b9190611df5565b60405180910390f35b6101ae60048036038101906101a99190611c49565b610c30565b005b6101b8610e78565b6040516101c59190611fa6565b60405180910390f35b6101e860048036038101906101e39190611c49565b611053565b005b61020460048036038101906101ff9190611fc8565b6110b7565b005b610220600480360381019061021b919061201b565b61130b565b60405161022d9190611df5565b60405180910390f35b610250600480360381019061024b9190611e3c565b61138f565b60405161025d919061210a565b60405180910390f35b610280600480360381019061027b9190611e3c565b61150e565b60405161028d919061210a565b60405180910390f35b61029e6116a1565b6040516102ab9190611df5565b60405180910390f35b6102bc6116a7565b6040516102c9919061210a565b60405180910390f35b6102ec60048036038101906102e7919061201b565b6117df565b6040516102f99190612147565b60405180910390f35b61031c60048036038101906103179190611e3c565b6118e0565b6040516103299190611fa6565b60405180910390f35b61033a611b93565b600260008381526020019081526020016000206040518060e0016040529081600082015481526020016001820160009054906101000a900460ff16600281111561038757610386611c85565b5b600281111561039957610398611c85565b5b81526020016001820160019054906101000a900473ffffffffffffffffffffffffffffffffffffffff1673ffffffffffffffffffffffffffffffffffffffff1673ffffffffffffffffffffffffffffffffffffffff1681526020016002820160009054906101000a900473ffffffffffffffffffffffffffffffffffffffff1673ffffffffffffffffffffffffffffffffffffffff1673ffffffffffffffffffffffffffffffffffffffff16815260200160038201548152602001600482015481526020016005820154815250509050919050565b60006002600083815260200190815260200160002090508060010160019054906101000a900473ffffffffffffffffffffffffffffffffffffffff1673ffffffffffffffffffffffffffffffffffffffff163373ffffffffffffffffffffffffffffffffffffffff1603610517576040517f08c379a000000000000000000000000000000000000000000000000000000000815260040161050e906121bf565b60405180910390fd5b6000600281111561052b5761052a611c85565b5b8160010160009054906101000a900460ff16600281111561054f5761054e611c85565b5b1461058f576040517f08c379a00000000000000000000000000000000000000000000000000000000081526004016105869061222b565b60405180910390fd5b8060040154600360009054906101000a900473ffffffffffffffffffffffffffffffffffffffff1673ffffffffffffffffffffffffffffffffffffffff166370a08231336040518263ffffffff1660e01b81526004016105ef919061225a565b602060405180830381865afa15801561060c573d6000803e3d6000fd5b505050506040513d601f19601f82011682018060405250810190610630919061228a565b1015610671576040517f08c379a000000000000000000000000000000000000000000000000000000000815260040161066890612303565b60405180910390fd5b60018160010160006101000a81548160ff0219169083600281111561069957610698611c85565b5b02179055508060020160009054906101000a900473ffffffffffffffffffffffffffffffffffffffff1673ffffffffffffffffffffffffffffffffffffffff166323b872dd303384600301546040518463ffffffff1660e01b815260040161070393929190612323565b600060405180830381600087803b15801561071d57600080fd5b505af1158015610731573d6000803e3d6000fd5b50505050600360009054906101000a900473ffffffffffffffffffffffffffffffffffffffff1673ffffffffffffffffffffffffffffffffffffffff166323b872dd333084600401546040518463ffffffff1660e01b815260040161079893929190612323565b6020604051808303816000875af11580156107b7573d6000803e3d6000fd5b505050506040513d601f19601f820116820180604052508101906107db9190612386565b506000606460065483600401546107f291906123e2565b6107fc9190612453565b9050600360009054906101000a900473ffffffffffffffffffffffffffffffffffffffff1673ffffffffffffffffffffffffffffffffffffffff1663095ea7b3600460009054906101000a900473ffffffffffffffffffffffffffffffffffffffff1684600401546040518363ffffffff1660e01b8152600401610881929190612484565b6020604051808303816000875af11580156108a0573d6000803e3d6000fd5b505050506040513d601f19601f820116820180604052508101906108c49190612386565b50600460009054906101000a900473ffffffffffffffffffffffffffffffffffffffff1673ffffffffffffffffffffffffffffffffffffffff16631514472b826040518263ffffffff1660e01b81526004016109209190611df5565b600060405180830381600087803b15801561093a57600080fd5b505af115801561094e573d6000803e3d6000fd5b50505050600360009054906101000a900473ffffffffffffffffffffffffffffffffffffffff1673ffffffffffffffffffffffffffffffffffffffff1663a9059cbb8360010160019054906101000a900473ffffffffffffffffffffffffffffffffffffffff168385600401546109c591906124ad565b6040518363ffffffff1660e01b81526004016109e2929190612484565b6020604051808303816000875af1158015610a01573d6000803e3d6000fd5b505050506040513d601f19601f82011682018060405250810190610a259190612386565b507fd54b56881e7d8e485ae13972347facc2cbdf328603b65c7af6c972cf81a5393383338460020160009054906101000a900473ffffffffffffffffffffffffffffffffffffffff168560030154866004015442604051610a8b969594939291906124e1565b60405180910390a1505050565b6000806000905060005b600154811015610b2f57600060026000600184610abf9190612542565b8152602001908152602001600020905060006002811115610ae357610ae2611c85565b5b8160010160009054906101000a900460ff166002811115610b0757610b06611c85565b5b03610b1b578280610b1790612576565b9350505b508080610b2790612576565b915050610aa2565b508091505090565b6000806000905060005b600154811015610c2657600060026000600184610b5e9190612542565b815260200190815260200160002090508473ffffffffffffffffffffffffffffffffffffffff168160020160009054906101000a900473ffffffffffffffffffffffffffffffffffffffff1673ffffffffffffffffffffffffffffffffffffffff1603610c125760006002811115610bd957610bd8611c85565b5b8160010160009054906101000a900460ff166002811115610bfd57610bfc611c85565b5b03610c11578280610c0d90612576565b9350505b5b508080610c1e90612576565b915050610b41565b5080915050919050565b60006002600083815260200190815260200160002090508060010160019054906101000a900473ffffffffffffffffffffffffffffffffffffffff1673ffffffffffffffffffffffffffffffffffffffff163373ffffffffffffffffffffffffffffffffffffffff1614610cd9576040517f08c379a0000000000000000000000000000000000000000000000000000000008152600401610cd09061260a565b60405180910390fd5b60006002811115610ced57610cec611c85565b5b8160010160009054906101000a900460ff166002811115610d1157610d10611c85565b5b14610d51576040517f08c379a0000000000000000000000000000000000000000000000000000000008152600401610d489061222b565b60405180910390fd5b60028160010160006101000a81548160ff02191690836002811115610d7957610d78611c85565b5b02179055508060020160009054906101000a900473ffffffffffffffffffffffffffffffffffffffff1673ffffffffffffffffffffffffffffffffffffffff166323b872dd303384600301546040518463ffffffff1660e01b8152600401610de393929190612323565b600060405180830381600087803b158015610dfd57600080fd5b505af1158015610e11573d6000803e3d6000fd5b505050507f4e4fbd9f26259e82cfb30871ba8fb37535ebc893e81ff81141c1a2dc925d930f828260010160019054906101000a900473ffffffffffffffffffffffffffffffffffffffff1642604051610e6c9392919061262a565b60405180910390a15050565b6060600060015467ffffffffffffffff811115610e9857610e97612661565b5b604051908082528060200260200182016040528015610ed157816020015b610ebe611b93565b815260200190600190039081610eb65790505b50905060005b60015481101561104b5760026000600183610ef29190612542565b81526020019081526020016000206040518060e0016040529081600082015481526020016001820160009054906101000a900460ff166002811115610f3a57610f39611c85565b5b6002811115610f4c57610f4b611c85565b5b81526020016001820160019054906101000a900473ffffffffffffffffffffffffffffffffffffffff1673ffffffffffffffffffffffffffffffffffffffff1673ffffffffffffffffffffffffffffffffffffffff1681526020016002820160009054906101000a900473ffffffffffffffffffffffffffffffffffffffff1673ffffffffffffffffffffffffffffffffffffffff1673ffffffffffffffffffffffffffffffffffffffff168152602001600382015481526020016004820154815260200160058201548152505082828151811061102d5761102c612690565b5b6020026020010181905250808061104390612576565b915050610ed7565b508091505090565b600560009054906101000a900473ffffffffffffffffffffffffffffffffffffffff1673ffffffffffffffffffffffffffffffffffffffff163373ffffffffffffffffffffffffffffffffffffffff16146110ad57600080fd5b8060068190555050565b600081116110c457600080fd5b8273ffffffffffffffffffffffffffffffffffffffff166323b872dd3330856040518463ffffffff1660e01b815260040161110193929190612323565b600060405180830381600087803b15801561111b57600080fd5b505af115801561112f573d6000803e3d6000fd5b505050506001600081548092919061114690612576565b919050555060006040518060e0016040528060015481526020016000600281111561117457611173611c85565b5b81526020013373ffffffffffffffffffffffffffffffffffffffff1681526020018573ffffffffffffffffffffffffffffffffffffffff168152602001848152602001838152602001428152509050806002600060015481526020019081526020016000206000820151816000015560208201518160010160006101000a81548160ff0219169083600281111561120e5761120d611c85565b5b021790555060408201518160010160016101000a81548173ffffffffffffffffffffffffffffffffffffffff021916908373ffffffffffffffffffffffffffffffffffffffff16021790555060608201518160020160006101000a81548173ffffffffffffffffffffffffffffffffffffffff021916908373ffffffffffffffffffffffffffffffffffffffff1602179055506080820151816003015560a0820151816004015560c082015181600501559050507f1d2286580411f12056775bf9e0fd10101148b09a6fca67c9f426fb113a28d1f860015433868686426040516112fd969594939291906124e1565b60405180910390a150505050565b60008060009050600061131d8561150e565b905060005b81518110156113835760006002600084848151811061134457611343612690565b5b6020026020010151815260200190815260200160002090508581600301540361136f57806004015493505b50808061137b90612576565b915050611322565b50819250505092915050565b6060600061139c83610b37565b905060008167ffffffffffffffff8111156113ba576113b9612661565b5b6040519080825280602002602001820160405280156113e85781602001602082028036833780820191505090505b5090506000821115611504576000805b600154811015611501576000600260006001846114159190612542565b815260200190815260200160002090506000600281111561143957611438611c85565b5b8160010160009054906101000a900460ff16600281111561145d5761145c611c85565b5b036114ed578673ffffffffffffffffffffffffffffffffffffffff168160020160009054906101000a900473ffffffffffffffffffffffffffffffffffffffff1673ffffffffffffffffffffffffffffffffffffffff16036114ec5780600301548484815181106114d1576114d0612690565b5b60200260200101818152505082806114e890612576565b9350505b5b5080806114f990612576565b9150506113f8565b50505b8092505050919050565b6060600061151b83610b37565b90506000808267ffffffffffffffff81111561153a57611539612661565b5b6040519080825280602002602001820160405280156115685781602001602082028036833780820191505090505b50905060005b6001548110156116955760006002600060018461158b9190612542565b81526020019081526020016000209050600060028111156115af576115ae611c85565b5b8160010160009054906101000a900460ff1660028111156115d3576115d2611c85565b5b03611681578673ffffffffffffffffffffffffffffffffffffffff168160020160009054906101000a900473ffffffffffffffffffffffffffffffffffffffff1673ffffffffffffffffffffffffffffffffffffffff160361168057600260006001846116409190612542565b81526020019081526020016000206000015483858151811061166557611664612690565b5b602002602001018181525050838061167c90612576565b9450505b5b50808061168d90612576565b91505061156e565b50809350505050919050565b60065481565b606060006116b3610a98565b90506000808267ffffffffffffffff8111156116d2576116d1612661565b5b6040519080825280602002602001820160405280156117005781602001602082028036833780820191505090505b50905060005b6001548110156117d5576000600260006001846117239190612542565b815260200190815260200160002090506000600281111561174757611746611c85565b5b8160010160009054906101000a900460ff16600281111561176b5761176a611c85565b5b036117c157600260006001846117819190612542565b8152602001908152602001600020600001548385815181106117a6576117a5612690565b5b60200260200101818152505083806117bd90612576565b9450505b5080806117cd90612576565b915050611706565b5080935050505090565b600080600090505b6001548110156118d4576000600260006001846118049190612542565b815260200190815260200160002090506000600281111561182857611827611c85565b5b8160010160009054906101000a900460ff16600281111561184c5761184b611c85565b5b036118c0578473ffffffffffffffffffffffffffffffffffffffff168160020160009054906101000a900473ffffffffffffffffffffffffffffffffffffffff1673ffffffffffffffffffffffffffffffffffffffff16036118bf57838160030154036118be576001925050506118da565b5b5b5080806118cc90612576565b9150506117e7565b50600090505b92915050565b606060006118ed83610b37565b90506000808267ffffffffffffffff81111561190c5761190b612661565b5b60405190808252806020026020018201604052801561194557816020015b611932611b93565b81526020019060019003908161192a5790505b50905060005b600154811015611b87576000600260006001846119689190612542565b815260200190815260200160002090506000600281111561198c5761198b611c85565b5b8160010160009054906101000a900460ff1660028111156119b0576119af611c85565b5b03611b73578673ffffffffffffffffffffffffffffffffffffffff168160020160009054906101000a900473ffffffffffffffffffffffffffffffffffffffff1673ffffffffffffffffffffffffffffffffffffffff1603611b725760026000600184611a1d9190612542565b81526020019081526020016000206040518060e0016040529081600082015481526020016001820160009054906101000a900460ff166002811115611a6557611a64611c85565b5b6002811115611a7757611a76611c85565b5b81526020016001820160019054906101000a900473ffffffffffffffffffffffffffffffffffffffff1673ffffffffffffffffffffffffffffffffffffffff1673ffffffffffffffffffffffffffffffffffffffff1681526020016002820160009054906101000a900473ffffffffffffffffffffffffffffffffffffffff1673ffffffffffffffffffffffffffffffffffffffff1673ffffffffffffffffffffffffffffffffffffffff1681526020016003820154815260200160048201548152602001600582015481525050838581518110611b5857611b57612690565b5b60200260200101819052508380611b6e90612576565b9450505b5b508080611b7f90612576565b91505061194b565b50809350505050919050565b6040518060e001604052806000815260200160006002811115611bb957611bb8611c85565b5b8152602001600073ffffffffffffffffffffffffffffffffffffffff168152602001600073ffffffffffffffffffffffffffffffffffffffff1681526020016000815260200160008152602001600081525090565b600080fd5b6000819050919050565b611c2681611c13565b8114611c3157600080fd5b50565b600081359050611c4381611c1d565b92915050565b600060208284031215611c5f57611c5e611c0e565b5b6000611c6d84828501611c34565b91505092915050565b611c7f81611c13565b82525050565b7f4e487b7100000000000000000000000000000000000000000000000000000000600052602160045260246000fd5b60038110611cc557611cc4611c85565b5b50565b6000819050611cd682611cb4565b919050565b6000611ce682611cc8565b9050919050565b611cf681611cdb565b82525050565b600073ffffffffffffffffffffffffffffffffffffffff82169050919050565b6000611d2782611cfc565b9050919050565b611d3781611d1c565b82525050565b60e082016000820151611d536000850182611c76565b506020820151611d666020850182611ced565b506040820151611d796040850182611d2e565b506060820151611d8c6060850182611d2e565b506080820151611d9f6080850182611c76565b5060a0820151611db260a0850182611c76565b5060c0820151611dc560c0850182611c76565b50505050565b600060e082019050611de06000830184611d3d565b92915050565b611def81611c13565b82525050565b6000602082019050611e0a6000830184611de6565b92915050565b611e1981611d1c565b8114611e2457600080fd5b50565b600081359050611e3681611e10565b92915050565b600060208284031215611e5257611e51611c0e565b5b6000611e6084828501611e27565b91505092915050565b600081519050919050565b600082825260208201905092915050565b6000819050602082019050919050565b60e082016000820151611eab6000850182611c76565b506020820151611ebe6020850182611ced565b506040820151611ed16040850182611d2e565b506060820151611ee46060850182611d2e565b506080820151611ef76080850182611c76565b5060a0820151611f0a60a0850182611c76565b5060c0820151611f1d60c0850182611c76565b50505050565b6000611f2f8383611e95565b60e08301905092915050565b6000602082019050919050565b6000611f5382611e69565b611f5d8185611e74565b9350611f6883611e85565b8060005b83811015611f99578151611f808882611f23565b9750611f8b83611f3b565b925050600181019050611f6c565b5085935050505092915050565b60006020820190508181036000830152611fc08184611f48565b905092915050565b600080600060608486031215611fe157611fe0611c0e565b5b6000611fef86828701611e27565b935050602061200086828701611c34565b925050604061201186828701611c34565b9150509250925092565b6000806040838503121561203257612031611c0e565b5b600061204085828601611e27565b925050602061205185828601611c34565b9150509250929050565b600081519050919050565b600082825260208201905092915050565b6000819050602082019050919050565b60006120938383611c76565b60208301905092915050565b6000602082019050919050565b60006120b78261205b565b6120c18185612066565b93506120cc83612077565b8060005b838110156120fd5781516120e48882612087565b97506120ef8361209f565b9250506001810190506120d0565b5085935050505092915050565b6000602082019050818103600083015261212481846120ac565b905092915050565b60008115159050919050565b6121418161212c565b82525050565b600060208201905061215c6000830184612138565b92915050565b600082825260208201905092915050565b7f53656c6c65722063616e6e6f7420626520627579657200000000000000000000600082015250565b60006121a9601683612162565b91506121b482612173565b602082019050919050565b600060208201905081810360008301526121d88161219c565b9050919050565b7f4c697374696e67206973206e6f74206163746976650000000000000000000000600082015250565b6000612215601583612162565b9150612220826121df565b602082019050919050565b6000602082019050818103600083015261224481612208565b9050919050565b61225481611d1c565b82525050565b600060208201905061226f600083018461224b565b92915050565b60008151905061228481611c1d565b92915050565b6000602082840312156122a05761229f611c0e565b5b60006122ae84828501612275565b91505092915050565b7f496e73756666696369656e74207061796d656e74000000000000000000000000600082015250565b60006122ed601483612162565b91506122f8826122b7565b602082019050919050565b6000602082019050818103600083015261231c816122e0565b9050919050565b6000606082019050612338600083018661224b565b612345602083018561224b565b6123526040830184611de6565b949350505050565b6123638161212c565b811461236e57600080fd5b50565b6000815190506123808161235a565b92915050565b60006020828403121561239c5761239b611c0e565b5b60006123aa84828501612371565b91505092915050565b7f4e487b7100000000000000000000000000000000000000000000000000000000600052601160045260246000fd5b60006123ed82611c13565b91506123f883611c13565b925082820261240681611c13565b9150828204841483151761241d5761241c6123b3565b5b5092915050565b7f4e487b7100000000000000000000000000000000000000000000000000000000600052601260045260246000fd5b600061245e82611c13565b915061246983611c13565b92508261247957612478612424565b5b828204905092915050565b6000604082019050612499600083018561224b565b6124a66020830184611de6565b9392505050565b60006124b882611c13565b91506124c383611c13565b92508282039050818111156124db576124da6123b3565b5b92915050565b600060c0820190506124f66000830189611de6565b612503602083018861224b565b612510604083018761224b565b61251d6060830186611de6565b61252a6080830185611de6565b61253760a0830184611de6565b979650505050505050565b600061254d82611c13565b915061255883611c13565b92508282019050808211156125705761256f6123b3565b5b92915050565b600061258182611c13565b91507fffffffffffffffffffffffffffffffffffffffffffffffffffffffffffffffff82036125b3576125b26123b3565b5b600182019050919050565b7f4f6e6c792073656c6c65722063616e2063616e63656c206c697374696e670000600082015250565b60006125f4601e83612162565b91506125ff826125be565b602082019050919050565b60006020820190508181036000830152612623816125e7565b9050919050565b600060608201905061263f6000830186611de6565b61264c602083018561224b565b6126596040830184611de6565b949350505050565b7f4e487b7100000000000000000000000000000000000000000000000000000000600052604160045260246000fd5b7f4e487b7100000000000000000000000000000000000000000000000000000000600052603260045260246000fdfea26469706673582212201ca50a5694d516bca03667d49b426e4658fc280782d27b03ef8e1a612409544964736f6c63430008110033",
  "immutableReferences": {},
  "source": "// SPDX-License-Identifier: MIT\n\npragma solidity ^0.8.0;\n\nimport \"@openzeppelin/contracts/token/ERC721/IERC721.sol\";\nimport \"@openzeppelin/contracts/access/Ownable.sol\";\nimport \"./eBTC.sol\";\nimport \"./icFont.sol\";\n\ncontract Market {\n\tenum ListingStatus {\n\t\tActive,\n\t\tSold,\n\t\tCancelled\n\t}\n\n\tstruct Listing {\n\t\tuint256 listingId;\n\t\tListingStatus status;\n\t\taddress seller;\n\t\taddress token;\n\t\tuint256 tokenId;\n\t\tuint256 price;\n\t\tuint256 timestamp;\n\t}\n\n\tevent Listed(\n\t\tuint256 listingId,\n\t\taddress seller,\n\t\taddress token,\n\t\tuint256 tokenId,\n\t\tuint256 price,\n\t\tuint256 timestamp\n\t);\n\n\tevent Sale(\n\t\tuint256 listingId,\n\t\taddress buyer,\n\t\taddress token,\n\t\tuint256 tokenId,\n\t\tuint256 price,\n\t\tuint256 timestamp\n\t);\n\n\tevent Cancel(\n\t\tuint256 listingId,\n\t\taddress seller,\n\t\tuint256 timestamp\n\t);\n\n\tstring private _name = \"eBTC Marketplace\";\n\n\tuint256 private _listingId = 0;\n\tmapping(uint256 => Listing) private _listings;\n\tIERC20 eBitcoin;\n\ticFont cFont;\n\taddress _owner;\n\tuint256 public fee = 5;\n\n\tconstructor(address eBTCAddress, address cFontAddress){\n\t\teBitcoin = IERC20(eBTCAddress);\n\t\tcFont = icFont(cFontAddress);\n\t\t_owner = msg.sender;\n\t}\n\n\tfunction listToken(address token, uint256 tokenId, uint256 price) external {\n\t\trequire(price > 0);\n\t\tIERC721(token).transferFrom(msg.sender, address(this), tokenId);\n\n\t\t_listingId++;\n\n\t\tListing memory listing = Listing(\n\t\t\t_listingId,\n\t\t\tListingStatus.Active,\n\t\t\tmsg.sender,\n\t\t\ttoken,\n\t\t\ttokenId,\n\t\t\tprice,\n\t\t\tblock.timestamp\n\t\t);\n\n\t\t\n\n\t\t_listings[_listingId] = listing;\n\n\t\temit Listed(\n\t\t\t_listingId,\n\t\t\tmsg.sender,\n\t\t\ttoken,\n\t\t\ttokenId,\n\t\t\tprice,\n\t\t\tblock.timestamp\n\t\t);\n\n\t\t\n\t}\n\n\tfunction setFee(uint256 _fee) public{\n\t\trequire(msg.sender == _owner);\n\t\tfee = _fee;\n\t}\n\n\tfunction getListing(uint256 listingId) public view returns (Listing memory) {\n\t\treturn _listings[listingId];\n\t}\n\n\tfunction buyToken(uint256 listingId) external{\n\t\tListing storage listing = _listings[listingId];\n\n\t\trequire(msg.sender != listing.seller, \"Seller cannot be buyer\");\n\t\trequire(listing.status == ListingStatus.Active, \"Listing is not active\");\n\n\t\trequire(eBitcoin.balanceOf(msg.sender) >= listing.price, \"Insufficient payment\");\n\n\t\tlisting.status = ListingStatus.Sold;\n\n\t\tIERC721(listing.token).transferFrom(address(this), msg.sender, listing.tokenId);\n\t\teBitcoin.transferFrom(msg.sender, address(this), listing.price);\n\t\tuint256 _fee = listing.price * fee / 100;\n\t\teBitcoin.approve(address(cFont), listing.price);\n\t\tcFont.AddeBTCFee(_fee);\n\t\teBitcoin.transfer(listing.seller, (listing.price - _fee));\n\n\t\temit Sale(\n\t\t\tlistingId,\n\t\t\tmsg.sender,\n\t\t\tlisting.token,\n\t\t\tlisting.tokenId,\n\t\t\tlisting.price,\n\t\t\tblock.timestamp\n\t\t);\n\t}\n\n\tfunction cancel(uint256 listingId) public {\n\t\tListing storage listing = _listings[listingId];\n\n\t\trequire(msg.sender == listing.seller, \"Only seller can cancel listing\");\n\t\trequire(listing.status == ListingStatus.Active, \"Listing is not active\");\n\n\t\tlisting.status = ListingStatus.Cancelled;\n\t\n\t\tIERC721(listing.token).transferFrom(address(this), msg.sender, listing.tokenId);\n\n\t\temit Cancel(listingId, listing.seller, block.timestamp);\n\t}\n\n\tstruct TokenActive{\n\t\taddress token;\n\t\tuint256 tokenId;\n\t\tuint256 price;\n\t}\n\n\tfunction countActiveListing() public view returns (uint256){\n\t\tuint256 counter = 0;\n\t\tfor(uint256 i = 0; i < _listingId; i++) {\n\t\t\tListing storage listing = _listings[i+1];\n\t\t\tif(listing.status == ListingStatus.Active){\n\t\t\t\tcounter++;\n\t\t\t}\n        }\n\t\treturn counter;\n\t}\n\n\tfunction countActiveListingOfContract(address token) public view returns (uint256){\n\t\tuint256 counter = 0;\n\t\tfor(uint256 i = 0; i < _listingId; i++) {\n\t\t\tListing storage listing = _listings[i+1];\n\t\t\tif(listing.token == token){\n\t\t\t\tif(listing.status == ListingStatus.Active){\n\t\t\t\tcounter++;\n\t\t\t\t}\n\t\t\t}\n        }\n\t\treturn counter;\n\t}\n\n\tfunction getActiveListing() public view returns(uint256[] memory){\n\t\tuint256 number = countActiveListing();\n\t\tuint  counter2 = 0;\n\t\tuint256[] memory memoryArray = new uint256[](number);\n\t\tfor(uint256 i = 0; i < _listingId; i++) {\n\t\t\tListing storage listing = _listings[i+1];\n\t\t\tif(listing.status == ListingStatus.Active){\n\t\t\t\tmemoryArray[counter2] = _listings[i+1].listingId;\n\t\t\t\tcounter2++;\n\t\t\t}\n        }\n\t\treturn memoryArray;\n\t}\n\n\tfunction getActiveListingOfContract(address token) public view returns (uint256[] memory) {\n\t\tuint256 number = countActiveListingOfContract(token);\n\t\tuint256 counter2 = 0;\n        uint256[] memory memoryArray = new uint256[](number);\n        for(uint256 i = 0; i < _listingId; i++) {\n\t\t\tListing storage listing = _listings[i+1];\n\t\t\tif(listing.status == ListingStatus.Active){\n\t\t\t\tif(listing.token == token){\n\t\t\t\t\tmemoryArray[counter2] = _listings[i+1].listingId;\n\t\t\t\t\tcounter2++;\n\t\t\t\t}\n\t\t\t}\n        }\n        return memoryArray;\n    }\n\n\tfunction getActiveArrayOfContract(address token) public view returns (Listing[] memory) {\n\t\tuint256 number = countActiveListingOfContract(token);\n\t\tuint256 counter2 = 0;\n        Listing[] memory memoryArray = new Listing[](number);\n        for(uint256 i = 0; i < _listingId; i++) {\n\t\t\tListing storage listing = _listings[i+1];\n\t\t\tif(listing.status == ListingStatus.Active){\n\t\t\t\tif(listing.token == token){\n\t\t\t\t\tmemoryArray[counter2] = _listings[i+1];\n\t\t\t\t\tcounter2++;\n\t\t\t\t}\n\t\t\t}\n        }\n        return memoryArray;\n    }\n\n\tfunction getOnsaleOfToken(address token) public view returns (uint256[] memory){\n\t\tuint256 counter = countActiveListingOfContract(token);\n\t\t\n\t\tuint256[] memory memoryArray = new uint256[](counter);\n\t\tif(counter>0){\n\t\t\tuint256 counter2 = 0;\n\t\t\tfor(uint256 i = 0; i < _listingId; i++) {\n\t\t\tListing storage listing = _listings[i+1];\n\t\t\tif(listing.status == ListingStatus.Active){\n\t\t\t\tif(listing.token == token){\n\t\t\t\t\tmemoryArray[counter2] = listing.tokenId;\n\t\t\t\t\tcounter2++;\n\t\t\t\t}\n\t\t\t}\n        \t}\n\t\t}\n\t\treturn memoryArray;\n\t}\n\n\tfunction getPriceOfId(address token, uint256 tokenId) public view returns(uint256){\n\t\tuint price = 0;\n\t\tuint256[] memory activeListingId = getActiveListingOfContract(token);\n\t\tfor(uint256 i = 0; i < activeListingId.length; i++) {\n\t\t\tListing storage listing = _listings[activeListingId[i]];\n\t\t\tif(listing.tokenId == tokenId){\n\t\t\t\tprice = listing.price;\n\t\t\t}\n        }\n\t\treturn price;\n\t}\n\n\tfunction getAllListing() public view returns (Listing[] memory) {\n        Listing[] memory memoryArray = new Listing[](_listingId);\n        for(uint256 i = 0; i < _listingId; i++) {\n            memoryArray[i] = _listings[i+1];\n        }\n        return memoryArray;\n    }\n\n\tfunction isTokenIdOnSale(address token, uint256 tokenId)public view returns (bool) {\n\t\tfor(uint256 i = 0; i < _listingId; i++) {\n\t\t\tListing storage listing = _listings[i+1];\n\t\t\tif(listing.status == ListingStatus.Active){\n\t\t\t\tif(listing.token == token){\n\t\t\t\t\tif(listing.tokenId == tokenId){\n\t\t\t\t\t\treturn true;\n\t\t\t\t\t}\n\t\t\t\t}\n\t\t\t}\n        }\n\t\treturn false;\n\t}\n\n}",
  "sourcePath": "/Users/jarupaksrisuchat/Documents/github/ppenter/crypto-font/contracts/eBTCmarketplace.sol",
  "compiler": {
    "name": "solc",
    "version": "0.8.17+commit.8df45f5f.Emscripten.clang"
  },
  "schemaVersion": "3.4.10",
  "updatedAt": "2022-11-18T06:30:33.528Z",
  "devdoc": {
    "kind": "dev",
    "methods": {},
    "version": 1
  },
  "userdoc": {
    "kind": "user",
    "methods": {},
    "version": 1
  }
}