{
  "contractName": "Market",
  "abi": [
    {
      "inputs": [
        {
          "internalType": "address",
          "name": "eBTCAddress",
          "type": "address"
        },
        {
          "internalType": "address",
          "name": "cFontAddress",
          "type": "address"
        }
      ],
      "stateMutability": "nonpayable",
      "type": "constructor"
    },
    {
      "anonymous": false,
      "inputs": [
        {
          "indexed": false,
          "internalType": "uint256",
          "name": "listingId",
          "type": "uint256"
        },
        {
          "indexed": false,
          "internalType": "address",
          "name": "seller",
          "type": "address"
        },
        {
          "indexed": false,
          "internalType": "uint256",
          "name": "timestamp",
          "type": "uint256"
        }
      ],
      "name": "Cancel",
      "type": "event"
    },
    {
      "anonymous": false,
      "inputs": [
        {
          "indexed": false,
          "internalType": "uint256",
          "name": "listingId",
          "type": "uint256"
        },
        {
          "indexed": false,
          "internalType": "address",
          "name": "seller",
          "type": "address"
        },
        {
          "indexed": false,
          "internalType": "address",
          "name": "token",
          "type": "address"
        },
        {
          "indexed": false,
          "internalType": "uint256",
          "name": "tokenId",
          "type": "uint256"
        },
        {
          "indexed": false,
          "internalType": "uint256",
          "name": "price",
          "type": "uint256"
        },
        {
          "indexed": false,
          "internalType": "uint256",
          "name": "timestamp",
          "type": "uint256"
        }
      ],
      "name": "Listed",
      "type": "event"
    },
    {
      "anonymous": false,
      "inputs": [
        {
          "indexed": false,
          "internalType": "uint256",
          "name": "listingId",
          "type": "uint256"
        },
        {
          "indexed": false,
          "internalType": "address",
          "name": "buyer",
          "type": "address"
        },
        {
          "indexed": false,
          "internalType": "address",
          "name": "token",
          "type": "address"
        },
        {
          "indexed": false,
          "internalType": "uint256",
          "name": "tokenId",
          "type": "uint256"
        },
        {
          "indexed": false,
          "internalType": "uint256",
          "name": "price",
          "type": "uint256"
        },
        {
          "indexed": false,
          "internalType": "uint256",
          "name": "timestamp",
          "type": "uint256"
        }
      ],
      "name": "Sale",
      "type": "event"
    },
    {
      "inputs": [],
      "name": "fee",
      "outputs": [
        {
          "internalType": "uint256",
          "name": "",
          "type": "uint256"
        }
      ],
      "stateMutability": "view",
      "type": "function",
      "constant": true
    },
    {
      "inputs": [
        {
          "internalType": "address",
          "name": "token",
          "type": "address"
        },
        {
          "internalType": "uint256",
          "name": "tokenId",
          "type": "uint256"
        },
        {
          "internalType": "uint256",
          "name": "price",
          "type": "uint256"
        }
      ],
      "name": "listToken",
      "outputs": [],
      "stateMutability": "nonpayable",
      "type": "function"
    },
    {
      "inputs": [
        {
          "internalType": "uint256",
          "name": "_fee",
          "type": "uint256"
        }
      ],
      "name": "setFee",
      "outputs": [],
      "stateMutability": "nonpayable",
      "type": "function"
    },
    {
      "inputs": [
        {
          "internalType": "uint256",
          "name": "listingId",
          "type": "uint256"
        }
      ],
      "name": "getListing",
      "outputs": [
        {
          "components": [
            {
              "internalType": "uint256",
              "name": "listingId",
              "type": "uint256"
            },
            {
              "internalType": "enum Market.ListingStatus",
              "name": "status",
              "type": "uint8"
            },
            {
              "internalType": "address",
              "name": "seller",
              "type": "address"
            },
            {
              "internalType": "address",
              "name": "token",
              "type": "address"
            },
            {
              "internalType": "uint256",
              "name": "tokenId",
              "type": "uint256"
            },
            {
              "internalType": "uint256",
              "name": "price",
              "type": "uint256"
            },
            {
              "internalType": "uint256",
              "name": "timestamp",
              "type": "uint256"
            }
          ],
          "internalType": "struct Market.Listing",
          "name": "",
          "type": "tuple"
        }
      ],
      "stateMutability": "view",
      "type": "function",
      "constant": true
    },
    {
      "inputs": [
        {
          "internalType": "uint256",
          "name": "listingId",
          "type": "uint256"
        }
      ],
      "name": "buyToken",
      "outputs": [],
      "stateMutability": "nonpayable",
      "type": "function"
    },
    {
      "inputs": [
        {
          "internalType": "uint256",
          "name": "listingId",
          "type": "uint256"
        }
      ],
      "name": "cancel",
      "outputs": [],
      "stateMutability": "nonpayable",
      "type": "function"
    },
    {
      "inputs": [],
      "name": "countActiveListing",
      "outputs": [
        {
          "internalType": "uint256",
          "name": "",
          "type": "uint256"
        }
      ],
      "stateMutability": "view",
      "type": "function",
      "constant": true
    },
    {
      "inputs": [
        {
          "internalType": "address",
          "name": "token",
          "type": "address"
        }
      ],
      "name": "countActiveListingOfContract",
      "outputs": [
        {
          "internalType": "uint256",
          "name": "",
          "type": "uint256"
        }
      ],
      "stateMutability": "view",
      "type": "function",
      "constant": true
    },
    {
      "inputs": [],
      "name": "getActiveListing",
      "outputs": [
        {
          "internalType": "uint256[]",
          "name": "",
          "type": "uint256[]"
        }
      ],
      "stateMutability": "view",
      "type": "function",
      "constant": true
    },
    {
      "inputs": [
        {
          "internalType": "address",
          "name": "token",
          "type": "address"
        }
      ],
      "name": "getActiveListingOfContract",
      "outputs": [
        {
          "internalType": "uint256[]",
          "name": "",
          "type": "uint256[]"
        }
      ],
      "stateMutability": "view",
      "type": "function",
      "constant": true
    },
    {
      "inputs": [
        {
          "internalType": "address",
          "name": "token",
          "type": "address"
        }
      ],
      "name": "getActiveArrayOfContract",
      "outputs": [
        {
          "components": [
            {
              "internalType": "uint256",
              "name": "listingId",
              "type": "uint256"
            },
            {
              "internalType": "enum Market.ListingStatus",
              "name": "status",
              "type": "uint8"
            },
            {
              "internalType": "address",
              "name": "seller",
              "type": "address"
            },
            {
              "internalType": "address",
              "name": "token",
              "type": "address"
            },
            {
              "internalType": "uint256",
              "name": "tokenId",
              "type": "uint256"
            },
            {
              "internalType": "uint256",
              "name": "price",
              "type": "uint256"
            },
            {
              "internalType": "uint256",
              "name": "timestamp",
              "type": "uint256"
            }
          ],
          "internalType": "struct Market.Listing[]",
          "name": "",
          "type": "tuple[]"
        }
      ],
      "stateMutability": "view",
      "type": "function",
      "constant": true
    },
    {
      "inputs": [
        {
          "internalType": "address",
          "name": "token",
          "type": "address"
        }
      ],
      "name": "getOnsaleOfToken",
      "outputs": [
        {
          "internalType": "uint256[]",
          "name": "",
          "type": "uint256[]"
        }
      ],
      "stateMutability": "view",
      "type": "function",
      "constant": true
    },
    {
      "inputs": [
        {
          "internalType": "address",
          "name": "token",
          "type": "address"
        },
        {
          "internalType": "uint256",
          "name": "tokenId",
          "type": "uint256"
        }
      ],
      "name": "getPriceOfId",
      "outputs": [
        {
          "internalType": "uint256",
          "name": "",
          "type": "uint256"
        }
      ],
      "stateMutability": "view",
      "type": "function",
      "constant": true
    },
    {
      "inputs": [],
      "name": "getAllListing",
      "outputs": [
        {
          "components": [
            {
              "internalType": "uint256",
              "name": "listingId",
              "type": "uint256"
            },
            {
              "internalType": "enum Market.ListingStatus",
              "name": "status",
              "type": "uint8"
            },
            {
              "internalType": "address",
              "name": "seller",
              "type": "address"
            },
            {
              "internalType": "address",
              "name": "token",
              "type": "address"
            },
            {
              "internalType": "uint256",
              "name": "tokenId",
              "type": "uint256"
            },
            {
              "internalType": "uint256",
              "name": "price",
              "type": "uint256"
            },
            {
              "internalType": "uint256",
              "name": "timestamp",
              "type": "uint256"
            }
          ],
          "internalType": "struct Market.Listing[]",
          "name": "",
          "type": "tuple[]"
        }
      ],
      "stateMutability": "view",
      "type": "function",
      "constant": true
    },
    {
      "inputs": [
        {
          "internalType": "address",
          "name": "token",
          "type": "address"
        },
        {
          "internalType": "uint256",
          "name": "tokenId",
          "type": "uint256"
        }
      ],
      "name": "isTokenIdOnSale",
      "outputs": [
        {
          "internalType": "bool",
          "name": "",
          "type": "bool"
        }
      ],
      "stateMutability": "view",
      "type": "function",
      "constant": true
    }
  ],
  "bytecode": "0x60806040526040518060400160405280601081526020017f65425443204d61726b6574706c6163650000000000000000000000000000000081525060009080519060200190620000519291906200015a565b50600060015560056006553480156200006957600080fd5b5060405162002a6f38038062002a6f83398181016040528101906200008f919062000274565b81600360006101000a81548173ffffffffffffffffffffffffffffffffffffffff021916908373ffffffffffffffffffffffffffffffffffffffff16021790555080600460006101000a81548173ffffffffffffffffffffffffffffffffffffffff021916908373ffffffffffffffffffffffffffffffffffffffff16021790555033600560006101000a81548173ffffffffffffffffffffffffffffffffffffffff021916908373ffffffffffffffffffffffffffffffffffffffff160217905550505062000320565b8280546200016890620002ea565b90600052602060002090601f0160209004810192826200018c5760008555620001d8565b82601f10620001a757805160ff1916838001178555620001d8565b82800160010185558215620001d8579182015b82811115620001d7578251825591602001919060010190620001ba565b5b509050620001e79190620001eb565b5090565b5b8082111562000206576000816000905550600101620001ec565b5090565b600080fd5b600073ffffffffffffffffffffffffffffffffffffffff82169050919050565b60006200023c826200020f565b9050919050565b6200024e816200022f565b81146200025a57600080fd5b50565b6000815190506200026e8162000243565b92915050565b600080604083850312156200028e576200028d6200020a565b5b60006200029e858286016200025d565b9250506020620002b1858286016200025d565b9150509250929050565b7f4e487b7100000000000000000000000000000000000000000000000000000000600052602260045260246000fd5b600060028204905060018216806200030357607f821691505b602082108114156200031a5762000319620002bb565b5b50919050565b61273f80620003306000396000f3fe608060405234801561001057600080fd5b50600436106100f55760003560e01c80637e07590d11610097578063ddca3f4311610066578063ddca3f4314610296578063e17dcbb0146102b4578063e8fd2e3a146102d2578063ff6f118b14610302576100f5565b80637e07590d146101ea5780638a3f352a14610206578063a0a032a014610236578063a17ae7b214610266576100f5565b806336b40a3c116100d357806336b40a3c1461016457806340e58ee514610194578063467efe5a146101b057806369fe0e2d146101ce576100f5565b8063107a274a146100fa5780632d296bf11461012a578063317d082314610146575b600080fd5b610114600480360381019061010f9190611c58565b610332565b6040516101219190611dda565b60405180910390f35b610144600480360381019061013f9190611c58565b61046e565b005b61014e610a99565b60405161015b9190611e04565b60405180910390f35b61017e60048036038101906101799190611e4b565b610b39565b60405161018b9190611e04565b60405180910390f35b6101ae60048036038101906101a99190611c58565b610c34565b005b6101b8610e7c565b6040516101c59190611fb5565b60405180910390f35b6101e860048036038101906101e39190611c58565b611057565b005b61020460048036038101906101ff9190611fd7565b6110bb565b005b610220600480360381019061021b919061202a565b61130f565b60405161022d9190611e04565b60405180910390f35b610250600480360381019061024b9190611e4b565b611394565b60405161025d9190612119565b60405180910390f35b610280600480360381019061027b9190611e4b565b611515565b60405161028d9190612119565b60405180910390f35b61029e6116aa565b6040516102ab9190611e04565b60405180910390f35b6102bc6116b0565b6040516102c99190612119565b60405180910390f35b6102ec60048036038101906102e7919061202a565b6117e9565b6040516102f99190612156565b60405180910390f35b61031c60048036038101906103179190611e4b565b6118ed565b6040516103299190611fb5565b60405180910390f35b61033a611ba2565b600260008381526020019081526020016000206040518060e0016040529081600082015481526020016001820160009054906101000a900460ff16600281111561038757610386611c94565b5b600281111561039957610398611c94565b5b81526020016001820160019054906101000a900473ffffffffffffffffffffffffffffffffffffffff1673ffffffffffffffffffffffffffffffffffffffff1673ffffffffffffffffffffffffffffffffffffffff1681526020016002820160009054906101000a900473ffffffffffffffffffffffffffffffffffffffff1673ffffffffffffffffffffffffffffffffffffffff1673ffffffffffffffffffffffffffffffffffffffff16815260200160038201548152602001600482015481526020016005820154815250509050919050565b60006002600083815260200190815260200160002090508060010160019054906101000a900473ffffffffffffffffffffffffffffffffffffffff1673ffffffffffffffffffffffffffffffffffffffff163373ffffffffffffffffffffffffffffffffffffffff161415610518576040517f08c379a000000000000000000000000000000000000000000000000000000000815260040161050f906121ce565b60405180910390fd5b6000600281111561052c5761052b611c94565b5b8160010160009054906101000a900460ff1660028111156105505761054f611c94565b5b14610590576040517f08c379a00000000000000000000000000000000000000000000000000000000081526004016105879061223a565b60405180910390fd5b8060040154600360009054906101000a900473ffffffffffffffffffffffffffffffffffffffff1673ffffffffffffffffffffffffffffffffffffffff166370a08231336040518263ffffffff1660e01b81526004016105f09190612269565b602060405180830381865afa15801561060d573d6000803e3d6000fd5b505050506040513d601f19601f820116820180604052508101906106319190612299565b1015610672576040517f08c379a000000000000000000000000000000000000000000000000000000000815260040161066990612312565b60405180910390fd5b60018160010160006101000a81548160ff0219169083600281111561069a57610699611c94565b5b02179055508060020160009054906101000a900473ffffffffffffffffffffffffffffffffffffffff1673ffffffffffffffffffffffffffffffffffffffff166323b872dd303384600301546040518463ffffffff1660e01b815260040161070493929190612332565b600060405180830381600087803b15801561071e57600080fd5b505af1158015610732573d6000803e3d6000fd5b50505050600360009054906101000a900473ffffffffffffffffffffffffffffffffffffffff1673ffffffffffffffffffffffffffffffffffffffff166323b872dd333084600401546040518463ffffffff1660e01b815260040161079993929190612332565b6020604051808303816000875af11580156107b8573d6000803e3d6000fd5b505050506040513d601f19601f820116820180604052508101906107dc9190612395565b506000606460065483600401546107f391906123f1565b6107fd919061247a565b9050600360009054906101000a900473ffffffffffffffffffffffffffffffffffffffff1673ffffffffffffffffffffffffffffffffffffffff1663095ea7b3600460009054906101000a900473ffffffffffffffffffffffffffffffffffffffff1684600401546040518363ffffffff1660e01b81526004016108829291906124ab565b6020604051808303816000875af11580156108a1573d6000803e3d6000fd5b505050506040513d601f19601f820116820180604052508101906108c59190612395565b50600460009054906101000a900473ffffffffffffffffffffffffffffffffffffffff1673ffffffffffffffffffffffffffffffffffffffff16631514472b826040518263ffffffff1660e01b81526004016109219190611e04565b600060405180830381600087803b15801561093b57600080fd5b505af115801561094f573d6000803e3d6000fd5b50505050600360009054906101000a900473ffffffffffffffffffffffffffffffffffffffff1673ffffffffffffffffffffffffffffffffffffffff1663a9059cbb8360010160019054906101000a900473ffffffffffffffffffffffffffffffffffffffff168385600401546109c691906124d4565b6040518363ffffffff1660e01b81526004016109e39291906124ab565b6020604051808303816000875af1158015610a02573d6000803e3d6000fd5b505050506040513d601f19601f82011682018060405250810190610a269190612395565b507fd54b56881e7d8e485ae13972347facc2cbdf328603b65c7af6c972cf81a5393383338460020160009054906101000a900473ffffffffffffffffffffffffffffffffffffffff168560030154866004015442604051610a8c96959493929190612508565b60405180910390a1505050565b6000806000905060005b600154811015610b3157600060026000600184610ac09190612569565b8152602001908152602001600020905060006002811115610ae457610ae3611c94565b5b8160010160009054906101000a900460ff166002811115610b0857610b07611c94565b5b1415610b1d578280610b19906125bf565b9350505b508080610b29906125bf565b915050610aa3565b508091505090565b6000806000905060005b600154811015610c2a57600060026000600184610b609190612569565b815260200190815260200160002090508473ffffffffffffffffffffffffffffffffffffffff168160020160009054906101000a900473ffffffffffffffffffffffffffffffffffffffff1673ffffffffffffffffffffffffffffffffffffffff161415610c165760006002811115610bdc57610bdb611c94565b5b8160010160009054906101000a900460ff166002811115610c0057610bff611c94565b5b1415610c15578280610c11906125bf565b9350505b5b508080610c22906125bf565b915050610b43565b5080915050919050565b60006002600083815260200190815260200160002090508060010160019054906101000a900473ffffffffffffffffffffffffffffffffffffffff1673ffffffffffffffffffffffffffffffffffffffff163373ffffffffffffffffffffffffffffffffffffffff1614610cdd576040517f08c379a0000000000000000000000000000000000000000000000000000000008152600401610cd490612654565b60405180910390fd5b60006002811115610cf157610cf0611c94565b5b8160010160009054906101000a900460ff166002811115610d1557610d14611c94565b5b14610d55576040517f08c379a0000000000000000000000000000000000000000000000000000000008152600401610d4c9061223a565b60405180910390fd5b60028160010160006101000a81548160ff02191690836002811115610d7d57610d7c611c94565b5b02179055508060020160009054906101000a900473ffffffffffffffffffffffffffffffffffffffff1673ffffffffffffffffffffffffffffffffffffffff166323b872dd303384600301546040518463ffffffff1660e01b8152600401610de793929190612332565b600060405180830381600087803b158015610e0157600080fd5b505af1158015610e15573d6000803e3d6000fd5b505050507f4e4fbd9f26259e82cfb30871ba8fb37535ebc893e81ff81141c1a2dc925d930f828260010160019054906101000a900473ffffffffffffffffffffffffffffffffffffffff1642604051610e7093929190612674565b60405180910390a15050565b6060600060015467ffffffffffffffff811115610e9c57610e9b6126ab565b5b604051908082528060200260200182016040528015610ed557816020015b610ec2611ba2565b815260200190600190039081610eba5790505b50905060005b60015481101561104f5760026000600183610ef69190612569565b81526020019081526020016000206040518060e0016040529081600082015481526020016001820160009054906101000a900460ff166002811115610f3e57610f3d611c94565b5b6002811115610f5057610f4f611c94565b5b81526020016001820160019054906101000a900473ffffffffffffffffffffffffffffffffffffffff1673ffffffffffffffffffffffffffffffffffffffff1673ffffffffffffffffffffffffffffffffffffffff1681526020016002820160009054906101000a900473ffffffffffffffffffffffffffffffffffffffff1673ffffffffffffffffffffffffffffffffffffffff1673ffffffffffffffffffffffffffffffffffffffff1681526020016003820154815260200160048201548152602001600582015481525050828281518110611031576110306126da565b5b60200260200101819052508080611047906125bf565b915050610edb565b508091505090565b600560009054906101000a900473ffffffffffffffffffffffffffffffffffffffff1673ffffffffffffffffffffffffffffffffffffffff163373ffffffffffffffffffffffffffffffffffffffff16146110b157600080fd5b8060068190555050565b600081116110c857600080fd5b8273ffffffffffffffffffffffffffffffffffffffff166323b872dd3330856040518463ffffffff1660e01b815260040161110593929190612332565b600060405180830381600087803b15801561111f57600080fd5b505af1158015611133573d6000803e3d6000fd5b505050506001600081548092919061114a906125bf565b919050555060006040518060e0016040528060015481526020016000600281111561117857611177611c94565b5b81526020013373ffffffffffffffffffffffffffffffffffffffff1681526020018573ffffffffffffffffffffffffffffffffffffffff168152602001848152602001838152602001428152509050806002600060015481526020019081526020016000206000820151816000015560208201518160010160006101000a81548160ff0219169083600281111561121257611211611c94565b5b021790555060408201518160010160016101000a81548173ffffffffffffffffffffffffffffffffffffffff021916908373ffffffffffffffffffffffffffffffffffffffff16021790555060608201518160020160006101000a81548173ffffffffffffffffffffffffffffffffffffffff021916908373ffffffffffffffffffffffffffffffffffffffff1602179055506080820151816003015560a0820151816004015560c082015181600501559050507f1d2286580411f12056775bf9e0fd10101148b09a6fca67c9f426fb113a28d1f8600154338686864260405161130196959493929190612508565b60405180910390a150505050565b60008060009050600061132185611515565b905060005b815181101561138857600060026000848481518110611348576113476126da565b5b602002602001015181526020019081526020016000209050858160030154141561137457806004015493505b508080611380906125bf565b915050611326565b50819250505092915050565b606060006113a183610b39565b905060008167ffffffffffffffff8111156113bf576113be6126ab565b5b6040519080825280602002602001820160405280156113ed5781602001602082028036833780820191505090505b509050600082111561150b576000805b6001548110156115085760006002600060018461141a9190612569565b815260200190815260200160002090506000600281111561143e5761143d611c94565b5b8160010160009054906101000a900460ff16600281111561146257611461611c94565b5b14156114f4578673ffffffffffffffffffffffffffffffffffffffff168160020160009054906101000a900473ffffffffffffffffffffffffffffffffffffffff1673ffffffffffffffffffffffffffffffffffffffff1614156114f35780600301548484815181106114d8576114d76126da565b5b60200260200101818152505082806114ef906125bf565b9350505b5b508080611500906125bf565b9150506113fd565b50505b8092505050919050565b6060600061152283610b39565b90506000808267ffffffffffffffff811115611541576115406126ab565b5b60405190808252806020026020018201604052801561156f5781602001602082028036833780820191505090505b50905060005b60015481101561169e576000600260006001846115929190612569565b81526020019081526020016000209050600060028111156115b6576115b5611c94565b5b8160010160009054906101000a900460ff1660028111156115da576115d9611c94565b5b141561168a578673ffffffffffffffffffffffffffffffffffffffff168160020160009054906101000a900473ffffffffffffffffffffffffffffffffffffffff1673ffffffffffffffffffffffffffffffffffffffff16141561168957600260006001846116499190612569565b81526020019081526020016000206000015483858151811061166e5761166d6126da565b5b6020026020010181815250508380611685906125bf565b9450505b5b508080611696906125bf565b915050611575565b50809350505050919050565b60065481565b606060006116bc610a99565b90506000808267ffffffffffffffff8111156116db576116da6126ab565b5b6040519080825280602002602001820160405280156117095781602001602082028036833780820191505090505b50905060005b6001548110156117df5760006002600060018461172c9190612569565b81526020019081526020016000209050600060028111156117505761174f611c94565b5b8160010160009054906101000a900460ff16600281111561177457611773611c94565b5b14156117cb576002600060018461178b9190612569565b8152602001908152602001600020600001548385815181106117b0576117af6126da565b5b60200260200101818152505083806117c7906125bf565b9450505b5080806117d7906125bf565b91505061170f565b5080935050505090565b600080600090505b6001548110156118e15760006002600060018461180e9190612569565b815260200190815260200160002090506000600281111561183257611831611c94565b5b8160010160009054906101000a900460ff16600281111561185657611855611c94565b5b14156118cd578473ffffffffffffffffffffffffffffffffffffffff168160020160009054906101000a900473ffffffffffffffffffffffffffffffffffffffff1673ffffffffffffffffffffffffffffffffffffffff1614156118cc5783816003015414156118cb576001925050506118e7565b5b5b5080806118d9906125bf565b9150506117f1565b50600090505b92915050565b606060006118fa83610b39565b90506000808267ffffffffffffffff811115611919576119186126ab565b5b60405190808252806020026020018201604052801561195257816020015b61193f611ba2565b8152602001906001900390816119375790505b50905060005b600154811015611b96576000600260006001846119759190612569565b815260200190815260200160002090506000600281111561199957611998611c94565b5b8160010160009054906101000a900460ff1660028111156119bd576119bc611c94565b5b1415611b82578673ffffffffffffffffffffffffffffffffffffffff168160020160009054906101000a900473ffffffffffffffffffffffffffffffffffffffff1673ffffffffffffffffffffffffffffffffffffffff161415611b815760026000600184611a2c9190612569565b81526020019081526020016000206040518060e0016040529081600082015481526020016001820160009054906101000a900460ff166002811115611a7457611a73611c94565b5b6002811115611a8657611a85611c94565b5b81526020016001820160019054906101000a900473ffffffffffffffffffffffffffffffffffffffff1673ffffffffffffffffffffffffffffffffffffffff1673ffffffffffffffffffffffffffffffffffffffff1681526020016002820160009054906101000a900473ffffffffffffffffffffffffffffffffffffffff1673ffffffffffffffffffffffffffffffffffffffff1673ffffffffffffffffffffffffffffffffffffffff1681526020016003820154815260200160048201548152602001600582015481525050838581518110611b6757611b666126da565b5b60200260200101819052508380611b7d906125bf565b9450505b5b508080611b8e906125bf565b915050611958565b50809350505050919050565b6040518060e001604052806000815260200160006002811115611bc857611bc7611c94565b5b8152602001600073ffffffffffffffffffffffffffffffffffffffff168152602001600073ffffffffffffffffffffffffffffffffffffffff1681526020016000815260200160008152602001600081525090565b600080fd5b6000819050919050565b611c3581611c22565b8114611c4057600080fd5b50565b600081359050611c5281611c2c565b92915050565b600060208284031215611c6e57611c6d611c1d565b5b6000611c7c84828501611c43565b91505092915050565b611c8e81611c22565b82525050565b7f4e487b7100000000000000000000000000000000000000000000000000000000600052602160045260246000fd5b60038110611cd457611cd3611c94565b5b50565b6000819050611ce582611cc3565b919050565b6000611cf582611cd7565b9050919050565b611d0581611cea565b82525050565b600073ffffffffffffffffffffffffffffffffffffffff82169050919050565b6000611d3682611d0b565b9050919050565b611d4681611d2b565b82525050565b60e082016000820151611d626000850182611c85565b506020820151611d756020850182611cfc565b506040820151611d886040850182611d3d565b506060820151611d9b6060850182611d3d565b506080820151611dae6080850182611c85565b5060a0820151611dc160a0850182611c85565b5060c0820151611dd460c0850182611c85565b50505050565b600060e082019050611def6000830184611d4c565b92915050565b611dfe81611c22565b82525050565b6000602082019050611e196000830184611df5565b92915050565b611e2881611d2b565b8114611e3357600080fd5b50565b600081359050611e4581611e1f565b92915050565b600060208284031215611e6157611e60611c1d565b5b6000611e6f84828501611e36565b91505092915050565b600081519050919050565b600082825260208201905092915050565b6000819050602082019050919050565b60e082016000820151611eba6000850182611c85565b506020820151611ecd6020850182611cfc565b506040820151611ee06040850182611d3d565b506060820151611ef36060850182611d3d565b506080820151611f066080850182611c85565b5060a0820151611f1960a0850182611c85565b5060c0820151611f2c60c0850182611c85565b50505050565b6000611f3e8383611ea4565b60e08301905092915050565b6000602082019050919050565b6000611f6282611e78565b611f6c8185611e83565b9350611f7783611e94565b8060005b83811015611fa8578151611f8f8882611f32565b9750611f9a83611f4a565b925050600181019050611f7b565b5085935050505092915050565b60006020820190508181036000830152611fcf8184611f57565b905092915050565b600080600060608486031215611ff057611fef611c1d565b5b6000611ffe86828701611e36565b935050602061200f86828701611c43565b925050604061202086828701611c43565b9150509250925092565b6000806040838503121561204157612040611c1d565b5b600061204f85828601611e36565b925050602061206085828601611c43565b9150509250929050565b600081519050919050565b600082825260208201905092915050565b6000819050602082019050919050565b60006120a28383611c85565b60208301905092915050565b6000602082019050919050565b60006120c68261206a565b6120d08185612075565b93506120db83612086565b8060005b8381101561210c5781516120f38882612096565b97506120fe836120ae565b9250506001810190506120df565b5085935050505092915050565b6000602082019050818103600083015261213381846120bb565b905092915050565b60008115159050919050565b6121508161213b565b82525050565b600060208201905061216b6000830184612147565b92915050565b600082825260208201905092915050565b7f53656c6c65722063616e6e6f7420626520627579657200000000000000000000600082015250565b60006121b8601683612171565b91506121c382612182565b602082019050919050565b600060208201905081810360008301526121e7816121ab565b9050919050565b7f4c697374696e67206973206e6f74206163746976650000000000000000000000600082015250565b6000612224601583612171565b915061222f826121ee565b602082019050919050565b6000602082019050818103600083015261225381612217565b9050919050565b61226381611d2b565b82525050565b600060208201905061227e600083018461225a565b92915050565b60008151905061229381611c2c565b92915050565b6000602082840312156122af576122ae611c1d565b5b60006122bd84828501612284565b91505092915050565b7f496e73756666696369656e74207061796d656e74000000000000000000000000600082015250565b60006122fc601483612171565b9150612307826122c6565b602082019050919050565b6000602082019050818103600083015261232b816122ef565b9050919050565b6000606082019050612347600083018661225a565b612354602083018561225a565b6123616040830184611df5565b949350505050565b6123728161213b565b811461237d57600080fd5b50565b60008151905061238f81612369565b92915050565b6000602082840312156123ab576123aa611c1d565b5b60006123b984828501612380565b91505092915050565b7f4e487b7100000000000000000000000000000000000000000000000000000000600052601160045260246000fd5b60006123fc82611c22565b915061240783611c22565b9250817fffffffffffffffffffffffffffffffffffffffffffffffffffffffffffffffff04831182151516156124405761243f6123c2565b5b828202905092915050565b7f4e487b7100000000000000000000000000000000000000000000000000000000600052601260045260246000fd5b600061248582611c22565b915061249083611c22565b9250826124a05761249f61244b565b5b828204905092915050565b60006040820190506124c0600083018561225a565b6124cd6020830184611df5565b9392505050565b60006124df82611c22565b91506124ea83611c22565b9250828210156124fd576124fc6123c2565b5b828203905092915050565b600060c08201905061251d6000830189611df5565b61252a602083018861225a565b612537604083018761225a565b6125446060830186611df5565b6125516080830185611df5565b61255e60a0830184611df5565b979650505050505050565b600061257482611c22565b915061257f83611c22565b9250827fffffffffffffffffffffffffffffffffffffffffffffffffffffffffffffffff038211156125b4576125b36123c2565b5b828201905092915050565b60006125ca82611c22565b91507fffffffffffffffffffffffffffffffffffffffffffffffffffffffffffffffff8214156125fd576125fc6123c2565b5b600182019050919050565b7f4f6e6c792073656c6c65722063616e2063616e63656c206c697374696e670000600082015250565b600061263e601e83612171565b915061264982612608565b602082019050919050565b6000602082019050818103600083015261266d81612631565b9050919050565b60006060820190506126896000830186611df5565b612696602083018561225a565b6126a36040830184611df5565b949350505050565b7f4e487b7100000000000000000000000000000000000000000000000000000000600052604160045260246000fd5b7f4e487b7100000000000000000000000000000000000000000000000000000000600052603260045260246000fdfea26469706673582212208750b655224c4f249e58801251e4d80ed1bdebb1c5c2087cc083c2ed058d485c64736f6c634300080a0033",
  "immutableReferences": {},
  "source": "// SPDX-License-Identifier: MIT\r\n\r\npragma solidity ^0.8.0;\r\n\r\nimport \"@openzeppelin/contracts/token/ERC721/IERC721.sol\";\r\nimport \"@openzeppelin/contracts/access/Ownable.sol\";\r\nimport \"./eBTC.sol\";\r\nimport \"./icFont.sol\";\r\n\r\ncontract Market {\r\n\tenum ListingStatus {\r\n\t\tActive,\r\n\t\tSold,\r\n\t\tCancelled\r\n\t}\r\n\r\n\tstruct Listing {\r\n\t\tuint256 listingId;\r\n\t\tListingStatus status;\r\n\t\taddress seller;\r\n\t\taddress token;\r\n\t\tuint256 tokenId;\r\n\t\tuint256 price;\r\n\t\tuint256 timestamp;\r\n\t}\r\n\r\n\tevent Listed(\r\n\t\tuint256 listingId,\r\n\t\taddress seller,\r\n\t\taddress token,\r\n\t\tuint256 tokenId,\r\n\t\tuint256 price,\r\n\t\tuint256 timestamp\r\n\t);\r\n\r\n\tevent Sale(\r\n\t\tuint256 listingId,\r\n\t\taddress buyer,\r\n\t\taddress token,\r\n\t\tuint256 tokenId,\r\n\t\tuint256 price,\r\n\t\tuint256 timestamp\r\n\t);\r\n\r\n\tevent Cancel(\r\n\t\tuint256 listingId,\r\n\t\taddress seller,\r\n\t\tuint256 timestamp\r\n\t);\r\n\r\n\tstring private _name = \"eBTC Marketplace\";\r\n\r\n\tuint256 private _listingId = 0;\r\n\tmapping(uint256 => Listing) private _listings;\r\n\tIERC20 eBTC;\r\n\ticFont cFont;\r\n\taddress _owner;\r\n\tuint256 public fee = 5;\r\n\r\n\tconstructor(address eBTCAddress, address cFontAddress){\r\n\t\teBTC = IERC20(eBTCAddress);\r\n\t\tcFont = icFont(cFontAddress);\r\n\t\t_owner = msg.sender;\r\n\t}\r\n\r\n\tfunction listToken(address token, uint256 tokenId, uint256 price) external {\r\n\t\trequire(price > 0);\r\n\t\tIERC721(token).transferFrom(msg.sender, address(this), tokenId);\r\n\r\n\t\t_listingId++;\r\n\r\n\t\tListing memory listing = Listing(\r\n\t\t\t_listingId,\r\n\t\t\tListingStatus.Active,\r\n\t\t\tmsg.sender,\r\n\t\t\ttoken,\r\n\t\t\ttokenId,\r\n\t\t\tprice,\r\n\t\t\tblock.timestamp\r\n\t\t);\r\n\r\n\t\t\r\n\r\n\t\t_listings[_listingId] = listing;\r\n\r\n\t\temit Listed(\r\n\t\t\t_listingId,\r\n\t\t\tmsg.sender,\r\n\t\t\ttoken,\r\n\t\t\ttokenId,\r\n\t\t\tprice,\r\n\t\t\tblock.timestamp\r\n\t\t);\r\n\r\n\t\t\r\n\t}\r\n\r\n\tfunction setFee(uint256 _fee) public{\r\n\t\trequire(msg.sender == _owner);\r\n\t\tfee = _fee;\r\n\t}\r\n\r\n\tfunction getListing(uint256 listingId) public view returns (Listing memory) {\r\n\t\treturn _listings[listingId];\r\n\t}\r\n\r\n\tfunction buyToken(uint256 listingId) external{\r\n\t\tListing storage listing = _listings[listingId];\r\n\r\n\t\trequire(msg.sender != listing.seller, \"Seller cannot be buyer\");\r\n\t\trequire(listing.status == ListingStatus.Active, \"Listing is not active\");\r\n\r\n\t\trequire(eBTC.balanceOf(msg.sender) >= listing.price, \"Insufficient payment\");\r\n\r\n\t\tlisting.status = ListingStatus.Sold;\r\n\r\n\t\tIERC721(listing.token).transferFrom(address(this), msg.sender, listing.tokenId);\r\n\t\teBTC.transferFrom(msg.sender, address(this), listing.price);\r\n\t\tuint256 _fee = listing.price * fee / 100;\r\n\t\teBTC.approve(address(cFont), listing.price);\r\n\t\tcFont.AddeBTCFee(_fee);\r\n\t\teBTC.transfer(listing.seller, (listing.price - _fee));\r\n\r\n\t\temit Sale(\r\n\t\t\tlistingId,\r\n\t\t\tmsg.sender,\r\n\t\t\tlisting.token,\r\n\t\t\tlisting.tokenId,\r\n\t\t\tlisting.price,\r\n\t\t\tblock.timestamp\r\n\t\t);\r\n\t}\r\n\r\n\tfunction cancel(uint256 listingId) public {\r\n\t\tListing storage listing = _listings[listingId];\r\n\r\n\t\trequire(msg.sender == listing.seller, \"Only seller can cancel listing\");\r\n\t\trequire(listing.status == ListingStatus.Active, \"Listing is not active\");\r\n\r\n\t\tlisting.status = ListingStatus.Cancelled;\r\n\t\r\n\t\tIERC721(listing.token).transferFrom(address(this), msg.sender, listing.tokenId);\r\n\r\n\t\temit Cancel(listingId, listing.seller, block.timestamp);\r\n\t}\r\n\r\n\tstruct TokenActive{\r\n\t\taddress token;\r\n\t\tuint256 tokenId;\r\n\t\tuint256 price;\r\n\t}\r\n\r\n\tfunction countActiveListing() public view returns (uint256){\r\n\t\tuint256 counter = 0;\r\n\t\tfor(uint256 i = 0; i < _listingId; i++) {\r\n\t\t\tListing storage listing = _listings[i+1];\r\n\t\t\tif(listing.status == ListingStatus.Active){\r\n\t\t\t\tcounter++;\r\n\t\t\t}\r\n        }\r\n\t\treturn counter;\r\n\t}\r\n\r\n\tfunction countActiveListingOfContract(address token) public view returns (uint256){\r\n\t\tuint256 counter = 0;\r\n\t\tfor(uint256 i = 0; i < _listingId; i++) {\r\n\t\t\tListing storage listing = _listings[i+1];\r\n\t\t\tif(listing.token == token){\r\n\t\t\t\tif(listing.status == ListingStatus.Active){\r\n\t\t\t\tcounter++;\r\n\t\t\t\t}\r\n\t\t\t}\r\n        }\r\n\t\treturn counter;\r\n\t}\r\n\r\n\tfunction getActiveListing() public view returns(uint256[] memory){\r\n\t\tuint256 number = countActiveListing();\r\n\t\tuint  counter2 = 0;\r\n\t\tuint256[] memory memoryArray = new uint256[](number);\r\n\t\tfor(uint256 i = 0; i < _listingId; i++) {\r\n\t\t\tListing storage listing = _listings[i+1];\r\n\t\t\tif(listing.status == ListingStatus.Active){\r\n\t\t\t\tmemoryArray[counter2] = _listings[i+1].listingId;\r\n\t\t\t\tcounter2++;\r\n\t\t\t}\r\n        }\r\n\t\treturn memoryArray;\r\n\t}\r\n\r\n\tfunction getActiveListingOfContract(address token) public view returns (uint256[] memory) {\r\n\t\tuint256 number = countActiveListingOfContract(token);\r\n\t\tuint256 counter2 = 0;\r\n        uint256[] memory memoryArray = new uint256[](number);\r\n        for(uint256 i = 0; i < _listingId; i++) {\r\n\t\t\tListing storage listing = _listings[i+1];\r\n\t\t\tif(listing.status == ListingStatus.Active){\r\n\t\t\t\tif(listing.token == token){\r\n\t\t\t\t\tmemoryArray[counter2] = _listings[i+1].listingId;\r\n\t\t\t\t\tcounter2++;\r\n\t\t\t\t}\r\n\t\t\t}\r\n        }\r\n        return memoryArray;\r\n    }\r\n\r\n\tfunction getActiveArrayOfContract(address token) public view returns (Listing[] memory) {\r\n\t\tuint256 number = countActiveListingOfContract(token);\r\n\t\tuint256 counter2 = 0;\r\n        Listing[] memory memoryArray = new Listing[](number);\r\n        for(uint256 i = 0; i < _listingId; i++) {\r\n\t\t\tListing storage listing = _listings[i+1];\r\n\t\t\tif(listing.status == ListingStatus.Active){\r\n\t\t\t\tif(listing.token == token){\r\n\t\t\t\t\tmemoryArray[counter2] = _listings[i+1];\r\n\t\t\t\t\tcounter2++;\r\n\t\t\t\t}\r\n\t\t\t}\r\n        }\r\n        return memoryArray;\r\n    }\r\n\r\n\tfunction getOnsaleOfToken(address token) public view returns (uint256[] memory){\r\n\t\tuint256 counter = countActiveListingOfContract(token);\r\n\t\t\r\n\t\tuint256[] memory memoryArray = new uint256[](counter);\r\n\t\tif(counter>0){\r\n\t\t\tuint256 counter2 = 0;\r\n\t\t\tfor(uint256 i = 0; i < _listingId; i++) {\r\n\t\t\tListing storage listing = _listings[i+1];\r\n\t\t\tif(listing.status == ListingStatus.Active){\r\n\t\t\t\tif(listing.token == token){\r\n\t\t\t\t\tmemoryArray[counter2] = listing.tokenId;\r\n\t\t\t\t\tcounter2++;\r\n\t\t\t\t}\r\n\t\t\t}\r\n        \t}\r\n\t\t}\r\n\t\treturn memoryArray;\r\n\t}\r\n\r\n\tfunction getPriceOfId(address token, uint256 tokenId) public view returns(uint256){\r\n\t\tuint price = 0;\r\n\t\tuint256[] memory activeListingId = getActiveListingOfContract(token);\r\n\t\tfor(uint256 i = 0; i < activeListingId.length; i++) {\r\n\t\t\tListing storage listing = _listings[activeListingId[i]];\r\n\t\t\tif(listing.tokenId == tokenId){\r\n\t\t\t\tprice = listing.price;\r\n\t\t\t}\r\n        }\r\n\t\treturn price;\r\n\t}\r\n\r\n\tfunction getAllListing() public view returns (Listing[] memory) {\r\n        Listing[] memory memoryArray = new Listing[](_listingId);\r\n        for(uint256 i = 0; i < _listingId; i++) {\r\n            memoryArray[i] = _listings[i+1];\r\n        }\r\n        return memoryArray;\r\n    }\r\n\r\n\tfunction isTokenIdOnSale(address token, uint256 tokenId)public view returns (bool) {\r\n\t\tfor(uint256 i = 0; i < _listingId; i++) {\r\n\t\t\tListing storage listing = _listings[i+1];\r\n\t\t\tif(listing.status == ListingStatus.Active){\r\n\t\t\t\tif(listing.token == token){\r\n\t\t\t\t\tif(listing.tokenId == tokenId){\r\n\t\t\t\t\t\treturn true;\r\n\t\t\t\t\t}\r\n\t\t\t\t}\r\n\t\t\t}\r\n        }\r\n\t\treturn false;\r\n\t}\r\n\r\n}",
  "sourcePath": "C:\\Users\\jarup\\Documents\\GitHub\\crypto-font\\contracts\\eBTCmarketplace.sol",
  "compiler": {
    "name": "solc",
    "version": "0.8.10+commit.fc410830.Emscripten.clang"
  },
  "schemaVersion": "3.4.3",
  "updatedAt": "2021-12-19T07:15:46.387Z",
  "networkType": "ethereum",
  "devdoc": {
    "kind": "dev",
    "methods": {},
    "version": 1
  },
  "userdoc": {
    "kind": "user",
    "methods": {},
    "version": 1
  }
}